{
  "contractName": "B",
  "abi": [
    {
      "inputs": [],
      "name": "stateB",
      "outputs": [
        {
          "internalType": "uint256",
          "name": "",
          "type": "uint256"
        }
      ],
      "stateMutability": "view",
      "type": "function"
    }
  ],
  "bytecode": "0x6080604052348015600f57600080fd5b50608c8061001e6000396000f3fe6080604052348015600f57600080fd5b506004361060285760003560e01c80631e9db76914602d575b600080fd5b60336047565b604051603e9190604d565b60405180910390f35b60005481565b9081526020019056fea2646970667358221220255222a6b226fd4e688cc93970488270541d2ff5b72a9fb076ec03fd6b66088564736f6c63430008000033",
  "immutableReferences": {},
  "source": "//SPDX-License-Identifier: Unlicense\npragma solidity ^0.8.0;\n\ncontract B {\n    uint public stateB;\n}\n\ncontract Test {\n    uint public state;\n    B b;\n\n    function incrementState() public {\n        state += 1;\n    }\n\n    constructor(uint s, B _b){\n        state = s;\n        b = _b;\n    }\n}",
  "sourcePath": "/home/aleksandar/ZKUniversity/ZKVoting/contracts/contracts/test.sol",
  "compiler": {
    "name": "solc",
    "version": "0.8.0+commit.c7dfd78e.Emscripten.clang"
  },
  "schemaVersion": "3.4.4",
  "updatedAt": "2022-01-28T07:54:39.919Z",
  "devdoc": {
    "kind": "dev",
    "methods": {},
    "version": 1
  },
  "userdoc": {
    "kind": "user",
    "methods": {},
    "version": 1
  }
}