{
  "contractName": "Hasher",
  "abi": [
    {
      "inputs": [
        {
          "internalType": "uint256[5]",
          "name": "array",
          "type": "uint256[5]"
        }
      ],
      "name": "hash5",
      "outputs": [
        {
          "internalType": "uint256",
          "name": "",
          "type": "uint256"
        }
      ],
      "stateMutability": "pure",
      "type": "function"
    },
    {
      "inputs": [
        {
          "internalType": "uint256[]",
          "name": "array",
          "type": "uint256[]"
        }
      ],
      "name": "hash11",
      "outputs": [
        {
          "internalType": "uint256",
          "name": "",
          "type": "uint256"
        }
      ],
      "stateMutability": "pure",
      "type": "function"
    },
    {
      "inputs": [
        {
          "internalType": "uint256",
          "name": "_left",
          "type": "uint256"
        },
        {
          "internalType": "uint256",
          "name": "_right",
          "type": "uint256"
        }
      ],
      "name": "hashLeftRight",
      "outputs": [
        {
          "internalType": "uint256",
          "name": "",
          "type": "uint256"
        }
      ],
      "stateMutability": "pure",
      "type": "function"
    }
  ],
  "bytecode": "0x608060405234801561001057600080fd5b506108d1806100206000396000f3fe608060405234801561001057600080fd5b50600436106100415760003560e01c80635bb93995146100465780638a1a52d21461006f5780639cfced9714610082575b600080fd5b61005961005436600461078f565b610095565b6040516100669190610809565b60405180910390f35b61005961007d3660046106d0565b610138565b61005961009036600461064e565b610582565b600061009f610612565b838152602081018390526040516314d2f97b60e11b815273__PoseidonT3____________________________906329a5f2f6906100e09084906004016107b0565b60206040518083038186803b1580156100f857600080fd5b505af415801561010c573d6000803e3d6000fd5b505050506040513d601f19601f820116820180604052508101906101309190610777565b949350505050565b60408051600b80825261018082019092526000918291906020820161016080368337019050509050610168610630565b610170610630565b60005b85518110156101e15785818151811061019c57634e487b7160e01b600052603260045260246000fd5b60200260200101518482815181106101c457634e487b7160e01b600052603260045260246000fd5b6020908102919091010152806101d981610854565b915050610173565b5084515b600b81101561022d57600084828151811061021057634e487b7160e01b600052603260045260246000fd5b60209081029190910101528061022581610854565b9150506101e5565b5060005b60058110156102f05783818151811061025a57634e487b7160e01b600052603260045260246000fd5b602002602001015183826005811061028257634e487b7160e01b600052603260045260246000fd5b60200201528361029382600561083c565b815181106102b157634e487b7160e01b600052603260045260246000fd5b60200260200101518282600581106102d957634e487b7160e01b600052603260045260246000fd5b6020020152806102e881610854565b915050610231565b506102f9610612565b604051630926f44b60e31b815273__PoseidonT6____________________________90634937a258906103309086906004016107e1565b60206040518083038186803b15801561034857600080fd5b505af415801561035c573d6000803e3d6000fd5b505050506040513d601f19601f820116820180604052508101906103809190610777565b8152604051630926f44b60e31b815273__PoseidonT6____________________________90634937a258906103b99085906004016107e1565b60206040518083038186803b1580156103d157600080fd5b505af41580156103e5573d6000803e3d6000fd5b505050506040513d601f19601f820116820180604052508101906104099190610777565b6020820152610416610612565b6040516314d2f97b60e11b815273__PoseidonT3____________________________906329a5f2f69061044d9085906004016107b0565b60206040518083038186803b15801561046557600080fd5b505af4158015610479573d6000803e3d6000fd5b505050506040513d601f19601f8201168201806040525081019061049d9190610777565b815284518590600a9081106104c257634e487b7160e01b600052603260045260246000fd5b6020026020010151816001600281106104eb57634e487b7160e01b600052603260045260246000fd5b60200201526040516314d2f97b60e11b815273__PoseidonT3____________________________906329a5f2f6906105279084906004016107b0565b60206040518083038186803b15801561053f57600080fd5b505af4158015610553573d6000803e3d6000fd5b505050506040513d601f19601f820116820180604052508101906105779190610777565b979650505050505050565b604051630926f44b60e31b815260009073__PoseidonT6____________________________90634937a258906105bc9085906004016107e1565b60206040518083038186803b1580156105d457600080fd5b505af41580156105e8573d6000803e3d6000fd5b505050506040513d601f19601f8201168201806040525081019061060c9190610777565b92915050565b60405180604001604052806002906020820280368337509192915050565b6040518060a001604052806005906020820280368337509192915050565b600060a0828403121561065f578081fd5b82601f83011261066d578081fd5b60405160a0810181811067ffffffffffffffff8211171561069057610690610885565b604052808360a081018610156106a4578384fd5b835b60058110156106c55781358352602092830192909101906001016106a6565b509195945050505050565b600060208083850312156106e2578182fd5b823567ffffffffffffffff808211156106f9578384fd5b818501915085601f83011261070c578384fd5b81358181111561071e5761071e610885565b838102915061072e848301610812565b8181528481019084860184860187018a1015610748578788fd5b8795505b8386101561076a57803583526001959095019491860191860161074c565b5098975050505050505050565b600060208284031215610788578081fd5b5051919050565b600080604083850312156107a1578081fd5b50508035926020909101359150565b60408101818360005b60028110156107d85781518352602092830192909101906001016107b9565b50505092915050565b60a08101818360005b60058110156107d85781518352602092830192909101906001016107ea565b90815260200190565b60405181810167ffffffffffffffff8111828210171561083457610834610885565b604052919050565b6000821982111561084f5761084f61086f565b500190565b60006000198214156108685761086861086f565b5060010190565b634e487b7160e01b600052601160045260246000fd5b634e487b7160e01b600052604160045260246000fdfea26469706673582212207adb90755e0c09870b174b7dbef5d0745c2ffe13f1c588847129c776e7bab8e464736f6c63430008000033",
  "immutableReferences": {},
  "source": "//SPDX-License-Identifier: Unlicense\npragma solidity ^0.8.0;\n\nimport {PoseidonT3, PoseidonT6} from \"./Poseidon.sol\";\nimport { SnarkConstants } from \"./SnarkConstants.sol\";\n\n/*\n * Poseidon hash functions for 2, 5, and 11 input elements.\n */\ncontract Hasher is SnarkConstants {\n    function hash5(uint256[5] memory array) public pure returns (uint256) {\n        return PoseidonT6.poseidon(array);\n    }\n\n    function hash11(uint256[] memory array) public pure returns (uint256) {\n        uint256[] memory input11 = new uint256[](11);\n        uint256[5] memory first5;\n        uint256[5] memory second5;\n        for (uint256 i = 0; i < array.length; i++) {\n            input11[i] = array[i];\n        }\n\n        for (uint256 i = array.length; i < 11; i++) {\n            input11[i] = 0;\n        }\n\n        for (uint256 i = 0; i < 5; i++) {\n            first5[i] = input11[i];\n            second5[i] = input11[i + 5];\n        }\n\n        uint256[2] memory first2;\n        first2[0] = PoseidonT6.poseidon(first5);\n        first2[1] = PoseidonT6.poseidon(second5);\n        uint256[2] memory second2;\n        second2[0] = PoseidonT3.poseidon(first2);\n        second2[1] = input11[10];\n        return PoseidonT3.poseidon(second2);\n    }\n\n    function hashLeftRight(uint256 _left, uint256 _right)\n        public\n        pure\n        returns (uint256)\n    {\n        uint256[2] memory input;\n        input[0] = _left;\n        input[1] = _right;\n        return PoseidonT3.poseidon(input);\n    }\n}",
  "sourcePath": "/home/aleksandar/ZKUniversity/ZKVoting/contracts/contracts/Hasher.sol",
  "compiler": {
    "name": "solc",
    "version": "0.8.0+commit.c7dfd78e.Emscripten.clang"
  },
  "schemaVersion": "3.4.4",
  "updatedAt": "2022-01-26T17:09:10.838Z",
  "devdoc": {
    "kind": "dev",
    "methods": {},
    "version": 1
  },
  "userdoc": {
    "kind": "user",
    "methods": {},
    "version": 1
  }
}