{
  "contractName": "IncrementalQuinTree",
  "abi": [
    {
      "inputs": [
        {
          "internalType": "uint8",
          "name": "_treeLevels",
          "type": "uint8"
        },
        {
          "internalType": "uint256",
          "name": "_zeroValue",
          "type": "uint256"
        }
      ],
      "stateMutability": "nonpayable",
      "type": "constructor"
    },
    {
      "anonymous": false,
      "inputs": [
        {
          "indexed": true,
          "internalType": "uint256",
          "name": "leaf",
          "type": "uint256"
        },
        {
          "indexed": true,
          "internalType": "uint256",
          "name": "leafIndex",
          "type": "uint256"
        }
      ],
      "name": "LeafInsertion",
      "type": "event"
    },
    {
      "anonymous": false,
      "inputs": [
        {
          "indexed": true,
          "internalType": "address",
          "name": "previousOwner",
          "type": "address"
        },
        {
          "indexed": true,
          "internalType": "address",
          "name": "newOwner",
          "type": "address"
        }
      ],
      "name": "OwnershipTransferred",
      "type": "event"
    },
    {
      "inputs": [
        {
          "internalType": "uint256[]",
          "name": "array",
          "type": "uint256[]"
        }
      ],
      "name": "hash11",
      "outputs": [
        {
          "internalType": "uint256",
          "name": "",
          "type": "uint256"
        }
      ],
      "stateMutability": "pure",
      "type": "function"
    },
    {
      "inputs": [
        {
          "internalType": "uint256[5]",
          "name": "array",
          "type": "uint256[5]"
        }
      ],
      "name": "hash5",
      "outputs": [
        {
          "internalType": "uint256",
          "name": "",
          "type": "uint256"
        }
      ],
      "stateMutability": "pure",
      "type": "function"
    },
    {
      "inputs": [
        {
          "internalType": "uint256",
          "name": "_left",
          "type": "uint256"
        },
        {
          "internalType": "uint256",
          "name": "_right",
          "type": "uint256"
        }
      ],
      "name": "hashLeftRight",
      "outputs": [
        {
          "internalType": "uint256",
          "name": "",
          "type": "uint256"
        }
      ],
      "stateMutability": "pure",
      "type": "function"
    },
    {
      "inputs": [],
      "name": "isOwner",
      "outputs": [
        {
          "internalType": "bool",
          "name": "",
          "type": "bool"
        }
      ],
      "stateMutability": "view",
      "type": "function"
    },
    {
      "inputs": [],
      "name": "owner",
      "outputs": [
        {
          "internalType": "address",
          "name": "",
          "type": "address"
        }
      ],
      "stateMutability": "view",
      "type": "function"
    },
    {
      "inputs": [],
      "name": "renounceOwnership",
      "outputs": [],
      "stateMutability": "nonpayable",
      "type": "function"
    },
    {
      "inputs": [],
      "name": "root",
      "outputs": [
        {
          "internalType": "uint256",
          "name": "",
          "type": "uint256"
        }
      ],
      "stateMutability": "view",
      "type": "function"
    },
    {
      "inputs": [
        {
          "internalType": "uint256",
          "name": "",
          "type": "uint256"
        }
      ],
      "name": "rootHistory",
      "outputs": [
        {
          "internalType": "bool",
          "name": "",
          "type": "bool"
        }
      ],
      "stateMutability": "view",
      "type": "function"
    },
    {
      "inputs": [
        {
          "internalType": "address",
          "name": "newOwner",
          "type": "address"
        }
      ],
      "name": "transferOwnership",
      "outputs": [],
      "stateMutability": "nonpayable",
      "type": "function"
    },
    {
      "inputs": [
        {
          "internalType": "uint256",
          "name": "_leaf",
          "type": "uint256"
        }
      ],
      "name": "insertLeaf",
      "outputs": [
        {
          "internalType": "uint256",
          "name": "",
          "type": "uint256"
        }
      ],
      "stateMutability": "nonpayable",
      "type": "function"
    }
  ],
  "bytecode": "0x608060405260006001553480156200001657600080fd5b506040516200138d3803806200138d833981016040819052620000399162000259565b600080546001600160a01b03191633178082556040516001600160a01b039190911691907f8be0079c531659141344cd1fd0a4f28419497f9722a3daafe3b4186f6b6457e0908290a360008260ff161180156200009a5750602060ff831611155b620000c25760405162461bcd60e51b8152600401620000b990620002c0565b60405180910390fd5b6000805460ff60a01b1916600160a01b60ff85160217905580620000e562000222565b60005b8460ff168160ff1610156200017e5760005b600560ff82161015620001465783838260ff16600581106200012c57634e487b7160e01b600052603260045260246000fd5b6020020152806200013d816200031d565b915050620000fa565b5060ff8116600090815260036020526040902083905562000167826200018c565b92508062000175816200031d565b915050620000e8565b5050600255506200034a9050565b604051630926f44b60e31b815260009073__PoseidonT6____________________________90634937a25890620001c89085906004016200028d565b60206040518083038186803b158015620001e157600080fd5b505af4158015620001f6573d6000803e3d6000fd5b505050506040513d601f19601f820116820180604052508101906200021c919062000240565b92915050565b6040518060a001604052806005906020820280368337509192915050565b60006020828403121562000252578081fd5b5051919050565b600080604083850312156200026c578081fd5b825160ff811681146200027d578182fd5b6020939093015192949293505050565b60a08101818360005b6005811015620002b757815183526020928301929091019060010162000296565b50505092915050565b60208082526039908201527f496e6372656d656e74616c5175696e547265653a205f747265654c6576656c7360408201527f206d757374206265206265747765656e203020616e6420333300000000000000606082015260800190565b600060ff821660ff8114156200034157634e487b7160e01b82526011600452602482fd5b60010192915050565b611033806200035a6000396000f3fe608060405234801561001057600080fd5b506004361061009e5760003560e01c80639cfced97116100665780639cfced9714610113578063b720243414610126578063ebf0c71714610139578063f1c621ee14610141578063f2fde38b146101545761009e565b80635bb93995146100a3578063715018a6146100cc5780638a1a52d2146100d65780638da5cb5b146100e95780638f32d59b146100fe575b600080fd5b6100b66100b1366004610c39565b610167565b6040516100c39190610df9565b60405180910390f35b6100d461020a565b005b6100b66100e4366004610b62565b610281565b6100f16106cb565b6040516100c39190610c5a565b6101066106da565b6040516100c39190610cc7565b6100b6610121366004610ae0565b6106eb565b6100b6610134366004610c09565b61077b565b6100b66109aa565b61010661014f366004610c09565b6109b0565b6100d4610162366004610ab2565b6109c5565b6000610171610a76565b838152602081018390526040516314d2f97b60e11b815273__PoseidonT3____________________________906329a5f2f6906101b2908490600401610c6e565b60206040518083038186803b1580156101ca57600080fd5b505af41580156101de573d6000803e3d6000fd5b505050506040513d601f19601f820116820180604052508101906102029190610c21565b949350505050565b6102126106da565b6102375760405162461bcd60e51b815260040161022e90610d83565b60405180910390fd5b600080546040516001600160a01b03909116907f8be0079c531659141344cd1fd0a4f28419497f9722a3daafe3b4186f6b6457e0908390a3600080546001600160a01b0319169055565b60408051600b808252610180820190925260009182919060208201610160803683370190505090506102b1610a94565b6102b9610a94565b60005b855181101561032a578581815181106102e557634e487b7160e01b600052603260045260246000fd5b602002602001015184828151811061030d57634e487b7160e01b600052603260045260246000fd5b60209081029190910101528061032281610f6c565b9150506102bc565b5084515b600b81101561037657600084828151811061035957634e487b7160e01b600052603260045260246000fd5b60209081029190910101528061036e81610f6c565b91505061032e565b5060005b6005811015610439578381815181106103a357634e487b7160e01b600052603260045260246000fd5b60200260200101518382600581106103cb57634e487b7160e01b600052603260045260246000fd5b6020020152836103dc826005610e2c565b815181106103fa57634e487b7160e01b600052603260045260246000fd5b602002602001015182826005811061042257634e487b7160e01b600052603260045260246000fd5b60200201528061043181610f6c565b91505061037a565b50610442610a76565b604051630926f44b60e31b815273__PoseidonT6____________________________90634937a25890610479908690600401610c9f565b60206040518083038186803b15801561049157600080fd5b505af41580156104a5573d6000803e3d6000fd5b505050506040513d601f19601f820116820180604052508101906104c99190610c21565b8152604051630926f44b60e31b815273__PoseidonT6____________________________90634937a25890610502908590600401610c9f565b60206040518083038186803b15801561051a57600080fd5b505af415801561052e573d6000803e3d6000fd5b505050506040513d601f19601f820116820180604052508101906105529190610c21565b602082015261055f610a76565b6040516314d2f97b60e11b815273__PoseidonT3____________________________906329a5f2f690610596908590600401610c6e565b60206040518083038186803b1580156105ae57600080fd5b505af41580156105c2573d6000803e3d6000fd5b505050506040513d601f19601f820116820180604052508101906105e69190610c21565b815284518590600a90811061060b57634e487b7160e01b600052603260045260246000fd5b60200260200101518160016002811061063457634e487b7160e01b600052603260045260246000fd5b60200201526040516314d2f97b60e11b815273__PoseidonT3____________________________906329a5f2f690610670908490600401610c6e565b60206040518083038186803b15801561068857600080fd5b505af415801561069c573d6000803e3d6000fd5b505050506040513d601f19601f820116820180604052508101906106c09190610c21565b979650505050505050565b6000546001600160a01b031690565b6000546001600160a01b0316331490565b604051630926f44b60e31b815260009073__PoseidonT6____________________________90634937a25890610725908590600401610c9f565b60206040518083038186803b15801561073d57600080fd5b505af4158015610751573d6000803e3d6000fd5b505050506040513d601f19601f820116820180604052508101906107759190610c21565b92915050565b60007f30644e72e131a029b85045b68181585d2833e84879b9709143e1f593f000000182106107bc5760405162461bcd60e51b815260040161022e90610d18565b6000546107d490600160a01b900460ff166005610e9e565b600154106107f45760405162461bcd60e51b815260040161022e90610db8565b60015482610800610a94565b600061080d600585610fa7565b905060005b60005460ff600160a01b9091048116908216101561093c578161087c5760015b600560ff8216101561087a5760ff808316600090815260036020908152604080832054600483528184209486168452939091529020558061087281610f87565b915050610832565b505b60ff8116600090815260046020908152604080832085845290915281208590555b600560ff821610156109045760ff808316600090815260046020908152604080832093851680845293909152902054908590600581106108ed57634e487b7160e01b600052603260045260246000fd5b6020020152806108fc81610f87565b91505061089d565b5061090e836106eb565b935061091b600586610e44565b9450610928600586610fa7565b91508061093481610f87565b915050610812565b5060028390556000838152600560205260408120805460ff19166001908117909155805491819061096d8285610e2c565b9091555050604051819088907fe6f49fa84abd31919f446b22a52bb3ceae774b4b87f062f022fec45c46f4f45890600090a3509295945050505050565b60025481565b60056020526000908152604090205460ff1681565b6109cd6106da565b6109e95760405162461bcd60e51b815260040161022e90610d83565b6109f2816109f5565b50565b6001600160a01b038116610a1b5760405162461bcd60e51b815260040161022e90610cd2565b600080546040516001600160a01b03808516939216917f8be0079c531659141344cd1fd0a4f28419497f9722a3daafe3b4186f6b6457e091a3600080546001600160a01b0319166001600160a01b0392909216919091179055565b60405180604001604052806002906020820280368337509192915050565b6040518060a001604052806005906020820280368337509192915050565b600060208284031215610ac3578081fd5b81356001600160a01b0381168114610ad9578182fd5b9392505050565b600060a08284031215610af1578081fd5b82601f830112610aff578081fd5b60405160a0810181811067ffffffffffffffff82111715610b2257610b22610fe7565b604052808360a08101861015610b36578384fd5b835b6005811015610b57578135835260209283019290910190600101610b38565b509195945050505050565b60006020808385031215610b74578182fd5b823567ffffffffffffffff80821115610b8b578384fd5b818501915085601f830112610b9e578384fd5b813581811115610bb057610bb0610fe7565b8381029150610bc0848301610e02565b8181528481019084860184860187018a1015610bda578788fd5b8795505b83861015610bfc578035835260019590950194918601918601610bde565b5098975050505050505050565b600060208284031215610c1a578081fd5b5035919050565b600060208284031215610c32578081fd5b5051919050565b60008060408385031215610c4b578081fd5b50508035926020909101359150565b6001600160a01b0391909116815260200190565b60408101818360005b6002811015610c96578151835260209283019290910190600101610c77565b50505092915050565b60a08101818360005b6005811015610c96578151835260209283019290910190600101610ca8565b901515815260200190565b60208082526026908201527f4f776e61626c653a206e6577206f776e657220697320746865207a65726f206160408201526564647265737360d01b606082015260800190565b60208082526045908201527f496e6372656d656e74616c5175696e547265653a20696e736572744c6561662060408201527f617267756d656e74206d757374206265203c20534e41524b5f5343414c41525f606082015264119251531160da1b608082015260a00190565b6020808252818101527f4f776e61626c653a2063616c6c6572206973206e6f7420746865206f776e6572604082015260600190565b60208082526021908201527f496e6372656d656e74616c5175696e547265653a20747265652069732066756c6040820152601b60fa1b606082015260800190565b90815260200190565b60405181810167ffffffffffffffff81118282101715610e2457610e24610fe7565b604052919050565b60008219821115610e3f57610e3f610fbb565b500190565b600082610e5357610e53610fd1565b500490565b80825b6001808611610e6a5750610e95565b818704821115610e7c57610e7c610fbb565b80861615610e8957918102915b9490941c938002610e5b565b94509492505050565b6000610ad96000198484600082610eb757506001610ad9565b81610ec457506000610ad9565b8160018114610eda5760028114610ee457610f11565b6001915050610ad9565b60ff841115610ef557610ef5610fbb565b6001841b915084821115610f0b57610f0b610fbb565b50610ad9565b5060208310610133831016604e8410600b8410161715610f44575081810a83811115610f3f57610f3f610fbb565b610ad9565b610f518484846001610e58565b808604821115610f6357610f63610fbb565b02949350505050565b6000600019821415610f8057610f80610fbb565b5060010190565b600060ff821660ff811415610f9e57610f9e610fbb565b60010192915050565b600082610fb657610fb6610fd1565b500690565b634e487b7160e01b600052601160045260246000fd5b634e487b7160e01b600052601260045260246000fd5b634e487b7160e01b600052604160045260246000fdfea2646970667358221220ab6bdaca38657eaf93c7c3b5722a4600355ad0a4eb03eab52a8c5bdd46b5460364736f6c63430008000033",
  "immutableReferences": {},
  "source": "//SPDX-License-Identifier: Unlicense\npragma solidity ^0.8.0;\n\nimport { SnarkConstants } from \"./SnarkConstants.sol\";\nimport { Hasher } from \"./Hasher.sol\";\nimport { Ownable } from \"./Ownable.sol\";\n\n/*\n * An incremental Merkle tree which supports up to 5 leaves per node.\n */\ncontract IncrementalQuinTree is Ownable, Hasher {\n    // The maximum tree depth\n    uint8 internal constant MAX_DEPTH = 32;\n\n    // The number of leaves per node\n    uint8 internal constant LEAVES_PER_NODE = 5;\n\n    // The tree depth\n    uint8 internal treeLevels;\n\n    // The number of inserted leaves\n    uint256 internal nextLeafIndex = 0;\n\n    // The Merkle root\n    uint256 public root;\n\n    // The zero value per level\n    mapping (uint256 => uint256) internal zeros;\n\n    // Allows you to compute the path to the element (but it's not the path to\n    // the elements). Caching these values is essential to efficient appends.\n    mapping (uint256 => mapping (uint256 => uint256)) internal filledSubtrees;\n\n    // Whether the contract has already seen a particular Merkle tree root\n    mapping (uint256 => bool) public rootHistory;\n\n    event LeafInsertion(uint256 indexed leaf, uint256 indexed leafIndex);\n\n    /*\n     * Stores the Merkle root and intermediate values (the Merkle path to the\n     * the first leaf) assuming that all leaves are set to _zeroValue.\n     * @param _treeLevels The number of levels of the tree\n     * @param _zeroValue The value to set for every leaf. Ideally, this should\n     *                   be a nothing-up-my-sleeve value, so that nobody can\n     *                   say that the deployer knows the preimage of an empty\n     *                   leaf.\n     */\n    constructor(uint8 _treeLevels, uint256 _zeroValue) {\n        // Limit the Merkle tree to MAX_DEPTH levels\n        require(\n            _treeLevels > 0 && _treeLevels <= MAX_DEPTH,\n            \"IncrementalQuinTree: _treeLevels must be between 0 and 33\"\n        );\n        \n        /*\n           To initialise the Merkle tree, we need to calculate the Merkle root\n           assuming that each leaf is the zero value.\n           `zeros` and `filledSubtrees` will come in handy later when we do\n           inserts or updates. e.g when we insert a value in index 1, we will\n           need to look up values from those arrays to recalculate the Merkle\n           root.\n         */\n        treeLevels = _treeLevels;\n\n        uint256 currentZero = _zeroValue;\n\n        // hash5 requires a uint256[] memory input, so we have to use temp\n        uint256[LEAVES_PER_NODE] memory temp;\n\n        for (uint8 i = 0; i < _treeLevels; i++) {\n            for (uint8 j = 0; j < LEAVES_PER_NODE; j ++) {\n                temp[j] = currentZero;\n            }\n\n            zeros[i] = currentZero;\n            currentZero = hash5(temp);\n        }\n\n        root = currentZero;\n    }\n\n    /*\n     * Inserts a leaf into the Merkle tree and updates its root.\n     * Also updates the cached values which the contract requires for efficient\n     * insertions.\n     * @param _leaf The value to insert. It must be less than the snark scalar\n     *              field or this function will throw.\n     * @return The leaf index.\n     */\n    function insertLeaf(uint256 _leaf) public returns (uint256) {\n        require(\n            _leaf < SNARK_SCALAR_FIELD,\n            \"IncrementalQuinTree: insertLeaf argument must be < SNARK_SCALAR_FIELD\"\n        );\n\n        // Ensure that the tree is not full\n        require(\n            nextLeafIndex < uint256(LEAVES_PER_NODE) ** uint256(treeLevels),\n            \"IncrementalQuinTree: tree is full\"\n        );\n\n        uint256 currentIndex = nextLeafIndex;\n\n        uint256 currentLevelHash = _leaf;\n        \n\n        // hash5 requires a uint256[] memory input, so we have to use temp\n        uint256[LEAVES_PER_NODE] memory temp;\n\n        // The leaf's relative position within its node\n        uint256 m = currentIndex % LEAVES_PER_NODE;\n\n        for (uint8 i = 0; i < treeLevels; i++) {\n            // If the leaf is at relative index 0, zero out the level in\n            // filledSubtrees\n            if (m == 0) {\n                for (uint8 j = 1; j < LEAVES_PER_NODE; j ++) {\n                    filledSubtrees[i][j] = zeros[i];\n                }\n            }\n\n            // Set the leaf in filledSubtrees\n            filledSubtrees[i][m] = currentLevelHash;\n\n            // Hash the level\n            for (uint8 j = 0; j < LEAVES_PER_NODE; j ++) {\n                temp[j] = filledSubtrees[i][j];\n            }\n            currentLevelHash = hash5(temp);\n\n\n            currentIndex /= LEAVES_PER_NODE;\n            m = currentIndex % LEAVES_PER_NODE;\n        }\n\n        root = currentLevelHash;\n        rootHistory[root] = true; \n\n\n        uint256 n = nextLeafIndex;\n        nextLeafIndex += 1;\n\n        emit LeafInsertion(_leaf, n);\n\n        return currentIndex;\n    }\n}",
  "sourcePath": "/home/aleksandar/ZKUniversity/ZKVoting/contracts/contracts/IncrementalMerkleTree.sol",
  "compiler": {
    "name": "solc",
    "version": "0.8.0+commit.c7dfd78e.Emscripten.clang"
  },
  "schemaVersion": "3.4.4",
  "updatedAt": "2022-01-30T11:28:57.993Z",
  "devdoc": {
    "kind": "dev",
    "methods": {
      "isOwner()": {
        "details": "Returns true if the caller is the current owner."
      },
      "owner()": {
        "details": "Returns the address of the current owner."
      },
      "renounceOwnership()": {
        "details": "Leaves the contract without owner. It will not be possible to call `onlyOwner` functions anymore. Can only be called by the current owner. > Note: Renouncing ownership will leave the contract without an owner, thereby removing any functionality that is only available to the owner."
      },
      "transferOwnership(address)": {
        "details": "Transfers ownership of the contract to a new account (`newOwner`). Can only be called by the current owner."
      }
    },
    "version": 1
  },
  "userdoc": {
    "kind": "user",
    "methods": {},
    "version": 1
  }
}