{
  "contractName": "IncrementalMerkleTree",
  "abi": [
    {
      "inputs": [
        {
          "internalType": "uint8",
          "name": "_treeLevels",
          "type": "uint8"
        },
        {
          "internalType": "uint256",
          "name": "_zeroValue",
          "type": "uint256"
        }
      ],
      "stateMutability": "nonpayable",
      "type": "constructor"
    },
    {
      "anonymous": false,
      "inputs": [
        {
          "indexed": true,
          "internalType": "uint256",
          "name": "leaf",
          "type": "uint256"
        },
        {
          "indexed": true,
          "internalType": "uint256",
          "name": "leafIndex",
          "type": "uint256"
        }
      ],
      "name": "LeafInsertion",
      "type": "event"
    },
    {
      "anonymous": false,
      "inputs": [
        {
          "indexed": false,
          "internalType": "uint256",
          "name": "root",
          "type": "uint256"
        }
      ],
      "name": "NewRoot",
      "type": "event"
    },
    {
      "inputs": [],
      "name": "root",
      "outputs": [
        {
          "internalType": "uint256",
          "name": "",
          "type": "uint256"
        }
      ],
      "stateMutability": "view",
      "type": "function"
    },
    {
      "inputs": [
        {
          "internalType": "uint256",
          "name": "",
          "type": "uint256"
        }
      ],
      "name": "rootHistory",
      "outputs": [
        {
          "internalType": "bool",
          "name": "",
          "type": "bool"
        }
      ],
      "stateMutability": "view",
      "type": "function"
    },
    {
      "inputs": [],
      "name": "getRoots",
      "outputs": [
        {
          "internalType": "uint256[10]",
          "name": "",
          "type": "uint256[10]"
        }
      ],
      "stateMutability": "view",
      "type": "function"
    }
  ],
  "bytecode": "0x6080604052600060015534801561001557600080fd5b506040516105093803806105098339810160408190526100349161028e565b60008260ff1611801561004b5750602060ff831611155b6100705760405162461bcd60e51b8152600401610067906102c0565b60405180910390fd5b6000805460ff191660ff84161781558190600d01558060015b8360ff168160ff1610156101075760006100a3838061011e565b905080600d8360ff16602081106100ca57634e487b7160e01b600052603260045260246000fd5b015580602d60ff8416602081106100f157634e487b7160e01b600052603260045260246000fd5b01559150806100ff8161032b565b915050610089565b50610112818061011e565b600c5550610357915050565b60405163f47d33b560e01b81526000908390829073__MiMC__________________________________9063f47d33b59061015e908590859060040161031d565b604080518083038186803b15801561017557600080fd5b505af4158015610189573d6000803e3d6000fd5b505050506040513d601f19601f820116820180604052508101906101ad919061026b565b90925090507f30644e72e131a029b85045b68181585d2833e84879b9709143e1f593f000000184830860405163f47d33b560e01b815290925073__MiMC__________________________________9063f47d33b590610212908590859060040161031d565b604080518083038186803b15801561022957600080fd5b505af415801561023d573d6000803e3d6000fd5b505050506040513d601f19601f82011682018060405250810190610261919061026b565b5095945050505050565b6000806040838503121561027d578182fd5b505080516020909101519092909150565b600080604083850312156102a0578182fd5b825160ff811681146102b0578283fd5b6020939093015192949293505050565b6020808252603b908201527f496e6372656d656e74616c4d65726b6c65547265653a205f747265654c65766560408201527f6c73206d757374206265206265747765656e203020616e642033330000000000606082015260800190565b918252602082015260400190565b600060ff821660ff81141561034e57634e487b7160e01b82526011600452602482fd5b60010192915050565b6101a3806103666000396000f3fe608060405234801561001057600080fd5b50600436106100415760003560e01c806335a5e06d14610046578063ebf0c71714610064578063f1c621ee14610079575b600080fd5b61004e610099565b60405161005b9190610127565b60405180910390f35b61006c6100d5565b60405161005b9190610164565b61008c61008736600461010f565b6100db565b60405161005b9190610159565b6100a16100f0565b6040805161014081019182905290600290600a9082845b8154815260200190600101908083116100b8575050505050905090565b600c5481565b604d6020526000908152604090205460ff1681565b604051806101400160405280600a906020820280368337509192915050565b600060208284031215610120578081fd5b5035919050565b6101408101818360005b600a811015610150578151835260209283019290910190600101610131565b50505092915050565b901515815260200190565b9081526020019056fea26469706673582212201b6dd3582c2126864a10a7172049830f9c57f86039f7a9bb8587b6661ddd420564736f6c63430008000033",
  "immutableReferences": {},
  "source": "/*\n * Semaphore - Zero-knowledge signaling on Ethereum\n * Copyright (C) 2020 Barry WhiteHat <barrywhitehat@protonmail.com>, Kobi\n * Gurkan <kobigurk@gmail.com> and Koh Wei Jie (contact@kohweijie.com)\n *\n * This file is part of Semaphore.\n *\n * Semaphore is free software: you can redistribute it and/or modify\n * it under the terms of the GNU General Public License as published by\n * the Free Software Foundation, either version 3 of the License, or\n * (at your option) any later version.\n *\n * Semaphore is distributed in the hope that it will be useful,\n * but WITHOUT ANY WARRANTY; without even the implied warranty of\n * MERCHANTABILITY or FITNESS FOR A PARTICULAR PURPOSE.  See the\n * GNU General Public License for more details.\n *\n * You should have received a copy of the GNU General Public License\n * along with Semaphore.  If not, see <http://www.gnu.org/licenses/>.\n */\n\npragma solidity ^0.8.0;\n\n// import { SnarkConstants } from \"./SnarkConstants.sol\";\nimport { MiMC } from \"./MiMC.sol\";\n\ncontract IncrementalMerkleTree  {\n    uint256 constant SNARK_SCALAR_FIELD_2 = 21888242871839275222246405745257275088548364400416034343698204186575808495617;\n\n    // The maximum tree depth\n    uint8 internal constant MAX_DEPTH = 32;\n\n    // The tree depth\n    uint8 internal treeLevels;\n\n    // The number of inserted leaves\n    uint256 internal nextLeafIndex = 0;\n\n    uint256[10] rootList;\n\n    // The Merkle root\n    uint256 public root;\n\n    // The Merkle path to the leftmost leaf upon initialisation. It *should\n    // not* be modified after it has been set by the `initMerkleTree` function.\n    // Caching these values is essential to efficient appends.\n    uint256[MAX_DEPTH] internal zeros;\n\n    // Allows you to compute the path to the element (but it's not the path to\n    // the elements). Caching these values is essential to efficient appends.\n    uint256[MAX_DEPTH] internal filledSubtrees;\n\n    // Whether the contract has already seen a particular Merkle tree root\n    mapping (uint256 => bool) public rootHistory;\n\n    function getRoots() public view returns(uint256[10] memory){\n        return rootList;\n    }\n    \n\n    event LeafInsertion(uint256 indexed leaf, uint256 indexed leafIndex);\n\n    /*\n     * Stores the Merkle root and intermediate values (the Merkle path to the\n     * the first leaf) assuming that all leaves are set to _zeroValue.\n     * @param _treeLevels The number of levels of the tree\n     * @param _zeroValue The value to set for every leaf. Ideally, this should\n     *                   be a nothing-up-my-sleeve value, so that nobody can\n     *                   say that the deployer knows the preimage of an empty\n     *                   leaf.\n     */\n    constructor(uint8 _treeLevels, uint256 _zeroValue) public {\n        // Limit the Merkle tree to MAX_DEPTH levels\n        require(\n            _treeLevels > 0 && _treeLevels <= MAX_DEPTH,\n            \"IncrementalMerkleTree: _treeLevels must be between 0 and 33\"\n        );\n        \n        /*\n           To initialise the Merkle tree, we need to calculate the Merkle root\n           assuming that each leaf is the zero value.\n\n            H(H(a,b), H(c,d))\n             /             \\\n            H(a,b)        H(c,d)\n             /   \\        /    \\\n            a     b      c      d\n\n           `zeros` and `filledSubtrees` will come in handy later when we do\n           inserts or updates. e.g when we insert a value in index 1, we will\n           need to look up values from those arrays to recalculate the Merkle\n           root.\n         */\n        treeLevels = _treeLevels;\n\n        zeros[0] = _zeroValue;\n\n        uint256 currentZero = _zeroValue;\n        for (uint8 i = 1; i < _treeLevels; i++) {\n            uint256 hashed = hashLeftRight(currentZero, currentZero);\n            zeros[i] = hashed;\n            filledSubtrees[i] = hashed;\n            currentZero = hashed;\n        }\n\n        root = hashLeftRight(currentZero, currentZero);\n    }\n\n    event NewRoot(uint256 root);\n    /*\n     * Inserts a leaf into the Merkle tree and updates the root and filled\n     * subtrees.\n     * @param _leaf The value to insert. It must be less than the snark scalar\n     *              field or this function will throw.\n     * @return The leaf index.\n     */\n    function insertLeaf(uint256 _leaf) internal returns (uint256) {\n        require(\n            _leaf < SNARK_SCALAR_FIELD_2,\n            \"IncrementalMerkleTree: insertLeaf argument must be < SNARK_SCALAR_FIELD\"\n        );\n\n        uint256 currentIndex = nextLeafIndex;\n\n        uint256 depth = uint256(treeLevels);\n        require(currentIndex < uint256(2) ** depth, \"IncrementalMerkleTree: tree is full\");\n\n        uint256 currentLevelHash = _leaf;\n        uint256 left;\n        uint256 right;\n\n        for (uint8 i = 0; i < treeLevels; i++) {\n            // if current_index is 5, for instance, over the iterations it will\n            // look like this: 5, 2, 1, 0, 0, 0 ...\n\n            if (currentIndex % 2 == 0) {\n                // For later values of `i`, use the previous hash as `left`, and\n                // the (hashed) zero value for `right`\n                left = currentLevelHash;\n                right = zeros[i];\n\n                filledSubtrees[i] = currentLevelHash;\n            } else {\n                left = filledSubtrees[i];\n                right = currentLevelHash;\n            }\n\n            currentLevelHash = hashLeftRight(left, right);\n\n            // equivalent to currentIndex /= 2;\n            currentIndex >>= 1;\n            // currentIndex /= 2;\n        }\n\n        root = currentLevelHash;\n        rootHistory[root] = true;\n        \n        emit NewRoot(root);\n        rootList[nextLeafIndex] = root;\n\n        uint256 n = nextLeafIndex;\n        nextLeafIndex += 1;\n\n        emit LeafInsertion(_leaf, n);\n\n        return currentIndex;\n    }\n\n    /*\n     * Concatenates and hashes two `uint256` values (left and right) using\n     * a combination of MiMCSponge and `addmod`.\n     * @param _left The first value\n     * @param _right The second value\n     * @return The uint256 hash of _left and _right\n     */\n    function hashLeftRight(uint256 _left, uint256 _right) internal pure returns (uint256) {\n\n        // Solidity documentation states:\n        // `addmod(uint x, uint y, uint k) returns (uint)`:\n        // compute (x + y) % k where the addition is performed with arbitrary\n        // precision and does not wrap around at 2**256. Assert that k != 0\n        // starting from version 0.5.0.\n\n        uint256 R = _left;\n        uint256 C = 0;\n\n        (R, C) = MiMC.MiMCSponge(R, 0);\n\n        R = addmod(R, _right, SNARK_SCALAR_FIELD_2);\n        (R, C) = MiMC.MiMCSponge(R, C);\n\n        return R;\n    }\n}\n",
  "sourcePath": "/home/aleksandar/ZKUniversity/ZKVoting/contracts/contracts/IncrementalMerkleTree.sol",
  "compiler": {
    "name": "solc",
    "version": "0.8.0+commit.c7dfd78e.Emscripten.clang"
  },
  "schemaVersion": "3.4.4",
  "updatedAt": "2022-02-05T09:18:29.365Z",
  "devdoc": {
    "kind": "dev",
    "methods": {},
    "version": 1
  },
  "userdoc": {
    "kind": "user",
    "methods": {},
    "version": 1
  }
}