{
  "contractName": "MiMC",
  "abi": [
    {
      "inputs": [
        {
          "internalType": "uint256",
          "name": "in_xL",
          "type": "uint256"
        },
        {
          "internalType": "uint256",
          "name": "in_xR",
          "type": "uint256"
        }
      ],
      "name": "MiMCSponge",
      "outputs": [
        {
          "internalType": "uint256",
          "name": "xL",
          "type": "uint256"
        },
        {
          "internalType": "uint256",
          "name": "xR",
          "type": "uint256"
        }
      ],
      "stateMutability": "pure",
      "type": "function",
      "constant": true
    }
  ],
  "bytecode": "0x60c9610039600b82828239805160001a60731461002c57634e487b7160e01b600052600060045260246000fd5b30600052607381538281f3fe730000000000000000000000000000000000000000301460806040526004361060335760003560e01c8063f47d33b5146038575b600080fd5b604760433660046065565b605c565b60405160539291906085565b60405180910390f35b50600091829150565b600080604083850312156076578182fd5b50508035926020909101359150565b91825260208201526040019056fea2646970667358221220fb350f83fc9458c1733b516cd5f0ada85c6ef0ae87753d1bab3151f71d18dd8a64736f6c63430008000033",
  "immutableReferences": {},
  "source": "/*\n * Semaphore - Zero-knowledge signaling on Ethereum\n * Copyright (C) 2020 Barry WhiteHat <barrywhitehat@protonmail.com>, Kobi\n * Gurkan <kobigurk@gmail.com> and Koh Wei Jie (contact@kohweijie.com)\n *\n * This file is part of Semaphore.\n *\n * Semaphore is free software: you can redistribute it and/or modify\n * it under the terms of the GNU General Public License as published by\n * the Free Software Foundation, either version 3 of the License, or\n * (at your option) any later version.\n *\n * Semaphore is distributed in the hope that it will be useful,\n * but WITHOUT ANY WARRANTY; without even the implied warranty of\n * MERCHANTABILITY or FITNESS FOR A PARTICULAR PURPOSE.  See the\n * GNU General Public License for more details.\n *\n * You should have received a copy of the GNU General Public License\n * along with Semaphore.  If not, see <http://www.gnu.org/licenses/>.\n */\n\npragma solidity ^0.8.0;\n\nlibrary MiMC {\n    // Note that this function could also be called \"MiMCFeistel\", but we name\n    // it \"MiMCSponge\" for consistency.\n    function MiMCSponge(uint256 in_xL, uint256 in_xR) pure public \n               returns (uint256 xL, uint256 xR) {}\n}\n\n",
  "sourcePath": "/home/aleksandar/ZKUniversity/ZKVoting/contracts/contracts/MiMC.sol",
  "compiler": {
    "name": "solc",
    "version": "0.8.0+commit.c7dfd78e.Emscripten.clang"
  },
  "schemaVersion": "3.4.4",
  "updatedAt": "2022-02-02T10:48:38.392Z",
  "networkType": "ethereum",
  "devdoc": {
    "kind": "dev",
    "methods": {},
    "version": 1
  },
  "userdoc": {
    "kind": "user",
    "methods": {},
    "version": 1
  }
}