{
  "contractName": "OneVote",
  "abi": [
    {
      "inputs": [
        {
          "internalType": "uint256",
          "name": "",
          "type": "uint256"
        }
      ],
      "name": "votingProcesses",
      "outputs": [
        {
          "internalType": "contract VotingProcess",
          "name": "",
          "type": "address"
        }
      ],
      "stateMutability": "view",
      "type": "function",
      "constant": true
    },
    {
      "inputs": [
        {
          "internalType": "string",
          "name": "_name",
          "type": "string"
        },
        {
          "internalType": "string",
          "name": "_description",
          "type": "string"
        },
        {
          "internalType": "string[]",
          "name": "_proposals",
          "type": "string[]"
        },
        {
          "internalType": "contract Semaphore",
          "name": "_semaphore",
          "type": "address"
        }
      ],
      "name": "createVotingProcess",
      "outputs": [],
      "stateMutability": "nonpayable",
      "type": "function"
    },
    {
      "inputs": [],
      "name": "getProcesses",
      "outputs": [
        {
          "components": [
            {
              "internalType": "uint256",
              "name": "id",
              "type": "uint256"
            },
            {
              "internalType": "string",
              "name": "name",
              "type": "string"
            },
            {
              "internalType": "string",
              "name": "description",
              "type": "string"
            },
            {
              "internalType": "string[]",
              "name": "proposals",
              "type": "string[]"
            }
          ],
          "internalType": "struct OneVote.ProcessDTO[]",
          "name": "",
          "type": "tuple[]"
        }
      ],
      "stateMutability": "view",
      "type": "function",
      "constant": true
    },
    {
      "inputs": [
        {
          "internalType": "uint256",
          "name": "id",
          "type": "uint256"
        }
      ],
      "name": "getProcess",
      "outputs": [
        {
          "components": [
            {
              "internalType": "uint256",
              "name": "id",
              "type": "uint256"
            },
            {
              "internalType": "string",
              "name": "name",
              "type": "string"
            },
            {
              "internalType": "string",
              "name": "description",
              "type": "string"
            },
            {
              "internalType": "string[]",
              "name": "proposals",
              "type": "string[]"
            }
          ],
          "internalType": "struct OneVote.ProcessDTO",
          "name": "",
          "type": "tuple"
        }
      ],
      "stateMutability": "view",
      "type": "function",
      "constant": true
    }
  ],
  "bytecode": "0x608060405234801561001057600080fd5b50612123806100206000396000f3fe60806040523480156200001157600080fd5b5060043610620000525760003560e01c8063040c46ec14620000575780636e52b2391462000086578063806176e1146200009f578063d0851a7114620000b8575b600080fd5b6200006e620000683660046200099b565b620000de565b6040516200007d919062000b10565b60405180910390f35b62000090620000f9565b6040516200007d919062000aac565b620000b6620000b0366004620008a5565b62000400565b005b620000cf620000c93660046200099b565b620004c0565b6040516200007d919062000b69565b6000602081905290815260409020546001600160a01b031681565b606060008060015467ffffffffffffffff8111156200012857634e487b7160e01b600052604160045260246000fd5b6040519080825280602002602001820160405280156200016557816020015b62000151620006e4565b815260200190600190039081620001475790505b5090505b600154821015620003fa57604080516080810180835260008581526020818152908490205463af640d0f60e01b9092529251919283926001600160a01b039092169163af640d0f9160848086019290818703018186803b158015620001cd57600080fd5b505afa158015620001e2573d6000803e3d6000fd5b505050506040513d601f19601f82011682018060405250810190620002089190620009b4565b81526000848152602081815260408083205481516306fdde0360e01b8152915192909401936001600160a01b0316926306fdde0392600480840193829003018186803b1580156200025857600080fd5b505afa1580156200026d573d6000803e3d6000fd5b505050506040513d6000823e601f3d908101601f191682016040526200029791908101906200086e565b8152600084815260208181526040808320548151633942720b60e11b8152915192909401936001600160a01b031692637284e41692600480840193829003018186803b158015620002e757600080fd5b505afa158015620002fc573d6000803e3d6000fd5b505050506040513d6000823e601f3d908101601f191682016040526200032691908101906200086e565b8152600084815260208181526040808320548151630c4ac98960e31b8152915192909401936001600160a01b0316926362564c4892600480840193829003018186803b1580156200037657600080fd5b505afa1580156200038b573d6000803e3d6000fd5b505050506040513d6000823e601f3d908101601f19168201604052620003b59190810190620007db565b815250818381518110620003d957634e487b7160e01b600052603260045260246000fd5b60200260200101819052508180620003f19062000cf7565b92505062000169565b91505090565b60018251116200042d5760405162461bcd60e51b8152600401620004249062000b24565b60405180910390fd5b60006001548585858560405162000444906200070c565b6200045495949392919062000b85565b604051809103906000f08015801562000471573d6000803e3d6000fd5b5060018054600090815260208190526040812080546001600160a01b0319166001600160a01b03851617905581549293509091829190620004b490839062000ca9565b90915550505050505050565b620004ca620006e4565b600082815260208181526040918290205482516080810180855263af640d0f60e01b905292516001600160a01b0390911692918291849163af640d0f916084808601929190818703018186803b1580156200052457600080fd5b505afa15801562000539573d6000803e3d6000fd5b505050506040513d601f19601f820116820180604052508101906200055f9190620009b4565b8152602001826001600160a01b03166306fdde036040518163ffffffff1660e01b815260040160006040518083038186803b1580156200059e57600080fd5b505afa158015620005b3573d6000803e3d6000fd5b505050506040513d6000823e601f3d908101601f19168201604052620005dd91908101906200086e565b8152602001826001600160a01b0316637284e4166040518163ffffffff1660e01b815260040160006040518083038186803b1580156200061c57600080fd5b505afa15801562000631573d6000803e3d6000fd5b505050506040513d6000823e601f3d908101601f191682016040526200065b91908101906200086e565b8152602001826001600160a01b03166362564c486040518163ffffffff1660e01b815260040160006040518083038186803b1580156200069a57600080fd5b505afa158015620006af573d6000803e3d6000fd5b505050506040513d6000823e601f3d908101601f19168201604052620006d99190810190620007db565b90529150505b919050565b6040518060800160405280600081526020016060815260200160608152602001606081525090565b6113ac8062000d4283390190565b80356001600160a01b0381168114620006df57600080fd5b600082601f83011262000743578081fd5b81356200075a620007548262000c7e565b62000c2a565b8181528460208386010111156200076f578283fd5b816020850160208301379081016020019190915292915050565b600082601f8301126200079a578081fd5b8151620007ab620007548262000c7e565b818152846020838601011115620007c0578283fd5b620007d382602083016020870162000cc4565b949350505050565b60006020808385031215620007ee578182fd5b825167ffffffffffffffff81111562000805578283fd5b8301601f8101851362000816578283fd5b805162000827620007548262000c57565b81815283810190838501865b8481101562000860576200084d8a88845189010162000789565b8452928601929086019060010162000833565b509098975050505050505050565b60006020828403121562000880578081fd5b815167ffffffffffffffff81111562000897578182fd5b620007d38482850162000789565b60008060008060808587031215620008bb578283fd5b843567ffffffffffffffff80821115620008d3578485fd5b620008e18883890162000732565b9550602091508187013581811115620008f8578586fd5b6200090689828a0162000732565b9550506040870135818111156200091b578485fd5b87019050601f810188136200092e578384fd5b80356200093f620007548262000c57565b81815283810190838501875b848110156200097857620009658d88843589010162000732565b845292860192908601906001016200094b565b5050809650505050505062000990606086016200071a565b905092959194509250565b600060208284031215620009ad578081fd5b5035919050565b600060208284031215620009c6578081fd5b5051919050565b6001600160a01b03169052565b60008151808452620009f481602086016020860162000cc4565b601f01601f19169290920160200192915050565b60008151835260208083015160808286015262000a296080860182620009da565b90506040840151858203604087015262000a448282620009da565b915050606084015185820360608701528181518084528484019150848582028501018584019350865b8281101562000a9f57601f1986830301845262000a8c828651620009da565b9487019493870193915060010162000a6d565b5098975050505050505050565b6000602080830181845280855180835260408601915060408482028701019250838701855b8281101562000b0357603f1988860301845262000af085835162000a08565b9450928501929085019060010162000ad1565b5092979650505050505050565b6001600160a01b0391909116815260200190565b60208082526025908201527f5468657265206e65656420746f206265206174206c6561737420322070726f706040820152646f73616c7360d81b606082015260800190565b60006020825262000b7e602083018462000a08565b9392505050565b6000868252602060a08184015262000ba160a0840188620009da565b838103604085015262000bb58188620009da565b848103606086015286518082529091508282019083810283018401848901865b8381101562000c0757601f1986840301855262000bf4838351620009da565b9487019492509086019060010162000bd5565b5050809550505050505062000c206080830184620009cd565b9695505050505050565b60405181810167ffffffffffffffff8111828210171562000c4f5762000c4f62000d2b565b604052919050565b600067ffffffffffffffff82111562000c745762000c7462000d2b565b5060209081020190565b600067ffffffffffffffff82111562000c9b5762000c9b62000d2b565b50601f01601f191660200190565b6000821982111562000cbf5762000cbf62000d15565b500190565b60005b8381101562000ce157818101518382015260200162000cc7565b8381111562000cf1576000848401525b50505050565b600060001982141562000d0e5762000d0e62000d15565b5060010190565b634e487b7160e01b600052601160045260246000fd5b634e487b7160e01b600052604160045260246000fdfe608060405260006003553480156200001657600080fd5b50604051620013ac380380620013ac8339810160408190526200003991620002c5565b6005859055835162000053906006906020870190620000ab565b50825162000069906007906020860190620000ab565b5081516200007f9060089060208501906200013a565b50600480546001600160a01b0319166001600160a01b0392909216919091179055506200045b92505050565b828054620000b99062000408565b90600052602060002090601f016020900481019282620000dd576000855562000128565b82601f10620000f857805160ff191683800117855562000128565b8280016001018555821562000128579182015b82811115620001285782518255916020019190600101906200010b565b50620001369291506200019a565b5090565b8280548282559060005260206000209081019282156200018c579160200282015b828111156200018c57825180516200017b918491602090910190620000ab565b50916020019190600101906200015b565b5062000136929150620001b1565b5b808211156200013657600081556001016200019b565b8082111562000136576000620001c88282620001d2565b50600101620001b1565b508054620001e09062000408565b6000825580601f10620001f4575062000214565b601f0160209004906000526020600020908101906200021491906200019a565b50565b80516001600160a01b03811681146200022f57600080fd5b919050565b600082601f83011262000245578081fd5b81516001600160401b0381111562000261576200026162000445565b602062000277601f8301601f19168201620003dc565b82815285828487010111156200028b578384fd5b835b83811015620002aa5785810183015182820184015282016200028d565b83811115620002bb57848385840101525b5095945050505050565b600080600080600060a08688031215620002dd578081fd5b8551602080880151919650906001600160401b0380821115620002fe578384fd5b6200030c8a838b0162000234565b9650604089015191508082111562000322578384fd5b620003308a838b0162000234565b9550606089015191508082111562000346578384fd5b818901915089601f8301126200035a578384fd5b8151818111156200036f576200036f62000445565b6200037e8485830201620003dc565b8181528481019250838501865b83811015620003b857620003a58e88845189010162000234565b855293860193908601906001016200038b565b50508096505050505050620003d06080870162000217565b90509295509295909350565b6040518181016001600160401b038111828210171562000400576200040062000445565b604052919050565b6002810460018216806200041d57607f821691505b602082108114156200043f57634e487b7160e01b600052602260045260246000fd5b50919050565b634e487b7160e01b600052604160045260246000fd5b610f41806200046b6000396000f3fe608060405234801561001057600080fd5b50600436106101215760003560e01c80637284e416116100ad578063911ca41e11610071578063911ca41e1461022f578063af640d0f14610242578063b30b483f1461024a578063bde106121461025d578063f9cdb5cd1461027057610121565b80637284e416146101e4578063740afb77146101ec5780637b5d2534146101ff5780638d2d593b146102145780638fd0de571461021c57610121565b806327acf71b116100f457806327acf71b1461017f578063405667901461019257806349b0b910146101a7578063539f38b2146101bc57806362564c48146101cf57610121565b8063013cf08b1461012657806306fdde031461014f5780630e57596f1461015757806317bccfab1461016c575b600080fd5b610139610134366004610c4d565b610283565b6040516101469190610d69565b60405180910390f35b61013961032f565b61016a610165366004610b0f565b61033c565b005b61016a61017a366004610b84565b61042b565b61013961018d366004610c4d565b6105a4565b61019a6105bd565b6040516101469190610d25565b6101af610615565b6040516101469190610e5a565b61016a6101ca366004610c33565b61061b565b6101d761067f565b6040516101469190610cc5565b610139610758565b6101af6101fa366004610c4d565b610765565b61020761077a565b6040516101469190610de5565b6101af610789565b6101af61022a366004610c4d565b61078f565b61013961023d366004610c4d565b6107b0565b6101af610852565b6101af610258366004610c4d565b610858565b61016a61026b366004610c4d565b61088c565b6101af61027e366004610c4d565b610940565b6008818154811061029357600080fd5b9060005260206000200160009150905080546102ae90610e93565b80601f01602080910402602001604051908101604052809291908181526020018280546102da90610e93565b80156103275780601f106102fc57610100808354040283529160200191610327565b820191906000526020600020905b81548152906001019060200180831161030a57829003601f168201915b505050505081565b600680546102ae90610e93565b6003546000818152600160209081526040909120875161035e92890190610952565b506003805460009081526002602052604081206001600160e81b03851690558154919061038a83610ece565b909155505060048054604051630e57596f60e01b81526001600160a01b0390911691630e57596f916103c6918a918a918a918a918a9101610d7c565b600060405180830381600087803b1580156103e057600080fd5b505af11580156103f4573d6000803e3d6000fd5b50506040518392507faa676fd106f1023de6c9eafff9af5bc8e299b3493d3aa816a3278a15d055657b9150600090a2505050505050565b6000805b6008548110156105625760006008828154811061045c57634e487b7160e01b600052603260045260246000fd5b90600052602060002001805461047190610e93565b80601f016020809104026020016040519081016040528092919081815260200182805461049d90610e93565b80156104ea5780601f106104bf576101008083540402835291602001916104ea565b820191906000526020600020905b8154815290600101906020018083116104cd57829003601f168201915b50505050509050806040516020016105029190610ca9565b60405160208183030381529060405280519060200120896040516020016105299190610ca9565b60405160208183030381529060405280519060200120141561054f576001925050610562565b508061055a81610ece565b91505061042f565b5060018115151461058e5760405162461bcd60e51b815260040161058590610df9565b60405180910390fd5b61059b868686868661033c565b50505050505050565b600160205260009081526040902080546102ae90610e93565b6060600080548060200260200160405190810160405280929190818152602001828054801561060b57602002820191906000526020600020905b8154815260200190600101908083116105f7575b5050505050905090565b60035490565b600480546040516329cf9c5960e11b81526001600160a01b039091169163539f38b29161064a91859101610e46565b600060405180830381600087803b15801561066457600080fd5b505af1158015610678573d6000803e3d6000fd5b5050505050565b60606008805480602002602001604051908101604052809291908181526020016000905b8282101561074f5783829060005260206000200180546106c290610e93565b80601f01602080910402602001604051908101604052809291908181526020018280546106ee90610e93565b801561073b5780601f106107105761010080835404028352916020019161073b565b820191906000526020600020905b81548152906001019060200180831161071e57829003601f168201915b5050505050815260200190600101906106a3565b50505050905090565b600780546102ae90610e93565b6000818152600260205260409020545b919050565b6004546001600160a01b031681565b60035481565b6000818154811061079f57600080fd5b600091825260209091200154905081565b60008181526001602052604090208054606091906107cd90610e93565b80601f01602080910402602001604051908101604052809291908181526020018280546107f990610e93565b80156108465780601f1061081b57610100808354040283529160200191610846565b820191906000526020600020905b81548152906001019060200180831161082957829003601f168201915b50505050509050919050565b60055481565b600080828154811061087a57634e487b7160e01b600052603260045260246000fd5b90600052602060002001549050919050565b600480546040516336c077e560e11b81526001600160a01b0390911691636d80efca916108bb91859101610e5a565b602060405180830381600087803b1580156108d557600080fd5b505af11580156108e9573d6000803e3d6000fd5b505050506040513d601f19601f8201168201806040525081019061090d9190610c65565b50600080546001810182559080527f290decd9548b62a8d60345a988386fc84ba6bc95484008f6362f93160ef3e5630155565b60026020526000908152604090205481565b82805461095e90610e93565b90600052602060002090601f01602090048101928261098057600085556109c6565b82601f1061099957805160ff19168380011785556109c6565b828001600101855582156109c6579182015b828111156109c65782518255916020019190600101906109ab565b506109d29291506109d6565b5090565b5b808211156109d257600081556001016109d7565b600067ffffffffffffffff80841115610a0657610a06610ef5565b604051601f8501601f191681016020018281118282101715610a2a57610a2a610ef5565b604052848152915081838501861015610a4257600080fd5b8484602083013760006020868301015250509392505050565b600082601f830112610a6b578081fd5b60405161010080820182811067ffffffffffffffff82111715610a9057610a90610ef5565b6040528184828101871015610aa3578485fd5b8492505b6008831015610ac757803582526001929092019160209182019101610aa7565b509195945050505050565b600082601f830112610ae2578081fd5b610af1838335602085016109eb565b9392505050565b80356001600160e81b038116811461077557600080fd5b60008060008060006101808688031215610b27578081fd5b853567ffffffffffffffff811115610b3d578182fd5b610b4988828901610ad2565b955050610b598760208801610a5b565b935061012086013592506101408601359150610b786101608701610af8565b90509295509295909350565b6000806000806000806101a08789031215610b9d578081fd5b863567ffffffffffffffff80821115610bb4578283fd5b818901915089601f830112610bc7578283fd5b610bd68a8335602085016109eb565b97506020890135915080821115610beb578283fd5b50610bf889828a01610ad2565b955050610c088860408901610a5b565b935061014087013592506101608701359150610c276101808801610af8565b90509295509295509295565b600060208284031215610c44578081fd5b610af182610af8565b600060208284031215610c5e578081fd5b5035919050565b600060208284031215610c76578081fd5b5051919050565b60008151808452610c95816020860160208601610e63565b601f01601f19169290920160200192915050565b60008251610cbb818460208701610e63565b9190910192915050565b6000602080830181845280855180835260408601915060408482028701019250838701855b82811015610d1857603f19888603018452610d06858351610c7d565b94509285019290850190600101610cea565b5092979650505050505050565b6020808252825182820181905260009190848201906040850190845b81811015610d5d57835183529284019291840191600101610d41565b50909695505050505050565b600060208252610af16020830184610c7d565b6000610180808352610d9081840189610c7d565b91505060208083018760005b6008811015610db957815183529183019190830190600101610d9c565b505050506101208201949094526101408101929092526001600160e81b03166101609091015292915050565b6001600160a01b0391909116815260200190565b6020808252602d908201527f596f75206e65656420746f2063686f6f7365206f6e65206f662074686520766f60408201526c74696e67206f7074696f6e732160981b606082015260800190565b6001600160e81b0391909116815260200190565b90815260200190565b60005b83811015610e7e578181015183820152602001610e66565b83811115610e8d576000848401525b50505050565b600281046001821680610ea757607f821691505b60208210811415610ec857634e487b7160e01b600052602260045260246000fd5b50919050565b6000600019821415610eee57634e487b7160e01b81526011600452602481fd5b5060010190565b634e487b7160e01b600052604160045260246000fdfea264697066735822122053c39329816dfabff4d377ec3a8e580692b440581659705713ed5a9f610ce3c864736f6c63430008000033a2646970667358221220110933a6f99e3172dc4a4cb08c60204708217641320ecee8d07b2e7b6429842b64736f6c63430008000033",
  "immutableReferences": {},
  "source": "//SPDX-License-Identifier: Unlicense\npragma solidity ^0.8.0;\n\nimport { VotingProcess } from './VotingProcess.sol';\nimport { Semaphore } from './Semaphore.sol';\n\ncontract OneVote {\n    mapping(uint => VotingProcess) public votingProcesses;\n    uint processCounter;\n\n    struct ProcessDTO {\n        uint id;\n        string name;\n        string description;\n        string[] proposals;\n    }\n\n    function createVotingProcess(\n        string memory _name,\n        string memory _description,\n        string[] memory _proposals,\n        Semaphore _semaphore\n    ) public {\n        require(_proposals.length > 1, \"There need to be at least 2 proposals\");\n        //add new voting proposal\n        VotingProcess vp = new VotingProcess(processCounter, _name, _description, _proposals, _semaphore);\n\n        votingProcesses[processCounter] = vp;\n        processCounter += 1;\n    }\n\n    function getProcesses() public view returns(ProcessDTO[] memory){\n        uint256 i = 0;\n        ProcessDTO[] memory returnProcesses = new ProcessDTO[](processCounter);\n\n        for(i; i < processCounter; i++){\n            returnProcesses[i] = ProcessDTO({\n                id: votingProcesses[i].id(),\n                name: votingProcesses[i].name(),\n                description: votingProcesses[i].description(),\n                proposals: votingProcesses[i].getProposals()\n            });\n        }\n\n        return returnProcesses;\n    }\n\n    function getProcess(uint id) public view returns (ProcessDTO memory){\n        VotingProcess votingProcess = votingProcesses[id];\n        return ProcessDTO({\n            id: votingProcess.id(),\n            name: votingProcess.name(),\n            description: votingProcess.description(),\n            proposals: votingProcess.getProposals()\n        });\n    }\n\n}",
  "sourcePath": "/home/aleksandar/ZKUniversity/ZKVoting/contracts/contracts/OneVote.sol",
  "compiler": {
    "name": "solc",
    "version": "0.8.0+commit.c7dfd78e.Emscripten.clang"
  },
  "schemaVersion": "3.4.4",
  "updatedAt": "2022-01-30T11:29:22.714Z",
  "networkType": "ethereum",
  "devdoc": {
    "kind": "dev",
    "methods": {},
    "version": 1
  },
  "userdoc": {
    "kind": "user",
    "methods": {},
    "version": 1
  }
}