{
  "contractName": "OneVote",
  "abi": [
    {
      "inputs": [
        {
          "internalType": "contract Semaphore",
          "name": "_semaphore",
          "type": "address"
        }
      ],
      "stateMutability": "nonpayable",
      "type": "constructor"
    },
    {
      "anonymous": false,
      "inputs": [
        {
          "indexed": true,
          "internalType": "uint256",
          "name": "identityCommitment",
          "type": "uint256"
        }
      ],
      "name": "IdentityCommitment",
      "type": "event"
    },
    {
      "anonymous": false,
      "inputs": [
        {
          "indexed": false,
          "internalType": "uint256",
          "name": "root",
          "type": "uint256"
        }
      ],
      "name": "Rooot",
      "type": "event"
    },
    {
      "anonymous": false,
      "inputs": [
        {
          "indexed": true,
          "internalType": "uint256",
          "name": "signalIndex",
          "type": "uint256"
        }
      ],
      "name": "SignalBroadcastByClient",
      "type": "event"
    },
    {
      "inputs": [
        {
          "internalType": "uint256",
          "name": "",
          "type": "uint256"
        }
      ],
      "name": "identityCommitments",
      "outputs": [
        {
          "internalType": "uint256",
          "name": "",
          "type": "uint256"
        }
      ],
      "stateMutability": "view",
      "type": "function",
      "constant": true
    },
    {
      "inputs": [],
      "name": "nextSignalIndex",
      "outputs": [
        {
          "internalType": "uint256",
          "name": "",
          "type": "uint256"
        }
      ],
      "stateMutability": "view",
      "type": "function",
      "constant": true
    },
    {
      "inputs": [],
      "name": "semaphore",
      "outputs": [
        {
          "internalType": "contract Semaphore",
          "name": "",
          "type": "address"
        }
      ],
      "stateMutability": "view",
      "type": "function",
      "constant": true
    },
    {
      "inputs": [
        {
          "internalType": "uint256",
          "name": "",
          "type": "uint256"
        }
      ],
      "name": "signalIndexToExternalNullifier",
      "outputs": [
        {
          "internalType": "uint256",
          "name": "",
          "type": "uint256"
        }
      ],
      "stateMutability": "view",
      "type": "function",
      "constant": true
    },
    {
      "inputs": [
        {
          "internalType": "uint256",
          "name": "",
          "type": "uint256"
        }
      ],
      "name": "signalIndexToSignal",
      "outputs": [
        {
          "internalType": "bytes",
          "name": "",
          "type": "bytes"
        }
      ],
      "stateMutability": "view",
      "type": "function",
      "constant": true
    },
    {
      "inputs": [
        {
          "internalType": "uint232",
          "name": "",
          "type": "uint232"
        },
        {
          "internalType": "uint256",
          "name": "",
          "type": "uint256"
        }
      ],
      "name": "signalsForNullifier",
      "outputs": [
        {
          "internalType": "bytes",
          "name": "",
          "type": "bytes"
        }
      ],
      "stateMutability": "view",
      "type": "function",
      "constant": true
    },
    {
      "inputs": [
        {
          "internalType": "uint256",
          "name": "",
          "type": "uint256"
        }
      ],
      "name": "votingProcesses",
      "outputs": [
        {
          "internalType": "contract VotingProcess",
          "name": "",
          "type": "address"
        }
      ],
      "stateMutability": "view",
      "type": "function",
      "constant": true
    },
    {
      "inputs": [],
      "name": "getNextSignalIndex",
      "outputs": [
        {
          "internalType": "uint256",
          "name": "",
          "type": "uint256"
        }
      ],
      "stateMutability": "view",
      "type": "function",
      "constant": true
    },
    {
      "inputs": [],
      "name": "getIdentityCommitments",
      "outputs": [
        {
          "internalType": "uint256[]",
          "name": "",
          "type": "uint256[]"
        }
      ],
      "stateMutability": "view",
      "type": "function",
      "constant": true
    },
    {
      "inputs": [
        {
          "internalType": "uint256",
          "name": "_index",
          "type": "uint256"
        }
      ],
      "name": "getIdentityCommitment",
      "outputs": [
        {
          "internalType": "uint256",
          "name": "",
          "type": "uint256"
        }
      ],
      "stateMutability": "view",
      "type": "function",
      "constant": true
    },
    {
      "inputs": [
        {
          "internalType": "uint256",
          "name": "_leaf",
          "type": "uint256"
        }
      ],
      "name": "insertIdentityAsClient",
      "outputs": [],
      "stateMutability": "nonpayable",
      "type": "function"
    },
    {
      "inputs": [
        {
          "internalType": "uint232",
          "name": "_externalNullifier",
          "type": "uint232"
        }
      ],
      "name": "addExternalNullifier",
      "outputs": [],
      "stateMutability": "nonpayable",
      "type": "function"
    },
    {
      "inputs": [
        {
          "internalType": "bytes",
          "name": "_signal",
          "type": "bytes"
        },
        {
          "internalType": "uint256[8]",
          "name": "_proof",
          "type": "uint256[8]"
        },
        {
          "internalType": "uint256",
          "name": "_root",
          "type": "uint256"
        },
        {
          "internalType": "uint256",
          "name": "_nullifiersHash",
          "type": "uint256"
        },
        {
          "internalType": "uint232",
          "name": "_externalNullifier",
          "type": "uint232"
        }
      ],
      "name": "vote",
      "outputs": [],
      "stateMutability": "nonpayable",
      "type": "function"
    },
    {
      "inputs": [
        {
          "internalType": "uint256",
          "name": "_index",
          "type": "uint256"
        }
      ],
      "name": "getExternalNullifierBySignalIndex",
      "outputs": [
        {
          "internalType": "uint256",
          "name": "",
          "type": "uint256"
        }
      ],
      "stateMutability": "view",
      "type": "function",
      "constant": true
    },
    {
      "inputs": [
        {
          "internalType": "uint256",
          "name": "_index",
          "type": "uint256"
        }
      ],
      "name": "getSignalBySignalIndex",
      "outputs": [
        {
          "internalType": "bytes",
          "name": "",
          "type": "bytes"
        }
      ],
      "stateMutability": "view",
      "type": "function",
      "constant": true
    },
    {
      "inputs": [
        {
          "internalType": "string",
          "name": "_name",
          "type": "string"
        },
        {
          "internalType": "string",
          "name": "_description",
          "type": "string"
        },
        {
          "internalType": "bytes[]",
          "name": "_proposals",
          "type": "bytes[]"
        }
      ],
      "name": "createVotingProcess",
      "outputs": [],
      "stateMutability": "nonpayable",
      "type": "function"
    },
    {
      "inputs": [],
      "name": "getProcesses",
      "outputs": [
        {
          "components": [
            {
              "internalType": "uint256",
              "name": "id",
              "type": "uint256"
            },
            {
              "internalType": "string",
              "name": "name",
              "type": "string"
            },
            {
              "internalType": "string",
              "name": "description",
              "type": "string"
            },
            {
              "internalType": "bytes[]",
              "name": "proposals",
              "type": "bytes[]"
            }
          ],
          "internalType": "struct OneVote.ProcessDTO[]",
          "name": "",
          "type": "tuple[]"
        }
      ],
      "stateMutability": "view",
      "type": "function",
      "constant": true
    },
    {
      "inputs": [
        {
          "internalType": "uint256",
          "name": "id",
          "type": "uint256"
        }
      ],
      "name": "getProcess",
      "outputs": [
        {
          "components": [
            {
              "internalType": "uint256",
              "name": "id",
              "type": "uint256"
            },
            {
              "internalType": "string",
              "name": "name",
              "type": "string"
            },
            {
              "internalType": "string",
              "name": "description",
              "type": "string"
            },
            {
              "internalType": "bytes[]",
              "name": "proposals",
              "type": "bytes[]"
            }
          ],
          "internalType": "struct OneVote.ProcessDTO",
          "name": "",
          "type": "tuple"
        }
      ],
      "stateMutability": "view",
      "type": "function",
      "constant": true
    },
    {
      "inputs": [],
      "name": "getRoots",
      "outputs": [
        {
          "internalType": "uint256[10]",
          "name": "",
          "type": "uint256[10]"
        }
      ],
      "stateMutability": "view",
      "type": "function",
      "constant": true
    },
    {
      "inputs": [
        {
          "internalType": "uint256",
          "name": "id",
          "type": "uint256"
        }
      ],
      "name": "getRootHistory",
      "outputs": [
        {
          "internalType": "bool",
          "name": "",
          "type": "bool"
        }
      ],
      "stateMutability": "view",
      "type": "function",
      "constant": true
    }
  ],
  "bytecode": "0x6080604052600060065534801561001557600080fd5b5060405161282f38038061282f83398101604081905261003491610059565b600780546001600160a01b0319166001600160a01b0392909216919091179055610087565b60006020828403121561006a578081fd5b81516001600160a01b0381168114610080578182fd5b9392505050565b612799806100966000396000f3fe60806040523480156200001157600080fd5b5060043610620001485760003560e01c80638fd0de5711620000bd578063c9ed0198116200007b578063c9ed019814620002bd578063cb7be8cf14620002d4578063d0851a7114620002eb578063f9cdb5cd1462000311578063ffac004614620003285762000148565b80638fd0de57146200024a578063911ca41e1462000261578063b30b483f1462000278578063bde10612146200028f578063c6cdfa6b14620002a65762000148565b8063539f38b2116200010b578063539f38b214620001ed5780636e52b2391462000206578063740afb77146200021f5780637b5d253414620002365780638d2d593b14620002405762000148565b8063040c46ec146200014d57806327acf71b146200017c57806335a5e06d14620001a25780634056679014620001bb57806349b0b91014620001d4575b600080fd5b620001646200015e36600462001574565b6200034e565b604051620001739190620017e3565b60405180910390f35b620001936200018d36600462001574565b62000369565b60405162000173919062001761565b620001ac6200040b565b604051620001739190620016dc565b620001c5620004a5565b60405162000173919062001710565b620001de620004ff565b60405162000173919062001865565b62000204620001fe3660046200152b565b62000505565b005b620002106200056e565b60405162000173919062001678565b620001de6200023036600462001574565b62000875565b620001646200088a565b620001de62000899565b620001de6200025b36600462001574565b6200089f565b620001936200027236600462001574565b620008c1565b620001de6200028936600462001574565b6200096b565b62000204620002a036600462001574565b620009a1565b62000193620002b736600462001548565b62000a89565b62000204620002ce36600462001448565b62000ac4565b62000204620002e53660046200132e565b62000b8b565b62000302620002fc36600462001574565b62000d6e565b6040516200017391906200183c565b620001de6200032236600462001574565b62000f90565b6200033f6200033936600462001574565b62000fa2565b60405162000173919062001756565b6000602081905290815260409020546001600160a01b031681565b600360205260009081526040902080546200038490620019f2565b80601f0160208091040260200160405190810160405280929190818152602001828054620003b290620019f2565b8015620004035780601f10620003d75761010080835404028352916020019162000403565b820191906000526020600020905b815481529060010190602001808311620003e557829003601f168201915b505050505081565b620004156200102f565b600760009054906101000a90046001600160a01b03166001600160a01b03166335a5e06d6040518163ffffffff1660e01b81526004016101406040518083038186803b1580156200046557600080fd5b505afa1580156200047a573d6000803e3d6000fd5b505050506040513d601f19601f82011682018060405250810190620004a091906200127f565b905090565b60606002805480602002602001604051908101604052809291908181526020018280548015620004f557602002820191906000526020600020905b815481526020019060010190808311620004e0575b5050505050905090565b60065490565b6007546040516329cf9c5960e11b81526001600160a01b039091169063539f38b2906200053790849060040162001851565b600060405180830381600087803b1580156200055257600080fd5b505af115801562000567573d6000803e3d6000fd5b5050505050565b606060008060015467ffffffffffffffff8111156200059d57634e487b7160e01b600052604160045260246000fd5b604051908082528060200260200182016040528015620005da57816020015b620005c66200104e565b815260200190600190039081620005bc5790505b5090505b6001548210156200086f57604080516080810180835260008581526020818152908490205463af640d0f60e01b9092529251919283926001600160a01b039092169163af640d0f9160848086019290818703018186803b1580156200064257600080fd5b505afa15801562000657573d6000803e3d6000fd5b505050506040513d601f19601f820116820180604052508101906200067d91906200158d565b81526000848152602081815260408083205481516306fdde0360e01b8152915192909401936001600160a01b0316926306fdde0392600480840193829003018186803b158015620006cd57600080fd5b505afa158015620006e2573d6000803e3d6000fd5b505050506040513d6000823e601f3d908101601f191682016040526200070c9190810190620013f5565b8152600084815260208181526040808320548151633942720b60e11b8152915192909401936001600160a01b031692637284e41692600480840193829003018186803b1580156200075c57600080fd5b505afa15801562000771573d6000803e3d6000fd5b505050506040513d6000823e601f3d908101601f191682016040526200079b9190810190620013f5565b8152600084815260208181526040808320548151630c4ac98960e31b8152915192909401936001600160a01b0316926362564c4892600480840193829003018186803b158015620007eb57600080fd5b505afa15801562000800573d6000803e3d6000fd5b505050506040513d6000823e601f3d908101601f191682016040526200082a9190810190620011d6565b8152508183815181106200084e57634e487b7160e01b600052603260045260246000fd5b60200260200101819052508180620008669062001a2f565b925050620005de565b91505090565b6000818152600460205260409020545b919050565b6007546001600160a01b031681565b60065481565b60028181548110620008b057600080fd5b600091825260209091200154905081565b6000818152600360205260409020805460609190620008e090620019f2565b80601f01602080910402602001604051908101604052809291908181526020018280546200090e90620019f2565b80156200095f5780601f1062000933576101008083540402835291602001916200095f565b820191906000526020600020905b8154815290600101906020018083116200094157829003601f168201915b50505050509050919050565b6000600282815481106200098f57634e487b7160e01b600052603260045260246000fd5b90600052602060002001549050919050565b6007546040516336c077e560e11b81526001600160a01b0390911690636d80efca90620009d390849060040162001865565b602060405180830381600087803b158015620009ee57600080fd5b505af115801562000a03573d6000803e3d6000fd5b505050506040513d601f19601f8201168201806040525081019062000a2991906200158d565b506002805460018101825560009182527f405787fa12a823e0f2b7631cc41b3ba8828b3321ca811111fa75cd3aa3bb5ace0182905560405182917f31d0d431762af1b333d4fef318e03efc7b702fe91dd1f0aa2c72e699bebcb48991a250565b6005602052816000526040600020818154811062000aa657600080fd5b906000526020600020016000915091505080546200038490620019f2565b600181511162000af15760405162461bcd60e51b815260040162000ae890620017f7565b60405180910390fd5b600060015484848460405162000b079062001076565b62000b1694939291906200186e565b604051809103906000f08015801562000b33573d6000803e3d6000fd5b50905062000b4360015462000505565b60018054600090815260208190526040812080546001600160a01b0319166001600160a01b038516179055815482919062000b80908390620019a4565b909155505050505050565b6006546000818152600360209081526040909120875162000baf9289019062001084565b5060065460009081526004602090815260408083206001600160e81b038616908190558352600582528220805460018101825590835291819020885162000bfe93919091019189019062001084565b506001600160e81b03821660009081526020819052604090819020549051633a77018560e21b81526001600160a01b039091169063e9dc06149062000c4890899060040162001761565b600060405180830381600087803b15801562000c6357600080fd5b505af115801562000c78573d6000803e3d6000fd5b50506006805492509050600062000c8f8362001a2f565b91905055507fc22cfa8a3523410b962de1755e11d5abcb562e0199fd322dda29198947f18c938460405162000cc5919062001865565b60405180910390a1600754604051630e57596f60e01b81526001600160a01b0390911690630e57596f9062000d07908990899089908990899060040162001776565b600060405180830381600087803b15801562000d2257600080fd5b505af115801562000d37573d6000803e3d6000fd5b50506040518392507faa676fd106f1023de6c9eafff9af5bc8e299b3493d3aa816a3278a15d055657b9150600090a2505050505050565b62000d786200104e565b600082815260208181526040918290205482516080810180855263af640d0f60e01b905292516001600160a01b0390911692918291849163af640d0f916084808601929190818703018186803b15801562000dd257600080fd5b505afa15801562000de7573d6000803e3d6000fd5b505050506040513d601f19601f8201168201806040525081019062000e0d91906200158d565b8152602001826001600160a01b03166306fdde036040518163ffffffff1660e01b815260040160006040518083038186803b15801562000e4c57600080fd5b505afa15801562000e61573d6000803e3d6000fd5b505050506040513d6000823e601f3d908101601f1916820160405262000e8b9190810190620013f5565b8152602001826001600160a01b0316637284e4166040518163ffffffff1660e01b815260040160006040518083038186803b15801562000eca57600080fd5b505afa15801562000edf573d6000803e3d6000fd5b505050506040513d6000823e601f3d908101601f1916820160405262000f099190810190620013f5565b8152602001826001600160a01b03166362564c486040518163ffffffff1660e01b815260040160006040518083038186803b15801562000f4857600080fd5b505afa15801562000f5d573d6000803e3d6000fd5b505050506040513d6000823e601f3d908101601f1916820160405262000f879190810190620011d6565b90529392505050565b60046020526000908152604090205481565b6007546040516378e310f760e11b81526000916001600160a01b03169063f1c621ee9062000fd590859060040162001865565b60206040518083038186803b15801562000fee57600080fd5b505afa15801562001003573d6000803e3d6000fd5b505050506040513d601f19601f820116820180604052508101906200102991906200130c565b92915050565b604051806101400160405280600a906020820280368337509192915050565b6040518060800160405280600081526020016060815260200160608152602001606081525090565b610cea8062001a7a83390190565b8280546200109290620019f2565b90600052602060002090601f016020900481019282620010b6576000855562001101565b82601f10620010d157805160ff191683800117855562001101565b8280016001018555821562001101579182015b8281111562001101578251825591602001919060010190620010e4565b506200110f92915062001113565b5090565b5b808211156200110f576000815560010162001114565b6000620011416200113b8462001979565b62001901565b90508281528383830111156200115657600080fd5b62001166836020830184620019bf565b9392505050565b600082601f8301126200117e578081fd5b81356200118f6200113b8262001979565b818152846020838601011115620011a4578283fd5b816020850160208301379081016020019190915292915050565b80356001600160e81b03811681146200088557600080fd5b60006020808385031215620011e9578182fd5b825167ffffffffffffffff81111562001200578283fd5b8301601f8101851362001211578283fd5b8051620012226200113b826200192e565b81815283810190838501865b848110156200127157815186018a603f8201126200124a578889fd5b6200125d8b89830151604084016200112a565b85525092860192908601906001016200122e565b509098975050505050505050565b600061014080838503121562001293578182fd5b83601f840112620012a2578182fd5b60405181810181811067ffffffffffffffff82111715620012c757620012c762001a63565b6040528084838101871015620012db578485fd5b8493505b600a8410156200130157805182526001939093019260209182019101620012df565b509095945050505050565b6000602082840312156200131e578081fd5b8151801515811462001166578182fd5b6000806000806000610180868803121562001347578081fd5b853567ffffffffffffffff8111156200135e578182fd5b6200136c888289016200116d565b955050602087603f88011262001380578182fd5b6008620013916200113b8262001955565b80838a016101208b018c811115620013a7578687fd5b865b85811015620013c757823585529386019391860191600101620013a9565b50919850503595505050506101408601359150620013e96101608701620011be565b90509295509295909350565b60006020828403121562001407578081fd5b815167ffffffffffffffff8111156200141e578182fd5b8201601f810184136200142f578182fd5b62001440848251602084016200112a565b949350505050565b6000806000606084860312156200145d578081fd5b833567ffffffffffffffff8082111562001475578283fd5b62001483878388016200116d565b94506020915081860135818111156200149a578384fd5b620014a8888289016200116d565b945050604086013581811115620014bd578384fd5b86019050601f81018713620014d0578283fd5b8035620014e16200113b826200192e565b81815283810190838501865b848110156200151a57620015078c8884358901016200116d565b84529286019290860190600101620014ed565b505080955050505050509250925092565b6000602082840312156200153d578081fd5b6200116682620011be565b600080604083850312156200155b578182fd5b6200156683620011be565b946020939093013593505050565b60006020828403121562001586578081fd5b5035919050565b6000602082840312156200159f578081fd5b5051919050565b60008151808452620015c0816020860160208601620019bf565b601f01601f19169290920160200192915050565b600081518352602080830151608082860152620015f56080860182620015a6565b905060408401518582036040870152620016108282620015a6565b915050606084015185820360608701528181518084528484019150848582028501018584019350865b828110156200166b57601f1986830301845262001658828651620015a6565b9487019493870193915060010162001639565b5098975050505050505050565b6000602080830181845280855180835260408601915060408482028701019250838701855b82811015620016cf57603f19888603018452620016bc858351620015d4565b945092850192908501906001016200169d565b5092979650505050505050565b6101408101818360005b600a81101562001707578151835260209283019290910190600101620016e6565b50505092915050565b6020808252825182820181905260009190848201906040850190845b818110156200174a578351835292840192918401916001016200172c565b50909695505050505050565b901515815260200190565b600060208252620011666020830184620015a6565b60006101808083526200178c81840189620015a6565b91505060208083018760005b6008811015620017b75781518352918301919083019060010162001798565b505050506101208201949094526101408101929092526001600160e81b03166101609091015292915050565b6001600160a01b0391909116815260200190565b60208082526025908201527f5468657265206e65656420746f206265206174206c6561737420322070726f706040820152646f73616c7360d81b606082015260800190565b600060208252620011666020830184620015d4565b6001600160e81b0391909116815260200190565b90815260200190565b600085825260206080818401526200188a6080840187620015a6565b83810360408501526200189e8187620015a6565b848103606086015285518082529091508282019083810283018401848801865b83811015620018f057601f19868403018552620018dd838351620015a6565b94870194925090860190600101620018be565b50909b9a5050505050505050505050565b60405181810167ffffffffffffffff8111828210171562001926576200192662001a63565b604052919050565b600067ffffffffffffffff8211156200194b576200194b62001a63565b5060209081020190565b600067ffffffffffffffff82111562001972576200197262001a63565b5060200290565b600067ffffffffffffffff82111562001996576200199662001a63565b50601f01601f191660200190565b60008219821115620019ba57620019ba62001a4d565b500190565b60005b83811015620019dc578181015183820152602001620019c2565b83811115620019ec576000848401525b50505050565b60028104600182168062001a0757607f821691505b6020821081141562001a2957634e487b7160e01b600052602260045260246000fd5b50919050565b600060001982141562001a465762001a4662001a4d565b5060010190565b634e487b7160e01b600052601160045260246000fd5b634e487b7160e01b600052604160045260246000fdfe60806040523480156200001157600080fd5b5060405162000cea38038062000cea83398101604081905262000034916200029a565b600084905582516200004e90600190602086019062000085565b5081516200006490600290602085019062000085565b5080516200007a90600390602084019062000114565b505050505062000430565b8280546200009390620003dd565b90600052602060002090601f016020900481019282620000b7576000855562000102565b82601f10620000d257805160ff191683800117855562000102565b8280016001018555821562000102579182015b8281111562000102578251825591602001919060010190620000e5565b506200011092915062000174565b5090565b82805482825590600052602060002090810192821562000166579160200282015b828111156200016657825180516200015591849160209091019062000085565b509160200191906001019062000135565b50620001109291506200018b565b5b8082111562000110576000815560010162000175565b8082111562000110576000620001a28282620001ac565b506001016200018b565b508054620001ba90620003dd565b6000825580601f10620001ce5750620001ee565b601f016020900490600052602060002090810190620001ee919062000174565b50565b60006001600160401b038311156200020d576200020d6200041a565b602062000223601f8501601f19168201620003b1565b91508382528484840111156200023857600080fd5b60005b8481101562000256578381015183820183015281016200023b565b84811115620002685760008286850101525b50509392505050565b600082601f83011262000282578081fd5b6200029383835160208501620001f1565b9392505050565b60008060008060808587031215620002b0578384fd5b8451602080870151919550906001600160401b0380821115620002d1578586fd5b620002df89838a0162000271565b9550604091508188015181811115620002f6578586fd5b620003048a828b0162000271565b95505060608801518181111562000319578485fd5b8801601f81018a136200032a578485fd5b8051828111156200033f576200033f6200041a565b6200034e8586830201620003b1565b8181528581019350828601875b838110156200039d57815185018e603f8201126200037757898afd5b620003898f8a8301518a8401620001f1565b87525094870194908701906001016200035b565b505080965050505050505092959194509250565b6040518181016001600160401b0381118282101715620003d557620003d56200041a565b604052919050565b600281046001821680620003f257607f821691505b602082108114156200041457634e487b7160e01b600052602260045260246000fd5b50919050565b634e487b7160e01b600052604160045260246000fd5b6108aa80620004406000396000f3fe608060405234801561001057600080fd5b50600436106100885760003560e01c80637284e4161161005b5780637284e416146100f3578063af640d0f146100fb578063bf7f3cfe14610103578063e9dc06141461011857610088565b8063013cf08b1461008d57806302f6df8e146100b657806306fdde03146100d657806362564c48146100de575b600080fd5b6100a061009b3660046105ad565b61012d565b6040516100ad919061077b565b60405180910390f35b6100c96100c436600461050c565b6101d9565b6040516100ad9190610795565b6100a06101f6565b6100e6610203565b6040516100ad91906106a8565b6100a06102dc565b6100c96102e9565b61010b6102ef565b6040516100ad9190610708565b61012b61012636600461050c565b6104bb565b005b6003818154811061013d57600080fd5b906000526020600020016000915090508054610158906107f2565b80601f0160208091040260200160405190810160405280929190818152602001828054610184906107f2565b80156101d15780601f106101a6576101008083540402835291602001916101d1565b820191906000526020600020905b8154815290600101906020018083116101b457829003601f168201915b505050505081565b805160208183018101805160048252928201919093012091525481565b60018054610158906107f2565b60606003805480602002602001604051908101604052809291908181526020016000905b828210156102d3578382906000526020600020018054610246906107f2565b80601f0160208091040260200160405190810160405280929190818152602001828054610272906107f2565b80156102bf5780601f10610294576101008083540402835291602001916102bf565b820191906000526020600020905b8154815290600101906020018083116102a257829003601f168201915b505050505081526020019060010190610227565b50505050905090565b60028054610158906107f2565b60005481565b606060008060038054905067ffffffffffffffff81111561032057634e487b7160e01b600052604160045260246000fd5b60405190808252806020026020018201604052801561035957816020015b6103466104f2565b81526020019060019003908161033e5790505b5090505b6003548210156104b55760405180604001604052806003848154811061039357634e487b7160e01b600052603260045260246000fd5b9060005260206000200180546103a8906107f2565b80601f01602080910402602001604051908101604052809291908181526020018280546103d4906107f2565b80156104215780601f106103f657610100808354040283529160200191610421565b820191906000526020600020905b81548152906001019060200180831161040457829003601f168201915b5050505050815260200160046003858154811061044e57634e487b7160e01b600052603260045260246000fd5b90600052602060002001604051610465919061060d565b90815260200160405180910390205481525081838151811061049757634e487b7160e01b600052603260045260246000fd5b602002602001018190525081806104ad9061082d565b92505061035d565b91505090565b60016004826040516104cd91906105f1565b908152602001604051809103902060008282546104ea91906107aa565b909155505050565b604051806040016040528060608152602001600081525090565b6000602080838503121561051e578182fd5b823567ffffffffffffffff80821115610535578384fd5b818501915085601f830112610548578384fd5b81358181111561055a5761055a61085e565b604051601f8201601f191681018501838111828210171561057d5761057d61085e565b6040528181528382018501881015610593578586fd5b818585018683013790810190930193909352509392505050565b6000602082840312156105be578081fd5b5035919050565b600081518084526105dd8160208601602086016107c2565b601f01601f19169290920160200192915050565b600082516106038184602087016107c2565b9190910192915050565b815460009081906002810460018083168061062957607f831692505b602080841082141561064957634e487b7160e01b87526022600452602487fd5b81801561065d576001811461066e5761069a565b60ff1986168952848901965061069a565b6106778a61079e565b885b868110156106925781548b820152908501908301610679565b505084890196505b509498975050505050505050565b6000602080830181845280855180835260408601915060408482028701019250838701855b828110156106fb57603f198886030184526106e98583516105c5565b945092850192908501906001016106cd565b5092979650505050505050565b60208082528251828201819052600091906040908185019080840286018301878501865b8381101561076d57888303603f1901855281518051878552610750888601826105c5565b91890151948901949094529487019492509086019060010161072c565b509098975050505050505050565b60006020825261078e60208301846105c5565b9392505050565b90815260200190565b60009081526020902090565b600082198211156107bd576107bd610848565b500190565b60005b838110156107dd5781810151838201526020016107c5565b838111156107ec576000848401525b50505050565b60028104600182168061080657607f821691505b6020821081141561082757634e487b7160e01b600052602260045260246000fd5b50919050565b600060001982141561084157610841610848565b5060010190565b634e487b7160e01b600052601160045260246000fd5b634e487b7160e01b600052604160045260246000fdfea2646970667358221220c54721ea59b407cd5cf60c8da32d8885fc78cf24f6e6f95e035c75df66a3859464736f6c63430008000033a264697066735822122047d36b25e0ed2f07b303f15e568e396a4acb1241ce7c2b2fa91efbca7ad97ef864736f6c63430008000033",
  "immutableReferences": {},
  "source": "//SPDX-License-Identifier: Unlicense\npragma solidity ^0.8.0;\n// pragma experimental ABIEncoderV2;\n\nimport { VotingProcess } from './VotingProcess.sol';\nimport { Semaphore } from './Semaphore.sol';\n\ncontract OneVote {\n    mapping(uint => VotingProcess) public votingProcesses;\n    uint processCounter;\n\n    uint256[] public identityCommitments;\n\n    // A mapping of all signals broadcasted\n    mapping (uint256 => bytes) public signalIndexToSignal;\n\n    // A mapping between signal indices to external nullifiers\n    mapping (uint256 => uint256) public signalIndexToExternalNullifier;\n\n    mapping (uint232 => bytes[]) public signalsForNullifier;\n\n    // The next index of the `signalIndexToSignal` mapping\n    uint256 public nextSignalIndex = 0;\n\n    Semaphore public semaphore;\n\n    event SignalBroadcastByClient(uint256 indexed signalIndex);\n\n\n    function getNextSignalIndex() public view returns (uint256) {\n        return nextSignalIndex;\n    }\n\n    function getIdentityCommitments() public view returns (uint256 [] memory) {\n        return identityCommitments;\n    }\n\n    function getIdentityCommitment(uint256 _index) public view returns (uint256) {\n        return identityCommitments[_index];\n    }\n\n    event IdentityCommitment(uint256 indexed identityCommitment);\n\n    function insertIdentityAsClient(uint256 _leaf) public {\n        semaphore.insertIdentity(_leaf);\n        identityCommitments.push(_leaf);\n        emit IdentityCommitment(_leaf);\n    }\n\n    function addExternalNullifier(uint232 _externalNullifier) public {\n        semaphore.addExternalNullifier(_externalNullifier);\n    }\n\n    constructor(Semaphore _semaphore) public {\n        semaphore = _semaphore;\n    }\n\n    event Rooot(uint256 root);\n\n    function vote(\n        bytes memory _signal,\n        uint256[8] memory _proof,\n        uint256 _root,\n        uint256 _nullifiersHash,\n        uint232 _externalNullifier  //processId\n    ) public {\n        // bool exist = false;\n        // bytes[] memory proposals = votingProcesses[_externalNullifier].getProposals();\n        // for(uint i = 0; i < proposals.length; i ++){\n        //     bytes memory proposal = proposals[i];\n        //     if (keccak256(abi.encodePacked((_signal))) == keccak256(abi.encodePacked((proposal)))){\n        //         exist = true;\n        //         break;\n        //     }\n        // }\n        // require(exist == true, \"You need to choose one of the voting options!\");\n\n        uint256 signalIndex = nextSignalIndex;\n\n        // store the signal\n        signalIndexToSignal[nextSignalIndex] = _signal;\n\n        // map the the signal index to the given external nullifier\n        signalIndexToExternalNullifier[nextSignalIndex] = _externalNullifier;\n\n        signalsForNullifier[_externalNullifier].push(_signal);\n\n        votingProcesses[_externalNullifier].vote(_signal);\n\n        // increment the signal index\n        nextSignalIndex ++;\n\n        emit Rooot(_root);\n\n        // broadcast the signal\n        semaphore.broadcastSignal(_signal, _proof, _root, _nullifiersHash, _externalNullifier);\n\n        emit SignalBroadcastByClient(signalIndex);\n    }\n\n    /*\n     * Returns the external nullifier which a signal at _index broadcasted to\n     * @param _index The index to use to look up the signalIndexToExternalNullifier mapping\n     */\n    function getExternalNullifierBySignalIndex(uint256 _index) public view returns (uint256) {\n        return signalIndexToExternalNullifier[_index];\n    }\n\n    function getSignalBySignalIndex(uint256 _index) public view returns (bytes memory) {\n        return signalIndexToSignal[_index];\n    }\n\n    struct ProcessDTO {\n        uint id;\n        string name;\n        string description;\n        bytes[] proposals;\n    }\n\n    function createVotingProcess(\n        string memory _name,\n        string memory _description,\n        bytes[] memory _proposals\n    ) public {\n        require(_proposals.length > 1, \"There need to be at least 2 proposals\");\n        //add new voting proposal\n        VotingProcess vp = new VotingProcess(processCounter, _name, _description, _proposals);\n\n        addExternalNullifier(uint232(processCounter));\n\n        votingProcesses[processCounter] = vp;\n        processCounter += 1;\n    }\n\n    function getProcesses() public view returns(ProcessDTO[] memory){\n        uint256 i = 0;\n        ProcessDTO[] memory returnProcesses = new ProcessDTO[](processCounter);\n\n        for(i; i < processCounter; i++){\n            returnProcesses[i] = ProcessDTO({\n                id: votingProcesses[i].id(),\n                name: votingProcesses[i].name(),\n                description: votingProcesses[i].description(),\n                proposals: votingProcesses[i].getProposals()\n            });\n        }\n\n        return returnProcesses;\n    }\n\n    function getProcess(uint id) public view returns (ProcessDTO memory){\n        VotingProcess votingProcess = votingProcesses[id];\n        return ProcessDTO({\n            id: votingProcess.id(),\n            name: votingProcess.name(),\n            description: votingProcess.description(),\n            proposals: votingProcess.getProposals()\n        });\n    }\n\n    function getRoots() public view returns (uint256[10] memory){\n        return semaphore.getRoots();\n    }\n\n    function getRootHistory(uint256 id) public view returns (bool){\n        return semaphore.rootHistory(id);\n    }\n\n}",
  "sourcePath": "/home/aleksandar/ZKUniversity/ZKVoting/contracts/contracts/OneVote.sol",
  "compiler": {
    "name": "solc",
    "version": "0.8.0+commit.c7dfd78e.Emscripten.clang"
  },
  "schemaVersion": "3.4.4",
  "updatedAt": "2022-02-05T06:07:37.665Z",
  "networkType": "ethereum",
  "devdoc": {
    "kind": "dev",
    "methods": {},
    "version": 1
  },
  "userdoc": {
    "kind": "user",
    "methods": {},
    "version": 1
  }
}