{
  "contractName": "OneVote",
  "abi": [
    {
      "inputs": [
        {
          "internalType": "contract Semaphore",
          "name": "_semaphore",
          "type": "address"
        }
      ],
      "stateMutability": "nonpayable",
      "type": "constructor"
    },
    {
      "anonymous": false,
      "inputs": [
        {
          "indexed": true,
          "internalType": "uint256",
          "name": "signalIndex",
          "type": "uint256"
        }
      ],
      "name": "SignalBroadcastByClient",
      "type": "event"
    },
    {
      "inputs": [
        {
          "internalType": "uint256",
          "name": "",
          "type": "uint256"
        }
      ],
      "name": "identityCommitments",
      "outputs": [
        {
          "internalType": "uint256",
          "name": "",
          "type": "uint256"
        }
      ],
      "stateMutability": "view",
      "type": "function",
      "constant": true
    },
    {
      "inputs": [],
      "name": "nextSignalIndex",
      "outputs": [
        {
          "internalType": "uint256",
          "name": "",
          "type": "uint256"
        }
      ],
      "stateMutability": "view",
      "type": "function",
      "constant": true
    },
    {
      "inputs": [],
      "name": "semaphore",
      "outputs": [
        {
          "internalType": "contract Semaphore",
          "name": "",
          "type": "address"
        }
      ],
      "stateMutability": "view",
      "type": "function",
      "constant": true
    },
    {
      "inputs": [
        {
          "internalType": "uint256",
          "name": "",
          "type": "uint256"
        }
      ],
      "name": "signalIndexToExternalNullifier",
      "outputs": [
        {
          "internalType": "uint256",
          "name": "",
          "type": "uint256"
        }
      ],
      "stateMutability": "view",
      "type": "function",
      "constant": true
    },
    {
      "inputs": [
        {
          "internalType": "uint256",
          "name": "",
          "type": "uint256"
        }
      ],
      "name": "signalIndexToSignal",
      "outputs": [
        {
          "internalType": "bytes",
          "name": "",
          "type": "bytes"
        }
      ],
      "stateMutability": "view",
      "type": "function",
      "constant": true
    },
    {
      "inputs": [
        {
          "internalType": "uint256",
          "name": "",
          "type": "uint256"
        }
      ],
      "name": "votingProcesses",
      "outputs": [
        {
          "internalType": "contract VotingProcess",
          "name": "",
          "type": "address"
        }
      ],
      "stateMutability": "view",
      "type": "function",
      "constant": true
    },
    {
      "inputs": [],
      "name": "getNextSignalIndex",
      "outputs": [
        {
          "internalType": "uint256",
          "name": "",
          "type": "uint256"
        }
      ],
      "stateMutability": "view",
      "type": "function",
      "constant": true
    },
    {
      "inputs": [],
      "name": "getIdentityCommitments",
      "outputs": [
        {
          "internalType": "uint256[]",
          "name": "",
          "type": "uint256[]"
        }
      ],
      "stateMutability": "view",
      "type": "function",
      "constant": true
    },
    {
      "inputs": [
        {
          "internalType": "uint256",
          "name": "_index",
          "type": "uint256"
        }
      ],
      "name": "getIdentityCommitment",
      "outputs": [
        {
          "internalType": "uint256",
          "name": "",
          "type": "uint256"
        }
      ],
      "stateMutability": "view",
      "type": "function",
      "constant": true
    },
    {
      "inputs": [
        {
          "internalType": "uint256",
          "name": "_leaf",
          "type": "uint256"
        }
      ],
      "name": "insertIdentityAsClient",
      "outputs": [],
      "stateMutability": "nonpayable",
      "type": "function"
    },
    {
      "inputs": [
        {
          "internalType": "uint232",
          "name": "_externalNullifier",
          "type": "uint232"
        }
      ],
      "name": "addExternalNullifier",
      "outputs": [],
      "stateMutability": "nonpayable",
      "type": "function"
    },
    {
      "inputs": [
        {
          "internalType": "bytes",
          "name": "_signal",
          "type": "bytes"
        },
        {
          "internalType": "uint256[8]",
          "name": "_proof",
          "type": "uint256[8]"
        },
        {
          "internalType": "uint256",
          "name": "_root",
          "type": "uint256"
        },
        {
          "internalType": "uint256",
          "name": "_nullifiersHash",
          "type": "uint256"
        },
        {
          "internalType": "uint232",
          "name": "_externalNullifier",
          "type": "uint232"
        }
      ],
      "name": "vote",
      "outputs": [],
      "stateMutability": "nonpayable",
      "type": "function"
    },
    {
      "inputs": [
        {
          "internalType": "uint256",
          "name": "_index",
          "type": "uint256"
        }
      ],
      "name": "getExternalNullifierBySignalIndex",
      "outputs": [
        {
          "internalType": "uint256",
          "name": "",
          "type": "uint256"
        }
      ],
      "stateMutability": "view",
      "type": "function",
      "constant": true
    },
    {
      "inputs": [
        {
          "internalType": "uint256",
          "name": "_index",
          "type": "uint256"
        }
      ],
      "name": "getSignalBySignalIndex",
      "outputs": [
        {
          "internalType": "bytes",
          "name": "",
          "type": "bytes"
        }
      ],
      "stateMutability": "view",
      "type": "function",
      "constant": true
    },
    {
      "inputs": [
        {
          "internalType": "string",
          "name": "_name",
          "type": "string"
        },
        {
          "internalType": "string",
          "name": "_description",
          "type": "string"
        },
        {
          "internalType": "bytes[]",
          "name": "_proposals",
          "type": "bytes[]"
        }
      ],
      "name": "createVotingProcess",
      "outputs": [],
      "stateMutability": "nonpayable",
      "type": "function"
    },
    {
      "inputs": [],
      "name": "getProcesses",
      "outputs": [
        {
          "components": [
            {
              "internalType": "uint256",
              "name": "id",
              "type": "uint256"
            },
            {
              "internalType": "string",
              "name": "name",
              "type": "string"
            },
            {
              "internalType": "string",
              "name": "description",
              "type": "string"
            },
            {
              "internalType": "bytes[]",
              "name": "proposals",
              "type": "bytes[]"
            }
          ],
          "internalType": "struct OneVote.ProcessDTO[]",
          "name": "",
          "type": "tuple[]"
        }
      ],
      "stateMutability": "view",
      "type": "function",
      "constant": true
    },
    {
      "inputs": [
        {
          "internalType": "uint256",
          "name": "id",
          "type": "uint256"
        }
      ],
      "name": "getProcess",
      "outputs": [
        {
          "components": [
            {
              "internalType": "uint256",
              "name": "id",
              "type": "uint256"
            },
            {
              "internalType": "string",
              "name": "name",
              "type": "string"
            },
            {
              "internalType": "string",
              "name": "description",
              "type": "string"
            },
            {
              "internalType": "bytes[]",
              "name": "proposals",
              "type": "bytes[]"
            }
          ],
          "internalType": "struct OneVote.ProcessDTO",
          "name": "",
          "type": "tuple"
        }
      ],
      "stateMutability": "view",
      "type": "function",
      "constant": true
    }
  ],
  "bytecode": "0x6080604052600060055534801561001557600080fd5b50604051611eee380380611eee83398101604081905261003491610059565b600680546001600160a01b0319166001600160a01b0392909216919091179055610087565b60006020828403121561006a578081fd5b81516001600160a01b0381168114610080578182fd5b9392505050565b611e58806100966000396000f3fe60806040523480156200001157600080fd5b5060043610620001245760003560e01c80638d2d593b11620000b1578063bde10612116200007b578063bde106121462000252578063c9ed01981462000269578063cb7be8cf1462000280578063d0851a711462000297578063f9cdb5cd14620002bd5762000124565b80638d2d593b14620002035780638fd0de57146200020d578063911ca41e1462000224578063b30b483f146200023b5762000124565b8063539f38b211620000f3578063539f38b214620001b05780636e52b23914620001c9578063740afb7714620001e25780637b5d253414620001f95762000124565b8063040c46ec146200012957806327acf71b146200015857806340566790146200017e57806349b0b9101462000197575b600080fd5b620001406200013a36600462001185565b620002d4565b6040516200014f9190620013b5565b60405180910390f35b6200016f6200016936600462001185565b620002ef565b6040516200014f919062001333565b6200018862000391565b6040516200014f9190620012ed565b620001a1620003eb565b6040516200014f919062001437565b620001c7620001c136600462001168565b620003f1565b005b620001d36200045a565b6040516200014f919062001289565b620001a1620001f336600462001185565b62000761565b6200014062000776565b620001a162000785565b620001a16200021e36600462001185565b6200078b565b6200016f6200023536600462001185565b620007ad565b620001a16200024c36600462001185565b62000857565b620001c76200026336600462001185565b6200088d565b620001c76200027a36600462001085565b6200094b565b620001c76200029136600462000f6f565b62000a12565b620002ae620002a836600462001185565b62000b0a565b6040516200014f91906200140e565b620001a1620002ce36600462001185565b62000d2c565b6000602081905290815260409020546001600160a01b031681565b600360205260009081526040902080546200030a90620015a0565b80601f01602080910402602001604051908101604052809291908181526020018280546200033890620015a0565b8015620003895780601f106200035d5761010080835404028352916020019162000389565b820191906000526020600020905b8154815290600101906020018083116200036b57829003601f168201915b505050505081565b60606002805480602002602001604051908101604052809291908181526020018280548015620003e157602002820191906000526020600020905b815481526020019060010190808311620003cc575b5050505050905090565b60055490565b6006546040516329cf9c5960e11b81526001600160a01b039091169063539f38b2906200042390849060040162001423565b600060405180830381600087803b1580156200043e57600080fd5b505af115801562000453573d6000803e3d6000fd5b5050505050565b606060008060015467ffffffffffffffff8111156200048957634e487b7160e01b600052604160045260246000fd5b604051908082528060200260200182016040528015620004c657816020015b620004b262000d3e565b815260200190600190039081620004a85790505b5090505b6001548210156200075b57604080516080810180835260008581526020818152908490205463af640d0f60e01b9092529251919283926001600160a01b039092169163af640d0f9160848086019290818703018186803b1580156200052e57600080fd5b505afa15801562000543573d6000803e3d6000fd5b505050506040513d601f19601f820116820180604052508101906200056991906200119e565b81526000848152602081815260408083205481516306fdde0360e01b8152915192909401936001600160a01b0316926306fdde0392600480840193829003018186803b158015620005b957600080fd5b505afa158015620005ce573d6000803e3d6000fd5b505050506040513d6000823e601f3d908101601f19168201604052620005f8919081019062001032565b8152600084815260208181526040808320548151633942720b60e11b8152915192909401936001600160a01b031692637284e41692600480840193829003018186803b1580156200064857600080fd5b505afa1580156200065d573d6000803e3d6000fd5b505050506040513d6000823e601f3d908101601f1916820160405262000687919081019062001032565b8152600084815260208181526040808320548151630c4ac98960e31b8152915192909401936001600160a01b0316926362564c4892600480840193829003018186803b158015620006d757600080fd5b505afa158015620006ec573d6000803e3d6000fd5b505050506040513d6000823e601f3d908101601f1916820160405262000716919081019062000ec6565b8152508183815181106200073a57634e487b7160e01b600052603260045260246000fd5b602002602001018190525081806200075290620015dd565b925050620004ca565b91505090565b6000818152600460205260409020545b919050565b6006546001600160a01b031681565b60055481565b600281815481106200079c57600080fd5b600091825260209091200154905081565b6000818152600360205260409020805460609190620007cc90620015a0565b80601f0160208091040260200160405190810160405280929190818152602001828054620007fa90620015a0565b80156200084b5780601f106200081f576101008083540402835291602001916200084b565b820191906000526020600020905b8154815290600101906020018083116200082d57829003601f168201915b50505050509050919050565b6000600282815481106200087b57634e487b7160e01b600052603260045260246000fd5b90600052602060002001549050919050565b6006546040516336c077e560e11b81526001600160a01b0390911690636d80efca90620008bf90849060040162001437565b602060405180830381600087803b158015620008da57600080fd5b505af1158015620008ef573d6000803e3d6000fd5b505050506040513d601f19601f820116820180604052508101906200091591906200119e565b50600280546001810182556000919091527f405787fa12a823e0f2b7631cc41b3ba8828b3321ca811111fa75cd3aa3bb5ace0155565b6001815111620009785760405162461bcd60e51b81526004016200096f90620013c9565b60405180910390fd5b60006001548484846040516200098e9062000d66565b6200099d949392919062001440565b604051809103906000f080158015620009ba573d6000803e3d6000fd5b509050620009ca600154620003f1565b60018054600090815260208190526040812080546001600160a01b0319166001600160a01b038516179055815482919062000a0790839062001552565b909155505050505050565b6005546000818152600360209081526040909120875162000a369289019062000d74565b506005805460009081526004602052604081206001600160e81b03851690558154919062000a6483620015dd565b9091555050600654604051630e57596f60e01b81526001600160a01b0390911690630e57596f9062000aa3908990899089908990899060040162001348565b600060405180830381600087803b15801562000abe57600080fd5b505af115801562000ad3573d6000803e3d6000fd5b50506040518392507faa676fd106f1023de6c9eafff9af5bc8e299b3493d3aa816a3278a15d055657b9150600090a2505050505050565b62000b1462000d3e565b600082815260208181526040918290205482516080810180855263af640d0f60e01b905292516001600160a01b0390911692918291849163af640d0f916084808601929190818703018186803b15801562000b6e57600080fd5b505afa15801562000b83573d6000803e3d6000fd5b505050506040513d601f19601f8201168201806040525081019062000ba991906200119e565b8152602001826001600160a01b03166306fdde036040518163ffffffff1660e01b815260040160006040518083038186803b15801562000be857600080fd5b505afa15801562000bfd573d6000803e3d6000fd5b505050506040513d6000823e601f3d908101601f1916820160405262000c27919081019062001032565b8152602001826001600160a01b0316637284e4166040518163ffffffff1660e01b815260040160006040518083038186803b15801562000c6657600080fd5b505afa15801562000c7b573d6000803e3d6000fd5b505050506040513d6000823e601f3d908101601f1916820160405262000ca5919081019062001032565b8152602001826001600160a01b03166362564c486040518163ffffffff1660e01b815260040160006040518083038186803b15801562000ce457600080fd5b505afa15801562000cf9573d6000803e3d6000fd5b505050506040513d6000823e601f3d908101601f1916820160405262000d23919081019062000ec6565b90529392505050565b60046020526000908152604090205481565b6040518060800160405280600081526020016060815260200160608152602001606081525090565b6107fb806200162883390190565b82805462000d8290620015a0565b90600052602060002090601f01602090048101928262000da6576000855562000df1565b82601f1062000dc157805160ff191683800117855562000df1565b8280016001018555821562000df1579182015b8281111562000df157825182559160200191906001019062000dd4565b5062000dff92915062000e03565b5090565b5b8082111562000dff576000815560010162000e04565b600062000e3162000e2b8462001527565b620014d3565b905082815283838301111562000e4657600080fd5b62000e568360208301846200156d565b9392505050565b600082601f83011262000e6e578081fd5b813562000e7f62000e2b8262001527565b81815284602083860101111562000e94578283fd5b816020850160208301379081016020019190915292915050565b80356001600160e81b03811681146200077157600080fd5b6000602080838503121562000ed9578182fd5b825167ffffffffffffffff81111562000ef0578283fd5b8301601f8101851362000f01578283fd5b805162000f1262000e2b8262001500565b81815283810190838501865b8481101562000f6157815186018a603f82011262000f3a578889fd5b62000f4d8b898301516040840162000e1a565b855250928601929086019060010162000f1e565b509098975050505050505050565b6000806000806000610180868803121562000f88578081fd5b853567ffffffffffffffff81111562000f9f578182fd5b62000fad8882890162000e5d565b955050602087603f88011262000fc1578182fd5b62000fce610100620014d3565b808289016101208a018b81111562000fe4578586fd5b855b6008811015620010055782358552938501939185019160010162000fe6565b50919750503594505050610140860135915062001026610160870162000eae565b90509295509295909350565b60006020828403121562001044578081fd5b815167ffffffffffffffff8111156200105b578182fd5b8201601f810184136200106c578182fd5b6200107d8482516020840162000e1a565b949350505050565b6000806000606084860312156200109a578283fd5b833567ffffffffffffffff80821115620010b2578485fd5b620010c08783880162000e5d565b9450602091508186013581811115620010d7578485fd5b620010e58882890162000e5d565b945050604086013581811115620010fa578384fd5b86019050601f810187136200110d578283fd5b80356200111e62000e2b8262001500565b81815283810190838501865b848110156200115757620011448c88843589010162000e5d565b845292860192908601906001016200112a565b505080955050505050509250925092565b6000602082840312156200117a578081fd5b62000e568262000eae565b60006020828403121562001197578081fd5b5035919050565b600060208284031215620011b0578081fd5b5051919050565b60008151808452620011d18160208601602086016200156d565b601f01601f19169290920160200192915050565b600081518352602080830151608082860152620012066080860182620011b7565b905060408401518582036040870152620012218282620011b7565b915050606084015185820360608701528181518084528484019150848582028501018584019350865b828110156200127c57601f1986830301845262001269828651620011b7565b948701949387019391506001016200124a565b5098975050505050505050565b6000602080830181845280855180835260408601915060408482028701019250838701855b82811015620012e057603f19888603018452620012cd858351620011e5565b94509285019290850190600101620012ae565b5092979650505050505050565b6020808252825182820181905260009190848201906040850190845b81811015620013275783518352928401929184019160010162001309565b50909695505050505050565b60006020825262000e566020830184620011b7565b60006101808083526200135e81840189620011b7565b91505060208083018760005b600881101562001389578151835291830191908301906001016200136a565b505050506101208201949094526101408101929092526001600160e81b03166101609091015292915050565b6001600160a01b0391909116815260200190565b60208082526025908201527f5468657265206e65656420746f206265206174206c6561737420322070726f706040820152646f73616c7360d81b606082015260800190565b60006020825262000e566020830184620011e5565b6001600160e81b0391909116815260200190565b90815260200190565b600085825260206080818401526200145c6080840187620011b7565b8381036040850152620014708187620011b7565b848103606086015285518082529091508282019083810283018401848801865b83811015620014c257601f19868403018552620014af838351620011b7565b9487019492509086019060010162001490565b50909b9a5050505050505050505050565b60405181810167ffffffffffffffff81118282101715620014f857620014f862001611565b604052919050565b600067ffffffffffffffff8211156200151d576200151d62001611565b5060209081020190565b600067ffffffffffffffff82111562001544576200154462001611565b50601f01601f191660200190565b60008219821115620015685762001568620015fb565b500190565b60005b838110156200158a57818101518382015260200162001570565b838111156200159a576000848401525b50505050565b600281046001821680620015b557607f821691505b60208210811415620015d757634e487b7160e01b600052602260045260246000fd5b50919050565b6000600019821415620015f457620015f4620015fb565b5060010190565b634e487b7160e01b600052601160045260246000fd5b634e487b7160e01b600052604160045260246000fdfe60806040523480156200001157600080fd5b50604051620007fb380380620007fb83398101604081905262000034916200029a565b600084905582516200004e90600190602086019062000085565b5081516200006490600290602085019062000085565b5080516200007a90600390602084019062000114565b505050505062000430565b8280546200009390620003dd565b90600052602060002090601f016020900481019282620000b7576000855562000102565b82601f10620000d257805160ff191683800117855562000102565b8280016001018555821562000102579182015b8281111562000102578251825591602001919060010190620000e5565b506200011092915062000174565b5090565b82805482825590600052602060002090810192821562000166579160200282015b828111156200016657825180516200015591849160209091019062000085565b509160200191906001019062000135565b50620001109291506200018b565b5b8082111562000110576000815560010162000175565b8082111562000110576000620001a28282620001ac565b506001016200018b565b508054620001ba90620003dd565b6000825580601f10620001ce5750620001ee565b601f016020900490600052602060002090810190620001ee919062000174565b50565b60006001600160401b038311156200020d576200020d6200041a565b602062000223601f8501601f19168201620003b1565b91508382528484840111156200023857600080fd5b60005b8481101562000256578381015183820183015281016200023b565b84811115620002685760008286850101525b50509392505050565b600082601f83011262000282578081fd5b6200029383835160208501620001f1565b9392505050565b60008060008060808587031215620002b0578384fd5b8451602080870151919550906001600160401b0380821115620002d1578586fd5b620002df89838a0162000271565b9550604091508188015181811115620002f6578586fd5b620003048a828b0162000271565b95505060608801518181111562000319578485fd5b8801601f81018a136200032a578485fd5b8051828111156200033f576200033f6200041a565b6200034e8586830201620003b1565b8181528581019350828601875b838110156200039d57815185018e603f8201126200037757898afd5b620003898f8a8301518a8401620001f1565b87525094870194908701906001016200035b565b505080965050505050505092959194509250565b6040518181016001600160401b0381118282101715620003d557620003d56200041a565b604052919050565b600281046001821680620003f257607f821691505b602082108114156200041457634e487b7160e01b600052602260045260246000fd5b50919050565b634e487b7160e01b600052604160045260246000fd5b6103bb80620004406000396000f3fe608060405234801561001057600080fd5b50600436106100575760003560e01c8063013cf08b1461005c57806306fdde031461008557806362564c481461008d5780637284e416146100a2578063af640d0f146100aa575b600080fd5b61006f61006a366004610264565b6100bf565b60405161007c9190610327565b60405180910390f35b61006f61016b565b610095610178565b60405161007c91906102c7565b61006f610251565b6100b261025e565b60405161007c9190610341565b600381815481106100cf57600080fd5b9060005260206000200160009150905080546100ea9061034a565b80601f01602080910402602001604051908101604052809291908181526020018280546101169061034a565b80156101635780601f1061013857610100808354040283529160200191610163565b820191906000526020600020905b81548152906001019060200180831161014657829003601f168201915b505050505081565b600180546100ea9061034a565b60606003805480602002602001604051908101604052809291908181526020016000905b828210156102485783829060005260206000200180546101bb9061034a565b80601f01602080910402602001604051908101604052809291908181526020018280546101e79061034a565b80156102345780601f1061020957610100808354040283529160200191610234565b820191906000526020600020905b81548152906001019060200180831161021757829003601f168201915b50505050508152602001906001019061019c565b50505050905090565b600280546100ea9061034a565b60005481565b600060208284031215610275578081fd5b5035919050565b60008151808452815b818110156102a157602081850181015186830182015201610285565b818111156102b25782602083870101525b50601f01601f19169290920160200192915050565b6000602080830181845280855180835260408601915060408482028701019250838701855b8281101561031a57603f1988860301845261030885835161027c565b945092850192908501906001016102ec565b5092979650505050505050565b60006020825261033a602083018461027c565b9392505050565b90815260200190565b60028104600182168061035e57607f821691505b6020821081141561037f57634e487b7160e01b600052602260045260246000fd5b5091905056fea2646970667358221220ef43ac74231f51217cfa159d7f00ab7f6ef58282ef5d337ed39111bb23cccbca64736f6c63430008000033a26469706673582212201f23ef3dec2f7fa63d01176462706575bd4fa406a164708f58f6c5c656dda1ab64736f6c63430008000033",
  "immutableReferences": {},
  "source": "//SPDX-License-Identifier: Unlicense\npragma solidity ^0.8.0;\n\nimport { VotingProcess } from './VotingProcess.sol';\nimport { Semaphore } from './Semaphore.sol';\n\ncontract OneVote {\n    mapping(uint => VotingProcess) public votingProcesses;\n    uint processCounter;\n\n    uint256[] public identityCommitments;\n\n    // A mapping of all signals broadcasted\n    mapping (uint256 => bytes) public signalIndexToSignal;\n\n    // A mapping between signal indices to external nullifiers\n    mapping (uint256 => uint256) public signalIndexToExternalNullifier;\n\n    // The next index of the `signalIndexToSignal` mapping\n    uint256 public nextSignalIndex = 0;\n\n    Semaphore public semaphore;\n\n    event SignalBroadcastByClient(uint256 indexed signalIndex);\n\n\n    function getNextSignalIndex() public view returns (uint256) {\n        return nextSignalIndex;\n    }\n\n    function getIdentityCommitments() public view returns (uint256 [] memory) {\n        return identityCommitments;\n    }\n\n    function getIdentityCommitment(uint256 _index) public view returns (uint256) {\n        return identityCommitments[_index];\n    }\n\n    function insertIdentityAsClient(uint256 _leaf) public {\n        semaphore.insertIdentity(_leaf);\n        identityCommitments.push(_leaf);\n    }\n\n    function addExternalNullifier(uint232 _externalNullifier) public {\n        semaphore.addExternalNullifier(_externalNullifier);\n    }\n\n    constructor(Semaphore _semaphore) {\n        semaphore = _semaphore;\n    }\n\n    function vote(\n        bytes memory _signal,\n        uint256[8] memory _proof,\n        uint256 _root,\n        uint256 _nullifiersHash,\n        uint232 _externalNullifier  //processId\n    ) public {\n        // bool exist = false;\n        // bytes[] memory proposals = votingProcesses[_externalNullifier].getProposals();\n        // for(uint i = 0; i < proposals.length; i ++){\n        //     bytes memory proposal = proposals[i];\n        //     if (keccak256(abi.encodePacked((_signal))) == keccak256(abi.encodePacked((proposal)))){\n        //         exist = true;\n        //         break;\n        //     }\n        // }\n        // require(exist == true, \"You need to choose one of the voting options!\");\n\n        uint256 signalIndex = nextSignalIndex;\n\n        // store the signal\n        signalIndexToSignal[nextSignalIndex] = _signal;\n\n        // map the the signal index to the given external nullifier\n        signalIndexToExternalNullifier[nextSignalIndex] = _externalNullifier;\n\n        // increment the signal index\n        nextSignalIndex ++;\n\n        // broadcast the signal\n        semaphore.broadcastSignal(_signal, _proof, _root, _nullifiersHash, _externalNullifier);\n\n        emit SignalBroadcastByClient(signalIndex);\n    }\n\n    /*\n     * Returns the external nullifier which a signal at _index broadcasted to\n     * @param _index The index to use to look up the signalIndexToExternalNullifier mapping\n     */\n    function getExternalNullifierBySignalIndex(uint256 _index) public view returns (uint256) {\n        return signalIndexToExternalNullifier[_index];\n    }\n\n    function getSignalBySignalIndex(uint256 _index) public view returns (bytes memory) {\n        return signalIndexToSignal[_index];\n    }\n\n    struct ProcessDTO {\n        uint id;\n        string name;\n        string description;\n        bytes[] proposals;\n    }\n\n    function createVotingProcess(\n        string memory _name,\n        string memory _description,\n        bytes[] memory _proposals\n    ) public {\n        require(_proposals.length > 1, \"There need to be at least 2 proposals\");\n        //add new voting proposal\n        VotingProcess vp = new VotingProcess(processCounter, _name, _description, _proposals);\n\n        addExternalNullifier(uint232(processCounter));\n\n        votingProcesses[processCounter] = vp;\n        processCounter += 1;\n    }\n\n    function getProcesses() public view returns(ProcessDTO[] memory){\n        uint256 i = 0;\n        ProcessDTO[] memory returnProcesses = new ProcessDTO[](processCounter);\n\n        for(i; i < processCounter; i++){\n            returnProcesses[i] = ProcessDTO({\n                id: votingProcesses[i].id(),\n                name: votingProcesses[i].name(),\n                description: votingProcesses[i].description(),\n                proposals: votingProcesses[i].getProposals()\n            });\n        }\n\n        return returnProcesses;\n    }\n\n    function getProcess(uint id) public view returns (ProcessDTO memory){\n        VotingProcess votingProcess = votingProcesses[id];\n        return ProcessDTO({\n            id: votingProcess.id(),\n            name: votingProcess.name(),\n            description: votingProcess.description(),\n            proposals: votingProcess.getProposals()\n        });\n    }\n\n}",
  "sourcePath": "/home/aleksandar/ZKUniversity/ZKVoting/contracts/contracts/OneVote.sol",
  "compiler": {
    "name": "solc",
    "version": "0.8.0+commit.c7dfd78e.Emscripten.clang"
  },
  "schemaVersion": "3.4.4",
  "updatedAt": "2022-01-31T14:49:49.494Z",
  "networkType": "ethereum",
  "devdoc": {
    "kind": "dev",
    "methods": {},
    "version": 1
  },
  "userdoc": {
    "kind": "user",
    "methods": {},
    "version": 1
  }
}