{
  "contractName": "OneVote",
  "abi": [
    {
      "inputs": [
        {
          "internalType": "contract Semaphore",
          "name": "_semaphore",
          "type": "address"
        }
      ],
      "stateMutability": "nonpayable",
      "type": "constructor"
    },
    {
      "anonymous": false,
      "inputs": [
        {
          "indexed": true,
          "internalType": "uint256",
          "name": "identityCommitment",
          "type": "uint256"
        }
      ],
      "name": "IdentityCommitment",
      "type": "event"
    },
    {
      "anonymous": false,
      "inputs": [
        {
          "indexed": false,
          "internalType": "uint256",
          "name": "root",
          "type": "uint256"
        }
      ],
      "name": "Rooot",
      "type": "event"
    },
    {
      "anonymous": false,
      "inputs": [
        {
          "indexed": true,
          "internalType": "uint256",
          "name": "signalIndex",
          "type": "uint256"
        }
      ],
      "name": "SignalBroadcastByClient",
      "type": "event"
    },
    {
      "inputs": [
        {
          "internalType": "uint256",
          "name": "",
          "type": "uint256"
        }
      ],
      "name": "identityCommitments",
      "outputs": [
        {
          "internalType": "uint256",
          "name": "",
          "type": "uint256"
        }
      ],
      "stateMutability": "view",
      "type": "function",
      "constant": true
    },
    {
      "inputs": [],
      "name": "nextSignalIndex",
      "outputs": [
        {
          "internalType": "uint256",
          "name": "",
          "type": "uint256"
        }
      ],
      "stateMutability": "view",
      "type": "function",
      "constant": true
    },
    {
      "inputs": [],
      "name": "semaphore",
      "outputs": [
        {
          "internalType": "contract Semaphore",
          "name": "",
          "type": "address"
        }
      ],
      "stateMutability": "view",
      "type": "function",
      "constant": true
    },
    {
      "inputs": [
        {
          "internalType": "uint256",
          "name": "",
          "type": "uint256"
        }
      ],
      "name": "signalIndexToExternalNullifier",
      "outputs": [
        {
          "internalType": "uint256",
          "name": "",
          "type": "uint256"
        }
      ],
      "stateMutability": "view",
      "type": "function",
      "constant": true
    },
    {
      "inputs": [
        {
          "internalType": "uint256",
          "name": "",
          "type": "uint256"
        }
      ],
      "name": "signalIndexToSignal",
      "outputs": [
        {
          "internalType": "bytes",
          "name": "",
          "type": "bytes"
        }
      ],
      "stateMutability": "view",
      "type": "function",
      "constant": true
    },
    {
      "inputs": [
        {
          "internalType": "uint256",
          "name": "",
          "type": "uint256"
        }
      ],
      "name": "votingProcesses",
      "outputs": [
        {
          "internalType": "contract VotingProcess",
          "name": "",
          "type": "address"
        }
      ],
      "stateMutability": "view",
      "type": "function",
      "constant": true
    },
    {
      "inputs": [],
      "name": "getNextSignalIndex",
      "outputs": [
        {
          "internalType": "uint256",
          "name": "",
          "type": "uint256"
        }
      ],
      "stateMutability": "view",
      "type": "function",
      "constant": true
    },
    {
      "inputs": [],
      "name": "getIdentityCommitments",
      "outputs": [
        {
          "internalType": "uint256[]",
          "name": "",
          "type": "uint256[]"
        }
      ],
      "stateMutability": "view",
      "type": "function",
      "constant": true
    },
    {
      "inputs": [
        {
          "internalType": "uint256",
          "name": "_index",
          "type": "uint256"
        }
      ],
      "name": "getIdentityCommitment",
      "outputs": [
        {
          "internalType": "uint256",
          "name": "",
          "type": "uint256"
        }
      ],
      "stateMutability": "view",
      "type": "function",
      "constant": true
    },
    {
      "inputs": [
        {
          "internalType": "uint256",
          "name": "_leaf",
          "type": "uint256"
        }
      ],
      "name": "insertIdentityAsClient",
      "outputs": [],
      "stateMutability": "nonpayable",
      "type": "function"
    },
    {
      "inputs": [
        {
          "internalType": "uint232",
          "name": "_externalNullifier",
          "type": "uint232"
        }
      ],
      "name": "addExternalNullifier",
      "outputs": [],
      "stateMutability": "nonpayable",
      "type": "function"
    },
    {
      "inputs": [
        {
          "internalType": "bytes",
          "name": "_signal",
          "type": "bytes"
        },
        {
          "internalType": "uint256[8]",
          "name": "_proof",
          "type": "uint256[8]"
        },
        {
          "internalType": "uint256",
          "name": "_root",
          "type": "uint256"
        },
        {
          "internalType": "uint256",
          "name": "_nullifiersHash",
          "type": "uint256"
        },
        {
          "internalType": "uint232",
          "name": "_externalNullifier",
          "type": "uint232"
        }
      ],
      "name": "vote",
      "outputs": [],
      "stateMutability": "nonpayable",
      "type": "function"
    },
    {
      "inputs": [
        {
          "internalType": "uint256",
          "name": "_index",
          "type": "uint256"
        }
      ],
      "name": "getExternalNullifierBySignalIndex",
      "outputs": [
        {
          "internalType": "uint256",
          "name": "",
          "type": "uint256"
        }
      ],
      "stateMutability": "view",
      "type": "function",
      "constant": true
    },
    {
      "inputs": [
        {
          "internalType": "uint256",
          "name": "_index",
          "type": "uint256"
        }
      ],
      "name": "getSignalBySignalIndex",
      "outputs": [
        {
          "internalType": "bytes",
          "name": "",
          "type": "bytes"
        }
      ],
      "stateMutability": "view",
      "type": "function",
      "constant": true
    },
    {
      "inputs": [
        {
          "internalType": "string",
          "name": "_name",
          "type": "string"
        },
        {
          "internalType": "string",
          "name": "_description",
          "type": "string"
        },
        {
          "internalType": "bytes[]",
          "name": "_proposals",
          "type": "bytes[]"
        }
      ],
      "name": "createVotingProcess",
      "outputs": [],
      "stateMutability": "nonpayable",
      "type": "function"
    },
    {
      "inputs": [],
      "name": "getProcesses",
      "outputs": [
        {
          "components": [
            {
              "internalType": "uint256",
              "name": "id",
              "type": "uint256"
            },
            {
              "internalType": "string",
              "name": "name",
              "type": "string"
            },
            {
              "internalType": "string",
              "name": "description",
              "type": "string"
            },
            {
              "internalType": "bytes[]",
              "name": "proposals",
              "type": "bytes[]"
            }
          ],
          "internalType": "struct OneVote.ProcessDTO[]",
          "name": "",
          "type": "tuple[]"
        }
      ],
      "stateMutability": "view",
      "type": "function",
      "constant": true
    },
    {
      "inputs": [
        {
          "internalType": "uint256",
          "name": "id",
          "type": "uint256"
        }
      ],
      "name": "getProcess",
      "outputs": [
        {
          "components": [
            {
              "internalType": "uint256",
              "name": "id",
              "type": "uint256"
            },
            {
              "internalType": "string",
              "name": "name",
              "type": "string"
            },
            {
              "internalType": "string",
              "name": "description",
              "type": "string"
            },
            {
              "internalType": "bytes[]",
              "name": "proposals",
              "type": "bytes[]"
            }
          ],
          "internalType": "struct OneVote.ProcessDTO",
          "name": "",
          "type": "tuple"
        }
      ],
      "stateMutability": "view",
      "type": "function",
      "constant": true
    },
    {
      "inputs": [],
      "name": "getRoots",
      "outputs": [
        {
          "internalType": "uint256[10]",
          "name": "",
          "type": "uint256[10]"
        }
      ],
      "stateMutability": "view",
      "type": "function",
      "constant": true
    },
    {
      "inputs": [
        {
          "internalType": "uint256",
          "name": "id",
          "type": "uint256"
        }
      ],
      "name": "getRootHistory",
      "outputs": [
        {
          "internalType": "bool",
          "name": "",
          "type": "bool"
        }
      ],
      "stateMutability": "view",
      "type": "function",
      "constant": true
    }
  ],
  "bytecode": "0x6080604052600060055534801561001557600080fd5b5060405161220438038061220483398101604081905261003491610059565b600680546001600160a01b0319166001600160a01b0392909216919091179055610087565b60006020828403121561006a578081fd5b81516001600160a01b0381168114610080578182fd5b9392505050565b61216e806100966000396000f3fe60806040523480156200001157600080fd5b50600436106200013c5760003560e01c80638d2d593b11620000bd578063c9ed0198116200007b578063c9ed0198146200029a578063cb7be8cf14620002b1578063d0851a7114620002c8578063f9cdb5cd14620002ee578063ffac00461462000305576200013c565b80638d2d593b14620002345780638fd0de57146200023e578063911ca41e1462000255578063b30b483f146200026c578063bde106121462000283576200013c565b806349b0b910116200010b57806349b0b91014620001c8578063539f38b214620001e15780636e52b23914620001fa578063740afb7714620002135780637b5d2534146200022a576200013c565b8063040c46ec146200014157806327acf71b146200017057806335a5e06d14620001965780634056679014620001af575b600080fd5b620001586200015236600462001438565b6200032b565b604051620001679190620016a7565b60405180910390f35b620001876200018136600462001438565b62000346565b60405162000167919062001625565b620001a0620003e8565b604051620001679190620015a0565b620001b962000482565b604051620001679190620015d4565b620001d2620004dc565b60405162000167919062001729565b620001f8620001f23660046200141b565b620004e2565b005b620002046200054b565b6040516200016791906200153c565b620001d26200022436600462001438565b62000852565b6200015862000867565b620001d262000876565b620001d26200024f36600462001438565b6200087c565b620001876200026636600462001438565b6200089e565b620001d26200027d36600462001438565b62000948565b620001f86200029436600462001438565b6200097e565b620001f8620002ab36600462001338565b62000a66565b620001f8620002c23660046200121e565b62000b2d565b620002df620002d936600462001438565b62000c5e565b60405162000167919062001700565b620001d2620002ff36600462001438565b62000e80565b6200031c6200031636600462001438565b62000e92565b6040516200016791906200161a565b6000602081905290815260409020546001600160a01b031681565b600360205260009081526040902080546200036190620018b6565b80601f01602080910402602001604051908101604052809291908181526020018280546200038f90620018b6565b8015620003e05780601f10620003b457610100808354040283529160200191620003e0565b820191906000526020600020905b815481529060010190602001808311620003c257829003601f168201915b505050505081565b620003f262000f1f565b600660009054906101000a90046001600160a01b03166001600160a01b03166335a5e06d6040518163ffffffff1660e01b81526004016101406040518083038186803b1580156200044257600080fd5b505afa15801562000457573d6000803e3d6000fd5b505050506040513d601f19601f820116820180604052508101906200047d91906200116f565b905090565b60606002805480602002602001604051908101604052809291908181526020018280548015620004d257602002820191906000526020600020905b815481526020019060010190808311620004bd575b5050505050905090565b60055490565b6006546040516329cf9c5960e11b81526001600160a01b039091169063539f38b2906200051490849060040162001715565b600060405180830381600087803b1580156200052f57600080fd5b505af115801562000544573d6000803e3d6000fd5b5050505050565b606060008060015467ffffffffffffffff8111156200057a57634e487b7160e01b600052604160045260246000fd5b604051908082528060200260200182016040528015620005b757816020015b620005a362000f3e565b815260200190600190039081620005995790505b5090505b6001548210156200084c57604080516080810180835260008581526020818152908490205463af640d0f60e01b9092529251919283926001600160a01b039092169163af640d0f9160848086019290818703018186803b1580156200061f57600080fd5b505afa15801562000634573d6000803e3d6000fd5b505050506040513d601f19601f820116820180604052508101906200065a919062001451565b81526000848152602081815260408083205481516306fdde0360e01b8152915192909401936001600160a01b0316926306fdde0392600480840193829003018186803b158015620006aa57600080fd5b505afa158015620006bf573d6000803e3d6000fd5b505050506040513d6000823e601f3d908101601f19168201604052620006e99190810190620012e5565b8152600084815260208181526040808320548151633942720b60e11b8152915192909401936001600160a01b031692637284e41692600480840193829003018186803b1580156200073957600080fd5b505afa1580156200074e573d6000803e3d6000fd5b505050506040513d6000823e601f3d908101601f19168201604052620007789190810190620012e5565b8152600084815260208181526040808320548151630c4ac98960e31b8152915192909401936001600160a01b0316926362564c4892600480840193829003018186803b158015620007c857600080fd5b505afa158015620007dd573d6000803e3d6000fd5b505050506040513d6000823e601f3d908101601f19168201604052620008079190810190620010c6565b8152508183815181106200082b57634e487b7160e01b600052603260045260246000fd5b602002602001018190525081806200084390620018f3565b925050620005bb565b91505090565b6000818152600460205260409020545b919050565b6006546001600160a01b031681565b60055481565b600281815481106200088d57600080fd5b600091825260209091200154905081565b6000818152600360205260409020805460609190620008bd90620018b6565b80601f0160208091040260200160405190810160405280929190818152602001828054620008eb90620018b6565b80156200093c5780601f1062000910576101008083540402835291602001916200093c565b820191906000526020600020905b8154815290600101906020018083116200091e57829003601f168201915b50505050509050919050565b6000600282815481106200096c57634e487b7160e01b600052603260045260246000fd5b90600052602060002001549050919050565b6006546040516336c077e560e11b81526001600160a01b0390911690636d80efca90620009b090849060040162001729565b602060405180830381600087803b158015620009cb57600080fd5b505af1158015620009e0573d6000803e3d6000fd5b505050506040513d601f19601f8201168201806040525081019062000a06919062001451565b506002805460018101825560009182527f405787fa12a823e0f2b7631cc41b3ba8828b3321ca811111fa75cd3aa3bb5ace0182905560405182917f31d0d431762af1b333d4fef318e03efc7b702fe91dd1f0aa2c72e699bebcb48991a250565b600181511162000a935760405162461bcd60e51b815260040162000a8a90620016bb565b60405180910390fd5b600060015484848460405162000aa99062000f66565b62000ab8949392919062001732565b604051809103906000f08015801562000ad5573d6000803e3d6000fd5b50905062000ae5600154620004e2565b60018054600090815260208190526040812080546001600160a01b0319166001600160a01b038516179055815482919062000b2290839062001868565b909155505050505050565b6005546000818152600360209081526040909120875162000b519289019062000f74565b506005805460009081526004602052604081206001600160e81b03851690558154919062000b7f83620018f3565b91905055507fc22cfa8a3523410b962de1755e11d5abcb562e0199fd322dda29198947f18c938460405162000bb5919062001729565b60405180910390a1600654604051630e57596f60e01b81526001600160a01b0390911690630e57596f9062000bf790899089908990899089906004016200163a565b600060405180830381600087803b15801562000c1257600080fd5b505af115801562000c27573d6000803e3d6000fd5b50506040518392507faa676fd106f1023de6c9eafff9af5bc8e299b3493d3aa816a3278a15d055657b9150600090a2505050505050565b62000c6862000f3e565b600082815260208181526040918290205482516080810180855263af640d0f60e01b905292516001600160a01b0390911692918291849163af640d0f916084808601929190818703018186803b15801562000cc257600080fd5b505afa15801562000cd7573d6000803e3d6000fd5b505050506040513d601f19601f8201168201806040525081019062000cfd919062001451565b8152602001826001600160a01b03166306fdde036040518163ffffffff1660e01b815260040160006040518083038186803b15801562000d3c57600080fd5b505afa15801562000d51573d6000803e3d6000fd5b505050506040513d6000823e601f3d908101601f1916820160405262000d7b9190810190620012e5565b8152602001826001600160a01b0316637284e4166040518163ffffffff1660e01b815260040160006040518083038186803b15801562000dba57600080fd5b505afa15801562000dcf573d6000803e3d6000fd5b505050506040513d6000823e601f3d908101601f1916820160405262000df99190810190620012e5565b8152602001826001600160a01b03166362564c486040518163ffffffff1660e01b815260040160006040518083038186803b15801562000e3857600080fd5b505afa15801562000e4d573d6000803e3d6000fd5b505050506040513d6000823e601f3d908101601f1916820160405262000e779190810190620010c6565b90529392505050565b60046020526000908152604090205481565b6006546040516378e310f760e11b81526000916001600160a01b03169063f1c621ee9062000ec590859060040162001729565b60206040518083038186803b15801562000ede57600080fd5b505afa15801562000ef3573d6000803e3d6000fd5b505050506040513d601f19601f8201168201806040525081019062000f199190620011fc565b92915050565b604051806101400160405280600a906020820280368337509192915050565b6040518060800160405280600081526020016060815260200160608152602001606081525090565b6107fb806200193e83390190565b82805462000f8290620018b6565b90600052602060002090601f01602090048101928262000fa6576000855562000ff1565b82601f1062000fc157805160ff191683800117855562000ff1565b8280016001018555821562000ff1579182015b8281111562000ff157825182559160200191906001019062000fd4565b5062000fff92915062001003565b5090565b5b8082111562000fff576000815560010162001004565b6000620010316200102b846200183d565b620017c5565b90508281528383830111156200104657600080fd5b6200105683602083018462001883565b9392505050565b600082601f8301126200106e578081fd5b81356200107f6200102b826200183d565b81815284602083860101111562001094578283fd5b816020850160208301379081016020019190915292915050565b80356001600160e81b03811681146200086257600080fd5b60006020808385031215620010d9578182fd5b825167ffffffffffffffff811115620010f0578283fd5b8301601f8101851362001101578283fd5b8051620011126200102b82620017f2565b81815283810190838501865b848110156200116157815186018a603f8201126200113a578889fd5b6200114d8b89830151604084016200101a565b85525092860192908601906001016200111e565b509098975050505050505050565b600061014080838503121562001183578182fd5b83601f84011262001192578182fd5b60405181810181811067ffffffffffffffff82111715620011b757620011b762001927565b6040528084838101871015620011cb578485fd5b8493505b600a841015620011f157805182526001939093019260209182019101620011cf565b509095945050505050565b6000602082840312156200120e578081fd5b8151801515811462001056578182fd5b6000806000806000610180868803121562001237578081fd5b853567ffffffffffffffff8111156200124e578182fd5b6200125c888289016200105d565b955050602087603f88011262001270578182fd5b6008620012816200102b8262001819565b80838a016101208b018c81111562001297578687fd5b865b85811015620012b75782358552938601939186019160010162001299565b50919850503595505050506101408601359150620012d96101608701620010ae565b90509295509295909350565b600060208284031215620012f7578081fd5b815167ffffffffffffffff8111156200130e578182fd5b8201601f810184136200131f578182fd5b62001330848251602084016200101a565b949350505050565b6000806000606084860312156200134d578081fd5b833567ffffffffffffffff8082111562001365578283fd5b62001373878388016200105d565b94506020915081860135818111156200138a578384fd5b62001398888289016200105d565b945050604086013581811115620013ad578384fd5b86019050601f81018713620013c0578283fd5b8035620013d16200102b82620017f2565b81815283810190838501865b848110156200140a57620013f78c8884358901016200105d565b84529286019290860190600101620013dd565b505080955050505050509250925092565b6000602082840312156200142d578081fd5b6200105682620010ae565b6000602082840312156200144a578081fd5b5035919050565b60006020828403121562001463578081fd5b5051919050565b600081518084526200148481602086016020860162001883565b601f01601f19169290920160200192915050565b600081518352602080830151608082860152620014b960808601826200146a565b905060408401518582036040870152620014d482826200146a565b915050606084015185820360608701528181518084528484019150848582028501018584019350865b828110156200152f57601f198683030184526200151c8286516200146a565b94870194938701939150600101620014fd565b5098975050505050505050565b6000602080830181845280855180835260408601915060408482028701019250838701855b828110156200159357603f198886030184526200158085835162001498565b9450928501929085019060010162001561565b5092979650505050505050565b6101408101818360005b600a811015620015cb578151835260209283019290910190600101620015aa565b50505092915050565b6020808252825182820181905260009190848201906040850190845b818110156200160e57835183529284019291840191600101620015f0565b50909695505050505050565b901515815260200190565b6000602082526200105660208301846200146a565b600061018080835262001650818401896200146a565b91505060208083018760005b60088110156200167b578151835291830191908301906001016200165c565b505050506101208201949094526101408101929092526001600160e81b03166101609091015292915050565b6001600160a01b0391909116815260200190565b60208082526025908201527f5468657265206e65656420746f206265206174206c6561737420322070726f706040820152646f73616c7360d81b606082015260800190565b60006020825262001056602083018462001498565b6001600160e81b0391909116815260200190565b90815260200190565b600085825260206080818401526200174e60808401876200146a565b83810360408501526200176281876200146a565b848103606086015285518082529091508282019083810283018401848801865b83811015620017b457601f19868403018552620017a18383516200146a565b9487019492509086019060010162001782565b50909b9a5050505050505050505050565b60405181810167ffffffffffffffff81118282101715620017ea57620017ea62001927565b604052919050565b600067ffffffffffffffff8211156200180f576200180f62001927565b5060209081020190565b600067ffffffffffffffff82111562001836576200183662001927565b5060200290565b600067ffffffffffffffff8211156200185a576200185a62001927565b50601f01601f191660200190565b600082198211156200187e576200187e62001911565b500190565b60005b83811015620018a057818101518382015260200162001886565b83811115620018b0576000848401525b50505050565b600281046001821680620018cb57607f821691505b60208210811415620018ed57634e487b7160e01b600052602260045260246000fd5b50919050565b60006000198214156200190a576200190a62001911565b5060010190565b634e487b7160e01b600052601160045260246000fd5b634e487b7160e01b600052604160045260246000fdfe60806040523480156200001157600080fd5b50604051620007fb380380620007fb83398101604081905262000034916200029a565b600084905582516200004e90600190602086019062000085565b5081516200006490600290602085019062000085565b5080516200007a90600390602084019062000114565b505050505062000430565b8280546200009390620003dd565b90600052602060002090601f016020900481019282620000b7576000855562000102565b82601f10620000d257805160ff191683800117855562000102565b8280016001018555821562000102579182015b8281111562000102578251825591602001919060010190620000e5565b506200011092915062000174565b5090565b82805482825590600052602060002090810192821562000166579160200282015b828111156200016657825180516200015591849160209091019062000085565b509160200191906001019062000135565b50620001109291506200018b565b5b8082111562000110576000815560010162000175565b8082111562000110576000620001a28282620001ac565b506001016200018b565b508054620001ba90620003dd565b6000825580601f10620001ce5750620001ee565b601f016020900490600052602060002090810190620001ee919062000174565b50565b60006001600160401b038311156200020d576200020d6200041a565b602062000223601f8501601f19168201620003b1565b91508382528484840111156200023857600080fd5b60005b8481101562000256578381015183820183015281016200023b565b84811115620002685760008286850101525b50509392505050565b600082601f83011262000282578081fd5b6200029383835160208501620001f1565b9392505050565b60008060008060808587031215620002b0578384fd5b8451602080870151919550906001600160401b0380821115620002d1578586fd5b620002df89838a0162000271565b9550604091508188015181811115620002f6578586fd5b620003048a828b0162000271565b95505060608801518181111562000319578485fd5b8801601f81018a136200032a578485fd5b8051828111156200033f576200033f6200041a565b6200034e8586830201620003b1565b8181528581019350828601875b838110156200039d57815185018e603f8201126200037757898afd5b620003898f8a8301518a8401620001f1565b87525094870194908701906001016200035b565b505080965050505050505092959194509250565b6040518181016001600160401b0381118282101715620003d557620003d56200041a565b604052919050565b600281046001821680620003f257607f821691505b602082108114156200041457634e487b7160e01b600052602260045260246000fd5b50919050565b634e487b7160e01b600052604160045260246000fd5b6103bb80620004406000396000f3fe608060405234801561001057600080fd5b50600436106100575760003560e01c8063013cf08b1461005c57806306fdde031461008557806362564c481461008d5780637284e416146100a2578063af640d0f146100aa575b600080fd5b61006f61006a366004610264565b6100bf565b60405161007c9190610327565b60405180910390f35b61006f61016b565b610095610178565b60405161007c91906102c7565b61006f610251565b6100b261025e565b60405161007c9190610341565b600381815481106100cf57600080fd5b9060005260206000200160009150905080546100ea9061034a565b80601f01602080910402602001604051908101604052809291908181526020018280546101169061034a565b80156101635780601f1061013857610100808354040283529160200191610163565b820191906000526020600020905b81548152906001019060200180831161014657829003601f168201915b505050505081565b600180546100ea9061034a565b60606003805480602002602001604051908101604052809291908181526020016000905b828210156102485783829060005260206000200180546101bb9061034a565b80601f01602080910402602001604051908101604052809291908181526020018280546101e79061034a565b80156102345780601f1061020957610100808354040283529160200191610234565b820191906000526020600020905b81548152906001019060200180831161021757829003601f168201915b50505050508152602001906001019061019c565b50505050905090565b600280546100ea9061034a565b60005481565b600060208284031215610275578081fd5b5035919050565b60008151808452815b818110156102a157602081850181015186830182015201610285565b818111156102b25782602083870101525b50601f01601f19169290920160200192915050565b6000602080830181845280855180835260408601915060408482028701019250838701855b8281101561031a57603f1988860301845261030885835161027c565b945092850192908501906001016102ec565b5092979650505050505050565b60006020825261033a602083018461027c565b9392505050565b90815260200190565b60028104600182168061035e57607f821691505b6020821081141561037f57634e487b7160e01b600052602260045260246000fd5b5091905056fea2646970667358221220f2c3540c1727b713daecd88936dc5e1f24c582c08abe01c7e604535cdc3eef1f64736f6c63430008000033a2646970667358221220d00c45b8feb4dda405d2e3518d3fed3ea9193928ed2986c67dba8d475592365364736f6c63430008000033",
  "immutableReferences": {},
  "source": "//SPDX-License-Identifier: Unlicense\npragma solidity ^0.8.0;\n// pragma experimental ABIEncoderV2;\n\nimport { VotingProcess } from './VotingProcess.sol';\nimport { Semaphore } from './Semaphore.sol';\n\ncontract OneVote {\n    mapping(uint => VotingProcess) public votingProcesses;\n    uint processCounter;\n\n    uint256[] public identityCommitments;\n\n    // A mapping of all signals broadcasted\n    mapping (uint256 => bytes) public signalIndexToSignal;\n\n    // A mapping between signal indices to external nullifiers\n    mapping (uint256 => uint256) public signalIndexToExternalNullifier;\n\n    // The next index of the `signalIndexToSignal` mapping\n    uint256 public nextSignalIndex = 0;\n\n    Semaphore public semaphore;\n\n    event SignalBroadcastByClient(uint256 indexed signalIndex);\n\n\n    function getNextSignalIndex() public view returns (uint256) {\n        return nextSignalIndex;\n    }\n\n    function getIdentityCommitments() public view returns (uint256 [] memory) {\n        return identityCommitments;\n    }\n\n    function getIdentityCommitment(uint256 _index) public view returns (uint256) {\n        return identityCommitments[_index];\n    }\n\n    event IdentityCommitment(uint256 indexed identityCommitment);\n\n    function insertIdentityAsClient(uint256 _leaf) public {\n        semaphore.insertIdentity(_leaf);\n        identityCommitments.push(_leaf);\n        emit IdentityCommitment(_leaf);\n    }\n\n    function addExternalNullifier(uint232 _externalNullifier) public {\n        semaphore.addExternalNullifier(_externalNullifier);\n    }\n\n    constructor(Semaphore _semaphore) public {\n        semaphore = _semaphore;\n    }\n\n    event Rooot(uint256 root);\n\n    function vote(\n        bytes memory _signal,\n        uint256[8] memory _proof,\n        uint256 _root,\n        uint256 _nullifiersHash,\n        uint232 _externalNullifier  //processId\n    ) public {\n        // bool exist = false;\n        // bytes[] memory proposals = votingProcesses[_externalNullifier].getProposals();\n        // for(uint i = 0; i < proposals.length; i ++){\n        //     bytes memory proposal = proposals[i];\n        //     if (keccak256(abi.encodePacked((_signal))) == keccak256(abi.encodePacked((proposal)))){\n        //         exist = true;\n        //         break;\n        //     }\n        // }\n        // require(exist == true, \"You need to choose one of the voting options!\");\n\n        uint256 signalIndex = nextSignalIndex;\n\n        // store the signal\n        signalIndexToSignal[nextSignalIndex] = _signal;\n\n        // map the the signal index to the given external nullifier\n        signalIndexToExternalNullifier[nextSignalIndex] = _externalNullifier;\n\n        // increment the signal index\n        nextSignalIndex ++;\n\n        emit Rooot(_root);\n\n        // broadcast the signal\n        semaphore.broadcastSignal(_signal, _proof, _root, _nullifiersHash, _externalNullifier);\n\n        emit SignalBroadcastByClient(signalIndex);\n    }\n\n    /*\n     * Returns the external nullifier which a signal at _index broadcasted to\n     * @param _index The index to use to look up the signalIndexToExternalNullifier mapping\n     */\n    function getExternalNullifierBySignalIndex(uint256 _index) public view returns (uint256) {\n        return signalIndexToExternalNullifier[_index];\n    }\n\n    function getSignalBySignalIndex(uint256 _index) public view returns (bytes memory) {\n        return signalIndexToSignal[_index];\n    }\n\n    struct ProcessDTO {\n        uint id;\n        string name;\n        string description;\n        bytes[] proposals;\n    }\n\n    function createVotingProcess(\n        string memory _name,\n        string memory _description,\n        bytes[] memory _proposals\n    ) public {\n        require(_proposals.length > 1, \"There need to be at least 2 proposals\");\n        //add new voting proposal\n        VotingProcess vp = new VotingProcess(processCounter, _name, _description, _proposals);\n\n        addExternalNullifier(uint232(processCounter));\n\n        votingProcesses[processCounter] = vp;\n        processCounter += 1;\n    }\n\n    function getProcesses() public view returns(ProcessDTO[] memory){\n        uint256 i = 0;\n        ProcessDTO[] memory returnProcesses = new ProcessDTO[](processCounter);\n\n        for(i; i < processCounter; i++){\n            returnProcesses[i] = ProcessDTO({\n                id: votingProcesses[i].id(),\n                name: votingProcesses[i].name(),\n                description: votingProcesses[i].description(),\n                proposals: votingProcesses[i].getProposals()\n            });\n        }\n\n        return returnProcesses;\n    }\n\n    function getProcess(uint id) public view returns (ProcessDTO memory){\n        VotingProcess votingProcess = votingProcesses[id];\n        return ProcessDTO({\n            id: votingProcess.id(),\n            name: votingProcess.name(),\n            description: votingProcess.description(),\n            proposals: votingProcess.getProposals()\n        });\n    }\n\n    function getRoots() public view returns (uint256[10] memory){\n        return semaphore.getRoots();\n    }\n\n    function getRootHistory(uint256 id) public view returns (bool){\n        return semaphore.rootHistory(id);\n    }\n\n}",
  "sourcePath": "/home/aleksandar/ZKUniversity/ZKVoting/contracts/contracts/OneVote.sol",
  "compiler": {
    "name": "solc",
    "version": "0.8.0+commit.c7dfd78e.Emscripten.clang"
  },
  "schemaVersion": "3.4.4",
  "updatedAt": "2022-02-03T14:46:42.958Z",
  "networkType": "ethereum",
  "devdoc": {
    "kind": "dev",
    "methods": {},
    "version": 1
  },
  "userdoc": {
    "kind": "user",
    "methods": {},
    "version": 1
  }
}