{
  "contractName": "OneVote",
  "abi": [
    {
      "inputs": [
        {
          "internalType": "uint256",
          "name": "",
          "type": "uint256"
        }
      ],
      "name": "votingProcesses",
      "outputs": [
        {
          "internalType": "contract VotingProcess",
          "name": "",
          "type": "address"
        }
      ],
      "stateMutability": "view",
      "type": "function",
      "constant": true
    },
    {
      "inputs": [
        {
          "internalType": "string",
          "name": "_name",
          "type": "string"
        },
        {
          "internalType": "string",
          "name": "_description",
          "type": "string"
        },
        {
          "internalType": "string[]",
          "name": "_proposals",
          "type": "string[]"
        },
        {
          "internalType": "contract Semaphore",
          "name": "_semaphore",
          "type": "address"
        }
      ],
      "name": "createVotingProcess",
      "outputs": [],
      "stateMutability": "nonpayable",
      "type": "function"
    },
    {
      "inputs": [],
      "name": "getProcesses",
      "outputs": [
        {
          "components": [
            {
              "internalType": "uint256",
              "name": "id",
              "type": "uint256"
            },
            {
              "internalType": "string",
              "name": "name",
              "type": "string"
            },
            {
              "internalType": "string",
              "name": "description",
              "type": "string"
            },
            {
              "internalType": "string[]",
              "name": "proposals",
              "type": "string[]"
            }
          ],
          "internalType": "struct OneVote.ProcessDTO[]",
          "name": "",
          "type": "tuple[]"
        }
      ],
      "stateMutability": "view",
      "type": "function",
      "constant": true
    },
    {
      "inputs": [
        {
          "internalType": "uint256",
          "name": "id",
          "type": "uint256"
        }
      ],
      "name": "getProcess",
      "outputs": [
        {
          "components": [
            {
              "internalType": "uint256",
              "name": "id",
              "type": "uint256"
            },
            {
              "internalType": "string",
              "name": "name",
              "type": "string"
            },
            {
              "internalType": "string",
              "name": "description",
              "type": "string"
            },
            {
              "internalType": "string[]",
              "name": "proposals",
              "type": "string[]"
            }
          ],
          "internalType": "struct OneVote.ProcessDTO",
          "name": "",
          "type": "tuple"
        }
      ],
      "stateMutability": "view",
      "type": "function",
      "constant": true
    }
  ],
  "bytecode": "0x608060405234801561001057600080fd5b50611e0d806100206000396000f3fe60806040523480156200001157600080fd5b5060043610620000525760003560e01c8063040c46ec14620000575780636e52b2391462000086578063806176e1146200009f578063d0851a7114620000b8575b600080fd5b6200006e620000683660046200099b565b620000de565b6040516200007d919062000b10565b60405180910390f35b62000090620000f9565b6040516200007d919062000aac565b620000b6620000b0366004620008a5565b62000400565b005b620000cf620000c93660046200099b565b620004c0565b6040516200007d919062000b69565b6000602081905290815260409020546001600160a01b031681565b606060008060015467ffffffffffffffff8111156200012857634e487b7160e01b600052604160045260246000fd5b6040519080825280602002602001820160405280156200016557816020015b62000151620006e4565b815260200190600190039081620001475790505b5090505b600154821015620003fa57604080516080810180835260008581526020818152908490205463af640d0f60e01b9092529251919283926001600160a01b039092169163af640d0f9160848086019290818703018186803b158015620001cd57600080fd5b505afa158015620001e2573d6000803e3d6000fd5b505050506040513d601f19601f82011682018060405250810190620002089190620009b4565b81526000848152602081815260408083205481516306fdde0360e01b8152915192909401936001600160a01b0316926306fdde0392600480840193829003018186803b1580156200025857600080fd5b505afa1580156200026d573d6000803e3d6000fd5b505050506040513d6000823e601f3d908101601f191682016040526200029791908101906200086e565b8152600084815260208181526040808320548151633942720b60e11b8152915192909401936001600160a01b031692637284e41692600480840193829003018186803b158015620002e757600080fd5b505afa158015620002fc573d6000803e3d6000fd5b505050506040513d6000823e601f3d908101601f191682016040526200032691908101906200086e565b8152600084815260208181526040808320548151630c4ac98960e31b8152915192909401936001600160a01b0316926362564c4892600480840193829003018186803b1580156200037657600080fd5b505afa1580156200038b573d6000803e3d6000fd5b505050506040513d6000823e601f3d908101601f19168201604052620003b59190810190620007db565b815250818381518110620003d957634e487b7160e01b600052603260045260246000fd5b60200260200101819052508180620003f19062000cf7565b92505062000169565b91505090565b60028251116200042d5760405162461bcd60e51b8152600401620004249062000b24565b60405180910390fd5b60006001548585858560405162000444906200070c565b6200045495949392919062000b85565b604051809103906000f08015801562000471573d6000803e3d6000fd5b5060018054600090815260208190526040812080546001600160a01b0319166001600160a01b03851617905581549293509091829190620004b490839062000ca9565b90915550505050505050565b620004ca620006e4565b600082815260208181526040918290205482516080810180855263af640d0f60e01b905292516001600160a01b0390911692918291849163af640d0f916084808601929190818703018186803b1580156200052457600080fd5b505afa15801562000539573d6000803e3d6000fd5b505050506040513d601f19601f820116820180604052508101906200055f9190620009b4565b8152602001826001600160a01b03166306fdde036040518163ffffffff1660e01b815260040160006040518083038186803b1580156200059e57600080fd5b505afa158015620005b3573d6000803e3d6000fd5b505050506040513d6000823e601f3d908101601f19168201604052620005dd91908101906200086e565b8152602001826001600160a01b0316637284e4166040518163ffffffff1660e01b815260040160006040518083038186803b1580156200061c57600080fd5b505afa15801562000631573d6000803e3d6000fd5b505050506040513d6000823e601f3d908101601f191682016040526200065b91908101906200086e565b8152602001826001600160a01b03166362564c486040518163ffffffff1660e01b815260040160006040518083038186803b1580156200069a57600080fd5b505afa158015620006af573d6000803e3d6000fd5b505050506040513d6000823e601f3d908101601f19168201604052620006d99190810190620007db565b90529150505b919050565b6040518060800160405280600081526020016060815260200160608152602001606081525090565b6110968062000d4283390190565b80356001600160a01b0381168114620006df57600080fd5b600082601f83011262000743578081fd5b81356200075a620007548262000c7e565b62000c2a565b8181528460208386010111156200076f578283fd5b816020850160208301379081016020019190915292915050565b600082601f8301126200079a578081fd5b8151620007ab620007548262000c7e565b818152846020838601011115620007c0578283fd5b620007d382602083016020870162000cc4565b949350505050565b60006020808385031215620007ee578182fd5b825167ffffffffffffffff81111562000805578283fd5b8301601f8101851362000816578283fd5b805162000827620007548262000c57565b81815283810190838501865b8481101562000860576200084d8a88845189010162000789565b8452928601929086019060010162000833565b509098975050505050505050565b60006020828403121562000880578081fd5b815167ffffffffffffffff81111562000897578182fd5b620007d38482850162000789565b60008060008060808587031215620008bb578283fd5b843567ffffffffffffffff80821115620008d3578485fd5b620008e18883890162000732565b9550602091508187013581811115620008f8578586fd5b6200090689828a0162000732565b9550506040870135818111156200091b578485fd5b87019050601f810188136200092e578384fd5b80356200093f620007548262000c57565b81815283810190838501875b848110156200097857620009658d88843589010162000732565b845292860192908601906001016200094b565b5050809650505050505062000990606086016200071a565b905092959194509250565b600060208284031215620009ad578081fd5b5035919050565b600060208284031215620009c6578081fd5b5051919050565b6001600160a01b03169052565b60008151808452620009f481602086016020860162000cc4565b601f01601f19169290920160200192915050565b60008151835260208083015160808286015262000a296080860182620009da565b90506040840151858203604087015262000a448282620009da565b915050606084015185820360608701528181518084528484019150848582028501018584019350865b8281101562000a9f57601f1986830301845262000a8c828651620009da565b9487019493870193915060010162000a6d565b5098975050505050505050565b6000602080830181845280855180835260408601915060408482028701019250838701855b8281101562000b0357603f1988860301845262000af085835162000a08565b9450928501929085019060010162000ad1565b5092979650505050505050565b6001600160a01b0391909116815260200190565b60208082526025908201527f5468657265206e65656420746f206265206174206c6561737420322070726f706040820152646f73616c7360d81b606082015260800190565b60006020825262000b7e602083018462000a08565b9392505050565b6000868252602060a08184015262000ba160a0840188620009da565b838103604085015262000bb58188620009da565b848103606086015286518082529091508282019083810283018401848901865b8381101562000c0757601f1986840301855262000bf4838351620009da565b9487019492509086019060010162000bd5565b5050809550505050505062000c206080830184620009cd565b9695505050505050565b60405181810167ffffffffffffffff8111828210171562000c4f5762000c4f62000d2b565b604052919050565b600067ffffffffffffffff82111562000c745762000c7462000d2b565b5060209081020190565b600067ffffffffffffffff82111562000c9b5762000c9b62000d2b565b50601f01601f191660200190565b6000821982111562000cbf5762000cbf62000d15565b500190565b60005b8381101562000ce157818101518382015260200162000cc7565b8381111562000cf1576000848401525b50505050565b600060001982141562000d0e5762000d0e62000d15565b5060010190565b634e487b7160e01b600052601160045260246000fd5b634e487b7160e01b600052604160045260246000fdfe608060405260006002553480156200001657600080fd5b5060405162001096380380620010968339810160408190526200003991620002c0565b600380546001600160a01b0319166001600160a01b038316179055600485905583516200006e906005906020870190620000a6565b50825162000084906006906020860190620000a6565b5081516200009a90600790602085019062000135565b50505050505062000456565b828054620000b49062000403565b90600052602060002090601f016020900481019282620000d8576000855562000123565b82601f10620000f357805160ff191683800117855562000123565b8280016001018555821562000123579182015b828111156200012357825182559160200191906001019062000106565b506200013192915062000195565b5090565b82805482825590600052602060002090810192821562000187579160200282015b8281111562000187578251805162000176918491602090910190620000a6565b509160200191906001019062000156565b5062000131929150620001ac565b5b8082111562000131576000815560010162000196565b8082111562000131576000620001c38282620001cd565b50600101620001ac565b508054620001db9062000403565b6000825580601f10620001ef57506200020f565b601f0160209004906000526020600020908101906200020f919062000195565b50565b80516001600160a01b03811681146200022a57600080fd5b919050565b600082601f83011262000240578081fd5b81516001600160401b038111156200025c576200025c62000440565b602062000272601f8301601f19168201620003d7565b828152858284870101111562000286578384fd5b835b83811015620002a557858101830151828201840152820162000288565b83811115620002b657848385840101525b5095945050505050565b600080600080600060a08688031215620002d8578081fd5b8551602080880151919650906001600160401b0380821115620002f9578384fd5b620003078a838b016200022f565b965060408901519150808211156200031d578384fd5b6200032b8a838b016200022f565b9550606089015191508082111562000341578384fd5b818901915089601f83011262000355578384fd5b8151818111156200036a576200036a62000440565b620003798485830201620003d7565b8181528481019250838501865b83811015620003b357620003a08e8884518901016200022f565b8552938601939086019060010162000386565b50508096505050505050620003cb6080870162000212565b90509295509295909350565b6040518181016001600160401b0381118282101715620003fb57620003fb62000440565b604052919050565b6002810460018216806200041857607f821691505b602082108114156200043a57634e487b7160e01b600052602260045260246000fd5b50919050565b634e487b7160e01b600052604160045260246000fd5b610c3080620004666000396000f3fe608060405234801561001057600080fd5b50600436106100cf5760003560e01c80637284e4161161008c5780638d2d593b116100665780638d2d593b14610192578063911ca41e1461019a578063af640d0f146101ad578063f9cdb5cd146101b5576100cf565b80637284e41614610155578063740afb771461015d5780637b5d25341461017d576100cf565b8063013cf08b146100d457806306fdde03146100fd5780630e57596f1461010557806317bccfab1461011a57806327acf71b1461012d57806362564c4814610140575b600080fd5b6100e76100e23660046109ac565b6101c8565b6040516100f49190610a6c565b60405180910390f35b6100e7610274565b610118610113366004610888565b610281565b005b6101186101283660046108fd565b61036f565b6100e761013b3660046109ac565b6104e8565b610148610501565b6040516100f49190610a0c565b6100e76105da565b61017061016b3660046109ac565b6105e7565b6040516100f49190610b49565b6101856105fc565b6040516100f49190610ae8565b61017061060b565b6100e76101a83660046109ac565b610611565b6101706106b3565b6101706101c33660046109ac565b6106b9565b600781815481106101d857600080fd5b9060005260206000200160009150905080546101f390610b82565b80601f016020809104026020016040519081016040528092919081815260200182805461021f90610b82565b801561026c5780601f106102415761010080835404028352916020019161026c565b820191906000526020600020905b81548152906001019060200180831161024f57829003601f168201915b505050505081565b600580546101f390610b82565b60025460008181526020818152604090912087516102a1928901906106cb565b506002805460009081526001602052604081206001600160e81b0385169055815491906102cd83610bbd565b9091555050600354604051630e57596f60e01b81526001600160a01b0390911690630e57596f9061030a9089908990899089908990600401610a7f565b600060405180830381600087803b15801561032457600080fd5b505af1158015610338573d6000803e3d6000fd5b50506040518392507faa676fd106f1023de6c9eafff9af5bc8e299b3493d3aa816a3278a15d055657b9150600090a2505050505050565b6000805b6007548110156104a6576000600782815481106103a057634e487b7160e01b600052603260045260246000fd5b9060005260206000200180546103b590610b82565b80601f01602080910402602001604051908101604052809291908181526020018280546103e190610b82565b801561042e5780601f106104035761010080835404028352916020019161042e565b820191906000526020600020905b81548152906001019060200180831161041157829003601f168201915b505050505090508060405160200161044691906109f0565b604051602081830303815290604052805190602001208960405160200161046d91906109f0565b6040516020818303038152906040528051906020012014156104935760019250506104a6565b508061049e81610bbd565b915050610373565b506001811515146104d25760405162461bcd60e51b81526004016104c990610afc565b60405180910390fd5b6104df8686868686610281565b50505050505050565b600060208190529081526040902080546101f390610b82565b60606007805480602002602001604051908101604052809291908181526020016000905b828210156105d157838290600052602060002001805461054490610b82565b80601f016020809104026020016040519081016040528092919081815260200182805461057090610b82565b80156105bd5780601f10610592576101008083540402835291602001916105bd565b820191906000526020600020905b8154815290600101906020018083116105a057829003601f168201915b505050505081526020019060010190610525565b50505050905090565b600680546101f390610b82565b6000818152600160205260409020545b919050565b6003546001600160a01b031681565b60025481565b600081815260208190526040902080546060919061062e90610b82565b80601f016020809104026020016040519081016040528092919081815260200182805461065a90610b82565b80156106a75780601f1061067c576101008083540402835291602001916106a7565b820191906000526020600020905b81548152906001019060200180831161068a57829003601f168201915b50505050509050919050565b60045481565b60016020526000908152604090205481565b8280546106d790610b82565b90600052602060002090601f0160209004810192826106f9576000855561073f565b82601f1061071257805160ff191683800117855561073f565b8280016001018555821561073f579182015b8281111561073f578251825591602001919060010190610724565b5061074b92915061074f565b5090565b5b8082111561074b5760008155600101610750565b600067ffffffffffffffff8084111561077f5761077f610be4565b604051601f8501601f1916810160200182811182821017156107a3576107a3610be4565b6040528481529150818385018610156107bb57600080fd5b8484602083013760006020868301015250509392505050565b600082601f8301126107e4578081fd5b60405161010080820182811067ffffffffffffffff8211171561080957610809610be4565b604052818482810187101561081c578485fd5b8492505b600883101561084057803582526001929092019160209182019101610820565b509195945050505050565b600082601f83011261085b578081fd5b61086a83833560208501610764565b9392505050565b80356001600160e81b03811681146105f757600080fd5b600080600080600061018086880312156108a0578081fd5b853567ffffffffffffffff8111156108b6578182fd5b6108c28882890161084b565b9550506108d287602088016107d4565b9350610120860135925061014086013591506108f16101608701610871565b90509295509295909350565b6000806000806000806101a08789031215610916578081fd5b863567ffffffffffffffff8082111561092d578283fd5b818901915089601f830112610940578283fd5b61094f8a833560208501610764565b97506020890135915080821115610964578283fd5b5061097189828a0161084b565b95505061098188604089016107d4565b9350610140870135925061016087013591506109a06101808801610871565b90509295509295509295565b6000602082840312156109bd578081fd5b5035919050565b600081518084526109dc816020860160208601610b52565b601f01601f19169290920160200192915050565b60008251610a02818460208701610b52565b9190910192915050565b6000602080830181845280855180835260408601915060408482028701019250838701855b82811015610a5f57603f19888603018452610a4d8583516109c4565b94509285019290850190600101610a31565b5092979650505050505050565b60006020825261086a60208301846109c4565b6000610180808352610a93818401896109c4565b91505060208083018760005b6008811015610abc57815183529183019190830190600101610a9f565b505050506101208201949094526101408101929092526001600160e81b03166101609091015292915050565b6001600160a01b0391909116815260200190565b6020808252602d908201527f596f75206e65656420746f2063686f6f7365206f6e65206f662074686520766f60408201526c74696e67206f7074696f6e732160981b606082015260800190565b90815260200190565b60005b83811015610b6d578181015183820152602001610b55565b83811115610b7c576000848401525b50505050565b600281046001821680610b9657607f821691505b60208210811415610bb757634e487b7160e01b600052602260045260246000fd5b50919050565b6000600019821415610bdd57634e487b7160e01b81526011600452602481fd5b5060010190565b634e487b7160e01b600052604160045260246000fdfea2646970667358221220f29c2da5cf0cd2520f0d6540b2afadb0bb51593ac052f7d2d8455bca76c8aea164736f6c63430008000033a26469706673582212206141f74424b57c2ee6d87436f9c202bf261a3cd6573c81eb663dbec19062f90064736f6c63430008000033",
  "immutableReferences": {},
  "source": "//SPDX-License-Identifier: Unlicense\npragma solidity ^0.8.0;\n\nimport { VotingProcess } from './VotingProcess.sol';\nimport { Semaphore } from './Semaphore.sol';\n\ncontract OneVote {\n    mapping(uint => VotingProcess) public votingProcesses;\n    uint processCounter;\n\n    struct ProcessDTO {\n        uint id;\n        string name;\n        string description;\n        string[] proposals;\n    }\n\n    function createVotingProcess(\n        string memory _name,\n        string memory _description,\n        string[] memory _proposals,\n        Semaphore _semaphore\n    ) public {\n        require(_proposals.length > 2, \"There need to be at least 2 proposals\");\n        //add new voting proposal\n        VotingProcess vp = new VotingProcess(processCounter, _name, _description, _proposals, _semaphore);\n\n        votingProcesses[processCounter] = vp;\n        processCounter += 1;\n    }\n\n    function getProcesses() public view returns(ProcessDTO[] memory){\n        uint256 i = 0;\n        ProcessDTO[] memory returnProcesses = new ProcessDTO[](processCounter);\n\n        for(i; i < processCounter; i++){\n            returnProcesses[i] = ProcessDTO({\n                id: votingProcesses[i].id(),\n                name: votingProcesses[i].name(),\n                description: votingProcesses[i].description(),\n                proposals: votingProcesses[i].getProposals()\n            });\n        }\n\n        return returnProcesses;\n    }\n\n    function getProcess(uint id) public view returns (ProcessDTO memory){\n        VotingProcess votingProcess = votingProcesses[id];\n        return ProcessDTO({\n            id: votingProcess.id(),\n            name: votingProcess.name(),\n            description: votingProcess.description(),\n            proposals: votingProcess.getProposals()\n        });\n    }\n\n}",
  "sourcePath": "/home/aleksandar/ZKUniversity/ZKVoting/contracts/contracts/OneVote.sol",
  "compiler": {
    "name": "solc",
    "version": "0.8.0+commit.c7dfd78e.Emscripten.clang"
  },
  "schemaVersion": "3.4.4",
  "updatedAt": "2022-01-28T14:37:46.659Z",
  "networkType": "ethereum",
  "devdoc": {
    "kind": "dev",
    "methods": {},
    "version": 1
  },
  "userdoc": {
    "kind": "user",
    "methods": {},
    "version": 1
  }
}