{
  "contractName": "PoseidonT6",
  "abi": [
    {
      "inputs": [
        {
          "internalType": "uint256[5]",
          "name": "input",
          "type": "uint256[5]"
        }
      ],
      "name": "poseidon",
      "outputs": [
        {
          "internalType": "uint256",
          "name": "",
          "type": "uint256"
        }
      ],
      "stateMutability": "pure",
      "type": "function",
      "constant": true
    }
  ],
  "bytecode": "0x61013061003a600b82828239805160001a60731461002d57634e487b7160e01b600052600060045260246000fd5b30600052607381538281f3fe730000000000000000000000000000000000000000301460806040526004361060335760003560e01c80634937a258146038575b600080fd5b604760433660046061565b605b565b6040516052919060db565b60405180910390f35b50600090565b600060a082840312156071578081fd5b82601f830112607e578081fd5b60405160a0810181811067ffffffffffffffff82111715609e57609e60e4565b604052808360a0810186101560b1578384fd5b835b600581101560d057813583526020928301929091019060010160b3565b509195945050505050565b90815260200190565b634e487b7160e01b600052604160045260246000fdfea2646970667358221220ca94367e20f6419c17c7d568ac985ce84753332bf938bed711184a5618ff89fd64736f6c63430008000033",
  "immutableReferences": {},
  "source": "//SPDX-License-Identifier: Unlicense\npragma solidity ^0.8.0;\n\nlibrary PoseidonT3 {\n    function poseidon(uint256[2] memory input) public pure returns (uint256) {}\n}\n\n\nlibrary PoseidonT6 {\n    function poseidon(uint256[5] memory input) public pure returns (uint256) {}\n}",
  "sourcePath": "/home/aleksandar/ZKUniversity/ZKVoting/contracts/contracts/Poseidon.sol",
  "compiler": {
    "name": "solc",
    "version": "0.8.0+commit.c7dfd78e.Emscripten.clang"
  },
  "schemaVersion": "3.4.4",
  "updatedAt": "2022-01-26T18:10:30.029Z",
  "networkType": "ethereum",
  "devdoc": {
    "kind": "dev",
    "methods": {},
    "version": 1
  },
  "userdoc": {
    "kind": "user",
    "methods": {},
    "version": 1
  }
}