{
  "contractName": "PoseidonT3",
  "abi": [
    {
      "inputs": [
        {
          "internalType": "uint256[2]",
          "name": "input",
          "type": "uint256[2]"
        }
      ],
      "name": "poseidon",
      "outputs": [
        {
          "internalType": "uint256",
          "name": "",
          "type": "uint256"
        }
      ],
      "stateMutability": "pure",
      "type": "function",
      "constant": true
    }
  ],
  "bytecode": "0x61013261003a600b82828239805160001a60731461002d57634e487b7160e01b600052600060045260246000fd5b30600052607381538281f3fe730000000000000000000000000000000000000000301460806040526004361060335760003560e01c806329a5f2f6146038575b600080fd5b604760433660046061565b605b565b6040516052919060dd565b60405180910390f35b50600090565b6000604082840312156071578081fd5b82601f830112607e578081fd5b6040516040810181811067ffffffffffffffff82111715609e57609e60e6565b806040525080838560408601111560b3578384fd5b835b600281101560d257813583526020928301929091019060010160b5565b509195945050505050565b90815260200190565b634e487b7160e01b600052604160045260246000fdfea264697066735822122027fe558c728529a1a8cae4a687138a151ec8121d1e3f0a3b917035741cd0123e64736f6c63430008000033",
  "immutableReferences": {},
  "source": "//SPDX-License-Identifier: Unlicense\npragma solidity ^0.8.0;\n\nlibrary PoseidonT3 {\n    function poseidon(uint256[2] memory input) public pure returns (uint256) {}\n}\n\n\nlibrary PoseidonT6 {\n    function poseidon(uint256[5] memory input) public pure returns (uint256) {}\n}",
  "sourcePath": "/home/aleksandar/ZKUniversity/ZKVoting/contracts/contracts/Poseidon.sol",
  "compiler": {
    "name": "solc",
    "version": "0.8.0+commit.c7dfd78e.Emscripten.clang"
  },
  "schemaVersion": "3.4.4",
  "updatedAt": "2022-01-30T11:29:16.538Z",
  "networkType": "ethereum",
  "devdoc": {
    "kind": "dev",
    "methods": {},
    "version": 1
  },
  "userdoc": {
    "kind": "user",
    "methods": {},
    "version": 1
  }
}