{
  "contractName": "SemaphoreClient",
  "abi": [
    {
      "inputs": [
        {
          "internalType": "contract Semaphore",
          "name": "_semaphore",
          "type": "address"
        }
      ],
      "stateMutability": "nonpayable",
      "type": "constructor"
    },
    {
      "anonymous": false,
      "inputs": [
        {
          "indexed": true,
          "internalType": "uint256",
          "name": "signalIndex",
          "type": "uint256"
        }
      ],
      "name": "SignalBroadcastByClient",
      "type": "event"
    },
    {
      "inputs": [],
      "name": "nextSignalIndex",
      "outputs": [
        {
          "internalType": "uint256",
          "name": "",
          "type": "uint256"
        }
      ],
      "stateMutability": "view",
      "type": "function"
    },
    {
      "inputs": [],
      "name": "semaphore",
      "outputs": [
        {
          "internalType": "contract Semaphore",
          "name": "",
          "type": "address"
        }
      ],
      "stateMutability": "view",
      "type": "function"
    },
    {
      "inputs": [
        {
          "internalType": "uint256",
          "name": "",
          "type": "uint256"
        }
      ],
      "name": "signalIndexToExternalNullifier",
      "outputs": [
        {
          "internalType": "uint256",
          "name": "",
          "type": "uint256"
        }
      ],
      "stateMutability": "view",
      "type": "function"
    },
    {
      "inputs": [
        {
          "internalType": "uint256",
          "name": "",
          "type": "uint256"
        }
      ],
      "name": "signalIndexToSignal",
      "outputs": [
        {
          "internalType": "bytes",
          "name": "",
          "type": "bytes"
        }
      ],
      "stateMutability": "view",
      "type": "function"
    },
    {
      "inputs": [
        {
          "internalType": "bytes",
          "name": "_signal",
          "type": "bytes"
        },
        {
          "internalType": "uint256[8]",
          "name": "_proof",
          "type": "uint256[8]"
        },
        {
          "internalType": "uint256",
          "name": "_root",
          "type": "uint256"
        },
        {
          "internalType": "uint256",
          "name": "_nullifiersHash",
          "type": "uint256"
        },
        {
          "internalType": "uint232",
          "name": "_externalNullifier",
          "type": "uint232"
        }
      ],
      "name": "broadcastSignal",
      "outputs": [],
      "stateMutability": "nonpayable",
      "type": "function"
    },
    {
      "inputs": [
        {
          "internalType": "uint256",
          "name": "_index",
          "type": "uint256"
        }
      ],
      "name": "getExternalNullifierBySignalIndex",
      "outputs": [
        {
          "internalType": "uint256",
          "name": "",
          "type": "uint256"
        }
      ],
      "stateMutability": "view",
      "type": "function"
    },
    {
      "inputs": [
        {
          "internalType": "uint256",
          "name": "_index",
          "type": "uint256"
        }
      ],
      "name": "getSignalBySignalIndex",
      "outputs": [
        {
          "internalType": "bytes",
          "name": "",
          "type": "bytes"
        }
      ],
      "stateMutability": "view",
      "type": "function"
    }
  ],
  "bytecode": "0x6080604052600060025534801561001557600080fd5b506040516107eb3803806107eb83398101604081905261003491610059565b600380546001600160a01b0319166001600160a01b0392909216919091179055610087565b60006020828403121561006a578081fd5b81516001600160a01b0381168114610080578182fd5b9392505050565b610755806100966000396000f3fe608060405234801561001057600080fd5b506004361061007d5760003560e01c80637b5d25341161005b5780637b5d2534146100e05780638d2d593b146100f5578063911ca41e146100fd578063f9cdb5cd146101105761007d565b80630e57596f1461008257806327acf71b14610097578063740afb77146100c0575b600080fd5b6100956100903660046104b0565b610123565b005b6100aa6100a536600461057a565b610211565b6040516100b791906105dd565b60405180910390f35b6100d36100ce36600461057a565b6102ab565b6040516100b79190610674565b6100e86102c0565b6040516100b79190610660565b6100d36102cf565b6100aa61010b36600461057a565b6102d5565b6100d361011e36600461057a565b610377565b600254600081815260208181526040909120875161014392890190610389565b506002805460009081526001602052604081206001600160e81b03851690558154919061016f836106e2565b9091555050600354604051630e57596f60e01b81526001600160a01b0390911690630e57596f906101ac90899089908990899089906004016105f7565b600060405180830381600087803b1580156101c657600080fd5b505af11580156101da573d6000803e3d6000fd5b50506040518392507faa676fd106f1023de6c9eafff9af5bc8e299b3493d3aa816a3278a15d055657b9150600090a2505050505050565b6000602081905290815260409020805461022a906106a7565b80601f0160208091040260200160405190810160405280929190818152602001828054610256906106a7565b80156102a35780601f10610278576101008083540402835291602001916102a3565b820191906000526020600020905b81548152906001019060200180831161028657829003601f168201915b505050505081565b6000818152600160205260409020545b919050565b6003546001600160a01b031681565b60025481565b60008181526020819052604090208054606091906102f2906106a7565b80601f016020809104026020016040519081016040528092919081815260200182805461031e906106a7565b801561036b5780601f106103405761010080835404028352916020019161036b565b820191906000526020600020905b81548152906001019060200180831161034e57829003601f168201915b50505050509050919050565b60016020526000908152604090205481565b828054610395906106a7565b90600052602060002090601f0160209004810192826103b757600085556103fd565b82601f106103d057805160ff19168380011785556103fd565b828001600101855582156103fd579182015b828111156103fd5782518255916020019190600101906103e2565b5061040992915061040d565b5090565b5b80821115610409576000815560010161040e565b600082601f830112610432578081fd5b60405161010080820182811067ffffffffffffffff8211171561045757610457610709565b604052818482810187101561046a578485fd5b8492505b600883101561048e5780358252600192909201916020918201910161046e565b509195945050505050565b80356001600160e81b03811681146102bb57600080fd5b600080600080600061018086880312156104c8578081fd5b853567ffffffffffffffff808211156104df578283fd5b818801915088601f8301126104f2578283fd5b813560208282111561050657610506610709565b610518601f8301601f1916820161067d565b92508183528a8183860101111561052d578485fd5b81818501828501378481838501015282985061054b8b828c01610422565b9750505050506101208601359250610140860135915061056e6101608701610499565b90509295509295909350565b60006020828403121561058b578081fd5b5035919050565b60008151808452815b818110156105b75760208185018101518683018201520161059b565b818111156105c85782602083870101525b50601f01601f19169290920160200192915050565b6000602082526105f06020830184610592565b9392505050565b600061018080835261060b81840189610592565b91505060208083018760005b600881101561063457815183529183019190830190600101610617565b505050506101208201949094526101408101929092526001600160e81b03166101609091015292915050565b6001600160a01b0391909116815260200190565b90815260200190565b60405181810167ffffffffffffffff8111828210171561069f5761069f610709565b604052919050565b6002810460018216806106bb57607f821691505b602082108114156106dc57634e487b7160e01b600052602260045260246000fd5b50919050565b600060001982141561070257634e487b7160e01b81526011600452602481fd5b5060010190565b634e487b7160e01b600052604160045260246000fdfea264697066735822122018686e940fb2f724a0f487bf4a5968415e0daf1c78a03d58908647379d383b1464736f6c63430008000033",
  "immutableReferences": {},
  "source": "//SPDX-License-Identifier: Unlicense\npragma solidity ^0.8.0;\n\nimport { Semaphore } from './Semaphore.sol';\n\ncontract SemaphoreClient {\n    // A mapping of all signals broadcasted\n    mapping (uint256 => bytes) public signalIndexToSignal;\n\n    // A mapping between signal indices to external nullifiers\n    mapping (uint256 => uint256) public signalIndexToExternalNullifier;\n\n    // The next index of the `signalIndexToSignal` mapping\n    uint256 public nextSignalIndex = 0;\n\n    Semaphore public semaphore;\n\n    event SignalBroadcastByClient(uint256 indexed signalIndex);\n\n    constructor(Semaphore _semaphore) {\n        semaphore = _semaphore;\n    }\n\n    function broadcastSignal(\n        bytes memory _signal,\n        uint256[8] memory _proof,\n        uint256 _root,\n        uint256 _nullifiersHash,\n        uint232 _externalNullifier\n    ) public {\n        uint256 signalIndex = nextSignalIndex;\n\n        // store the signal\n        signalIndexToSignal[nextSignalIndex] = _signal;\n\n        // map the the signal index to the given external nullifier\n        signalIndexToExternalNullifier[nextSignalIndex] = _externalNullifier;\n\n        // increment the signal index\n        nextSignalIndex ++;\n\n        // broadcast the signal\n        semaphore.broadcastSignal(_signal, _proof, _root, _nullifiersHash, _externalNullifier);\n\n        emit SignalBroadcastByClient(signalIndex);\n    }\n\n    /*\n     * Returns the external nullifier which a signal at _index broadcasted to\n     * @param _index The index to use to look up the signalIndexToExternalNullifier mapping\n     */\n    function getExternalNullifierBySignalIndex(uint256 _index) public view returns (uint256) {\n        return signalIndexToExternalNullifier[_index];\n    }\n\n    function getSignalBySignalIndex(uint256 _index) public view returns (bytes memory) {\n        return signalIndexToSignal[_index];\n    }\n}\n",
  "sourcePath": "/home/aleksandar/ZKUniversity/ZKVoting/contracts/contracts/SemaphoreClient.sol",
  "compiler": {
    "name": "solc",
    "version": "0.8.0+commit.c7dfd78e.Emscripten.clang"
  },
  "schemaVersion": "3.4.4",
  "updatedAt": "2022-01-26T18:10:30.025Z",
  "networkType": "ethereum",
  "devdoc": {
    "kind": "dev",
    "methods": {},
    "version": 1
  },
  "userdoc": {
    "kind": "user",
    "methods": {},
    "version": 1
  }
}