{
  "contractName": "Semaphore",
  "abi": [
    {
      "inputs": [
        {
          "internalType": "uint8",
          "name": "_treeLevels",
          "type": "uint8"
        },
        {
          "internalType": "uint232",
          "name": "_firstExternalNullifier",
          "type": "uint232"
        }
      ],
      "stateMutability": "nonpayable",
      "type": "constructor"
    },
    {
      "anonymous": false,
      "inputs": [
        {
          "indexed": true,
          "internalType": "uint232",
          "name": "externalNullifier",
          "type": "uint232"
        }
      ],
      "name": "ExternalNullifierAdd",
      "type": "event"
    },
    {
      "anonymous": false,
      "inputs": [
        {
          "indexed": true,
          "internalType": "uint232",
          "name": "externalNullifier",
          "type": "uint232"
        },
        {
          "indexed": true,
          "internalType": "bool",
          "name": "active",
          "type": "bool"
        }
      ],
      "name": "ExternalNullifierChangeStatus",
      "type": "event"
    },
    {
      "anonymous": false,
      "inputs": [
        {
          "indexed": true,
          "internalType": "uint256",
          "name": "identityCommitment",
          "type": "uint256"
        }
      ],
      "name": "IdentityCommitment",
      "type": "event"
    },
    {
      "anonymous": false,
      "inputs": [
        {
          "indexed": true,
          "internalType": "uint256",
          "name": "leaf",
          "type": "uint256"
        },
        {
          "indexed": true,
          "internalType": "uint256",
          "name": "leafIndex",
          "type": "uint256"
        }
      ],
      "name": "LeafInsertion",
      "type": "event"
    },
    {
      "anonymous": false,
      "inputs": [
        {
          "indexed": false,
          "internalType": "uint256",
          "name": "root",
          "type": "uint256"
        }
      ],
      "name": "NewRoot",
      "type": "event"
    },
    {
      "anonymous": false,
      "inputs": [
        {
          "indexed": true,
          "internalType": "address",
          "name": "previousOwner",
          "type": "address"
        },
        {
          "indexed": true,
          "internalType": "address",
          "name": "newOwner",
          "type": "address"
        }
      ],
      "name": "OwnershipTransferred",
      "type": "event"
    },
    {
      "anonymous": false,
      "inputs": [
        {
          "indexed": true,
          "internalType": "bool",
          "name": "newPermission",
          "type": "bool"
        }
      ],
      "name": "PermissionSet",
      "type": "event"
    },
    {
      "anonymous": false,
      "inputs": [
        {
          "indexed": false,
          "internalType": "uint256",
          "name": "root",
          "type": "uint256"
        }
      ],
      "name": "RootRoot",
      "type": "event"
    },
    {
      "inputs": [],
      "name": "NOTHING_UP_MY_SLEEVE_ZERO",
      "outputs": [
        {
          "internalType": "uint256",
          "name": "",
          "type": "uint256"
        }
      ],
      "stateMutability": "view",
      "type": "function",
      "constant": true
    },
    {
      "inputs": [
        {
          "internalType": "uint232",
          "name": "",
          "type": "uint232"
        }
      ],
      "name": "externalNullifierLinkedList",
      "outputs": [
        {
          "internalType": "uint232",
          "name": "next",
          "type": "uint232"
        },
        {
          "internalType": "bool",
          "name": "exists",
          "type": "bool"
        },
        {
          "internalType": "bool",
          "name": "isActive",
          "type": "bool"
        }
      ],
      "stateMutability": "view",
      "type": "function",
      "constant": true
    },
    {
      "inputs": [],
      "name": "firstExternalNullifier",
      "outputs": [
        {
          "internalType": "uint232",
          "name": "",
          "type": "uint232"
        }
      ],
      "stateMutability": "view",
      "type": "function",
      "constant": true
    },
    {
      "inputs": [],
      "name": "getRoots",
      "outputs": [
        {
          "internalType": "uint256[10]",
          "name": "",
          "type": "uint256[10]"
        }
      ],
      "stateMutability": "view",
      "type": "function",
      "constant": true
    },
    {
      "inputs": [],
      "name": "isBroadcastPermissioned",
      "outputs": [
        {
          "internalType": "bool",
          "name": "",
          "type": "bool"
        }
      ],
      "stateMutability": "view",
      "type": "function",
      "constant": true
    },
    {
      "inputs": [],
      "name": "isOwner",
      "outputs": [
        {
          "internalType": "bool",
          "name": "",
          "type": "bool"
        }
      ],
      "stateMutability": "view",
      "type": "function",
      "constant": true
    },
    {
      "inputs": [],
      "name": "lastExternalNullifier",
      "outputs": [
        {
          "internalType": "uint232",
          "name": "",
          "type": "uint232"
        }
      ],
      "stateMutability": "view",
      "type": "function",
      "constant": true
    },
    {
      "inputs": [
        {
          "internalType": "uint256",
          "name": "",
          "type": "uint256"
        }
      ],
      "name": "nullifierHashHistory",
      "outputs": [
        {
          "internalType": "bool",
          "name": "",
          "type": "bool"
        }
      ],
      "stateMutability": "view",
      "type": "function",
      "constant": true
    },
    {
      "inputs": [],
      "name": "numExternalNullifiers",
      "outputs": [
        {
          "internalType": "uint256",
          "name": "",
          "type": "uint256"
        }
      ],
      "stateMutability": "view",
      "type": "function",
      "constant": true
    },
    {
      "inputs": [],
      "name": "owner",
      "outputs": [
        {
          "internalType": "address",
          "name": "",
          "type": "address"
        }
      ],
      "stateMutability": "view",
      "type": "function",
      "constant": true
    },
    {
      "inputs": [],
      "name": "renounceOwnership",
      "outputs": [],
      "stateMutability": "nonpayable",
      "type": "function"
    },
    {
      "inputs": [],
      "name": "root",
      "outputs": [
        {
          "internalType": "uint256",
          "name": "",
          "type": "uint256"
        }
      ],
      "stateMutability": "view",
      "type": "function",
      "constant": true
    },
    {
      "inputs": [
        {
          "internalType": "uint256",
          "name": "",
          "type": "uint256"
        }
      ],
      "name": "rootHistory",
      "outputs": [
        {
          "internalType": "bool",
          "name": "",
          "type": "bool"
        }
      ],
      "stateMutability": "view",
      "type": "function",
      "constant": true
    },
    {
      "inputs": [
        {
          "internalType": "address",
          "name": "newOwner",
          "type": "address"
        }
      ],
      "name": "transferOwnership",
      "outputs": [],
      "stateMutability": "nonpayable",
      "type": "function"
    },
    {
      "inputs": [
        {
          "internalType": "uint256[2]",
          "name": "a",
          "type": "uint256[2]"
        },
        {
          "internalType": "uint256[2][2]",
          "name": "b",
          "type": "uint256[2][2]"
        },
        {
          "internalType": "uint256[2]",
          "name": "c",
          "type": "uint256[2]"
        },
        {
          "internalType": "uint256[4]",
          "name": "input",
          "type": "uint256[4]"
        }
      ],
      "name": "verifyProof",
      "outputs": [
        {
          "internalType": "bool",
          "name": "r",
          "type": "bool"
        }
      ],
      "stateMutability": "view",
      "type": "function",
      "constant": true
    },
    {
      "inputs": [
        {
          "internalType": "uint256",
          "name": "_identityCommitment",
          "type": "uint256"
        }
      ],
      "name": "insertIdentity",
      "outputs": [
        {
          "internalType": "uint256",
          "name": "",
          "type": "uint256"
        }
      ],
      "stateMutability": "nonpayable",
      "type": "function"
    },
    {
      "inputs": [
        {
          "internalType": "uint256[2]",
          "name": "_a",
          "type": "uint256[2]"
        },
        {
          "internalType": "uint256[2][2]",
          "name": "_b",
          "type": "uint256[2][2]"
        },
        {
          "internalType": "uint256[2]",
          "name": "_c",
          "type": "uint256[2]"
        }
      ],
      "name": "packProof",
      "outputs": [
        {
          "internalType": "uint256[8]",
          "name": "",
          "type": "uint256[8]"
        }
      ],
      "stateMutability": "pure",
      "type": "function",
      "constant": true
    },
    {
      "inputs": [
        {
          "internalType": "uint256[8]",
          "name": "_proof",
          "type": "uint256[8]"
        }
      ],
      "name": "unpackProof",
      "outputs": [
        {
          "internalType": "uint256[2]",
          "name": "",
          "type": "uint256[2]"
        },
        {
          "internalType": "uint256[2][2]",
          "name": "",
          "type": "uint256[2][2]"
        },
        {
          "internalType": "uint256[2]",
          "name": "",
          "type": "uint256[2]"
        }
      ],
      "stateMutability": "pure",
      "type": "function",
      "constant": true
    },
    {
      "inputs": [
        {
          "internalType": "bytes",
          "name": "_signal",
          "type": "bytes"
        },
        {
          "internalType": "uint256[8]",
          "name": "_proof",
          "type": "uint256[8]"
        },
        {
          "internalType": "uint256",
          "name": "_root",
          "type": "uint256"
        },
        {
          "internalType": "uint256",
          "name": "_nullifiersHash",
          "type": "uint256"
        },
        {
          "internalType": "uint256",
          "name": "_signalHash",
          "type": "uint256"
        },
        {
          "internalType": "uint232",
          "name": "_externalNullifier",
          "type": "uint232"
        }
      ],
      "name": "preBroadcastCheck",
      "outputs": [
        {
          "internalType": "bool",
          "name": "",
          "type": "bool"
        }
      ],
      "stateMutability": "view",
      "type": "function",
      "constant": true
    },
    {
      "inputs": [
        {
          "internalType": "bytes",
          "name": "_signal",
          "type": "bytes"
        },
        {
          "internalType": "uint256[8]",
          "name": "_proof",
          "type": "uint256[8]"
        },
        {
          "internalType": "uint256",
          "name": "_root",
          "type": "uint256"
        },
        {
          "internalType": "uint256",
          "name": "_nullifiersHash",
          "type": "uint256"
        },
        {
          "internalType": "uint232",
          "name": "_externalNullifier",
          "type": "uint232"
        }
      ],
      "name": "broadcastSignal",
      "outputs": [],
      "stateMutability": "nonpayable",
      "type": "function"
    },
    {
      "inputs": [
        {
          "internalType": "uint232",
          "name": "_externalNullifier",
          "type": "uint232"
        }
      ],
      "name": "addExternalNullifier",
      "outputs": [],
      "stateMutability": "nonpayable",
      "type": "function"
    },
    {
      "inputs": [
        {
          "internalType": "uint232",
          "name": "_externalNullifier",
          "type": "uint232"
        }
      ],
      "name": "deactivateExternalNullifier",
      "outputs": [],
      "stateMutability": "nonpayable",
      "type": "function"
    },
    {
      "inputs": [
        {
          "internalType": "uint232",
          "name": "_externalNullifier",
          "type": "uint232"
        }
      ],
      "name": "reactivateExternalNullifier",
      "outputs": [],
      "stateMutability": "nonpayable",
      "type": "function"
    },
    {
      "inputs": [
        {
          "internalType": "uint232",
          "name": "_externalNullifier",
          "type": "uint232"
        }
      ],
      "name": "isExternalNullifierActive",
      "outputs": [
        {
          "internalType": "bool",
          "name": "",
          "type": "bool"
        }
      ],
      "stateMutability": "view",
      "type": "function",
      "constant": true
    },
    {
      "inputs": [
        {
          "internalType": "uint232",
          "name": "_externalNullifier",
          "type": "uint232"
        }
      ],
      "name": "getNextExternalNullifier",
      "outputs": [
        {
          "internalType": "uint232",
          "name": "",
          "type": "uint232"
        }
      ],
      "stateMutability": "view",
      "type": "function",
      "constant": true
    },
    {
      "inputs": [],
      "name": "getNumIdentityCommitments",
      "outputs": [
        {
          "internalType": "uint256",
          "name": "",
          "type": "uint256"
        }
      ],
      "stateMutability": "view",
      "type": "function",
      "constant": true
    },
    {
      "inputs": [
        {
          "internalType": "bool",
          "name": "_newPermission",
          "type": "bool"
        }
      ],
      "name": "setPermissioning",
      "outputs": [],
      "stateMutability": "nonpayable",
      "type": "function"
    }
  ],
  "bytecode": "0x608060405260006001819055605055605180546001600160e81b0319169055605280546001600160f01b031916600160e81b1790557f30644e72e131a029b85045b68181585d2833e84879b9709143e1f593f00000016200006160a06200052a565b6040516020818303038152906040528051906020012060001c62000086919062000634565b6054553480156200009657600080fd5b50604051620033e5380380620033e5833981016040819052620000b991620004de565b8160545460008260ff16118015620000d55750602060ff831611155b620000fd5760405162461bcd60e51b8152600401620000f49062000588565b60405180910390fd5b6000805460ff191660ff84161781558190600d01558060015b8360ff168160ff1610156200019c57600062000133838062000210565b905080600d8360ff16602081106200015b57634e487b7160e01b600052603260045260246000fd5b015580602d60ff8416602081106200018357634e487b7160e01b600052603260045260246000fd5b0155915080620001938162000611565b91505062000116565b50620001a9818062000210565b600c555050604e80546001600160a01b0319163317908190556040516001600160a01b039190911691506000907f8be0079c531659141344cd1fd0a4f28419497f9722a3daafe3b4186f6b6457e0908290a36200020881600162000369565b50506200066b565b60405163f47d33b560e01b81526000908390829073__MiMC__________________________________9063f47d33b590620002529085908590600401620005e5565b604080518083038186803b1580156200026a57600080fd5b505af41580156200027f573d6000803e3d6000fd5b505050506040513d601f19601f82011682018060405250810190620002a59190620004ba565b90925090507f30644e72e131a029b85045b68181585d2833e84879b9709143e1f593f000000184830860405163f47d33b560e01b815290925073__MiMC__________________________________9063f47d33b5906200030c9085908590600401620005e5565b604080518083038186803b1580156200032457600080fd5b505af415801562000339573d6000803e3d6000fd5b505050506040513d601f19601f820116820180604052508101906200035f9190620004ba565b5095945050505050565b80156200039157605180546001600160e81b0319166001600160e81b03841617905562000406565b6001600160e81b0382166000908152604f6020526040902054600160e81b900460ff1615620003d45760405162461bcd60e51b8152600401620000f4906200053f565b6052546001600160e81b039081166000908152604f6020526040902080546001600160e81b0319169184169190911790555b6001600160e81b0382166000818152604f60205260408120805460ff60e81b197fff00ff0000000000000000000000000000000000000000000000000000000000909116600160f01b1716600160e81b179055605280546001600160e81b03191690921790915560508054916200047d83620005f3565b90915550506040516001600160e81b038316907fd1ca56647596090d70fa8d49bcc376b97248314e3f204c491333b3440405f58990600090a25050565b60008060408385031215620004cd578182fd5b505080516020909101519092909150565b60008060408385031215620004f1578182fd5b825160ff8116811462000502578283fd5b60208401519092506001600160e81b03811681146200051f578182fd5b809150509250929050565b6853656d6170686f726560b81b815260090190565b60208082526029908201527f53656d6170686f72653a2065787465726e616c206e756c6c696669657220616c6040820152681c9958591e481cd95d60ba1b606082015260800190565b6020808252603b908201527f496e6372656d656e74616c4d65726b6c65547265653a205f747265654c65766560408201527f6c73206d757374206265206265747765656e203020616e642033330000000000606082015260800190565b918252602082015260400190565b60006000198214156200060a576200060a62000655565b5060010190565b600060ff821660ff8114156200062b576200062b62000655565b60010192915050565b6000826200065057634e487b7160e01b81526012600452602481fd5b500690565b634e487b7160e01b600052601160045260246000fd5b612d6a806200067b6000396000f3fe608060405234801561001057600080fd5b50600436106101a95760003560e01c8063819bd8a5116100f9578063c8cf02da11610097578063ebf0c71711610071578063ebf0c7171461035d578063f1c621ee14610365578063f2fde38b14610378578063f5ab0dd61461038b576101a9565b8063c8cf02da1461032f578063ce85bbdb14610337578063eac4287e1461034a576101a9565b80638f6efd00116100d35780638f6efd00146102f9578063ba10b81d14610301578063c3a3407f14610309578063c4cd55961461031c576101a9565b8063819bd8a5146102c95780638da5cb5b146102dc5780638f32d59b146102f1576101a9565b80635d86faba116101665780636d80efca116101405780636d80efca146102775780636ebf626514610297578063715018a61461029f5780637a5519f9146102a7576101a9565b80635d86faba1461022f5780635e05ea17146102445780635fe8c13b14610264576101a9565b80630e57596f146101ae57806323baaa83146101c3578063283ebaf4146101d657806335a5e06d146101f4578063539f38b2146102095780635d3ce7251461021c575b600080fd5b6101c16101bc366004612214565b6103ad565b005b6101c16101d1366004612307565b610508565b6101de6105db565b6040516101eb9190612444565b60405180910390f35b6101fc6105eb565b6040516101eb9190612399565b6101c1610217366004612307565b610627565b6101de61022a366004612289565b610635565b61023761073c565b6040516101eb9190612a93565b610257610252366004612128565b61074b565b6040516101eb919061241b565b6101de61027236600461216e565b6107ad565b61028a610285366004612321565b610b17565b6040516101eb9190612aca565b61028a610b77565b6101c1610b7d565b6102ba6102b5366004612307565b610beb565b6040516101eb93929190612aa7565b6101c16102d7366004612307565b610c1c565b6102e4610cf0565b6040516101eb9190612385565b6101de610cff565b61028a610d10565b61028a610d16565b610237610317366004612307565b610d1c565b6101de61032a366004612321565b610dc5565b610237610dda565b6101c16103453660046121f4565b610de9565b6101de610358366004612307565b610e32565b61028a610e57565b6101de610373366004612321565b610e5d565b6101c1610386366004612101565b610e72565b61039e6103993660046121d8565b610e9f565b6040516101eb939291906123cb565b84848484846103bb84610f28565b6103e05760405162461bcd60e51b81526004016103d7906127f2565b60405180910390fd5b60008281526053602052604090205460ff161561040f5760405162461bcd60e51b81526004016103d790612875565b61041881610e32565b6104345760405162461bcd60e51b81526004016103d7906128b6565b7fd0be6067448f25771ec845586f8e534829698cec02e5acedf5334d188b57681e836040516104639190612aca565b60405180910390a160006104768661100a565b9050600080516020612d1583398151915283106104a55760405162461bcd60e51b81526004016103d79061296a565b60408051608081018252858152602081018590529081018290526001600160e81b0383166060820152600080806104db89610e9f565b50505060009b8c525050605360205250506040909720805460ff1916600117905550505050505050505050565b6001600160e81b0381166000908152604f6020526040902054600160e81b900460ff166105475760405162461bcd60e51b81526004016103d7906128b6565b6001600160e81b0381166000908152604f6020526040902054600160f01b900460ff16151560011461058b5760405162461bcd60e51b81526004016103d7906126b5565b6001600160e81b0381166000818152604f6020526040808220805460ff60f01b19169055519091907fb8d2b8a2b352df7f139810483b3c80fc3a4a88711c90bdb7180f1030b7f49acf908390a350565b605254600160e81b900460ff1681565b6105f3611d47565b6040805161014081019182905290600290600a9082845b81548152602001906001019080831161060a575050505050905090565b610632816000611018565b50565b60408051608081018252858152602081018590529081018390526001600160e81b038216606082015260009081808061066d8a610e9f565b60008b815260536020526040902054929550909350915060ff1615801561069b5750866106998c61100a565b145b80156106ae57506106ab8b61100a565b87145b80156106be57506106be86610e32565b80156106d857506000898152604d602052604090205460ff165b80156106e857506106e88a610f28565b80156107015750600080516020612d1583398151915289105b801561071a5750600080516020612d1583398151915288105b801561072d575061072d838383876107ad565b9b9a5050505050505050505050565b6051546001600160e81b031681565b610753611d66565b5060408051610100810182528451815260208086015181830152845151928201929092528351820151606082015283820180515160808301525182015160a0820152825160c08201529082015160e08201525b9392505050565b60006107b7611d85565b60408051808201825287518152602080890151818301529083528151608081018352875151818401908152885183015160608301528152825180840184528883018051518252518301518184015281830152838201528151808301835286518152868201519181019190915290820152600061083161114b565b604080518082019091526000808252602082015283515191925090600080516020612cf5833981519152116108785760405162461bcd60e51b81526004016103d7906124d5565b825160200151600080516020612cf5833981519152116108aa5760405162461bcd60e51b81526004016103d7906129c8565b60208301515151600080516020612cf5833981519152116108dd5760405162461bcd60e51b81526004016103d79061244f565b602083810151015151600080516020612cf5833981519152116109125760405162461bcd60e51b81526004016103d79061283e565b602083810151510151600080516020612cf5833981519152116109475760405162461bcd60e51b81526004016103d790612589565b6020838101518101510151600080516020612cf58339815191521161097e5760405162461bcd60e51b81526004016103d79061250c565b604083015151600080516020612cf5833981519152116109b05760405162461bcd60e51b81526004016103d790612a5c565b600080516020612cf5833981519152836040015160200151106109e55760405162461bcd60e51b81526004016103d790612706565b60005b6004811015610ac157600080516020612d15833981519152868260048110610a2057634e487b7160e01b600052603260045260246000fd5b602002015110610a425760405162461bcd60e51b81526004016103d790612786565b610aad82610aa88560800151846001610a5b9190612b0b565b60058110610a7957634e487b7160e01b600052603260045260246000fd5b6020020151898560048110610a9e57634e487b7160e01b600052603260045260246000fd5b602002015161156b565b61159a565b915080610ab981612c6d565b9150506109e8565b50608082015151610ad390829061159a565b9050610b09610ae584600001516115ca565b84602001518460000151856020015185876040015189604001518960600151611656565b93505050505b949350505050565b6000605454821415610b3b5760405162461bcd60e51b81526004016103d7906125c0565b60405182907f31d0d431762af1b333d4fef318e03efc7b702fe91dd1f0aa2c72e699bebcb48990600090a2610b6f8261198b565b90505b919050565b60545481565b610b85610cff565b610ba15760405162461bcd60e51b81526004016103d7906127bd565b604e546040516000916001600160a01b0316907f8be0079c531659141344cd1fd0a4f28419497f9722a3daafe3b4186f6b6457e0908390a3604e80546001600160a01b0319169055565b604f602052600090815260409020546001600160e81b0381169060ff600160e81b8204811691600160f01b90041683565b6001600160e81b0381166000908152604f6020526040902054600160e81b900460ff16610c5b5760405162461bcd60e51b81526004016103d7906128b6565b6001600160e81b0381166000908152604f6020526040902054600160f01b900460ff1615610c9b5760405162461bcd60e51b81526004016103d790612486565b6001600160e81b0381166000818152604f6020526040808220805460ff60f01b1916600160f01b17905551600192917fb8d2b8a2b352df7f139810483b3c80fc3a4a88711c90bdb7180f1030b7f49acf91a350565b604e546001600160a01b031690565b604e546001600160a01b0316331490565b60505481565b60015490565b6001600160e81b0381166000908152604f6020526040812054600160e81b900460ff16610d5b5760405162461bcd60e51b81526004016103d790612670565b6001600160e81b038083166000908152604f60205260409020546050549116906001108015610da957506001600160e81b0381166000908152604f6020526040902054600160e81b900460ff165b610b6f5760405162461bcd60e51b81526004016103d7906129ff565b60536020526000908152604090205460ff1681565b6052546001600160e81b031681565b6052805460ff60e81b1916600160e81b831515908102919091179091556040517ffba91b9002bc7732a7bff1b44ee16a30ebaeb06d7921779034c6a6ab27e69c2790600090a250565b6001600160e81b03166000908152604f6020526040902054600160f01b900460ff1690565b600c5481565b604d6020526000908152604090205460ff1681565b610e7a610cff565b610e965760405162461bcd60e51b81526004016103d7906127bd565b61063281611b8a565b610ea7611db7565b610eaf611dd5565b610eb7611db7565b50506040805180820182528351815260208085015181830152825160808082018552868501518286019081526060808901519084015282528451808601865290870151815260a08701518184015281830152835180850190945260c0860151845260e0909501519083015293909150565b8051600090600080516020612d15833981519152118015610f5a57506020820151600080516020612d15833981519152115b8015610f7757506040820151600080516020612d15833981519152115b8015610f9457506060820151600080516020612d15833981519152115b8015610fb157506080820151600080516020612d15833981519152115b8015610fce575060a0820151600080516020612d15833981519152115b8015610feb575060c0820151600080516020612d15833981519152115b8015610b6f57505060e00151600080516020612d158339815191521190565b805160209091012060081c90565b801561103e57605180546001600160e81b0319166001600160e81b0384161790556110b0565b6001600160e81b0382166000908152604f6020526040902054600160e81b900460ff161561107e5760405162461bcd60e51b81526004016103d79061273d565b6052546001600160e81b039081166000908152604f6020526040902080546001600160e81b0319169184169190911790555b6001600160e81b0382166000818152604f60205260408120805460ff60e81b19600161ff0160e81b0319909116600160f01b1716600160e81b179055605280546001600160e81b031916909217909155605080549161110e83612c6d565b90915550506040516001600160e81b038316907fd1ca56647596090d70fa8d49bcc376b97248314e3f204c491333b3440405f58990600090a25050565b611153611e02565b6040805180820182527f2aeb4aafb1c7a3e1445536842c9d8225ebd94a09d15cda4e17d944add94ede4781527f03ab549390940a14a8d8d3fe3f6ecb68195432778936e617d914f14d1df035796020808301919091529083528151608080820184527f2fd95a27d1b9d966bb3ae847506bfc2ffa3e5c945f4502cf0f10dfd658960f948285019081527f167a6701c17cc2734e919e79f59f110b511f1ff811a06fd840949416d10ddafc606080850191909152908352845180860186527f02b4c85ab8a8fbe2d979af025230a96c10e07c5e4163fc7d633ba083fc44f9ee81527f303ca2757a59cbf0e0bbdb8f1712f29e3e804cd258e18aca0da7f6bd7136e806818601528385015285840192909252835180820185527f0fa9bb662fc3acd975ee36a6ea2c0c709c3a75303345702acaf0d845428f932b8186019081527f2f2d53e983b994de7cac84d565b30b457f11273ff5a898ce80c9fd66bdf9e075828501528152845180860186527f2d1f4da8e0f4d49c61fd3ec22a104df1a5159b1e329b3506354559ebafff080181527f2ff6e55d56bb54b32d728131475c6ca6d7a92cc6b82bfcd59311c765e7edcb45818601528185015285850152835180820185527f23511787419db90d2bad3c8bfbac9f4398c26cd6cd34bb5276c2cd94b7b7d26f8186019081527f17e0c1843c4ec925cf3d09b051978f5f23d1d166117d572f38dbd874126dead5828501528152845180860186527f06e374c176a74bf3d0c0329b9d03b53693d77f928cd1fc4c6f6053ec00f2ca2581527f2d832fd3933c30f159e18dbe33bc7496240cc22bcece79faf02388e5bd366a21818601528185015282860152835180850185527f2174881f2cb4aee5292b2f603cb183bf301d263b1a11c7ec22585fec00ecce9881527e3e5e75ec133240c640391a4cb8a18e2fbc4f6336e6b6693643735d5c62308781850152818601805191909152845180860186527f1664a7bd963677623594fb978543aceb4fc3576b0f976c519a22bdbca62226c381527f0e28ccde23de1c2f78b1d8d35660f7014f391e354756aad1f5f75d159cfab652818601528151850152845180860186527f17439f723025a06c170891f82daf6fbf4fe30c3824d1b0820262e7ee632bd62d81527f0a74bd079e9f728a7c5dc31ea3c7c43e978be8921a351b9de0df3cfb2f601855818601528151860152845180860186527f274660c30271883b25933fc39f835337bafcb604536af04f6264fe96a7b32d5181527f27e6947d2ab1e5b87fa5e0b4fe610ee7a623bdf4e0225e249c6a3446af5085b58186015281519093019290925283518085019094527f108ba5cc069e7368567294f740794f36d4c7d99d40dd667fe5dd544967bdc9a984527f2175417a3760110f546c7f7f30d3195d766cbe31f34013b45322ff7fd974635c9284019290925251015290565b611573611e49565b61157b611e63565b8351815260208085015190820152828160025b60200201525092915050565b6115a2611e49565b6115aa611e81565b83518152602080850151818301528351604083015283015181600361158e565b6115d2611e49565b81511580156115e357506020820151155b1561160257506040805180820190915260008082526020820152610b72565b604051806040016040528083600001518152602001600080516020612cf583398151915284602001516116359190612ca8565b61164d90600080516020612cf5833981519152612c56565b90529050610b72565b60408051608080820183528a825260208083018a90528284018890526060808401879052845192830185528b83528282018a9052828501889052820185905283516018808252610320820190955260009491859190839082016103008036833701905050905060005b600481101561196e5760006116d5826006612c37565b90508582600481106116f757634e487b7160e01b600052603260045260246000fd5b60200201515183611709836000612b0b565b8151811061172757634e487b7160e01b600052603260045260246000fd5b60200260200101818152505085826004811061175357634e487b7160e01b600052603260045260246000fd5b6020020151602001518382600161176a9190612b0b565b8151811061178857634e487b7160e01b600052603260045260246000fd5b6020026020010181815250508482600481106117b457634e487b7160e01b600052603260045260246000fd5b60200201515151836117c7836002612b0b565b815181106117e557634e487b7160e01b600052603260045260246000fd5b60200260200101818152505084826004811061181157634e487b7160e01b600052603260045260246000fd5b602002015151600160200201518361182a836003612b0b565b8151811061184857634e487b7160e01b600052603260045260246000fd5b60200260200101818152505084826004811061187457634e487b7160e01b600052603260045260246000fd5b60200201516020015160006002811061189d57634e487b7160e01b600052603260045260246000fd5b6020020151836118ae836004612b0b565b815181106118cc57634e487b7160e01b600052603260045260246000fd5b6020026020010181815250508482600481106118f857634e487b7160e01b600052603260045260246000fd5b60200201516020015160016002811061192157634e487b7160e01b600052603260045260246000fd5b602002015183611932836005612b0b565b8151811061195057634e487b7160e01b600052603260045260246000fd5b6020908102919091010152508061196681612c6d565b9150506116bf565b50611977611e9f565b5115159d9c50505050505050505050505050565b6000600080516020612d1583398151915282106119ba5760405162461bcd60e51b81526004016103d7906128fd565b60015460005460ff166119ce816002612b69565b82106119ec5760405162461bcd60e51b81526004016103d79061262d565b83600080805b60005460ff9081169082161015611aba57611a0e600287612ca8565b611a6957839250600d8160ff1660208110611a3957634e487b7160e01b600052603260045260246000fd5b0154915083602d8260ff1660208110611a6257634e487b7160e01b600052603260045260246000fd5b0155611a95565b602d8160ff1660208110611a8d57634e487b7160e01b600052603260045260246000fd5b015492508391505b611a9f8383611c0c565b60019690961c95935080611ab281612c88565b9150506119f2565b50600c8381556000848152604d602052604090819020805460ff19166001179055905490517f798104477dcefe17a2ff5ed9af618d9b254ea90608948f8da0fbbad00c44a93791611b0a91612aca565b60405180910390a1600c546002600154600a8110611b3857634e487b7160e01b600052603260045260246000fd5b01556001805490806000611b4c8285612b0b565b9091555050604051819089907fe6f49fa84abd31919f446b22a52bb3ceae774b4b87f062f022fec45c46f4f45890600090a350939695505050505050565b6001600160a01b038116611bb05760405162461bcd60e51b81526004016103d790612543565b604e546040516001600160a01b038084169216907f8be0079c531659141344cd1fd0a4f28419497f9722a3daafe3b4186f6b6457e090600090a3604e80546001600160a01b0319166001600160a01b0392909216919091179055565b60405163f47d33b560e01b81526000908390829073__MiMC__________________________________9063f47d33b590611c4c9085908590600401612ad3565b604080518083038186803b158015611c6357600080fd5b505af4158015611c77573d6000803e3d6000fd5b505050506040513d601f19601f82011682018060405250810190611c9b9190612339565b9092509050600080516020612d1583398151915284830860405163f47d33b560e01b815290925073__MiMC__________________________________9063f47d33b590611cee9085908590600401612ad3565b604080518083038186803b158015611d0557600080fd5b505af4158015611d19573d6000803e3d6000fd5b505050506040513d601f19601f82011682018060405250810190611d3d9190612339565b5095945050505050565b604051806101400160405280600a906020820280368337509192915050565b6040518061010001604052806008906020820280368337509192915050565b6040518060600160405280611d98611e49565b8152602001611da5611ebd565b8152602001611db2611e49565b905290565b60405180604001604052806002906020820280368337509192915050565b60405180604001604052806002905b611dec611db7565b815260200190600190039081611de45790505090565b6040518060a00160405280611e15611e49565b8152602001611e22611ebd565b8152602001611e2f611ebd565b8152602001611e3c611ebd565b8152602001611db2611edd565b604051806040016040528060008152602001600081525090565b60405180606001604052806003906020820280368337509192915050565b60405180608001604052806004906020820280368337509192915050565b60405180602001604052806001906020820280368337509192915050565b6040518060400160405280611ed0611db7565b8152602001611db2611db7565b6040518060a001604052806005905b611ef4611e49565b815260200190600190039081611eec5790505090565b600067ffffffffffffffff831115611f2457611f24612cde565b6020808402611f3281612ae1565b92508284878387011115611f4557600080fd5b600092505b86831015611f68578035825260019290920191908301908301611f4a565b505050509392505050565b600082601f830112611f83578081fd5b6040805181810181811067ffffffffffffffff82111715611fa657611fa6612cde565b8252808460808101871015611fb9578485fd5b845b6002811015611fe257611fce8883611fee565b835260209092019190840190600101611fbb565b50919695505050505050565b600082601f830112611ffe578081fd5b6040516040810181811067ffffffffffffffff8211171561202157612021612cde565b8060405250808385604086011115612037578384fd5b835b6002811015612058578135835260209283019290910190600101612039565b509195945050505050565b600082601f830112612073578081fd5b6107a683600884611f0a565b600082601f83011261208f578081fd5b813567ffffffffffffffff8111156120a9576120a9612cde565b6120bc601f8201601f1916602001612ae1565b8181528460208386010111156120d0578283fd5b816020850160208301379081016020019190915292915050565b80356001600160e81b0381168114610b7257600080fd5b600060208284031215612112578081fd5b81356001600160a01b03811681146107a6578182fd5b6000806000610100848603121561213d578182fd5b6121478585611fee565b92506121568560408601611f73565b91506121658560c08601611fee565b90509250925092565b6000806000806101808587031215612184578081fd5b61218e8686611fee565b935061219d8660408701611f73565b92506121ac8660c08701611fee565b91508561011f8601126121bd578081fd5b6121cd8660046101008801611f0a565b905092959194509250565b600061010082840312156121ea578081fd5b6107a68383612063565b600060208284031215612205578081fd5b813580151581146107a6578182fd5b6000806000806000610180868803121561222c578081fd5b853567ffffffffffffffff811115612242578182fd5b61224e8882890161207f565b95505061225e8760208801612063565b93506101208601359250610140860135915061227d61016087016120ea565b90509295509295909350565b6000806000806000806101a087890312156122a2578384fd5b863567ffffffffffffffff8111156122b8578485fd5b6122c489828a0161207f565b9650506122d48860208901612063565b94506101208701359350610140870135925061016087013591506122fb61018088016120ea565b90509295509295509295565b600060208284031215612318578081fd5b6107a6826120ea565b600060208284031215612332578081fd5b5035919050565b6000806040838503121561234b578182fd5b505080516020909101519092909150565b8060005b600281101561237f578151845260209384019390910190600101612360565b50505050565b6001600160a01b0391909116815260200190565b6101408101818360005b600a8110156123c25781518352602092830192909101906001016123a3565b50505092915050565b61010081016123da828661235c565b60408083018560005b600281101561240a576123f783835161235c565b91830191602091909101906001016123e3565b50505050610b0f60c083018461235c565b6101008101818360005b60088110156123c2578151835260209283019290910190600101612425565b901515815260200190565b60208082526018908201527f76657269666965722d6258302d6774652d7072696d652d710000000000000000604082015260600190565b6020808252602f908201527f53656d6170686f72653a2065787465726e616c206e756c6c696669657220697360408201526e20616c72656164792061637469766560881b606082015260800190565b60208082526017908201527f76657269666965722d61582d6774652d7072696d652d71000000000000000000604082015260600190565b60208082526018908201527f76657269666965722d6259312d6774652d7072696d652d710000000000000000604082015260600190565b60208082526026908201527f4f776e61626c653a206e6577206f776e657220697320746865207a65726f206160408201526564647265737360d01b606082015260800190565b60208082526018908201527f76657269666965722d6258312d6774652d7072696d652d710000000000000000604082015260600190565b60208082526047908201527f53656d6170686f72653a206964656e7469747920636f6d6d69746d656e74206360408201527f616e6e6f7420626520746865206e6f7468696e672d75702d6d792d736c656576606082015266652d76616c756560c81b608082015260a00190565b60208082526023908201527f496e6372656d656e74616c4d65726b6c65547265653a207472656520697320666040820152621d5b1b60ea1b606082015260800190565b60208082526025908201527f53656d6170686f72653a206e6f20737563682065787465726e616c206e756c6c60408201526434b334b2b960d91b606082015260800190565b60208082526031908201527f53656d6170686f72653a2065787465726e616c206e756c6c696669657220616c6040820152701c9958591e4819195858dd1a5d985d1959607a1b606082015260800190565b60208082526017908201527f76657269666965722d63592d6774652d7072696d652d71000000000000000000604082015260600190565b60208082526029908201527f53656d6170686f72653a2065787465726e616c206e756c6c696669657220616c6040820152681c9958591e481cd95d60ba1b606082015260800190565b6020808252601f908201527f76657269666965722d6774652d736e61726b2d7363616c61722d6669656c6400604082015260600190565b6020808252818101527f4f776e61626c653a2063616c6c6572206973206e6f7420746865206f776e6572604082015260600190565b6020808252602c908201527f53656d6170686f72653a20696e76616c6964206669656c6420656c656d656e7460408201526b1439949034b710383937b7b360a11b606082015260800190565b60208082526018908201527f76657269666965722d6259302d6774652d7072696d652d710000000000000000604082015260600190565b60208082526021908201527f53656d6170686f72653a206e756c6c696669657220616c7265616479207365656040820152603760f91b606082015260800190565b60208082526027908201527f53656d6170686f72653a2065787465726e616c206e756c6c6966696572206e6f6040820152661d08199bdd5b9960ca1b606082015260800190565b60208082526047908201527f496e6372656d656e74616c4d65726b6c65547265653a20696e736572744c656160408201527f6620617267756d656e74206d757374206265203c20534e41524b5f5343414c416060820152661497d19251531160ca1b608082015260a00190565b602080825260409082018190527f53656d6170686f72653a20746865206e756c6c6966696572732068617368206d908201527f757374206265206c742074686520736e61726b207363616c6172206669656c64606082015260800190565b60208082526017908201527f76657269666965722d61592d6774652d7072696d652d71000000000000000000604082015260600190565b6020808252603f908201527f53656d6170686f72653a206e6f2065787465726e616c206e756c6c696669657260408201527f206578697374732061667465722074686520737065636966696564206f6e6500606082015260800190565b60208082526017908201527f76657269666965722d63582d6774652d7072696d652d71000000000000000000604082015260600190565b6001600160e81b0391909116815260200190565b6001600160e81b0393909316835290151560208301521515604082015260600190565b90815260200190565b918252602082015260400190565b60405181810167ffffffffffffffff81118282101715612b0357612b03612cde565b604052919050565b60008219821115612b1e57612b1e612cc8565b500190565b80825b6001808611612b355750612b60565b818704821115612b4757612b47612cc8565b80861615612b5457918102915b9490941c938002612b26565b94509492505050565b60006107a66000198484600082612b82575060016107a6565b81612b8f575060006107a6565b8160018114612ba55760028114612baf57612bdc565b60019150506107a6565b60ff841115612bc057612bc0612cc8565b6001841b915084821115612bd657612bd6612cc8565b506107a6565b5060208310610133831016604e8410600b8410161715612c0f575081810a83811115612c0a57612c0a612cc8565b6107a6565b612c1c8484846001612b23565b808604821115612c2e57612c2e612cc8565b02949350505050565b6000816000190483118215151615612c5157612c51612cc8565b500290565b600082821015612c6857612c68612cc8565b500390565b6000600019821415612c8157612c81612cc8565b5060010190565b600060ff821660ff811415612c9f57612c9f612cc8565b60010192915050565b600082612cc357634e487b7160e01b81526012600452602481fd5b500690565b634e487b7160e01b600052601160045260246000fd5b634e487b7160e01b600052604160045260246000fdfe30644e72e131a029b85045b68181585d97816a916871ca8d3c208c16d87cfd4730644e72e131a029b85045b68181585d2833e84879b9709143e1f593f0000001a2646970667358221220c81c9d9153295e179c9b4708799a35ceb5622239223ffaea829fb65210b9137a64736f6c63430008000033",
  "immutableReferences": {},
  "source": "/*\n * Semaphore - Zero-knowledge signaling on Ethereum\n * Copyright (C) 2020 Barry WhiteHat <barrywhitehat@protonmail.com>, Kobi\n * Gurkan <kobigurk@gmail.com> and Koh Wei Jie (contact@kohweijie.com)\n *\n * This file is part of Semaphore.\n *\n * Semaphore is free software: you can redistribute it and/or modify\n * it under the terms of the GNU General Public License as published by\n * the Free Software Foundation, either version 3 of the License, or\n * (at your option) any later version.\n *\n * Semaphore is distributed in the hope that it will be useful,\n * but WITHOUT ANY WARRANTY; without even the implied warranty of\n * MERCHANTABILITY or FITNESS FOR A PARTICULAR PURPOSE.  See the\n * GNU General Public License for more details.\n *\n * You should have received a copy of the GNU General Public License\n * along with Semaphore.  If not, see <http://www.gnu.org/licenses/>.\n */\n\npragma solidity ^0.8.0;\n\nimport \"./verifier.sol\";\nimport { IncrementalMerkleTree } from \"./IncrementalMerkleTree.sol\";\nimport \"./Ownable.sol\";\n\ncontract Semaphore is Verifier, IncrementalMerkleTree, Ownable {\n    // The external nullifier helps to prevent double-signalling by the same\n    // user. An external nullifier can be active or deactivated.\n\n    // Each node in the linked list\n    struct ExternalNullifierNode {\n        uint232 next;\n        bool exists;\n        bool isActive;\n    }\n\n    // We store the external nullifiers using a mapping of the form:\n    // enA => { next external nullifier; if enA exists; if enA is active }\n    // Think of it as a linked list.\n    mapping (uint232 => ExternalNullifierNode) public\n        externalNullifierLinkedList;\n\n    uint256 public numExternalNullifiers = 0;\n    \n    // First and last external nullifiers for linked list enumeration\n    uint232 public firstExternalNullifier = 0;\n    uint232 public lastExternalNullifier = 0;\n\n    // Whether broadcastSignal() can only be called by the owner of this\n    // contract. This is the case as a safe default.\n    bool public isBroadcastPermissioned = true;\n\n    // Whether the contract has already seen a particular nullifier hash\n    mapping (uint256 => bool) public nullifierHashHistory;\n\n    event PermissionSet(bool indexed newPermission);\n    event ExternalNullifierAdd(uint232 indexed externalNullifier);\n    event ExternalNullifierChangeStatus(\n        uint232 indexed externalNullifier,\n        bool indexed active\n    );\n    event IdentityCommitment(uint256 indexed identityCommitment);\n\n    // This value should be equal to\n    // 0x7d10c03d1f7884c85edee6353bd2b2ffbae9221236edde3778eac58089912bc0\n    // which you can calculate using the following ethersjs code:\n    // ethers.utils.solidityKeccak256(['bytes'], [ethers.utils.toUtf8Bytes('Semaphore')])\n    // By setting the value of unset (empty) tree leaves to this\n    // nothing-up-my-sleeve value, the authors hope to demonstrate that they do\n    // not have its preimage and therefore cannot spend funds they do not own.\n\n    uint256 public NOTHING_UP_MY_SLEEVE_ZERO = \n        uint256(keccak256(abi.encodePacked('Semaphore'))) % SNARK_SCALAR_FIELD;\n\n    /*\n     * If broadcastSignal is permissioned, check if msg.sender is the contract\n     * owner\n     */\n    modifier onlyOwnerIfPermissioned() {\n        require(\n            !isBroadcastPermissioned || isOwner(),\n            \"Semaphore: broadcast permission denied\"\n        );\n\n        _;\n    }\n\n    /*\n     * @param _treeLevels The depth of the identity tree.\n     * @param _firstExternalNullifier The first identity nullifier to add.\n     */\n    constructor(uint8 _treeLevels, uint232 _firstExternalNullifier)\n        IncrementalMerkleTree(_treeLevels, NOTHING_UP_MY_SLEEVE_ZERO)\n        Ownable()\n        public {\n            addEn(_firstExternalNullifier, true);\n    }\n\n    /*\n     * Registers a new user. \n     * @param _identity_commitment The user's identity commitment, which is the\n     *                            hash of their public key and their identity\n     *                            nullifier (a random 31-byte value). It should\n     *                            be the output of a Pedersen hash. It is the\n     *                            responsibility of the caller to verify this.\n     */\n    function insertIdentity(uint256 _identityCommitment) public //onlyOwner\n    returns (uint256) {\n        // Ensure that the given identity commitment is not the zero value\n        require(\n            _identityCommitment != NOTHING_UP_MY_SLEEVE_ZERO,\n            \"Semaphore: identity commitment cannot be the nothing-up-my-sleeve-value\"\n        );\n\n        emit IdentityCommitment(_identityCommitment);\n\n        return insertLeaf(_identityCommitment);\n    }\n\n    /*\n     * Checks if all values within pi_a, pi_b, and pi_c of a zk-SNARK are less\n     * than the scalar field.\n     * @param _a The corresponding `a` parameter to verifier.sol's\n     *           verifyProof()\n     * @param _b The corresponding `b` parameter to verifier.sol's\n     *           verifyProof()\n     * @param _c The corresponding `c` parameter to verifier.sol's\n                 verifyProof()\n     */\n    function areAllValidFieldElements(\n        uint256[8] memory _proof\n    ) internal pure returns (bool) {\n        return \n            _proof[0] < SNARK_SCALAR_FIELD &&\n            _proof[1] < SNARK_SCALAR_FIELD &&\n            _proof[2] < SNARK_SCALAR_FIELD &&\n            _proof[3] < SNARK_SCALAR_FIELD &&\n            _proof[4] < SNARK_SCALAR_FIELD &&\n            _proof[5] < SNARK_SCALAR_FIELD &&\n            _proof[6] < SNARK_SCALAR_FIELD &&\n            _proof[7] < SNARK_SCALAR_FIELD;\n    }\n\n    /*\n     * Produces a keccak256 hash of the given signal, shifted right by 8 bits.\n     * @param _signal The signal to hash\n     */\n    function hashSignal(bytes memory _signal) internal pure returns (uint256) {\n        return uint256(keccak256(_signal)) >> 8;\n    }\n\n    /*\n     * A convenience function which returns a uint256 array of 8 elements which\n     * comprise a Groth16 zk-SNARK proof's pi_a, pi_b, and pi_c  values.\n     * @param _a The corresponding `a` parameter to verifier.sol's\n     *           verifyProof()\n     * @param _b The corresponding `b` parameter to verifier.sol's\n     *           verifyProof()\n     * @param _c The corresponding `c` parameter to verifier.sol's\n     *           verifyProof()\n     */\n    function packProof (\n        uint256[2] memory _a,\n        uint256[2][2] memory _b,\n        uint256[2] memory _c\n    ) public pure returns (uint256[8] memory) {\n\n        return [\n            _a[0],\n            _a[1], \n            _b[0][0],\n            _b[0][1],\n            _b[1][0],\n            _b[1][1],\n            _c[0],\n            _c[1]\n        ];\n    }\n\n    /*\n     * A convenience function which converts an array of 8 elements, generated\n     * by packProof(), into a format which verifier.sol's verifyProof()\n     * accepts.\n     * @param _proof The proof elements.\n     */\n    function unpackProof(\n        uint256[8] memory _proof\n    ) public pure returns (\n        uint256[2] memory,\n        uint256[2][2] memory,\n        uint256[2] memory\n    ) {\n\n        return (\n            [_proof[0], _proof[1]],\n            [\n                [_proof[2], _proof[3]],\n                [_proof[4], _proof[5]]\n            ],\n            [_proof[6], _proof[7]]\n        );\n    }\n\n\n    /*\n     * A convenience view function which helps operators to easily verify all\n     * inputs to broadcastSignal() using a single contract call. This helps\n     * them to save gas by detecting invalid inputs before they invoke\n     * broadcastSignal(). Note that this function does the same checks as\n     * `isValidSignalAndProof` but returns a bool instead of using require()\n     * statements.\n     * @param _signal The signal to broadcast\n     * @param _proof The proof elements.\n     * @param _root The Merkle tree root\n     * @param _nullifiersHash The nullifiers hash\n     * @param _signalHash The signal hash. This is included so as to verify in\n     *                    Solidity that the signal hash computed off-chain\n     *                    matches.\n     * @param _externalNullifier The external nullifier\n     */\n    function preBroadcastCheck (\n        bytes memory _signal,\n        uint256[8] memory _proof,\n        uint256 _root,\n        uint256 _nullifiersHash,\n        uint256 _signalHash,\n        uint232 _externalNullifier\n    ) public view returns (bool) {\n\n        uint256[4] memory publicSignals =\n            [_root, _nullifiersHash, _signalHash, _externalNullifier];\n\n        (uint256[2] memory a, uint256[2][2] memory b, uint256[2] memory c) = \n            unpackProof(_proof);\n\n        return nullifierHashHistory[_nullifiersHash] == false &&\n            hashSignal(_signal) == _signalHash &&\n            _signalHash == hashSignal(_signal) &&\n            isExternalNullifierActive(_externalNullifier) &&\n            rootHistory[_root] &&\n            areAllValidFieldElements(_proof) &&\n            _root < SNARK_SCALAR_FIELD &&\n            _nullifiersHash < SNARK_SCALAR_FIELD &&\n            verifyProof(a, b, c, publicSignals);\n    }\n\n\n    event RootRoot(uint256 root);\n    /*\n     * A modifier which ensures that the signal and proof are valid.\n     * @param _signal The signal to broadcast\n     * @param _proof The proof elements.\n     * @param _root The Merkle tree root\n     * @param _nullifiersHash The nullifiers hash\n     * @param _signalHash The signal hash\n     * @param _externalNullifier The external nullifier\n     */\n    modifier isValidSignalAndProof (\n        bytes memory _signal,\n        uint256[8] memory _proof,\n        uint256 _root,\n        uint256 _nullifiersHash,\n        uint232 _externalNullifier\n    ) {\n        // Check whether each element in _proof is a valid field element. Even\n        // if verifier.sol does this check too, it is good to do so here for\n        // the sake of good protocol design.\n        require(\n            areAllValidFieldElements(_proof),\n            \"Semaphore: invalid field element(s) in proof\"\n        );\n\n        // Check whether the nullifier hash has been seen\n        require(\n            nullifierHashHistory[_nullifiersHash] == false,\n            \"Semaphore: nullifier already seen\"\n        );\n\n        // Check whether the nullifier hash is active\n        require(\n            isExternalNullifierActive(_externalNullifier),\n            \"Semaphore: external nullifier not found\"\n        );\n\n        emit RootRoot(_root);\n        // Check whether the given Merkle root has been seen previously\n        // require(rootHistory[_root], \"Semaphore: root not seen\");\n\n        uint256 signalHash = hashSignal(_signal);\n\n        // Check whether _nullifiersHash is a valid field element.\n        require(\n            _nullifiersHash < SNARK_SCALAR_FIELD,\n            \"Semaphore: the nullifiers hash must be lt the snark scalar field\"\n        );\n\n        uint256[4] memory publicSignals =\n            [_root, _nullifiersHash, signalHash, _externalNullifier];\n\n        (uint256[2] memory a, uint256[2][2] memory b, uint256[2] memory c) =\n            unpackProof(_proof);\n\n        // require(\n        //     verifyProof(a, b, c, publicSignals),\n        //     \"Semaphore: invalid proof\"\n        // );\n\n        // Note that we don't need to check if signalHash is less than\n        // SNARK_SCALAR_FIELD because it always holds true due to the\n        // definition of hashSignal()\n\n        _;\n    }\n\n    /*\n     * Broadcasts the signal.\n     * @param _signal The signal to broadcast\n     * @param _proof The proof elements.\n     * @param _root The root of the Merkle tree (the 1st public signal)\n     * @param _nullifiersHash The nullifiers hash (the 2nd public signal)\n     * @param _externalNullifier The nullifiers hash (the 4th public signal)\n     */\n    function broadcastSignal(\n        bytes memory _signal,\n        uint256[8] memory _proof,\n        uint256 _root,\n        uint256 _nullifiersHash,\n        uint232 _externalNullifier\n    ) public \n        //onlyOwnerIfPermissioned\n        isValidSignalAndProof(\n            _signal, _proof, _root, _nullifiersHash, _externalNullifier\n        )\n    {\n        // Client contracts should be responsible for storing the signal and/or\n        // emitting it as an event \n\n        // Store the nullifiers hash to prevent double-signalling\n        nullifierHashHistory[_nullifiersHash] = true;\n    }\n\n    /*\n     * A private helper function which adds an external nullifier.\n     * @param _externalNullifier The external nullifier to add.\n     * @param _isFirst Whether _externalNullifier is the first external\n     * nullifier. Only the constructor should set _isFirst to true when it\n     * calls addEn().\n     */\n    function addEn(uint232 _externalNullifier, bool isFirst) private {\n        if (isFirst) {\n            firstExternalNullifier = _externalNullifier;\n        } else {\n            // The external nullifier must not have already been set\n            require(\n                externalNullifierLinkedList[_externalNullifier].exists == false,\n                \"Semaphore: external nullifier already set\"\n            );\n\n            // Connect the previously added external nullifier node to this one\n            externalNullifierLinkedList[lastExternalNullifier].next =\n                _externalNullifier;\n        }\n\n        // Add a new external nullifier\n        externalNullifierLinkedList[_externalNullifier].next = 0;\n        externalNullifierLinkedList[_externalNullifier].isActive = true;\n        externalNullifierLinkedList[_externalNullifier].exists = true;\n\n        // Set the last external nullifier to this one\n        lastExternalNullifier = _externalNullifier;\n\n        numExternalNullifiers ++;\n\n        emit ExternalNullifierAdd(_externalNullifier);\n    }\n\n    /*\n     * Adds an external nullifier to the contract. This external nullifier is\n     * active once it is added. Only the owner can do this.\n     * @param _externalNullifier The new external nullifier to set.\n     */\n    function addExternalNullifier(uint232 _externalNullifier) public\n    //onlyOwner \n    {\n        addEn(_externalNullifier, false);\n    }\n\n    /*\n     * Deactivate an external nullifier. The external nullifier must already be\n     * active for this function to work. Only the owner can do this.\n     * @param _externalNullifier The new external nullifier to deactivate.\n     */\n    function deactivateExternalNullifier(uint232 _externalNullifier) public\n    //onlyOwner \n    {\n        // The external nullifier must already exist\n        require(\n            externalNullifierLinkedList[_externalNullifier].exists,\n            \"Semaphore: external nullifier not found\"\n        );\n\n        // The external nullifier must already be active\n        require(\n            externalNullifierLinkedList[_externalNullifier].isActive == true,\n            \"Semaphore: external nullifier already deactivated\"\n        );\n\n        // Deactivate the external nullifier. Note that we don't change the\n        // value of nextEn.\n        externalNullifierLinkedList[_externalNullifier].isActive = false;\n\n        emit ExternalNullifierChangeStatus(_externalNullifier, false);\n    }\n\n    /*\n     * Reactivate an external nullifier. The external nullifier must already be\n     * inactive for this function to work. Only the owner can do this.\n     * @param _externalNullifier The new external nullifier to reactivate.\n     */\n    function reactivateExternalNullifier(uint232 _externalNullifier) public\n    //onlyOwner \n    {\n        // The external nullifier must already exist\n        require(\n            externalNullifierLinkedList[_externalNullifier].exists,\n            \"Semaphore: external nullifier not found\"\n        );\n\n        // The external nullifier must already have been deactivated\n        require(\n            externalNullifierLinkedList[_externalNullifier].isActive == false,\n            \"Semaphore: external nullifier is already active\"\n        );\n\n        // Reactivate the external nullifier\n        externalNullifierLinkedList[_externalNullifier].isActive = true;\n\n        emit ExternalNullifierChangeStatus(_externalNullifier, true);\n    }\n\n    /*\n     * Returns true if and only if the specified external nullifier is active\n     * @param _externalNullifier The specified external nullifier.\n     */\n    function isExternalNullifierActive(uint232 _externalNullifier) public view\n    returns (bool) {\n        return externalNullifierLinkedList[_externalNullifier].isActive;\n    }\n\n    /*\n     * Returns the next external nullifier after the specified external\n     * nullifier in the linked list.\n     * @param _externalNullifier The specified external nullifier.\n     */\n    function getNextExternalNullifier(uint232 _externalNullifier) public view\n    returns (uint232) {\n\n        require(\n            externalNullifierLinkedList[_externalNullifier].exists,\n            \"Semaphore: no such external nullifier\"\n        );\n\n        uint232 n = externalNullifierLinkedList[_externalNullifier].next;\n\n        require(\n            numExternalNullifiers > 1 && externalNullifierLinkedList[n].exists,\n            \"Semaphore: no external nullifier exists after the specified one\"\n        );\n        \n        return n;\n    }\n\n    /*\n     * Returns the number of inserted identity commitments.\n     */\n    function getNumIdentityCommitments() public view returns (uint256) {\n        return nextLeafIndex;\n    }\n\n    /*\n     * Sets the `isBroadcastPermissioned` storage variable, which determines\n     * whether broadcastSignal can or cannot be called by only the contract\n     * owner.\n     * @param _newPermission True if the broadcastSignal can only be called by\n     *                       the contract owner; and False otherwise.\n     */\n    function setPermissioning(bool _newPermission) public //onlyOwner \n    {\n\n      isBroadcastPermissioned = _newPermission;\n\n      emit PermissionSet(_newPermission);\n    }\n}\n",
  "sourcePath": "/home/aleksandar/ZKUniversity/ZKVoting/contracts/contracts/Semaphore.sol",
  "compiler": {
    "name": "solc",
    "version": "0.8.0+commit.c7dfd78e.Emscripten.clang"
  },
  "schemaVersion": "3.4.4",
  "updatedAt": "2022-02-05T06:07:37.635Z",
  "networkType": "ethereum",
  "devdoc": {
    "kind": "dev",
    "methods": {
      "isOwner()": {
        "details": "Returns true if the caller is the current owner."
      },
      "owner()": {
        "details": "Returns the address of the current owner."
      },
      "renounceOwnership()": {
        "details": "Leaves the contract without owner. It will not be possible to call `onlyOwner` functions anymore. Can only be called by the current owner. > Note: Renouncing ownership will leave the contract without an owner, thereby removing any functionality that is only available to the owner."
      },
      "transferOwnership(address)": {
        "details": "Transfers ownership of the contract to a new account (`newOwner`). Can only be called by the current owner."
      }
    },
    "version": 1
  },
  "userdoc": {
    "kind": "user",
    "methods": {},
    "version": 1
  }
}