{
  "contractName": "Semaphore",
  "abi": [
    {
      "inputs": [
        {
          "internalType": "uint8",
          "name": "_treeLevels",
          "type": "uint8"
        },
        {
          "internalType": "uint232",
          "name": "_firstExternalNullifier",
          "type": "uint232"
        }
      ],
      "stateMutability": "nonpayable",
      "type": "constructor"
    },
    {
      "anonymous": false,
      "inputs": [
        {
          "indexed": true,
          "internalType": "uint232",
          "name": "externalNullifier",
          "type": "uint232"
        }
      ],
      "name": "ExternalNullifierAdd",
      "type": "event"
    },
    {
      "anonymous": false,
      "inputs": [
        {
          "indexed": true,
          "internalType": "uint232",
          "name": "externalNullifier",
          "type": "uint232"
        },
        {
          "indexed": true,
          "internalType": "bool",
          "name": "active",
          "type": "bool"
        }
      ],
      "name": "ExternalNullifierChangeStatus",
      "type": "event"
    },
    {
      "anonymous": false,
      "inputs": [
        {
          "indexed": true,
          "internalType": "uint256",
          "name": "leaf",
          "type": "uint256"
        },
        {
          "indexed": true,
          "internalType": "uint256",
          "name": "leafIndex",
          "type": "uint256"
        }
      ],
      "name": "LeafInsertion",
      "type": "event"
    },
    {
      "anonymous": false,
      "inputs": [
        {
          "indexed": true,
          "internalType": "address",
          "name": "previousOwner",
          "type": "address"
        },
        {
          "indexed": true,
          "internalType": "address",
          "name": "newOwner",
          "type": "address"
        }
      ],
      "name": "OwnershipTransferred",
      "type": "event"
    },
    {
      "anonymous": false,
      "inputs": [
        {
          "indexed": true,
          "internalType": "bool",
          "name": "newPermission",
          "type": "bool"
        }
      ],
      "name": "PermissionSet",
      "type": "event"
    },
    {
      "inputs": [],
      "name": "NOTHING_UP_MY_SLEEVE_ZERO",
      "outputs": [
        {
          "internalType": "uint256",
          "name": "",
          "type": "uint256"
        }
      ],
      "stateMutability": "view",
      "type": "function",
      "constant": true
    },
    {
      "inputs": [
        {
          "internalType": "uint232",
          "name": "",
          "type": "uint232"
        }
      ],
      "name": "externalNullifierLinkedList",
      "outputs": [
        {
          "internalType": "uint232",
          "name": "next",
          "type": "uint232"
        },
        {
          "internalType": "bool",
          "name": "exists",
          "type": "bool"
        },
        {
          "internalType": "bool",
          "name": "isActive",
          "type": "bool"
        }
      ],
      "stateMutability": "view",
      "type": "function",
      "constant": true
    },
    {
      "inputs": [],
      "name": "firstExternalNullifier",
      "outputs": [
        {
          "internalType": "uint232",
          "name": "",
          "type": "uint232"
        }
      ],
      "stateMutability": "view",
      "type": "function",
      "constant": true
    },
    {
      "inputs": [
        {
          "internalType": "uint256[]",
          "name": "array",
          "type": "uint256[]"
        }
      ],
      "name": "hash11",
      "outputs": [
        {
          "internalType": "uint256",
          "name": "",
          "type": "uint256"
        }
      ],
      "stateMutability": "pure",
      "type": "function",
      "constant": true
    },
    {
      "inputs": [
        {
          "internalType": "uint256[5]",
          "name": "array",
          "type": "uint256[5]"
        }
      ],
      "name": "hash5",
      "outputs": [
        {
          "internalType": "uint256",
          "name": "",
          "type": "uint256"
        }
      ],
      "stateMutability": "pure",
      "type": "function",
      "constant": true
    },
    {
      "inputs": [
        {
          "internalType": "uint256",
          "name": "_left",
          "type": "uint256"
        },
        {
          "internalType": "uint256",
          "name": "_right",
          "type": "uint256"
        }
      ],
      "name": "hashLeftRight",
      "outputs": [
        {
          "internalType": "uint256",
          "name": "",
          "type": "uint256"
        }
      ],
      "stateMutability": "pure",
      "type": "function",
      "constant": true
    },
    {
      "inputs": [
        {
          "internalType": "uint256",
          "name": "_leaf",
          "type": "uint256"
        }
      ],
      "name": "insertLeaf",
      "outputs": [
        {
          "internalType": "uint256",
          "name": "",
          "type": "uint256"
        }
      ],
      "stateMutability": "nonpayable",
      "type": "function"
    },
    {
      "inputs": [],
      "name": "isBroadcastPermissioned",
      "outputs": [
        {
          "internalType": "bool",
          "name": "",
          "type": "bool"
        }
      ],
      "stateMutability": "view",
      "type": "function",
      "constant": true
    },
    {
      "inputs": [],
      "name": "isOwner",
      "outputs": [
        {
          "internalType": "bool",
          "name": "",
          "type": "bool"
        }
      ],
      "stateMutability": "view",
      "type": "function",
      "constant": true
    },
    {
      "inputs": [],
      "name": "lastExternalNullifier",
      "outputs": [
        {
          "internalType": "uint232",
          "name": "",
          "type": "uint232"
        }
      ],
      "stateMutability": "view",
      "type": "function",
      "constant": true
    },
    {
      "inputs": [
        {
          "internalType": "uint256",
          "name": "",
          "type": "uint256"
        }
      ],
      "name": "nullifierHashHistory",
      "outputs": [
        {
          "internalType": "bool",
          "name": "",
          "type": "bool"
        }
      ],
      "stateMutability": "view",
      "type": "function",
      "constant": true
    },
    {
      "inputs": [],
      "name": "numExternalNullifiers",
      "outputs": [
        {
          "internalType": "uint256",
          "name": "",
          "type": "uint256"
        }
      ],
      "stateMutability": "view",
      "type": "function",
      "constant": true
    },
    {
      "inputs": [],
      "name": "owner",
      "outputs": [
        {
          "internalType": "address",
          "name": "",
          "type": "address"
        }
      ],
      "stateMutability": "view",
      "type": "function",
      "constant": true
    },
    {
      "inputs": [],
      "name": "renounceOwnership",
      "outputs": [],
      "stateMutability": "nonpayable",
      "type": "function"
    },
    {
      "inputs": [],
      "name": "root",
      "outputs": [
        {
          "internalType": "uint256",
          "name": "",
          "type": "uint256"
        }
      ],
      "stateMutability": "view",
      "type": "function",
      "constant": true
    },
    {
      "inputs": [
        {
          "internalType": "uint256",
          "name": "",
          "type": "uint256"
        }
      ],
      "name": "rootHistory",
      "outputs": [
        {
          "internalType": "bool",
          "name": "",
          "type": "bool"
        }
      ],
      "stateMutability": "view",
      "type": "function",
      "constant": true
    },
    {
      "inputs": [
        {
          "internalType": "address",
          "name": "newOwner",
          "type": "address"
        }
      ],
      "name": "transferOwnership",
      "outputs": [],
      "stateMutability": "nonpayable",
      "type": "function"
    },
    {
      "inputs": [
        {
          "internalType": "uint256[2]",
          "name": "a",
          "type": "uint256[2]"
        },
        {
          "internalType": "uint256[2][2]",
          "name": "b",
          "type": "uint256[2][2]"
        },
        {
          "internalType": "uint256[2]",
          "name": "c",
          "type": "uint256[2]"
        },
        {
          "internalType": "uint256[4]",
          "name": "input",
          "type": "uint256[4]"
        }
      ],
      "name": "verifyProof",
      "outputs": [
        {
          "internalType": "bool",
          "name": "r",
          "type": "bool"
        }
      ],
      "stateMutability": "view",
      "type": "function",
      "constant": true
    },
    {
      "inputs": [
        {
          "internalType": "uint256",
          "name": "_identityCommitment",
          "type": "uint256"
        }
      ],
      "name": "insertIdentity",
      "outputs": [
        {
          "internalType": "uint256",
          "name": "",
          "type": "uint256"
        }
      ],
      "stateMutability": "nonpayable",
      "type": "function"
    },
    {
      "inputs": [
        {
          "internalType": "uint256[2]",
          "name": "_a",
          "type": "uint256[2]"
        },
        {
          "internalType": "uint256[2][2]",
          "name": "_b",
          "type": "uint256[2][2]"
        },
        {
          "internalType": "uint256[2]",
          "name": "_c",
          "type": "uint256[2]"
        }
      ],
      "name": "packProof",
      "outputs": [
        {
          "internalType": "uint256[8]",
          "name": "",
          "type": "uint256[8]"
        }
      ],
      "stateMutability": "pure",
      "type": "function",
      "constant": true
    },
    {
      "inputs": [
        {
          "internalType": "uint256[8]",
          "name": "_proof",
          "type": "uint256[8]"
        }
      ],
      "name": "unpackProof",
      "outputs": [
        {
          "internalType": "uint256[2]",
          "name": "",
          "type": "uint256[2]"
        },
        {
          "internalType": "uint256[2][2]",
          "name": "",
          "type": "uint256[2][2]"
        },
        {
          "internalType": "uint256[2]",
          "name": "",
          "type": "uint256[2]"
        }
      ],
      "stateMutability": "pure",
      "type": "function",
      "constant": true
    },
    {
      "inputs": [
        {
          "internalType": "bytes",
          "name": "_signal",
          "type": "bytes"
        },
        {
          "internalType": "uint256[8]",
          "name": "_proof",
          "type": "uint256[8]"
        },
        {
          "internalType": "uint256",
          "name": "_root",
          "type": "uint256"
        },
        {
          "internalType": "uint256",
          "name": "_nullifiersHash",
          "type": "uint256"
        },
        {
          "internalType": "uint256",
          "name": "_signalHash",
          "type": "uint256"
        },
        {
          "internalType": "uint232",
          "name": "_externalNullifier",
          "type": "uint232"
        }
      ],
      "name": "preBroadcastCheck",
      "outputs": [
        {
          "internalType": "bool",
          "name": "",
          "type": "bool"
        }
      ],
      "stateMutability": "view",
      "type": "function",
      "constant": true
    },
    {
      "inputs": [
        {
          "internalType": "bytes",
          "name": "_signal",
          "type": "bytes"
        },
        {
          "internalType": "uint256[8]",
          "name": "_proof",
          "type": "uint256[8]"
        },
        {
          "internalType": "uint256",
          "name": "_root",
          "type": "uint256"
        },
        {
          "internalType": "uint256",
          "name": "_nullifiersHash",
          "type": "uint256"
        },
        {
          "internalType": "uint232",
          "name": "_externalNullifier",
          "type": "uint232"
        }
      ],
      "name": "broadcastSignal",
      "outputs": [],
      "stateMutability": "nonpayable",
      "type": "function"
    },
    {
      "inputs": [
        {
          "internalType": "uint232",
          "name": "_externalNullifier",
          "type": "uint232"
        }
      ],
      "name": "addExternalNullifier",
      "outputs": [],
      "stateMutability": "nonpayable",
      "type": "function"
    },
    {
      "inputs": [
        {
          "internalType": "uint232",
          "name": "_externalNullifier",
          "type": "uint232"
        }
      ],
      "name": "deactivateExternalNullifier",
      "outputs": [],
      "stateMutability": "nonpayable",
      "type": "function"
    },
    {
      "inputs": [
        {
          "internalType": "uint232",
          "name": "_externalNullifier",
          "type": "uint232"
        }
      ],
      "name": "reactivateExternalNullifier",
      "outputs": [],
      "stateMutability": "nonpayable",
      "type": "function"
    },
    {
      "inputs": [
        {
          "internalType": "uint232",
          "name": "_externalNullifier",
          "type": "uint232"
        }
      ],
      "name": "isExternalNullifierActive",
      "outputs": [
        {
          "internalType": "bool",
          "name": "",
          "type": "bool"
        }
      ],
      "stateMutability": "view",
      "type": "function",
      "constant": true
    },
    {
      "inputs": [
        {
          "internalType": "uint232",
          "name": "_externalNullifier",
          "type": "uint232"
        }
      ],
      "name": "getNextExternalNullifier",
      "outputs": [
        {
          "internalType": "uint232",
          "name": "",
          "type": "uint232"
        }
      ],
      "stateMutability": "view",
      "type": "function",
      "constant": true
    },
    {
      "inputs": [],
      "name": "getNumIdentityCommitments",
      "outputs": [
        {
          "internalType": "uint256",
          "name": "",
          "type": "uint256"
        }
      ],
      "stateMutability": "view",
      "type": "function",
      "constant": true
    },
    {
      "inputs": [
        {
          "internalType": "bool",
          "name": "_newPermission",
          "type": "bool"
        }
      ],
      "name": "setPermissioning",
      "outputs": [],
      "stateMutability": "nonpayable",
      "type": "function"
    }
  ],
  "bytecode": "0x608060405260006001819055600755600880546001600160e81b0319169055600980546001600160f01b031916600160e81b1790557f30644e72e131a029b85045b68181585d2833e84879b9709143e1f593f00000016200006160a06200048b565b6040516020818303038152906040528051906020012060001c620000869190620005ba565b600b553480156200009657600080fd5b5060405162003cfb38038062003cfb833981016040819052620000b9916200043f565b600b54600080546001600160a01b03191633178082556040518593926001600160a01b039290921691907f8be0079c531659141344cd1fd0a4f28419497f9722a3daafe3b4186f6b6457e0908290a360008260ff16118015620001205750602060ff831611155b620001485760405162461bcd60e51b81526004016200013f90620004d3565b60405180910390fd5b6000805460ff60a01b1916600160a01b60ff851602179055806200016b62000408565b60005b8460ff168160ff161015620002045760005b600560ff82161015620001cc5783838260ff1660058110620001b257634e487b7160e01b600052603260045260246000fd5b602002015280620001c38162000597565b91505062000180565b5060ff81166000908152600360205260409020839055620001ed8262000221565b925080620001fb8162000597565b9150506200016e565b505060025550620002199050816001620002b7565b5050620005f1565b604051630926f44b60e31b815260009073__PoseidonT6____________________________90634937a258906200025d908590600401620004a0565b60206040518083038186803b1580156200027657600080fd5b505af41580156200028b573d6000803e3d6000fd5b505050506040513d601f19601f82011682018060405250810190620002b1919062000426565b92915050565b8015620002df57600880546001600160e81b0319166001600160e81b03841617905562000354565b6001600160e81b038216600090815260066020526040902054600160e81b900460ff1615620003225760405162461bcd60e51b81526004016200013f9062000530565b6009546001600160e81b03908116600090815260066020526040902080546001600160e81b0319169184169190911790555b6001600160e81b0382166000818152600660205260408120805460ff60e81b197fff00ff0000000000000000000000000000000000000000000000000000000000909116600160f01b1716600160e81b179055600980546001600160e81b0319169092179091556007805491620003cb8362000579565b90915550506040516001600160e81b038316907fd1ca56647596090d70fa8d49bcc376b97248314e3f204c491333b3440405f58990600090a25050565b6040518060a001604052806005906020820280368337509192915050565b60006020828403121562000438578081fd5b5051919050565b6000806040838503121562000452578081fd5b825160ff8116811462000463578182fd5b60208401519092506001600160e81b038116811462000480578182fd5b809150509250929050565b6853656d6170686f726560b81b815260090190565b60a08101818360005b6005811015620004ca578151835260209283019290910190600101620004a9565b50505092915050565b60208082526039908201527f496e6372656d656e74616c5175696e547265653a205f747265654c6576656c7360408201527f206d757374206265206265747765656e203020616e6420333300000000000000606082015260800190565b60208082526029908201527f53656d6170686f72653a2065787465726e616c206e756c6c696669657220616c6040820152681c9958591e481cd95d60ba1b606082015260800190565b6000600019821415620005905762000590620005db565b5060010190565b600060ff821660ff811415620005b157620005b1620005db565b60010192915050565b600082620005d657634e487b7160e01b81526012600452602481fd5b500690565b634e487b7160e01b600052601160045260246000fd5b6136fa80620006016000396000f3fe608060405234801561001057600080fd5b50600436106101da5760003560e01c80638da5cb5b11610104578063c4cd5596116100a2578063ebf0c71711610071578063ebf0c717146103c5578063f1c621ee146103cd578063f2fde38b146103e0578063f5ab0dd6146103f3576101da565b8063c4cd559614610384578063c8cf02da14610397578063ce85bbdb1461039f578063eac4287e146103b2576101da565b80639cfced97116100de5780639cfced9714610343578063b720243414610356578063ba10b81d14610369578063c3a3407f14610371576101da565b80638da5cb5b1461031e5780638f32d59b146103335780638f6efd001461033b576101da565b80635e05ea171161017c578063715018a61161014b578063715018a6146102ce5780637a5519f9146102d6578063819bd8a5146102f85780638a1a52d21461030b576101da565b80635e05ea17146102805780635fe8c13b146102a05780636d80efca146102b35780636ebf6265146102c6576101da565b8063539f38b2116101b8578063539f38b2146102255780635bb93995146102385780635d3ce725146102585780635d86faba1461026b576101da565b80630e57596f146101df57806323baaa83146101f4578063283ebaf414610207575b600080fd5b6101f26101ed366004612b9c565b610415565b005b6101f2610202366004612c8f565b6105ca565b61020f6106c1565b60405161021c9190612e09565b60405180910390f35b6101f2610233366004612c8f565b6106d1565b61024b610246366004612cd9565b610703565b60405161021c919061346a565b61020f610266366004612c11565b6107a8565b6102736108af565b60405161021c9190613433565b61029361028e3660046129de565b6108be565b60405161021c9190612de0565b61020f6102ae366004612a24565b610920565b61024b6102c1366004612ca9565b610a55565b61024b610a8a565b6101f2610a90565b6102e96102e4366004612c8f565b610afe565b60405161021c93929190613447565b6101f2610306366004612c8f565b610b2f565b61024b610319366004612ad5565b610c27565b610326611071565b60405161021c9190612d23565b61020f611080565b61024b611091565b61024b610351366004612a8e565b611097565b61024b610364366004612ca9565b611121565b61024b61133e565b61027361037f366004612c8f565b611344565b61020f610392366004612ca9565b6113ed565b610273611402565b6101f26103ad366004612b7c565b611411565b61020f6103c0366004612c8f565b61147e565b61024b6114a3565b61020f6103db366004612ca9565b6114a9565b6101f26103ee3660046129b7565b6114be565b610406610401366004612ab9565b6114eb565b60405161021c93929190612d68565b600954600160e81b900460ff1615806104315750610431611080565b6104565760405162461bcd60e51b815260040161044d90613192565b60405180910390fd5b848484848461046484611574565b6104805760405162461bcd60e51b815260040161044d906131d8565b6000828152600a602052604090205460ff16156104af5760405162461bcd60e51b815260040161044d90613224565b6104b88161147e565b6104d45760405162461bcd60e51b815260040161044d90613265565b60008381526005602052604090205460ff166105025760405162461bcd60e51b815260040161044d90612f4d565b600061050d86611656565b90506000805160206136a5833981519152831061053c5760405162461bcd60e51b815260040161044d906132ac565b60408051608081018252858152602081018590529081018290526001600160e81b038316606082015260008080610572896114eb565b92509250925061058483838387610920565b6105a05760405162461bcd60e51b815260040161044d90612ea9565b50505060009889525050600a60205250506040909420805460ff1916600117905550505050505050565b6105d2611080565b6105ee5760405162461bcd60e51b815260040161044d9061315d565b6001600160e81b038116600090815260066020526040902054600160e81b900460ff1661062d5760405162461bcd60e51b815260040161044d90613265565b6001600160e81b038116600090815260066020526040902054600160f01b900460ff1615156001146106715760405162461bcd60e51b815260040161044d90613021565b6001600160e81b038116600081815260066020526040808220805460ff60f01b19169055519091907fb8d2b8a2b352df7f139810483b3c80fc3a4a88711c90bdb7180f1030b7f49acf908390a350565b600954600160e81b900460ff1681565b6106d9611080565b6106f55760405162461bcd60e51b815260040161044d9061315d565b610700816000611664565b50565b600061070d61262b565b838152602081018390526040516314d2f97b60e11b815273__PoseidonT3____________________________906329a5f2f69061074e908490600401612d37565b60206040518083038186803b15801561076657600080fd5b505af415801561077a573d6000803e3d6000fd5b505050506040513d601f19601f8201168201806040525081019061079e9190612cc1565b9150505b92915050565b60408051608081018252858152602081018590529081018390526001600160e81b03821660608201526000908180806107e08a6114eb565b60008b8152600a6020526040902054929550909350915060ff1615801561080e57508661080c8c611656565b145b8015610821575061081e8b611656565b87145b801561083157506108318661147e565b801561084b575060008981526005602052604090205460ff165b801561085b575061085b8a611574565b801561087457506000805160206136a583398151915289105b801561088d57506000805160206136a583398151915288105b80156108a057506108a083838387610920565b9b9a5050505050505050505050565b6008546001600160e81b031681565b6108c6612649565b5060408051610100810182528451815260208086015181830152845151928201929092528351820151606082015283820180515160808301525182015160a0820152825160c08201529082015160e08201525b9392505050565b600061092a612668565b60408051808201825287518152602080890151818301529083528151608080820184528851518285019081528951840151606084015282528351808501855289840180515182525184015181850152828401528483019190915282518084018452875181528783015181840152848401528251600480825260a0820190945260009390929091908301908036833701905050905060005b6004811015610a2c578481600481106109ea57634e487b7160e01b600052603260045260246000fd5b6020020151828281518110610a0f57634e487b7160e01b600052603260045260246000fd5b602090810291909101015280610a2481613613565b9150506109c1565b50610a378183611797565b610a4657600192505050610a4d565b6000925050505b949350505050565b6000600b54821415610a795760405162461bcd60e51b815260040161044d90612ee0565b610a8282611121565b90505b919050565b600b5481565b610a98611080565b610ab45760405162461bcd60e51b815260040161044d9061315d565b600080546040516001600160a01b03909116907f8be0079c531659141344cd1fd0a4f28419497f9722a3daafe3b4186f6b6457e0908390a3600080546001600160a01b0319169055565b6006602052600090815260409020546001600160e81b0381169060ff600160e81b8204811691600160f01b90041683565b610b37611080565b610b535760405162461bcd60e51b815260040161044d9061315d565b6001600160e81b038116600090815260066020526040902054600160e81b900460ff16610b925760405162461bcd60e51b815260040161044d90613265565b6001600160e81b038116600090815260066020526040902054600160f01b900460ff1615610bd25760405162461bcd60e51b815260040161044d90612e14565b6001600160e81b038116600081815260066020526040808220805460ff60f01b1916600160f01b17905551600192917fb8d2b8a2b352df7f139810483b3c80fc3a4a88711c90bdb7180f1030b7f49acf91a350565b60408051600b80825261018082019092526000918291906020820161016080368337019050509050610c5761269a565b610c5f61269a565b60005b8551811015610cd057858181518110610c8b57634e487b7160e01b600052603260045260246000fd5b6020026020010151848281518110610cb357634e487b7160e01b600052603260045260246000fd5b602090810291909101015280610cc881613613565b915050610c62565b5084515b600b811015610d1c576000848281518110610cff57634e487b7160e01b600052603260045260246000fd5b602090810291909101015280610d1481613613565b915050610cd4565b5060005b6005811015610ddf57838181518110610d4957634e487b7160e01b600052603260045260246000fd5b6020026020010151838260058110610d7157634e487b7160e01b600052603260045260246000fd5b602002015283610d8282600561349d565b81518110610da057634e487b7160e01b600052603260045260246000fd5b6020026020010151828260058110610dc857634e487b7160e01b600052603260045260246000fd5b602002015280610dd781613613565b915050610d20565b50610de861262b565b604051630926f44b60e31b815273__PoseidonT6____________________________90634937a25890610e1f908690600401612db8565b60206040518083038186803b158015610e3757600080fd5b505af4158015610e4b573d6000803e3d6000fd5b505050506040513d601f19601f82011682018060405250810190610e6f9190612cc1565b8152604051630926f44b60e31b815273__PoseidonT6____________________________90634937a25890610ea8908590600401612db8565b60206040518083038186803b158015610ec057600080fd5b505af4158015610ed4573d6000803e3d6000fd5b505050506040513d601f19601f82011682018060405250810190610ef89190612cc1565b6020820152610f0561262b565b6040516314d2f97b60e11b815273__PoseidonT3____________________________906329a5f2f690610f3c908590600401612d37565b60206040518083038186803b158015610f5457600080fd5b505af4158015610f68573d6000803e3d6000fd5b505050506040513d601f19601f82011682018060405250810190610f8c9190612cc1565b815284518590600a908110610fb157634e487b7160e01b600052603260045260246000fd5b602002602001015181600160028110610fda57634e487b7160e01b600052603260045260246000fd5b60200201526040516314d2f97b60e11b815273__PoseidonT3____________________________906329a5f2f690611016908490600401612d37565b60206040518083038186803b15801561102e57600080fd5b505af4158015611042573d6000803e3d6000fd5b505050506040513d601f19601f820116820180604052508101906110669190612cc1565b979650505050505050565b6000546001600160a01b031690565b6000546001600160a01b0316331490565b60075481565b604051630926f44b60e31b815260009073__PoseidonT6____________________________90634937a258906110d1908590600401612db8565b60206040518083038186803b1580156110e957600080fd5b505af41580156110fd573d6000803e3d6000fd5b505050506040513d601f19601f82011682018060405250810190610a829190612cc1565b60006000805160206136a583398151915282106111505760405162461bcd60e51b815260040161044d90613072565b60005461116890600160a01b900460ff16600561350f565b600154106111885760405162461bcd60e51b815260040161044d906133f2565b6001548261119461269a565b60006111a160058561364e565b905060005b60005460ff600160a01b909104811690821610156112d057816112105760015b600560ff8216101561120e5760ff80831660009081526003602090815260408083205460048352818420948616845293909152902055806112068161362e565b9150506111c6565b505b60ff8116600090815260046020908152604080832085845290915281208590555b600560ff821610156112985760ff8083166000908152600460209081526040808320938516808452939091529020549085906005811061128157634e487b7160e01b600052603260045260246000fd5b6020020152806112908161362e565b915050611231565b506112a283611097565b93506112af6005866134b5565b94506112bc60058661364e565b9150806112c88161362e565b9150506111a6565b5060028390556000838152600560205260408120805460ff191660019081179091558054918190611301828561349d565b9091555050604051819088907fe6f49fa84abd31919f446b22a52bb3ceae774b4b87f062f022fec45c46f4f45890600090a3509295945050505050565b60015490565b6001600160e81b038116600090815260066020526040812054600160e81b900460ff166113835760405162461bcd60e51b815260040161044d90612fb0565b6001600160e81b0380831660009081526006602052604090205460075491169060011080156113d157506001600160e81b038116600090815260066020526040902054600160e81b900460ff165b610a825760405162461bcd60e51b815260040161044d90613366565b600a6020526000908152604090205460ff1681565b6009546001600160e81b031681565b611419611080565b6114355760405162461bcd60e51b815260040161044d9061315d565b6009805460ff60e81b1916600160e81b831515908102919091179091556040517ffba91b9002bc7732a7bff1b44ee16a30ebaeb06d7921779034c6a6ab27e69c2790600090a250565b6001600160e81b0316600090815260066020526040902054600160f01b900460ff1690565b60025481565b60056020526000908152604090205460ff1681565b6114c6611080565b6114e25760405162461bcd60e51b815260040161044d9061315d565b61070081611958565b6114f361262b565b6114fb6126b8565b61150361262b565b50506040805180820182528351815260208085015181830152825160808082018552868501518286019081526060808901519084015282528451808601865290870151815260a08701518184015281830152835180850190945260c0860151845260e0909501519083015293909150565b80516000906000805160206136a58339815191521180156115a6575060208201516000805160206136a5833981519152115b80156115c3575060408201516000805160206136a5833981519152115b80156115e0575060608201516000805160206136a5833981519152115b80156115fd575060808201516000805160206136a5833981519152115b801561161a575060a08201516000805160206136a5833981519152115b8015611637575060c08201516000805160206136a5833981519152115b8015610a8257505060e001516000805160206136a58339815191521190565b805160209091012060081c90565b801561168a57600880546001600160e81b0319166001600160e81b0384161790556116fc565b6001600160e81b038216600090815260066020526040902054600160e81b900460ff16156116ca5760405162461bcd60e51b815260040161044d906130dd565b6009546001600160e81b03908116600090815260066020526040902080546001600160e81b0319169184169190911790555b6001600160e81b0382166000818152600660205260408120805460ff60e81b19600161ff0160e81b0319909116600160f01b1716600160e81b179055600980546001600160e81b031916909217909155600780549161175a83613613565b90915550506040516001600160e81b038316907fd1ca56647596090d70fa8d49bcc376b97248314e3f204c491333b3440405f58990600090a25050565b60006000805160206136a5833981519152816117b16119d9565b9050806080015151855160016117c7919061349d565b146117e45760405162461bcd60e51b815260040161044d90612f84565b604080518082019091526000808252602082018190525b86518110156118cf578387828151811061182557634e487b7160e01b600052603260045260246000fd5b60200260200101511061184a5760405162461bcd60e51b815260040161044d90613126565b6118bb826118b68560800151846001611863919061349d565b8151811061188157634e487b7160e01b600052603260045260246000fd5b60200260200101518a85815181106118a957634e487b7160e01b600052603260045260246000fd5b6020026020010151611f13565b611f7e565b9150806118c781613613565b9150506117fb565b506119068183608001516000815181106118f957634e487b7160e01b600052603260045260246000fd5b6020026020010151611f7e565b905061193c6119188660000151611fe5565b8660200151846000015185602001518587604001518b604001518960600151612078565b61194c57600193505050506107a2565b50600095945050505050565b6001600160a01b03811661197e5760405162461bcd60e51b815260040161044d90612e63565b600080546040516001600160a01b03808516939216917f8be0079c531659141344cd1fd0a4f28419497f9722a3daafe3b4186f6b6457e091a3600080546001600160a01b0319166001600160a01b0392909216919091179055565b6119e16126e5565b6040805180820182527f2d4d9aa7e302d9df41749d5507949d05dbea33fbb16c643b22f599a2be6df2e281527f14bedd503c37ceb061d8ec60209fe345ce89830a19230301f076caff004d19266020808301919091529083528151608080820184527f0967032fcbf776d1afc985f88877f182d38480a653f2decaa9794cbc3bf3060c8285019081527f0e187847ad4c798374d0d6732bf501847dd68bc0e071241e0213bc7fc13db7ab606080850191909152908352845180860186527f304cfbd1e08a704a99f5e847d93f8c3caafddec46b7a0d379da69a4d112346a781527f1739c1b1a457a8c7313123d24d2f9192f896b7c63eea05a9d57f06547ad0cec8818601528385015285840192909252835180820185527f198e9393920d483a7260bfb731fb5d25f1aa493335a9e71297e485b7aef312c28186019081527f1800deef121f1e76426a00665e5c4479674322d4f75edadd46debd5cd992f6ed828501528152845180860186527f090689d0585ff075ec9e99ad690c3395bc4b313370b38ef355acdadcd122975b81527f12c85ea5db8c6deb4aab71808dcb408fe3d1e7690c43d37b4ce6cc0166fa7daa818601528185015285850152835190810184527f28e182aa6d7c08c8eb5df2e3ae2280a284dfc43bfca69af743d05907457a68df8185019081527f2b537efad7bd9076e0fb4750e8af34a6cd64724c2d1a95a0b99cf8dc85d289e9828401528152835180850185527f2499007f81158039a035d7d7ef42942366cc0b85b31e8f5f0398a05fcea47d3381527f2e093143817464201ba08e7bea8b16d491396195b46c6f48604cdab15d3a813b8185015281840152908401528151600580825260c08201909352919082015b611c6461272c565b815260200190600190039081611c5c57505060808201908152604080518082019091527f0f07e0d71f6e287a9d2409daf4d2c4d3e4c217434dbfedcd7b95e4f14a2a9ce381527f1825da28e988768b067722947fedc4f23bbb448a7d524cbbaa9f13cc50c5f16e602082015290518051600090611cf157634e487b7160e01b600052603260045260246000fd5b602002602001018190525060405180604001604052807f1bfec925d9158887f4ffed14fdcba2ea4301febd2b700676ad3f2c35f1dd019081526020017f2e45a0da85d21b50af5e656718d90c46575c2f4967fd77008e47e86e128398a88152508160800151600181518110611d7657634e487b7160e01b600052603260045260246000fd5b602002602001018190525060405180604001604052807f02df25fc4b8cc3309168bb640889caddbd0230d0d2827a011bfc9a33d31ebc7f81526020017f2df627f9de13cb62a404ba7c28d9a6e5563678661c8f4f56cd6b38a3487a23d98152508160800151600281518110611dfb57634e487b7160e01b600052603260045260246000fd5b602002602001018190525060405180604001604052807f16d601cddbc5bd49c1e4eed5cfb17980a7c7bcd342a7871b4ac1d12f3c6c34be81526020017f033cde6708b92b13702189aa346cd0ff7db9468d22ac204d81068d4712887dc38152508160800151600381518110611e8057634e487b7160e01b600052603260045260246000fd5b602002602001018190525060405180604001604052807f1198e1d463542a534d3797ab641f86c3dcd0efd3797a5719a491e60fec3872eb81526020017f2afc8d11c24efc8e11bf7b3e003692455645a3eab2efff3070f10c15bcb07bac8152508160800151600481518110611f0557634e487b7160e01b600052603260045260246000fd5b602002602001018190525090565b611f1b61272c565b611f23612746565b835181526020808501519082015260408101839052600060608360808460076107d05a03fa9050808015611f5657611f58565bfe5b5080611f765760405162461bcd60e51b815260040161044d90612ff5565b505092915050565b611f8661272c565b611f8e612764565b8351815260208085015181830152835160408301528301516060808301919091526000908360c08460066107d05a03fa9050808015611f56575080611f765760405162461bcd60e51b815260040161044d9061333a565b611fed61272c565b81517f30644e72e131a029b85045b68181585d97816a916871ca8d3c208c16d87cfd479015801561202057506020830151155b156120405750506040805180820190915260008082526020820152610a85565b604051806040016040528084600001518152602001828560200151612065919061364e565b61206f90846135fc565b90529392505050565b60408051600480825260a08201909252600091829190816020015b61209b61272c565b81526020019060019003908161209357505060408051600480825260a0820190925291925060009190602082015b6120d1612782565b8152602001906001900390816120c95790505090508a8260008151811061210857634e487b7160e01b600052603260045260246000fd5b6020026020010181905250888260018151811061213557634e487b7160e01b600052603260045260246000fd5b6020026020010181905250868260028151811061216257634e487b7160e01b600052603260045260246000fd5b6020026020010181905250848260038151811061218f57634e487b7160e01b600052603260045260246000fd5b602002602001018190525089816000815181106121bc57634e487b7160e01b600052603260045260246000fd5b602002602001018190525087816001815181106121e957634e487b7160e01b600052603260045260246000fd5b6020026020010181905250858160028151811061221657634e487b7160e01b600052603260045260246000fd5b6020026020010181905250838160038151811061224357634e487b7160e01b600052603260045260246000fd5b60200260200101819052506108a08282600081518351146122765760405162461bcd60e51b815260040161044d9061330a565b825160006122858260066135dd565b905060008167ffffffffffffffff8111156122b057634e487b7160e01b600052604160045260246000fd5b6040519080825280602002602001820160405280156122d9578160200160208202803683370190505b50905060005b838110156125d85786818151811061230757634e487b7160e01b600052603260045260246000fd5b6020026020010151600001518282600661232191906135dd565b61232c90600061349d565b8151811061234a57634e487b7160e01b600052603260045260246000fd5b60200260200101818152505086818151811061237657634e487b7160e01b600052603260045260246000fd5b6020026020010151602001518282600661239091906135dd565b61239b90600161349d565b815181106123b957634e487b7160e01b600052603260045260246000fd5b6020026020010181815250508581815181106123e557634e487b7160e01b600052603260045260246000fd5b60209081029190910101515151826123fe8360066135dd565b61240990600261349d565b8151811061242757634e487b7160e01b600052603260045260246000fd5b60200260200101818152505085818151811061245357634e487b7160e01b600052603260045260246000fd5b6020908102919091018101515101518261246e8360066135dd565b61247990600361349d565b8151811061249757634e487b7160e01b600052603260045260246000fd5b6020026020010181815250508581815181106124c357634e487b7160e01b600052603260045260246000fd5b6020026020010151602001516000600281106124ef57634e487b7160e01b600052603260045260246000fd5b6020020151826125008360066135dd565b61250b90600461349d565b8151811061252957634e487b7160e01b600052603260045260246000fd5b60200260200101818152505085818151811061255557634e487b7160e01b600052603260045260246000fd5b60200260200101516020015160016002811061258157634e487b7160e01b600052603260045260246000fd5b6020020151826125928360066135dd565b61259d90600561349d565b815181106125bb57634e487b7160e01b600052603260045260246000fd5b6020908102919091010152806125d081613613565b9150506122df565b506125e16127a2565b6000602082602086026020860160086107d05a03fa9050808015611f5657508061261d5760405162461bcd60e51b815260040161044d906133c3565b505115159695505050505050565b60405180604001604052806002906020820280368337509192915050565b6040518061010001604052806008906020820280368337509192915050565b604051806060016040528061267b61272c565b8152602001612688612782565b815260200161269561272c565b905290565b6040518060a001604052806005906020820280368337509192915050565b60405180604001604052806002905b6126cf61262b565b8152602001906001900390816126c75790505090565b6040518060a001604052806126f861272c565b8152602001612705612782565b8152602001612712612782565b815260200161271f612782565b8152602001606081525090565b604051806040016040528060008152602001600081525090565b60405180606001604052806003906020820280368337509192915050565b60405180608001604052806004906020820280368337509192915050565b604051806040016040528061279561262b565b815260200161269561262b565b60405180602001604052806001906020820280368337509192915050565b600067ffffffffffffffff8311156127da576127da61368e565b60208084026127e881613473565b925082848783870111156127fb57600080fd5b600092505b8683101561281e578035825260019290920191908301908301612800565b505050509392505050565b600082601f830112612839578081fd5b6040805181810181811067ffffffffffffffff8211171561285c5761285c61368e565b825280846080810187101561286f578485fd5b845b60028110156128985761288488836128a4565b835260209092019190840190600101612871565b50919695505050505050565b600082601f8301126128b4578081fd5b6040516040810181811067ffffffffffffffff821117156128d7576128d761368e565b80604052508083856040860111156128ed578384fd5b835b600281101561290e5781358352602092830192909101906001016128ef565b509195945050505050565b600082601f830112612929578081fd5b610919836008846127c0565b600082601f830112612945578081fd5b813567ffffffffffffffff81111561295f5761295f61368e565b612972601f8201601f1916602001613473565b818152846020838601011115612986578283fd5b816020850160208301379081016020019190915292915050565b80356001600160e81b0381168114610a8557600080fd5b6000602082840312156129c8578081fd5b81356001600160a01b0381168114610919578182fd5b600080600061010084860312156129f3578182fd5b6129fd85856128a4565b9250612a0c8560408601612829565b9150612a1b8560c086016128a4565b90509250925092565b6000806000806101808587031215612a3a578081fd5b612a4486866128a4565b9350612a538660408701612829565b9250612a628660c087016128a4565b91508561011f860112612a73578081fd5b612a8386600461010088016127c0565b905092959194509250565b600060a08284031215612a9f578081fd5b82601f830112612aad578081fd5b610919836005846127c0565b60006101008284031215612acb578081fd5b6109198383612919565b60006020808385031215612ae7578182fd5b823567ffffffffffffffff80821115612afe578384fd5b818501915085601f830112612b11578384fd5b813581811115612b2357612b2361368e565b8381029150612b33848301613473565b8181528481019084860184860187018a1015612b4d578788fd5b8795505b83861015612b6f578035835260019590950194918601918601612b51565b5098975050505050505050565b600060208284031215612b8d578081fd5b81358015158114610919578182fd5b60008060008060006101808688031215612bb4578283fd5b853567ffffffffffffffff811115612bca578384fd5b612bd688828901612935565b955050612be68760208801612919565b935061012086013592506101408601359150612c0561016087016129a0565b90509295509295909350565b6000806000806000806101a08789031215612c2a578384fd5b863567ffffffffffffffff811115612c40578485fd5b612c4c89828a01612935565b965050612c5c8860208901612919565b9450610120870135935061014087013592506101608701359150612c8361018088016129a0565b90509295509295509295565b600060208284031215612ca0578081fd5b610919826129a0565b600060208284031215612cba578081fd5b5035919050565b600060208284031215612cd2578081fd5b5051919050565b60008060408385031215612ceb578182fd5b50508035926020909101359150565b8060005b6002811015612d1d578151845260209384019390910190600101612cfe565b50505050565b6001600160a01b0391909116815260200190565b60408101818360005b6002811015612d5f578151835260209283019290910190600101612d40565b50505092915050565b6101008101612d778286612cfa565b60408083018560005b6002811015612da757612d94838351612cfa565b9183019160209190910190600101612d80565b50505050610a4d60c0830184612cfa565b60a08101818360005b6005811015612d5f578151835260209283019290910190600101612dc1565b6101008101818360005b6008811015612d5f578151835260209283019290910190600101612dea565b901515815260200190565b6020808252602f908201527f53656d6170686f72653a2065787465726e616c206e756c6c696669657220697360408201526e20616c72656164792061637469766560881b606082015260800190565b60208082526026908201527f4f776e61626c653a206e6577206f776e657220697320746865207a65726f206160408201526564647265737360d01b606082015260800190565b60208082526018908201527f53656d6170686f72653a20696e76616c69642070726f6f660000000000000000604082015260600190565b60208082526047908201527f53656d6170686f72653a206964656e7469747920636f6d6d69746d656e74206360408201527f616e6e6f7420626520746865206e6f7468696e672d75702d6d792d736c656576606082015266652d76616c756560c81b608082015260a00190565b60208082526018908201527f53656d6170686f72653a20726f6f74206e6f74207365656e0000000000000000604082015260600190565b6020808252601290820152711d995c9a599a595c8b5898590b5a5b9c1d5d60721b604082015260600190565b60208082526025908201527f53656d6170686f72653a206e6f20737563682065787465726e616c206e756c6c60408201526434b334b2b960d91b606082015260800190565b6020808252601290820152711c185a5c9a5b99cb5b5d5b0b59985a5b195960721b604082015260600190565b60208082526031908201527f53656d6170686f72653a2065787465726e616c206e756c6c696669657220616c6040820152701c9958591e4819195858dd1a5d985d1959607a1b606082015260800190565b60208082526045908201527f496e6372656d656e74616c5175696e547265653a20696e736572744c6561662060408201527f617267756d656e74206d757374206265203c20534e41524b5f5343414c41525f606082015264119251531160da1b608082015260a00190565b60208082526029908201527f53656d6170686f72653a2065787465726e616c206e756c6c696669657220616c6040820152681c9958591e481cd95d60ba1b606082015260800190565b6020808252601f908201527f76657269666965722d6774652d736e61726b2d7363616c61722d6669656c6400604082015260600190565b6020808252818101527f4f776e61626c653a2063616c6c6572206973206e6f7420746865206f776e6572604082015260600190565b60208082526026908201527f53656d6170686f72653a2062726f616463617374207065726d697373696f6e2060408201526519195b9a595960d21b606082015260800190565b6020808252602c908201527f53656d6170686f72653a20696e76616c6964206669656c6420656c656d656e7460408201526b1439949034b710383937b7b360a11b606082015260800190565b60208082526021908201527f53656d6170686f72653a206e756c6c696669657220616c7265616479207365656040820152603760f91b606082015260800190565b60208082526027908201527f53656d6170686f72653a2065787465726e616c206e756c6c6966696572206e6f6040820152661d08199bdd5b9960ca1b606082015260800190565b602080825260409082018190527f53656d6170686f72653a20746865206e756c6c6966696572732068617368206d908201527f757374206265206c742074686520736e61726b207363616c6172206669656c64606082015260800190565b6020808252601690820152751c185a5c9a5b99cb5b195b99dd1a1ccb59985a5b195960521b604082015260600190565b6020808252601290820152711c185a5c9a5b99cb5859190b59985a5b195960721b604082015260600190565b6020808252603f908201527f53656d6170686f72653a206e6f2065787465726e616c206e756c6c696669657260408201527f206578697374732061667465722074686520737065636966696564206f6e6500606082015260800190565b6020808252601590820152741c185a5c9a5b99cb5bdc18dbd9194b59985a5b1959605a1b604082015260600190565b60208082526021908201527f496e6372656d656e74616c5175696e547265653a20747265652069732066756c6040820152601b60fa1b606082015260800190565b6001600160e81b0391909116815260200190565b6001600160e81b0393909316835290151560208301521515604082015260600190565b90815260200190565b60405181810167ffffffffffffffff811182821017156134955761349561368e565b604052919050565b600082198211156134b0576134b0613662565b500190565b6000826134c4576134c4613678565b500490565b80825b60018086116134db5750613506565b8187048211156134ed576134ed613662565b808616156134fa57918102915b9490941c9380026134cc565b94509492505050565b6000610919600019848460008261352857506001610919565b8161353557506000610919565b816001811461354b576002811461355557613582565b6001915050610919565b60ff84111561356657613566613662565b6001841b91508482111561357c5761357c613662565b50610919565b5060208310610133831016604e8410600b84101617156135b5575081810a838111156135b0576135b0613662565b610919565b6135c284848460016134c9565b8086048211156135d4576135d4613662565b02949350505050565b60008160001904831182151516156135f7576135f7613662565b500290565b60008282101561360e5761360e613662565b500390565b600060001982141561362757613627613662565b5060010190565b600060ff821660ff81141561364557613645613662565b60010192915050565b60008261365d5761365d613678565b500690565b634e487b7160e01b600052601160045260246000fd5b634e487b7160e01b600052601260045260246000fd5b634e487b7160e01b600052604160045260246000fdfe30644e72e131a029b85045b68181585d2833e84879b9709143e1f593f0000001a2646970667358221220617b5a3316acc2fb2a515475863084b590be6be84cc2a9d610a1c55787b689ff64736f6c63430008000033",
  "immutableReferences": {},
  "source": "//SPDX-License-Identifier: Unlicense\npragma solidity ^0.8.0;\n\nimport \"./Verifier.sol\";\nimport { IncrementalQuinTree } from \"./IncrementalMerkleTree.sol\";\nimport \"./Ownable.sol\";\n\n\ncontract Semaphore is Verifier, Ownable, IncrementalQuinTree {\n    // The external nullifier helps to prevent double-signalling by the same\n    // user. An external nullifier can be active or deactivated.\n\n    // Each node in the linked list\n    struct ExternalNullifierNode {\n        uint232 next;\n        bool exists;\n        bool isActive;\n    }\n\n    // We store the external nullifiers using a mapping of the form:\n    // enA => { next external nullifier; if enA exists; if enA is active }\n    // Think of it as a linked list.\n    mapping (uint232 => ExternalNullifierNode) public\n        externalNullifierLinkedList;\n\n    uint256 public numExternalNullifiers = 0;\n    \n    // First and last external nullifiers for linked list enumeration\n    uint232 public firstExternalNullifier = 0;\n    uint232 public lastExternalNullifier = 0;\n\n    // Whether broadcastSignal() can only be called by the owner of this\n    // contract. This is the case as a safe default.\n    bool public isBroadcastPermissioned = true;\n\n    // Whether the contract has already seen a particular nullifier hash\n    mapping (uint256 => bool) public nullifierHashHistory;\n\n    event PermissionSet(bool indexed newPermission);\n    event ExternalNullifierAdd(uint232 indexed externalNullifier);\n    event ExternalNullifierChangeStatus(\n        uint232 indexed externalNullifier,\n        bool indexed active\n    );\n\n    // This value should be equal to\n    // 0x7d10c03d1f7884c85edee6353bd2b2ffbae9221236edde3778eac58089912bc0\n    // which you can calculate using the following ethersjs code:\n    // ethers.utils.solidityKeccak256(['bytes'], [ethers.utils.toUtf8Bytes('Semaphore')])\n    // By setting the value of unset (empty) tree leaves to this\n    // nothing-up-my-sleeve value, the authors hope to demonstrate that they do\n    // not have its preimage and therefore cannot spend funds they do not own.\n\n    uint256 public NOTHING_UP_MY_SLEEVE_ZERO = \n        uint256(keccak256(abi.encodePacked('Semaphore'))) % SNARK_SCALAR_FIELD;\n\n    /*\n     * If broadcastSignal is permissioned, check if msg.sender is the contract\n     * owner\n     */\n    modifier onlyOwnerIfPermissioned() {\n        require(\n            !isBroadcastPermissioned || isOwner(),\n            \"Semaphore: broadcast permission denied\"\n        );\n\n        _;\n    }\n    \n    /*\n     * @param _treeLevels The depth of the identity tree.\n     * @param _firstExternalNullifier The first identity nullifier to add.\n     */\n    constructor(uint8 _treeLevels, uint232 _firstExternalNullifier)\n        IncrementalQuinTree(_treeLevels, NOTHING_UP_MY_SLEEVE_ZERO)\n        Ownable()\n        {\n            addEn(_firstExternalNullifier, true);\n    }\n\n    /*\n     * Registers a new user. \n     * @param _identity_commitment The user's identity commitment, which is the\n     *                            hash of their public key and their identity\n     *                            nullifier (a random 31-byte value). It should\n     *                            be the output of a Pedersen hash. It is the\n     *                            responsibility of the caller to verify this.\n     */\n    function insertIdentity(uint256 _identityCommitment) public //onlyOwner\n    returns (uint256) {\n        // Ensure that the given identity commitment is not the zero value\n        require(\n            _identityCommitment != NOTHING_UP_MY_SLEEVE_ZERO,\n            \"Semaphore: identity commitment cannot be the nothing-up-my-sleeve-value\"\n        );\n\n        return insertLeaf(_identityCommitment);\n    }\n\n    /*\n     * Checks if all values within pi_a, pi_b, and pi_c of a zk-SNARK are less\n     * than the scalar field.\n     * @param _a The corresponding `a` parameter to verifier.sol's\n     *           verifyProof()\n     * @param _b The corresponding `b` parameter to verifier.sol's\n     *           verifyProof()\n     * @param _c The corresponding `c` parameter to verifier.sol's\n                 verifyProof()\n     */\n    function areAllValidFieldElements(\n        uint256[8] memory _proof\n    ) internal pure returns (bool) {\n        return \n            _proof[0] < SNARK_SCALAR_FIELD &&\n            _proof[1] < SNARK_SCALAR_FIELD &&\n            _proof[2] < SNARK_SCALAR_FIELD &&\n            _proof[3] < SNARK_SCALAR_FIELD &&\n            _proof[4] < SNARK_SCALAR_FIELD &&\n            _proof[5] < SNARK_SCALAR_FIELD &&\n            _proof[6] < SNARK_SCALAR_FIELD &&\n            _proof[7] < SNARK_SCALAR_FIELD;\n    }\n\n    /*\n     * Produces a keccak256 hash of the given signal, shifted right by 8 bits.\n     * @param _signal The signal to hash\n     */\n    function hashSignal(bytes memory _signal) internal pure returns (uint256) {\n        return uint256(keccak256(_signal)) >> 8;\n    }\n\n    /*\n     * A convenience function which returns a uint256 array of 8 elements which\n     * comprise a Groth16 zk-SNARK proof's pi_a, pi_b, and pi_c  values.\n     * @param _a The corresponding `a` parameter to verifier.sol's\n     *           verifyProof()\n     * @param _b The corresponding `b` parameter to verifier.sol's\n     *           verifyProof()\n     * @param _c The corresponding `c` parameter to verifier.sol's\n     *           verifyProof()\n     */\n    function packProof (\n        uint256[2] memory _a,\n        uint256[2][2] memory _b,\n        uint256[2] memory _c\n    ) public pure returns (uint256[8] memory) {\n\n        return [\n            _a[0],\n            _a[1], \n            _b[0][0],\n            _b[0][1],\n            _b[1][0],\n            _b[1][1],\n            _c[0],\n            _c[1]\n        ];\n    }\n    /*\n     * A convenience function which converts an array of 8 elements, generated\n     * by packProof(), into a format which verifier.sol's verifyProof()\n     * accepts.\n     * @param _proof The proof elements.\n     */\n    function unpackProof(\n        uint256[8] memory _proof\n    ) public pure returns (\n        uint256[2] memory,\n        uint256[2][2] memory,\n        uint256[2] memory\n    ) {\n\n        return (\n            [_proof[0], _proof[1]],\n            [\n                [_proof[2], _proof[3]],\n                [_proof[4], _proof[5]]\n            ],\n            [_proof[6], _proof[7]]\n        );\n    }\n\n\n    /*\n     * A convenience view function which helps operators to easily verify all\n     * inputs to broadcastSignal() using a single contract call. This helps\n     * them to save gas by detecting invalid inputs before they invoke\n     * broadcastSignal(). Note that this function does the same checks as\n     * `isValidSignalAndProof` but returns a bool instead of using require()\n     * statements.\n     * @param _signal The signal to broadcast\n     * @param _proof The proof elements.\n     * @param _root The Merkle tree root\n     * @param _nullifiersHash The nullifiers hash\n     * @param _signalHash The signal hash. This is included so as to verify in\n     *                    Solidity that the signal hash computed off-chain\n     *                    matches.\n     * @param _externalNullifier The external nullifier\n     */\n    function preBroadcastCheck (\n        bytes memory _signal,\n        uint256[8] memory _proof,\n        uint256 _root,\n        uint256 _nullifiersHash,\n        uint256 _signalHash,\n        uint232 _externalNullifier\n    ) public view returns (bool) {\n\n        uint256[4] memory publicSignals =\n            [_root, _nullifiersHash, _signalHash, _externalNullifier];\n\n        (uint256[2] memory a, uint256[2][2] memory b, uint256[2] memory c) = \n            unpackProof(_proof);\n\n        return nullifierHashHistory[_nullifiersHash] == false &&\n            hashSignal(_signal) == _signalHash &&\n            _signalHash == hashSignal(_signal) &&\n            isExternalNullifierActive(_externalNullifier) &&\n            rootHistory[_root] &&\n            areAllValidFieldElements(_proof) &&\n            _root < SNARK_SCALAR_FIELD &&\n            _nullifiersHash < SNARK_SCALAR_FIELD &&\n            verifyProof(a, b, c, publicSignals);\n    }\n\n    /*\n     * A modifier which ensures that the signal and proof are valid.\n     * @param _signal The signal to broadcast\n     * @param _proof The proof elements.\n     * @param _root The Merkle tree root\n     * @param _nullifiersHash The nullifiers hash\n     * @param _signalHash The signal hash\n     * @param _externalNullifier The external nullifier\n     */\n    modifier isValidSignalAndProof (\n        bytes memory _signal,\n        uint256[8] memory _proof,\n        uint256 _root,\n        uint256 _nullifiersHash,\n        uint232 _externalNullifier\n    ) {\n        // Check whether each element in _proof is a valid field element. Even\n        // if verifier.sol does this check too, it is good to do so here for\n        // the sake of good protocol design.\n        require(\n            areAllValidFieldElements(_proof),\n            \"Semaphore: invalid field element(s) in proof\"\n        );\n\n        // Check whether the nullifier hash has been seen\n        require(\n            nullifierHashHistory[_nullifiersHash] == false,\n            \"Semaphore: nullifier already seen\"\n        );\n\n        // Check whether the nullifier hash is active\n        require(\n            isExternalNullifierActive(_externalNullifier),\n            \"Semaphore: external nullifier not found\"\n        );\n\n        // Check whether the given Merkle root has been seen previously\n        require(rootHistory[_root], \"Semaphore: root not seen\");\n\n        uint256 signalHash = hashSignal(_signal);\n\n        // Check whether _nullifiersHash is a valid field element.\n        require(\n            _nullifiersHash < SNARK_SCALAR_FIELD,\n            \"Semaphore: the nullifiers hash must be lt the snark scalar field\"\n        );\n\n        uint256[4] memory publicSignals =\n            [_root, _nullifiersHash, signalHash, _externalNullifier];\n\n        (uint256[2] memory a, uint256[2][2] memory b, uint256[2] memory c) =\n            unpackProof(_proof);\n\n        require(\n            verifyProof(a, b, c, publicSignals),\n            \"Semaphore: invalid proof\"\n        );\n\n        // Note that we don't need to check if signalHash is less than\n        // SNARK_SCALAR_FIELD because it always holds true due to the\n        // definition of hashSignal()\n\n        _;\n    }\n\n    /*\n     * Broadcasts the signal.\n     * @param _signal The signal to broadcast\n     * @param _proof The proof elements.\n     * @param _root The root of the Merkle tree (the 1st public signal)\n     * @param _nullifiersHash The nullifiers hash (the 2nd public signal)\n     * @param _externalNullifier The nullifiers hash (the 4th public signal)\n     */\n    function broadcastSignal(\n        bytes memory _signal,\n        uint256[8] memory _proof,\n        uint256 _root,\n        uint256 _nullifiersHash,\n        uint232 _externalNullifier\n    ) public \n        onlyOwnerIfPermissioned\n        isValidSignalAndProof(\n            _signal, _proof, _root, _nullifiersHash, _externalNullifier\n        )\n    {\n        // Client contracts should be responsible for storing the signal and/or\n        // emitting it as an event \n\n        // Store the nullifiers hash to prevent double-signalling\n        nullifierHashHistory[_nullifiersHash] = true;\n    }\n\n    /*\n     * A private helper function which adds an external nullifier.\n     * @param _externalNullifier The external nullifier to add.\n     * @param _isFirst Whether _externalNullifier is the first external\n     * nullifier. Only the constructor should set _isFirst to true when it\n     * calls addEn().\n     */\n    function addEn(uint232 _externalNullifier, bool isFirst) private {\n        if (isFirst) {\n            firstExternalNullifier = _externalNullifier;\n        } else {\n            // The external nullifier must not have already been set\n            require(\n                externalNullifierLinkedList[_externalNullifier].exists == false,\n                \"Semaphore: external nullifier already set\"\n            );\n\n            // Connect the previously added external nullifier node to this one\n            externalNullifierLinkedList[lastExternalNullifier].next =\n                _externalNullifier;\n        }\n\n        // Add a new external nullifier\n        externalNullifierLinkedList[_externalNullifier].next = 0;\n        externalNullifierLinkedList[_externalNullifier].isActive = true;\n        externalNullifierLinkedList[_externalNullifier].exists = true;\n\n        // Set the last external nullifier to this one\n        lastExternalNullifier = _externalNullifier;\n\n        numExternalNullifiers ++;\n\n        emit ExternalNullifierAdd(_externalNullifier);\n    }\n\n    /*\n     * Adds an external nullifier to the contract. This external nullifier is\n     * active once it is added. Only the owner can do this.\n     * @param _externalNullifier The new external nullifier to set.\n     */\n    function addExternalNullifier(uint232 _externalNullifier) public\n    onlyOwner {\n        addEn(_externalNullifier, false);\n    }\n\n    /*\n     * Deactivate an external nullifier. The external nullifier must already be\n     * active for this function to work. Only the owner can do this.\n     * @param _externalNullifier The new external nullifier to deactivate.\n     */\n    function deactivateExternalNullifier(uint232 _externalNullifier) public\n    onlyOwner {\n        // The external nullifier must already exist\n        require(\n            externalNullifierLinkedList[_externalNullifier].exists,\n            \"Semaphore: external nullifier not found\"\n        );\n\n        // The external nullifier must already be active\n        require(\n            externalNullifierLinkedList[_externalNullifier].isActive == true,\n            \"Semaphore: external nullifier already deactivated\"\n        );\n\n        // Deactivate the external nullifier. Note that we don't change the\n        // value of nextEn.\n        externalNullifierLinkedList[_externalNullifier].isActive = false;\n\n        emit ExternalNullifierChangeStatus(_externalNullifier, false);\n    }\n\n    /*\n     * Reactivate an external nullifier. The external nullifier must already be\n     * inactive for this function to work. Only the owner can do this.\n     * @param _externalNullifier The new external nullifier to reactivate.\n     */\n    function reactivateExternalNullifier(uint232 _externalNullifier) public\n    onlyOwner {\n        // The external nullifier must already exist\n        require(\n            externalNullifierLinkedList[_externalNullifier].exists,\n            \"Semaphore: external nullifier not found\"\n        );\n\n        // The external nullifier must already have been deactivated\n        require(\n            externalNullifierLinkedList[_externalNullifier].isActive == false,\n            \"Semaphore: external nullifier is already active\"\n        );\n\n        // Reactivate the external nullifier\n        externalNullifierLinkedList[_externalNullifier].isActive = true;\n\n        emit ExternalNullifierChangeStatus(_externalNullifier, true);\n    }\n\n    /*\n     * Returns true if and only if the specified external nullifier is active\n     * @param _externalNullifier The specified external nullifier.\n     */\n    function isExternalNullifierActive(uint232 _externalNullifier) public view\n    returns (bool) {\n        return externalNullifierLinkedList[_externalNullifier].isActive;\n    }\n\n    /*\n     * Returns the next external nullifier after the specified external\n     * nullifier in the linked list.\n     * @param _externalNullifier The specified external nullifier.\n     */\n    function getNextExternalNullifier(uint232 _externalNullifier) public view\n    returns (uint232) {\n\n        require(\n            externalNullifierLinkedList[_externalNullifier].exists,\n            \"Semaphore: no such external nullifier\"\n        );\n\n        uint232 n = externalNullifierLinkedList[_externalNullifier].next;\n\n        require(\n            numExternalNullifiers > 1 && externalNullifierLinkedList[n].exists,\n            \"Semaphore: no external nullifier exists after the specified one\"\n        );\n        \n        return n;\n    }\n\n    /*\n     * Returns the number of inserted identity commitments.\n     */\n    function getNumIdentityCommitments() public view returns (uint256) {\n        return nextLeafIndex;\n    }\n\n    /*\n     * Sets the `isBroadcastPermissioned` storage variable, which determines\n     * whether broadcastSignal can or cannot be called by only the contract\n     * owner.\n     * @param _newPermission True if the broadcastSignal can only be called by\n     *                       the contract owner; and False otherwise.\n     */\n    function setPermissioning(bool _newPermission) public onlyOwner {\n\n      isBroadcastPermissioned = _newPermission;\n\n      emit PermissionSet(_newPermission);\n    }\n}\n",
  "sourcePath": "/home/aleksandar/ZKUniversity/ZKVoting/contracts/contracts/Semaphore.sol",
  "compiler": {
    "name": "solc",
    "version": "0.8.0+commit.c7dfd78e.Emscripten.clang"
  },
  "schemaVersion": "3.4.4",
  "updatedAt": "2022-01-30T15:44:14.764Z",
  "networkType": "ethereum",
  "devdoc": {
    "kind": "dev",
    "methods": {
      "isOwner()": {
        "details": "Returns true if the caller is the current owner."
      },
      "owner()": {
        "details": "Returns the address of the current owner."
      },
      "renounceOwnership()": {
        "details": "Leaves the contract without owner. It will not be possible to call `onlyOwner` functions anymore. Can only be called by the current owner. > Note: Renouncing ownership will leave the contract without an owner, thereby removing any functionality that is only available to the owner."
      },
      "transferOwnership(address)": {
        "details": "Transfers ownership of the contract to a new account (`newOwner`). Can only be called by the current owner."
      },
      "verifyProof(uint256[2],uint256[2][2],uint256[2],uint256[4])": {
        "returns": {
          "r": " bool true if proof is valid"
        }
      }
    },
    "version": 1
  },
  "userdoc": {
    "kind": "user",
    "methods": {},
    "version": 1
  }
}