{
  "contractName": "Semaphore",
  "abi": [
    {
      "inputs": [
        {
          "internalType": "uint8",
          "name": "_treeLevels",
          "type": "uint8"
        },
        {
          "internalType": "uint232",
          "name": "_firstExternalNullifier",
          "type": "uint232"
        }
      ],
      "stateMutability": "nonpayable",
      "type": "constructor"
    },
    {
      "anonymous": false,
      "inputs": [
        {
          "indexed": true,
          "internalType": "uint232",
          "name": "externalNullifier",
          "type": "uint232"
        }
      ],
      "name": "ExternalNullifierAdd",
      "type": "event"
    },
    {
      "anonymous": false,
      "inputs": [
        {
          "indexed": true,
          "internalType": "uint232",
          "name": "externalNullifier",
          "type": "uint232"
        },
        {
          "indexed": true,
          "internalType": "bool",
          "name": "active",
          "type": "bool"
        }
      ],
      "name": "ExternalNullifierChangeStatus",
      "type": "event"
    },
    {
      "anonymous": false,
      "inputs": [
        {
          "indexed": true,
          "internalType": "uint256",
          "name": "leaf",
          "type": "uint256"
        },
        {
          "indexed": true,
          "internalType": "uint256",
          "name": "leafIndex",
          "type": "uint256"
        }
      ],
      "name": "LeafInsertion",
      "type": "event"
    },
    {
      "anonymous": false,
      "inputs": [
        {
          "indexed": true,
          "internalType": "address",
          "name": "previousOwner",
          "type": "address"
        },
        {
          "indexed": true,
          "internalType": "address",
          "name": "newOwner",
          "type": "address"
        }
      ],
      "name": "OwnershipTransferred",
      "type": "event"
    },
    {
      "anonymous": false,
      "inputs": [
        {
          "indexed": true,
          "internalType": "bool",
          "name": "newPermission",
          "type": "bool"
        }
      ],
      "name": "PermissionSet",
      "type": "event"
    },
    {
      "inputs": [],
      "name": "NOTHING_UP_MY_SLEEVE_ZERO",
      "outputs": [
        {
          "internalType": "uint256",
          "name": "",
          "type": "uint256"
        }
      ],
      "stateMutability": "view",
      "type": "function",
      "constant": true
    },
    {
      "inputs": [
        {
          "internalType": "uint232",
          "name": "",
          "type": "uint232"
        }
      ],
      "name": "externalNullifierLinkedList",
      "outputs": [
        {
          "internalType": "uint232",
          "name": "next",
          "type": "uint232"
        },
        {
          "internalType": "bool",
          "name": "exists",
          "type": "bool"
        },
        {
          "internalType": "bool",
          "name": "isActive",
          "type": "bool"
        }
      ],
      "stateMutability": "view",
      "type": "function",
      "constant": true
    },
    {
      "inputs": [],
      "name": "firstExternalNullifier",
      "outputs": [
        {
          "internalType": "uint232",
          "name": "",
          "type": "uint232"
        }
      ],
      "stateMutability": "view",
      "type": "function",
      "constant": true
    },
    {
      "inputs": [
        {
          "internalType": "uint256[]",
          "name": "array",
          "type": "uint256[]"
        }
      ],
      "name": "hash11",
      "outputs": [
        {
          "internalType": "uint256",
          "name": "",
          "type": "uint256"
        }
      ],
      "stateMutability": "pure",
      "type": "function",
      "constant": true
    },
    {
      "inputs": [
        {
          "internalType": "uint256[5]",
          "name": "array",
          "type": "uint256[5]"
        }
      ],
      "name": "hash5",
      "outputs": [
        {
          "internalType": "uint256",
          "name": "",
          "type": "uint256"
        }
      ],
      "stateMutability": "pure",
      "type": "function",
      "constant": true
    },
    {
      "inputs": [
        {
          "internalType": "uint256",
          "name": "_left",
          "type": "uint256"
        },
        {
          "internalType": "uint256",
          "name": "_right",
          "type": "uint256"
        }
      ],
      "name": "hashLeftRight",
      "outputs": [
        {
          "internalType": "uint256",
          "name": "",
          "type": "uint256"
        }
      ],
      "stateMutability": "pure",
      "type": "function",
      "constant": true
    },
    {
      "inputs": [
        {
          "internalType": "uint256",
          "name": "_leaf",
          "type": "uint256"
        }
      ],
      "name": "insertLeaf",
      "outputs": [
        {
          "internalType": "uint256",
          "name": "",
          "type": "uint256"
        }
      ],
      "stateMutability": "nonpayable",
      "type": "function"
    },
    {
      "inputs": [],
      "name": "isBroadcastPermissioned",
      "outputs": [
        {
          "internalType": "bool",
          "name": "",
          "type": "bool"
        }
      ],
      "stateMutability": "view",
      "type": "function",
      "constant": true
    },
    {
      "inputs": [],
      "name": "isOwner",
      "outputs": [
        {
          "internalType": "bool",
          "name": "",
          "type": "bool"
        }
      ],
      "stateMutability": "view",
      "type": "function",
      "constant": true
    },
    {
      "inputs": [],
      "name": "lastExternalNullifier",
      "outputs": [
        {
          "internalType": "uint232",
          "name": "",
          "type": "uint232"
        }
      ],
      "stateMutability": "view",
      "type": "function",
      "constant": true
    },
    {
      "inputs": [
        {
          "internalType": "uint256",
          "name": "",
          "type": "uint256"
        }
      ],
      "name": "nullifierHashHistory",
      "outputs": [
        {
          "internalType": "bool",
          "name": "",
          "type": "bool"
        }
      ],
      "stateMutability": "view",
      "type": "function",
      "constant": true
    },
    {
      "inputs": [],
      "name": "numExternalNullifiers",
      "outputs": [
        {
          "internalType": "uint256",
          "name": "",
          "type": "uint256"
        }
      ],
      "stateMutability": "view",
      "type": "function",
      "constant": true
    },
    {
      "inputs": [],
      "name": "owner",
      "outputs": [
        {
          "internalType": "address",
          "name": "",
          "type": "address"
        }
      ],
      "stateMutability": "view",
      "type": "function",
      "constant": true
    },
    {
      "inputs": [],
      "name": "renounceOwnership",
      "outputs": [],
      "stateMutability": "nonpayable",
      "type": "function"
    },
    {
      "inputs": [],
      "name": "root",
      "outputs": [
        {
          "internalType": "uint256",
          "name": "",
          "type": "uint256"
        }
      ],
      "stateMutability": "view",
      "type": "function",
      "constant": true
    },
    {
      "inputs": [
        {
          "internalType": "uint256",
          "name": "",
          "type": "uint256"
        }
      ],
      "name": "rootHistory",
      "outputs": [
        {
          "internalType": "bool",
          "name": "",
          "type": "bool"
        }
      ],
      "stateMutability": "view",
      "type": "function",
      "constant": true
    },
    {
      "inputs": [
        {
          "internalType": "address",
          "name": "newOwner",
          "type": "address"
        }
      ],
      "name": "transferOwnership",
      "outputs": [],
      "stateMutability": "nonpayable",
      "type": "function"
    },
    {
      "inputs": [
        {
          "internalType": "uint256[2]",
          "name": "a",
          "type": "uint256[2]"
        },
        {
          "internalType": "uint256[2][2]",
          "name": "b",
          "type": "uint256[2][2]"
        },
        {
          "internalType": "uint256[2]",
          "name": "c",
          "type": "uint256[2]"
        },
        {
          "internalType": "uint256[4]",
          "name": "input",
          "type": "uint256[4]"
        }
      ],
      "name": "verifyProof",
      "outputs": [
        {
          "internalType": "bool",
          "name": "r",
          "type": "bool"
        }
      ],
      "stateMutability": "view",
      "type": "function",
      "constant": true
    },
    {
      "inputs": [
        {
          "internalType": "uint256",
          "name": "_identityCommitment",
          "type": "uint256"
        }
      ],
      "name": "insertIdentity",
      "outputs": [
        {
          "internalType": "uint256",
          "name": "",
          "type": "uint256"
        }
      ],
      "stateMutability": "nonpayable",
      "type": "function"
    },
    {
      "inputs": [
        {
          "internalType": "uint256[2]",
          "name": "_a",
          "type": "uint256[2]"
        },
        {
          "internalType": "uint256[2][2]",
          "name": "_b",
          "type": "uint256[2][2]"
        },
        {
          "internalType": "uint256[2]",
          "name": "_c",
          "type": "uint256[2]"
        }
      ],
      "name": "packProof",
      "outputs": [
        {
          "internalType": "uint256[8]",
          "name": "",
          "type": "uint256[8]"
        }
      ],
      "stateMutability": "pure",
      "type": "function",
      "constant": true
    },
    {
      "inputs": [
        {
          "internalType": "uint256[8]",
          "name": "_proof",
          "type": "uint256[8]"
        }
      ],
      "name": "unpackProof",
      "outputs": [
        {
          "internalType": "uint256[2]",
          "name": "",
          "type": "uint256[2]"
        },
        {
          "internalType": "uint256[2][2]",
          "name": "",
          "type": "uint256[2][2]"
        },
        {
          "internalType": "uint256[2]",
          "name": "",
          "type": "uint256[2]"
        }
      ],
      "stateMutability": "pure",
      "type": "function",
      "constant": true
    },
    {
      "inputs": [
        {
          "internalType": "bytes",
          "name": "_signal",
          "type": "bytes"
        },
        {
          "internalType": "uint256[8]",
          "name": "_proof",
          "type": "uint256[8]"
        },
        {
          "internalType": "uint256",
          "name": "_root",
          "type": "uint256"
        },
        {
          "internalType": "uint256",
          "name": "_nullifiersHash",
          "type": "uint256"
        },
        {
          "internalType": "uint256",
          "name": "_signalHash",
          "type": "uint256"
        },
        {
          "internalType": "uint232",
          "name": "_externalNullifier",
          "type": "uint232"
        }
      ],
      "name": "preBroadcastCheck",
      "outputs": [
        {
          "internalType": "bool",
          "name": "",
          "type": "bool"
        }
      ],
      "stateMutability": "view",
      "type": "function",
      "constant": true
    },
    {
      "inputs": [
        {
          "internalType": "bytes",
          "name": "_signal",
          "type": "bytes"
        },
        {
          "internalType": "uint256[8]",
          "name": "_proof",
          "type": "uint256[8]"
        },
        {
          "internalType": "uint256",
          "name": "_root",
          "type": "uint256"
        },
        {
          "internalType": "uint256",
          "name": "_nullifiersHash",
          "type": "uint256"
        },
        {
          "internalType": "uint232",
          "name": "_externalNullifier",
          "type": "uint232"
        }
      ],
      "name": "broadcastSignal",
      "outputs": [],
      "stateMutability": "nonpayable",
      "type": "function"
    },
    {
      "inputs": [
        {
          "internalType": "uint232",
          "name": "_externalNullifier",
          "type": "uint232"
        }
      ],
      "name": "addExternalNullifier",
      "outputs": [],
      "stateMutability": "nonpayable",
      "type": "function"
    },
    {
      "inputs": [
        {
          "internalType": "uint232",
          "name": "_externalNullifier",
          "type": "uint232"
        }
      ],
      "name": "deactivateExternalNullifier",
      "outputs": [],
      "stateMutability": "nonpayable",
      "type": "function"
    },
    {
      "inputs": [
        {
          "internalType": "uint232",
          "name": "_externalNullifier",
          "type": "uint232"
        }
      ],
      "name": "reactivateExternalNullifier",
      "outputs": [],
      "stateMutability": "nonpayable",
      "type": "function"
    },
    {
      "inputs": [
        {
          "internalType": "uint232",
          "name": "_externalNullifier",
          "type": "uint232"
        }
      ],
      "name": "isExternalNullifierActive",
      "outputs": [
        {
          "internalType": "bool",
          "name": "",
          "type": "bool"
        }
      ],
      "stateMutability": "view",
      "type": "function",
      "constant": true
    },
    {
      "inputs": [
        {
          "internalType": "uint232",
          "name": "_externalNullifier",
          "type": "uint232"
        }
      ],
      "name": "getNextExternalNullifier",
      "outputs": [
        {
          "internalType": "uint232",
          "name": "",
          "type": "uint232"
        }
      ],
      "stateMutability": "view",
      "type": "function",
      "constant": true
    },
    {
      "inputs": [],
      "name": "getNumIdentityCommitments",
      "outputs": [
        {
          "internalType": "uint256",
          "name": "",
          "type": "uint256"
        }
      ],
      "stateMutability": "view",
      "type": "function",
      "constant": true
    },
    {
      "inputs": [
        {
          "internalType": "bool",
          "name": "_newPermission",
          "type": "bool"
        }
      ],
      "name": "setPermissioning",
      "outputs": [],
      "stateMutability": "nonpayable",
      "type": "function"
    }
  ],
  "bytecode": "0x608060405260006001819055600755600880546001600160e81b0319169055600980546001600160f01b031916600160e81b1790557f30644e72e131a029b85045b68181585d2833e84879b9709143e1f593f00000016200006160a06200048b565b6040516020818303038152906040528051906020012060001c620000869190620005ba565b600b553480156200009657600080fd5b5060405162003bf438038062003bf4833981016040819052620000b9916200043f565b600b54600080546001600160a01b03191633178082556040518593926001600160a01b039290921691907f8be0079c531659141344cd1fd0a4f28419497f9722a3daafe3b4186f6b6457e0908290a360008260ff16118015620001205750602060ff831611155b620001485760405162461bcd60e51b81526004016200013f90620004d3565b60405180910390fd5b6000805460ff60a01b1916600160a01b60ff851602179055806200016b62000408565b60005b8460ff168160ff161015620002045760005b600560ff82161015620001cc5783838260ff1660058110620001b257634e487b7160e01b600052603260045260246000fd5b602002015280620001c38162000597565b91505062000180565b5060ff81166000908152600360205260409020839055620001ed8262000221565b925080620001fb8162000597565b9150506200016e565b505060025550620002199050816001620002b7565b5050620005f1565b604051630926f44b60e31b815260009073__PoseidonT6____________________________90634937a258906200025d908590600401620004a0565b60206040518083038186803b1580156200027657600080fd5b505af41580156200028b573d6000803e3d6000fd5b505050506040513d601f19601f82011682018060405250810190620002b1919062000426565b92915050565b8015620002df57600880546001600160e81b0319166001600160e81b03841617905562000354565b6001600160e81b038216600090815260066020526040902054600160e81b900460ff1615620003225760405162461bcd60e51b81526004016200013f9062000530565b6009546001600160e81b03908116600090815260066020526040902080546001600160e81b0319169184169190911790555b6001600160e81b0382166000818152600660205260408120805460ff60e81b197fff00ff0000000000000000000000000000000000000000000000000000000000909116600160f01b1716600160e81b179055600980546001600160e81b0319169092179091556007805491620003cb8362000579565b90915550506040516001600160e81b038316907fd1ca56647596090d70fa8d49bcc376b97248314e3f204c491333b3440405f58990600090a25050565b6040518060a001604052806005906020820280368337509192915050565b60006020828403121562000438578081fd5b5051919050565b6000806040838503121562000452578081fd5b825160ff8116811462000463578182fd5b60208401519092506001600160e81b038116811462000480578182fd5b809150509250929050565b6853656d6170686f726560b81b815260090190565b60a08101818360005b6005811015620004ca578151835260209283019290910190600101620004a9565b50505092915050565b60208082526039908201527f496e6372656d656e74616c5175696e547265653a205f747265654c6576656c7360408201527f206d757374206265206265747765656e203020616e6420333300000000000000606082015260800190565b60208082526029908201527f53656d6170686f72653a2065787465726e616c206e756c6c696669657220616c6040820152681c9958591e481cd95d60ba1b606082015260800190565b6000600019821415620005905762000590620005db565b5060010190565b600060ff821660ff811415620005b157620005b1620005db565b60010192915050565b600082620005d657634e487b7160e01b81526012600452602481fd5b500690565b634e487b7160e01b600052601160045260246000fd5b6135f380620006016000396000f3fe608060405234801561001057600080fd5b50600436106101da5760003560e01c80638da5cb5b11610104578063c4cd5596116100a2578063ebf0c71711610071578063ebf0c717146103c5578063f1c621ee146103cd578063f2fde38b146103e0578063f5ab0dd6146103f3576101da565b8063c4cd559614610384578063c8cf02da14610397578063ce85bbdb1461039f578063eac4287e146103b2576101da565b80639cfced97116100de5780639cfced9714610343578063b720243414610356578063ba10b81d14610369578063c3a3407f14610371576101da565b80638da5cb5b1461031e5780638f32d59b146103335780638f6efd001461033b576101da565b80635e05ea171161017c578063715018a61161014b578063715018a6146102ce5780637a5519f9146102d6578063819bd8a5146102f85780638a1a52d21461030b576101da565b80635e05ea17146102805780635fe8c13b146102a05780636d80efca146102b35780636ebf6265146102c6576101da565b8063539f38b2116101b8578063539f38b2146102255780635bb93995146102385780635d3ce725146102585780635d86faba1461026b576101da565b80630e57596f146101df57806323baaa83146101f4578063283ebaf414610207575b600080fd5b6101f26101ed366004612b12565b610415565b005b6101f2610202366004612c05565b610564565b61020f61065b565b60405161021c9190612d7f565b60405180910390f35b6101f2610233366004612c05565b61066b565b61024b610246366004612c4f565b610679565b60405161021c9190613363565b61020f610266366004612b87565b61071e565b610273610825565b60405161021c919061332c565b61029361028e366004612954565b610834565b60405161021c9190612d56565b61020f6102ae36600461299a565b610896565b61024b6102c1366004612c1f565b6109cb565b61024b610a00565b6101f2610a06565b6102e96102e4366004612c05565b610a74565b60405161021c93929190613340565b6101f2610306366004612c05565b610aa5565b61024b610319366004612a4b565b610b9d565b610326610fe7565b60405161021c9190612c99565b61020f610ff6565b61024b611007565b61024b610351366004612a04565b61100d565b61024b610364366004612c1f565b611097565b61024b6112b4565b61027361037f366004612c05565b6112ba565b61020f610392366004612c1f565b611363565b610273611378565b6101f26103ad366004612af2565b611387565b61020f6103c0366004612c05565b6113f4565b61024b611419565b61020f6103db366004612c1f565b61141f565b6101f26103ee36600461292d565b611434565b610406610401366004612a2f565b611461565b60405161021c93929190612cde565b8484848484610423846114ea565b6104485760405162461bcd60e51b815260040161043f906130d1565b60405180910390fd5b6000828152600a602052604090205460ff16156104775760405162461bcd60e51b815260040161043f9061311d565b610480816113f4565b61049c5760405162461bcd60e51b815260040161043f9061315e565b60006104a7866115cc565b905060008051602061359e83398151915283106104d65760405162461bcd60e51b815260040161043f906131a5565b60408051608081018252858152602081018590529081018290526001600160e81b03831660608201526000808061050c89611461565b92509250925061051e83838387610896565b61053a5760405162461bcd60e51b815260040161043f90612e1f565b50505060009889525050600a60205250506040909420805460ff1916600117905550505050505050565b61056c610ff6565b6105885760405162461bcd60e51b815260040161043f9061309c565b6001600160e81b038116600090815260066020526040902054600160e81b900460ff166105c75760405162461bcd60e51b815260040161043f9061315e565b6001600160e81b038116600090815260066020526040902054600160f01b900460ff16151560011461060b5760405162461bcd60e51b815260040161043f90612f60565b6001600160e81b038116600081815260066020526040808220805460ff60f01b19169055519091907fb8d2b8a2b352df7f139810483b3c80fc3a4a88711c90bdb7180f1030b7f49acf908390a350565b600954600160e81b900460ff1681565b6106768160006115da565b50565b60006106836125a1565b838152602081018390526040516314d2f97b60e11b815273__PoseidonT3____________________________906329a5f2f6906106c4908490600401612cad565b60206040518083038186803b1580156106dc57600080fd5b505af41580156106f0573d6000803e3d6000fd5b505050506040513d601f19601f820116820180604052508101906107149190612c37565b9150505b92915050565b60408051608081018252858152602081018590529081018390526001600160e81b03821660608201526000908180806107568a611461565b60008b8152600a6020526040902054929550909350915060ff161580156107845750866107828c6115cc565b145b801561079757506107948b6115cc565b87145b80156107a757506107a7866113f4565b80156107c1575060008981526005602052604090205460ff165b80156107d157506107d18a6114ea565b80156107ea575060008051602061359e83398151915289105b8015610803575060008051602061359e83398151915288105b8015610816575061081683838387610896565b9b9a5050505050505050505050565b6008546001600160e81b031681565b61083c6125bf565b5060408051610100810182528451815260208086015181830152845151928201929092528351820151606082015283820180515160808301525182015160a0820152825160c08201529082015160e08201525b9392505050565b60006108a06125de565b60408051808201825287518152602080890151818301529083528151608080820184528851518285019081528951840151606084015282528351808501855289840180515182525184015181850152828401528483019190915282518084018452875181528783015181840152848401528251600480825260a0820190945260009390929091908301908036833701905050905060005b60048110156109a25784816004811061096057634e487b7160e01b600052603260045260246000fd5b602002015182828151811061098557634e487b7160e01b600052603260045260246000fd5b60209081029190910101528061099a8161350c565b915050610937565b506109ad818361170d565b6109bc576001925050506109c3565b6000925050505b949350505050565b6000600b548214156109ef5760405162461bcd60e51b815260040161043f90612e56565b6109f882611097565b90505b919050565b600b5481565b610a0e610ff6565b610a2a5760405162461bcd60e51b815260040161043f9061309c565b600080546040516001600160a01b03909116907f8be0079c531659141344cd1fd0a4f28419497f9722a3daafe3b4186f6b6457e0908390a3600080546001600160a01b0319169055565b6006602052600090815260409020546001600160e81b0381169060ff600160e81b8204811691600160f01b90041683565b610aad610ff6565b610ac95760405162461bcd60e51b815260040161043f9061309c565b6001600160e81b038116600090815260066020526040902054600160e81b900460ff16610b085760405162461bcd60e51b815260040161043f9061315e565b6001600160e81b038116600090815260066020526040902054600160f01b900460ff1615610b485760405162461bcd60e51b815260040161043f90612d8a565b6001600160e81b038116600081815260066020526040808220805460ff60f01b1916600160f01b17905551600192917fb8d2b8a2b352df7f139810483b3c80fc3a4a88711c90bdb7180f1030b7f49acf91a350565b60408051600b80825261018082019092526000918291906020820161016080368337019050509050610bcd612610565b610bd5612610565b60005b8551811015610c4657858181518110610c0157634e487b7160e01b600052603260045260246000fd5b6020026020010151848281518110610c2957634e487b7160e01b600052603260045260246000fd5b602090810291909101015280610c3e8161350c565b915050610bd8565b5084515b600b811015610c92576000848281518110610c7557634e487b7160e01b600052603260045260246000fd5b602090810291909101015280610c8a8161350c565b915050610c4a565b5060005b6005811015610d5557838181518110610cbf57634e487b7160e01b600052603260045260246000fd5b6020026020010151838260058110610ce757634e487b7160e01b600052603260045260246000fd5b602002015283610cf8826005613396565b81518110610d1657634e487b7160e01b600052603260045260246000fd5b6020026020010151828260058110610d3e57634e487b7160e01b600052603260045260246000fd5b602002015280610d4d8161350c565b915050610c96565b50610d5e6125a1565b604051630926f44b60e31b815273__PoseidonT6____________________________90634937a25890610d95908690600401612d2e565b60206040518083038186803b158015610dad57600080fd5b505af4158015610dc1573d6000803e3d6000fd5b505050506040513d601f19601f82011682018060405250810190610de59190612c37565b8152604051630926f44b60e31b815273__PoseidonT6____________________________90634937a25890610e1e908590600401612d2e565b60206040518083038186803b158015610e3657600080fd5b505af4158015610e4a573d6000803e3d6000fd5b505050506040513d601f19601f82011682018060405250810190610e6e9190612c37565b6020820152610e7b6125a1565b6040516314d2f97b60e11b815273__PoseidonT3____________________________906329a5f2f690610eb2908590600401612cad565b60206040518083038186803b158015610eca57600080fd5b505af4158015610ede573d6000803e3d6000fd5b505050506040513d601f19601f82011682018060405250810190610f029190612c37565b815284518590600a908110610f2757634e487b7160e01b600052603260045260246000fd5b602002602001015181600160028110610f5057634e487b7160e01b600052603260045260246000fd5b60200201526040516314d2f97b60e11b815273__PoseidonT3____________________________906329a5f2f690610f8c908490600401612cad565b60206040518083038186803b158015610fa457600080fd5b505af4158015610fb8573d6000803e3d6000fd5b505050506040513d601f19601f82011682018060405250810190610fdc9190612c37565b979650505050505050565b6000546001600160a01b031690565b6000546001600160a01b0316331490565b60075481565b604051630926f44b60e31b815260009073__PoseidonT6____________________________90634937a25890611047908590600401612d2e565b60206040518083038186803b15801561105f57600080fd5b505af4158015611073573d6000803e3d6000fd5b505050506040513d601f19601f820116820180604052508101906109f89190612c37565b600060008051602061359e83398151915282106110c65760405162461bcd60e51b815260040161043f90612fb1565b6000546110de90600160a01b900460ff166005613408565b600154106110fe5760405162461bcd60e51b815260040161043f906132eb565b6001548261110a612610565b6000611117600585613547565b905060005b60005460ff600160a01b9091048116908216101561124657816111865760015b600560ff821610156111845760ff808316600090815260036020908152604080832054600483528184209486168452939091529020558061117c81613527565b91505061113c565b505b60ff8116600090815260046020908152604080832085845290915281208590555b600560ff8216101561120e5760ff808316600090815260046020908152604080832093851680845293909152902054908590600581106111f757634e487b7160e01b600052603260045260246000fd5b60200201528061120681613527565b9150506111a7565b506112188361100d565b93506112256005866133ae565b9450611232600586613547565b91508061123e81613527565b91505061111c565b5060028390556000838152600560205260408120805460ff1916600190811790915580549181906112778285613396565b9091555050604051819088907fe6f49fa84abd31919f446b22a52bb3ceae774b4b87f062f022fec45c46f4f45890600090a3509295945050505050565b60015490565b6001600160e81b038116600090815260066020526040812054600160e81b900460ff166112f95760405162461bcd60e51b815260040161043f90612eef565b6001600160e81b03808316600090815260066020526040902054600754911690600110801561134757506001600160e81b038116600090815260066020526040902054600160e81b900460ff165b6109f85760405162461bcd60e51b815260040161043f9061325f565b600a6020526000908152604090205460ff1681565b6009546001600160e81b031681565b61138f610ff6565b6113ab5760405162461bcd60e51b815260040161043f9061309c565b6009805460ff60e81b1916600160e81b831515908102919091179091556040517ffba91b9002bc7732a7bff1b44ee16a30ebaeb06d7921779034c6a6ab27e69c2790600090a250565b6001600160e81b0316600090815260066020526040902054600160f01b900460ff1690565b60025481565b60056020526000908152604090205460ff1681565b61143c610ff6565b6114585760405162461bcd60e51b815260040161043f9061309c565b610676816118ce565b6114696125a1565b61147161262e565b6114796125a1565b50506040805180820182528351815260208085015181830152825160808082018552868501518286019081526060808901519084015282528451808601865290870151815260a08701518184015281830152835180850190945260c0860151845260e0909501519083015293909150565b805160009060008051602061359e83398151915211801561151c5750602082015160008051602061359e833981519152115b80156115395750604082015160008051602061359e833981519152115b80156115565750606082015160008051602061359e833981519152115b80156115735750608082015160008051602061359e833981519152115b8015611590575060a082015160008051602061359e833981519152115b80156115ad575060c082015160008051602061359e833981519152115b80156109f857505060e0015160008051602061359e8339815191521190565b805160209091012060081c90565b801561160057600880546001600160e81b0319166001600160e81b038416179055611672565b6001600160e81b038216600090815260066020526040902054600160e81b900460ff16156116405760405162461bcd60e51b815260040161043f9061301c565b6009546001600160e81b03908116600090815260066020526040902080546001600160e81b0319169184169190911790555b6001600160e81b0382166000818152600660205260408120805460ff60e81b19600161ff0160e81b0319909116600160f01b1716600160e81b179055600980546001600160e81b03191690921790915560078054916116d08361350c565b90915550506040516001600160e81b038316907fd1ca56647596090d70fa8d49bcc376b97248314e3f204c491333b3440405f58990600090a25050565b600060008051602061359e8339815191528161172761194f565b90508060800151518551600161173d9190613396565b1461175a5760405162461bcd60e51b815260040161043f90612ec3565b604080518082019091526000808252602082018190525b8651811015611845578387828151811061179b57634e487b7160e01b600052603260045260246000fd5b6020026020010151106117c05760405162461bcd60e51b815260040161043f90613065565b6118318261182c85608001518460016117d99190613396565b815181106117f757634e487b7160e01b600052603260045260246000fd5b60200260200101518a858151811061181f57634e487b7160e01b600052603260045260246000fd5b6020026020010151611e89565b611ef4565b91508061183d8161350c565b915050611771565b5061187c81836080015160008151811061186f57634e487b7160e01b600052603260045260246000fd5b6020026020010151611ef4565b90506118b261188e8660000151611f5b565b8660200151846000015185602001518587604001518b604001518960600151611fee565b6118c25760019350505050610718565b50600095945050505050565b6001600160a01b0381166118f45760405162461bcd60e51b815260040161043f90612dd9565b600080546040516001600160a01b03808516939216917f8be0079c531659141344cd1fd0a4f28419497f9722a3daafe3b4186f6b6457e091a3600080546001600160a01b0319166001600160a01b0392909216919091179055565b61195761265b565b6040805180820182527f2d4d9aa7e302d9df41749d5507949d05dbea33fbb16c643b22f599a2be6df2e281527f14bedd503c37ceb061d8ec60209fe345ce89830a19230301f076caff004d19266020808301919091529083528151608080820184527f0967032fcbf776d1afc985f88877f182d38480a653f2decaa9794cbc3bf3060c8285019081527f0e187847ad4c798374d0d6732bf501847dd68bc0e071241e0213bc7fc13db7ab606080850191909152908352845180860186527f304cfbd1e08a704a99f5e847d93f8c3caafddec46b7a0d379da69a4d112346a781527f1739c1b1a457a8c7313123d24d2f9192f896b7c63eea05a9d57f06547ad0cec8818601528385015285840192909252835180820185527f198e9393920d483a7260bfb731fb5d25f1aa493335a9e71297e485b7aef312c28186019081527f1800deef121f1e76426a00665e5c4479674322d4f75edadd46debd5cd992f6ed828501528152845180860186527f090689d0585ff075ec9e99ad690c3395bc4b313370b38ef355acdadcd122975b81527f12c85ea5db8c6deb4aab71808dcb408fe3d1e7690c43d37b4ce6cc0166fa7daa818601528185015285850152835190810184527f28e182aa6d7c08c8eb5df2e3ae2280a284dfc43bfca69af743d05907457a68df8185019081527f2b537efad7bd9076e0fb4750e8af34a6cd64724c2d1a95a0b99cf8dc85d289e9828401528152835180850185527f2499007f81158039a035d7d7ef42942366cc0b85b31e8f5f0398a05fcea47d3381527f2e093143817464201ba08e7bea8b16d491396195b46c6f48604cdab15d3a813b8185015281840152908401528151600580825260c08201909352919082015b611bda6126a2565b815260200190600190039081611bd257505060808201908152604080518082019091527f0f07e0d71f6e287a9d2409daf4d2c4d3e4c217434dbfedcd7b95e4f14a2a9ce381527f1825da28e988768b067722947fedc4f23bbb448a7d524cbbaa9f13cc50c5f16e602082015290518051600090611c6757634e487b7160e01b600052603260045260246000fd5b602002602001018190525060405180604001604052807f1bfec925d9158887f4ffed14fdcba2ea4301febd2b700676ad3f2c35f1dd019081526020017f2e45a0da85d21b50af5e656718d90c46575c2f4967fd77008e47e86e128398a88152508160800151600181518110611cec57634e487b7160e01b600052603260045260246000fd5b602002602001018190525060405180604001604052807f02df25fc4b8cc3309168bb640889caddbd0230d0d2827a011bfc9a33d31ebc7f81526020017f2df627f9de13cb62a404ba7c28d9a6e5563678661c8f4f56cd6b38a3487a23d98152508160800151600281518110611d7157634e487b7160e01b600052603260045260246000fd5b602002602001018190525060405180604001604052807f16d601cddbc5bd49c1e4eed5cfb17980a7c7bcd342a7871b4ac1d12f3c6c34be81526020017f033cde6708b92b13702189aa346cd0ff7db9468d22ac204d81068d4712887dc38152508160800151600381518110611df657634e487b7160e01b600052603260045260246000fd5b602002602001018190525060405180604001604052807f1198e1d463542a534d3797ab641f86c3dcd0efd3797a5719a491e60fec3872eb81526020017f2afc8d11c24efc8e11bf7b3e003692455645a3eab2efff3070f10c15bcb07bac8152508160800151600481518110611e7b57634e487b7160e01b600052603260045260246000fd5b602002602001018190525090565b611e916126a2565b611e996126bc565b835181526020808501519082015260408101839052600060608360808460076107d05a03fa9050808015611ecc57611ece565bfe5b5080611eec5760405162461bcd60e51b815260040161043f90612f34565b505092915050565b611efc6126a2565b611f046126da565b8351815260208085015181830152835160408301528301516060808301919091526000908360c08460066107d05a03fa9050808015611ecc575080611eec5760405162461bcd60e51b815260040161043f90613233565b611f636126a2565b81517f30644e72e131a029b85045b68181585d97816a916871ca8d3c208c16d87cfd4790158015611f9657506020830151155b15611fb657505060408051808201909152600080825260208201526109fb565b604051806040016040528084600001518152602001828560200151611fdb9190613547565b611fe590846134f5565b90529392505050565b60408051600480825260a08201909252600091829190816020015b6120116126a2565b81526020019060019003908161200957505060408051600480825260a0820190925291925060009190602082015b6120476126f8565b81526020019060019003908161203f5790505090508a8260008151811061207e57634e487b7160e01b600052603260045260246000fd5b602002602001018190525088826001815181106120ab57634e487b7160e01b600052603260045260246000fd5b602002602001018190525086826002815181106120d857634e487b7160e01b600052603260045260246000fd5b6020026020010181905250848260038151811061210557634e487b7160e01b600052603260045260246000fd5b6020026020010181905250898160008151811061213257634e487b7160e01b600052603260045260246000fd5b6020026020010181905250878160018151811061215f57634e487b7160e01b600052603260045260246000fd5b6020026020010181905250858160028151811061218c57634e487b7160e01b600052603260045260246000fd5b602002602001018190525083816003815181106121b957634e487b7160e01b600052603260045260246000fd5b60200260200101819052506108168282600081518351146121ec5760405162461bcd60e51b815260040161043f90613203565b825160006121fb8260066134d6565b905060008167ffffffffffffffff81111561222657634e487b7160e01b600052604160045260246000fd5b60405190808252806020026020018201604052801561224f578160200160208202803683370190505b50905060005b8381101561254e5786818151811061227d57634e487b7160e01b600052603260045260246000fd5b6020026020010151600001518282600661229791906134d6565b6122a2906000613396565b815181106122c057634e487b7160e01b600052603260045260246000fd5b6020026020010181815250508681815181106122ec57634e487b7160e01b600052603260045260246000fd5b6020026020010151602001518282600661230691906134d6565b612311906001613396565b8151811061232f57634e487b7160e01b600052603260045260246000fd5b60200260200101818152505085818151811061235b57634e487b7160e01b600052603260045260246000fd5b60209081029190910101515151826123748360066134d6565b61237f906002613396565b8151811061239d57634e487b7160e01b600052603260045260246000fd5b6020026020010181815250508581815181106123c957634e487b7160e01b600052603260045260246000fd5b602090810291909101810151510151826123e48360066134d6565b6123ef906003613396565b8151811061240d57634e487b7160e01b600052603260045260246000fd5b60200260200101818152505085818151811061243957634e487b7160e01b600052603260045260246000fd5b60200260200101516020015160006002811061246557634e487b7160e01b600052603260045260246000fd5b6020020151826124768360066134d6565b612481906004613396565b8151811061249f57634e487b7160e01b600052603260045260246000fd5b6020026020010181815250508581815181106124cb57634e487b7160e01b600052603260045260246000fd5b6020026020010151602001516001600281106124f757634e487b7160e01b600052603260045260246000fd5b6020020151826125088360066134d6565b612513906005613396565b8151811061253157634e487b7160e01b600052603260045260246000fd5b6020908102919091010152806125468161350c565b915050612255565b50612557612718565b6000602082602086026020860160086107d05a03fa9050808015611ecc5750806125935760405162461bcd60e51b815260040161043f906132bc565b505115159695505050505050565b60405180604001604052806002906020820280368337509192915050565b6040518061010001604052806008906020820280368337509192915050565b60405180606001604052806125f16126a2565b81526020016125fe6126f8565b815260200161260b6126a2565b905290565b6040518060a001604052806005906020820280368337509192915050565b60405180604001604052806002905b6126456125a1565b81526020019060019003908161263d5790505090565b6040518060a0016040528061266e6126a2565b815260200161267b6126f8565b81526020016126886126f8565b81526020016126956126f8565b8152602001606081525090565b604051806040016040528060008152602001600081525090565b60405180606001604052806003906020820280368337509192915050565b60405180608001604052806004906020820280368337509192915050565b604051806040016040528061270b6125a1565b815260200161260b6125a1565b60405180602001604052806001906020820280368337509192915050565b600067ffffffffffffffff83111561275057612750613587565b602080840261275e8161336c565b9250828487838701111561277157600080fd5b600092505b86831015612794578035825260019290920191908301908301612776565b505050509392505050565b600082601f8301126127af578081fd5b6040805181810181811067ffffffffffffffff821117156127d2576127d2613587565b82528084608081018710156127e5578485fd5b845b600281101561280e576127fa888361281a565b8352602090920191908401906001016127e7565b50919695505050505050565b600082601f83011261282a578081fd5b6040516040810181811067ffffffffffffffff8211171561284d5761284d613587565b8060405250808385604086011115612863578384fd5b835b6002811015612884578135835260209283019290910190600101612865565b509195945050505050565b600082601f83011261289f578081fd5b61088f83600884612736565b600082601f8301126128bb578081fd5b813567ffffffffffffffff8111156128d5576128d5613587565b6128e8601f8201601f191660200161336c565b8181528460208386010111156128fc578283fd5b816020850160208301379081016020019190915292915050565b80356001600160e81b03811681146109fb57600080fd5b60006020828403121561293e578081fd5b81356001600160a01b038116811461088f578182fd5b60008060006101008486031215612969578182fd5b612973858561281a565b9250612982856040860161279f565b91506129918560c0860161281a565b90509250925092565b60008060008061018085870312156129b0578081fd5b6129ba868661281a565b93506129c9866040870161279f565b92506129d88660c0870161281a565b91508561011f8601126129e9578081fd5b6129f98660046101008801612736565b905092959194509250565b600060a08284031215612a15578081fd5b82601f830112612a23578081fd5b61088f83600584612736565b60006101008284031215612a41578081fd5b61088f838361288f565b60006020808385031215612a5d578182fd5b823567ffffffffffffffff80821115612a74578384fd5b818501915085601f830112612a87578384fd5b813581811115612a9957612a99613587565b8381029150612aa984830161336c565b8181528481019084860184860187018a1015612ac3578788fd5b8795505b83861015612ae5578035835260019590950194918601918601612ac7565b5098975050505050505050565b600060208284031215612b03578081fd5b8135801515811461088f578182fd5b60008060008060006101808688031215612b2a578283fd5b853567ffffffffffffffff811115612b40578384fd5b612b4c888289016128ab565b955050612b5c876020880161288f565b935061012086013592506101408601359150612b7b6101608701612916565b90509295509295909350565b6000806000806000806101a08789031215612ba0578384fd5b863567ffffffffffffffff811115612bb6578485fd5b612bc289828a016128ab565b965050612bd2886020890161288f565b9450610120870135935061014087013592506101608701359150612bf96101808801612916565b90509295509295509295565b600060208284031215612c16578081fd5b61088f82612916565b600060208284031215612c30578081fd5b5035919050565b600060208284031215612c48578081fd5b5051919050565b60008060408385031215612c61578182fd5b50508035926020909101359150565b8060005b6002811015612c93578151845260209384019390910190600101612c74565b50505050565b6001600160a01b0391909116815260200190565b60408101818360005b6002811015612cd5578151835260209283019290910190600101612cb6565b50505092915050565b6101008101612ced8286612c70565b60408083018560005b6002811015612d1d57612d0a838351612c70565b9183019160209190910190600101612cf6565b505050506109c360c0830184612c70565b60a08101818360005b6005811015612cd5578151835260209283019290910190600101612d37565b6101008101818360005b6008811015612cd5578151835260209283019290910190600101612d60565b901515815260200190565b6020808252602f908201527f53656d6170686f72653a2065787465726e616c206e756c6c696669657220697360408201526e20616c72656164792061637469766560881b606082015260800190565b60208082526026908201527f4f776e61626c653a206e6577206f776e657220697320746865207a65726f206160408201526564647265737360d01b606082015260800190565b60208082526018908201527f53656d6170686f72653a20696e76616c69642070726f6f660000000000000000604082015260600190565b60208082526047908201527f53656d6170686f72653a206964656e7469747920636f6d6d69746d656e74206360408201527f616e6e6f7420626520746865206e6f7468696e672d75702d6d792d736c656576606082015266652d76616c756560c81b608082015260a00190565b6020808252601290820152711d995c9a599a595c8b5898590b5a5b9c1d5d60721b604082015260600190565b60208082526025908201527f53656d6170686f72653a206e6f20737563682065787465726e616c206e756c6c60408201526434b334b2b960d91b606082015260800190565b6020808252601290820152711c185a5c9a5b99cb5b5d5b0b59985a5b195960721b604082015260600190565b60208082526031908201527f53656d6170686f72653a2065787465726e616c206e756c6c696669657220616c6040820152701c9958591e4819195858dd1a5d985d1959607a1b606082015260800190565b60208082526045908201527f496e6372656d656e74616c5175696e547265653a20696e736572744c6561662060408201527f617267756d656e74206d757374206265203c20534e41524b5f5343414c41525f606082015264119251531160da1b608082015260a00190565b60208082526029908201527f53656d6170686f72653a2065787465726e616c206e756c6c696669657220616c6040820152681c9958591e481cd95d60ba1b606082015260800190565b6020808252601f908201527f76657269666965722d6774652d736e61726b2d7363616c61722d6669656c6400604082015260600190565b6020808252818101527f4f776e61626c653a2063616c6c6572206973206e6f7420746865206f776e6572604082015260600190565b6020808252602c908201527f53656d6170686f72653a20696e76616c6964206669656c6420656c656d656e7460408201526b1439949034b710383937b7b360a11b606082015260800190565b60208082526021908201527f53656d6170686f72653a206e756c6c696669657220616c7265616479207365656040820152603760f91b606082015260800190565b60208082526027908201527f53656d6170686f72653a2065787465726e616c206e756c6c6966696572206e6f6040820152661d08199bdd5b9960ca1b606082015260800190565b602080825260409082018190527f53656d6170686f72653a20746865206e756c6c6966696572732068617368206d908201527f757374206265206c742074686520736e61726b207363616c6172206669656c64606082015260800190565b6020808252601690820152751c185a5c9a5b99cb5b195b99dd1a1ccb59985a5b195960521b604082015260600190565b6020808252601290820152711c185a5c9a5b99cb5859190b59985a5b195960721b604082015260600190565b6020808252603f908201527f53656d6170686f72653a206e6f2065787465726e616c206e756c6c696669657260408201527f206578697374732061667465722074686520737065636966696564206f6e6500606082015260800190565b6020808252601590820152741c185a5c9a5b99cb5bdc18dbd9194b59985a5b1959605a1b604082015260600190565b60208082526021908201527f496e6372656d656e74616c5175696e547265653a20747265652069732066756c6040820152601b60fa1b606082015260800190565b6001600160e81b0391909116815260200190565b6001600160e81b0393909316835290151560208301521515604082015260600190565b90815260200190565b60405181810167ffffffffffffffff8111828210171561338e5761338e613587565b604052919050565b600082198211156133a9576133a961355b565b500190565b6000826133bd576133bd613571565b500490565b80825b60018086116133d457506133ff565b8187048211156133e6576133e661355b565b808616156133f357918102915b9490941c9380026133c5565b94509492505050565b600061088f60001984846000826134215750600161088f565b8161342e5750600061088f565b8160018114613444576002811461344e5761347b565b600191505061088f565b60ff84111561345f5761345f61355b565b6001841b9150848211156134755761347561355b565b5061088f565b5060208310610133831016604e8410600b84101617156134ae575081810a838111156134a9576134a961355b565b61088f565b6134bb84848460016133c2565b8086048211156134cd576134cd61355b565b02949350505050565b60008160001904831182151516156134f0576134f061355b565b500290565b6000828210156135075761350761355b565b500390565b60006000198214156135205761352061355b565b5060010190565b600060ff821660ff81141561353e5761353e61355b565b60010192915050565b60008261355657613556613571565b500690565b634e487b7160e01b600052601160045260246000fd5b634e487b7160e01b600052601260045260246000fd5b634e487b7160e01b600052604160045260246000fdfe30644e72e131a029b85045b68181585d2833e84879b9709143e1f593f0000001a2646970667358221220533fe09710b8802d5144802cc9fea2478957aea870e57fe339f1238a1fe51f5364736f6c63430008000033",
  "immutableReferences": {},
  "source": "//SPDX-License-Identifier: Unlicense\npragma solidity ^0.8.0;\n\nimport \"./Verifier.sol\";\nimport { IncrementalQuinTree } from \"./IncrementalMerkleTree.sol\";\nimport \"./Ownable.sol\";\n\n\ncontract Semaphore is Verifier, Ownable, IncrementalQuinTree {\n    // The external nullifier helps to prevent double-signalling by the same\n    // user. An external nullifier can be active or deactivated.\n\n    // Each node in the linked list\n    struct ExternalNullifierNode {\n        uint232 next;\n        bool exists;\n        bool isActive;\n    }\n\n    // We store the external nullifiers using a mapping of the form:\n    // enA => { next external nullifier; if enA exists; if enA is active }\n    // Think of it as a linked list.\n    mapping (uint232 => ExternalNullifierNode) public\n        externalNullifierLinkedList;\n\n    uint256 public numExternalNullifiers = 0;\n    \n    // First and last external nullifiers for linked list enumeration\n    uint232 public firstExternalNullifier = 0;\n    uint232 public lastExternalNullifier = 0;\n\n    // Whether broadcastSignal() can only be called by the owner of this\n    // contract. This is the case as a safe default.\n    bool public isBroadcastPermissioned = true;\n\n    // Whether the contract has already seen a particular nullifier hash\n    mapping (uint256 => bool) public nullifierHashHistory;\n\n    event PermissionSet(bool indexed newPermission);\n    event ExternalNullifierAdd(uint232 indexed externalNullifier);\n    event ExternalNullifierChangeStatus(\n        uint232 indexed externalNullifier,\n        bool indexed active\n    );\n\n    // This value should be equal to\n    // 0x7d10c03d1f7884c85edee6353bd2b2ffbae9221236edde3778eac58089912bc0\n    // which you can calculate using the following ethersjs code:\n    // ethers.utils.solidityKeccak256(['bytes'], [ethers.utils.toUtf8Bytes('Semaphore')])\n    // By setting the value of unset (empty) tree leaves to this\n    // nothing-up-my-sleeve value, the authors hope to demonstrate that they do\n    // not have its preimage and therefore cannot spend funds they do not own.\n\n    uint256 public NOTHING_UP_MY_SLEEVE_ZERO = \n        uint256(keccak256(abi.encodePacked('Semaphore'))) % SNARK_SCALAR_FIELD;\n\n    /*\n     * If broadcastSignal is permissioned, check if msg.sender is the contract\n     * owner\n     */\n    modifier onlyOwnerIfPermissioned() {\n        require(\n            !isBroadcastPermissioned || isOwner(),\n            \"Semaphore: broadcast permission denied\"\n        );\n\n        _;\n    }\n    \n    /*\n     * @param _treeLevels The depth of the identity tree.\n     * @param _firstExternalNullifier The first identity nullifier to add.\n     */\n    constructor(uint8 _treeLevels, uint232 _firstExternalNullifier)\n        IncrementalQuinTree(_treeLevels, NOTHING_UP_MY_SLEEVE_ZERO)\n        Ownable()\n        {\n            addEn(_firstExternalNullifier, true);\n    }\n\n    /*\n     * Registers a new user. \n     * @param _identity_commitment The user's identity commitment, which is the\n     *                            hash of their public key and their identity\n     *                            nullifier (a random 31-byte value). It should\n     *                            be the output of a Pedersen hash. It is the\n     *                            responsibility of the caller to verify this.\n     */\n    function insertIdentity(uint256 _identityCommitment) public //onlyOwner\n    returns (uint256) {\n        // Ensure that the given identity commitment is not the zero value\n        require(\n            _identityCommitment != NOTHING_UP_MY_SLEEVE_ZERO,\n            \"Semaphore: identity commitment cannot be the nothing-up-my-sleeve-value\"\n        );\n\n        return insertLeaf(_identityCommitment);\n    }\n\n    /*\n     * Checks if all values within pi_a, pi_b, and pi_c of a zk-SNARK are less\n     * than the scalar field.\n     * @param _a The corresponding `a` parameter to verifier.sol's\n     *           verifyProof()\n     * @param _b The corresponding `b` parameter to verifier.sol's\n     *           verifyProof()\n     * @param _c The corresponding `c` parameter to verifier.sol's\n                 verifyProof()\n     */\n    function areAllValidFieldElements(\n        uint256[8] memory _proof\n    ) internal pure returns (bool) {\n        return \n            _proof[0] < SNARK_SCALAR_FIELD &&\n            _proof[1] < SNARK_SCALAR_FIELD &&\n            _proof[2] < SNARK_SCALAR_FIELD &&\n            _proof[3] < SNARK_SCALAR_FIELD &&\n            _proof[4] < SNARK_SCALAR_FIELD &&\n            _proof[5] < SNARK_SCALAR_FIELD &&\n            _proof[6] < SNARK_SCALAR_FIELD &&\n            _proof[7] < SNARK_SCALAR_FIELD;\n    }\n\n    /*\n     * Produces a keccak256 hash of the given signal, shifted right by 8 bits.\n     * @param _signal The signal to hash\n     */\n    function hashSignal(bytes memory _signal) internal pure returns (uint256) {\n        return uint256(keccak256(_signal)) >> 8;\n    }\n\n    /*\n     * A convenience function which returns a uint256 array of 8 elements which\n     * comprise a Groth16 zk-SNARK proof's pi_a, pi_b, and pi_c  values.\n     * @param _a The corresponding `a` parameter to verifier.sol's\n     *           verifyProof()\n     * @param _b The corresponding `b` parameter to verifier.sol's\n     *           verifyProof()\n     * @param _c The corresponding `c` parameter to verifier.sol's\n     *           verifyProof()\n     */\n    function packProof (\n        uint256[2] memory _a,\n        uint256[2][2] memory _b,\n        uint256[2] memory _c\n    ) public pure returns (uint256[8] memory) {\n\n        return [\n            _a[0],\n            _a[1], \n            _b[0][0],\n            _b[0][1],\n            _b[1][0],\n            _b[1][1],\n            _c[0],\n            _c[1]\n        ];\n    }\n    /*\n     * A convenience function which converts an array of 8 elements, generated\n     * by packProof(), into a format which verifier.sol's verifyProof()\n     * accepts.\n     * @param _proof The proof elements.\n     */\n    function unpackProof(\n        uint256[8] memory _proof\n    ) public pure returns (\n        uint256[2] memory,\n        uint256[2][2] memory,\n        uint256[2] memory\n    ) {\n\n        return (\n            [_proof[0], _proof[1]],\n            [\n                [_proof[2], _proof[3]],\n                [_proof[4], _proof[5]]\n            ],\n            [_proof[6], _proof[7]]\n        );\n    }\n\n\n    /*\n     * A convenience view function which helps operators to easily verify all\n     * inputs to broadcastSignal() using a single contract call. This helps\n     * them to save gas by detecting invalid inputs before they invoke\n     * broadcastSignal(). Note that this function does the same checks as\n     * `isValidSignalAndProof` but returns a bool instead of using require()\n     * statements.\n     * @param _signal The signal to broadcast\n     * @param _proof The proof elements.\n     * @param _root The Merkle tree root\n     * @param _nullifiersHash The nullifiers hash\n     * @param _signalHash The signal hash. This is included so as to verify in\n     *                    Solidity that the signal hash computed off-chain\n     *                    matches.\n     * @param _externalNullifier The external nullifier\n     */\n    function preBroadcastCheck (\n        bytes memory _signal,\n        uint256[8] memory _proof,\n        uint256 _root,\n        uint256 _nullifiersHash,\n        uint256 _signalHash,\n        uint232 _externalNullifier\n    ) public view returns (bool) {\n\n        uint256[4] memory publicSignals =\n            [_root, _nullifiersHash, _signalHash, _externalNullifier];\n\n        (uint256[2] memory a, uint256[2][2] memory b, uint256[2] memory c) = \n            unpackProof(_proof);\n\n        return nullifierHashHistory[_nullifiersHash] == false &&\n            hashSignal(_signal) == _signalHash &&\n            _signalHash == hashSignal(_signal) &&\n            isExternalNullifierActive(_externalNullifier) &&\n            rootHistory[_root] &&\n            areAllValidFieldElements(_proof) &&\n            _root < SNARK_SCALAR_FIELD &&\n            _nullifiersHash < SNARK_SCALAR_FIELD &&\n            verifyProof(a, b, c, publicSignals);\n    }\n\n    /*\n     * A modifier which ensures that the signal and proof are valid.\n     * @param _signal The signal to broadcast\n     * @param _proof The proof elements.\n     * @param _root The Merkle tree root\n     * @param _nullifiersHash The nullifiers hash\n     * @param _signalHash The signal hash\n     * @param _externalNullifier The external nullifier\n     */\n    modifier isValidSignalAndProof (\n        bytes memory _signal,\n        uint256[8] memory _proof,\n        uint256 _root,\n        uint256 _nullifiersHash,\n        uint232 _externalNullifier\n    ) {\n        // Check whether each element in _proof is a valid field element. Even\n        // if verifier.sol does this check too, it is good to do so here for\n        // the sake of good protocol design.\n        require(\n            areAllValidFieldElements(_proof),\n            \"Semaphore: invalid field element(s) in proof\"\n        );\n\n        // Check whether the nullifier hash has been seen\n        require(\n            nullifierHashHistory[_nullifiersHash] == false,\n            \"Semaphore: nullifier already seen\"\n        );\n\n        // Check whether the nullifier hash is active\n        require(\n            isExternalNullifierActive(_externalNullifier),\n            \"Semaphore: external nullifier not found\"\n        );\n\n        // Check whether the given Merkle root has been seen previously\n        // require(rootHistory[_root], \"Semaphore: root not seen\");\n\n        uint256 signalHash = hashSignal(_signal);\n\n        // Check whether _nullifiersHash is a valid field element.\n        require(\n            _nullifiersHash < SNARK_SCALAR_FIELD,\n            \"Semaphore: the nullifiers hash must be lt the snark scalar field\"\n        );\n\n        uint256[4] memory publicSignals =\n            [_root, _nullifiersHash, signalHash, _externalNullifier];\n\n        (uint256[2] memory a, uint256[2][2] memory b, uint256[2] memory c) =\n            unpackProof(_proof);\n\n        require(\n            verifyProof(a, b, c, publicSignals),\n            \"Semaphore: invalid proof\"\n        );\n\n        // Note that we don't need to check if signalHash is less than\n        // SNARK_SCALAR_FIELD because it always holds true due to the\n        // definition of hashSignal()\n\n        _;\n    }\n\n    /*\n     * Broadcasts the signal.\n     * @param _signal The signal to broadcast\n     * @param _proof The proof elements.\n     * @param _root The root of the Merkle tree (the 1st public signal)\n     * @param _nullifiersHash The nullifiers hash (the 2nd public signal)\n     * @param _externalNullifier The nullifiers hash (the 4th public signal)\n     */\n    function broadcastSignal(\n        bytes memory _signal,\n        uint256[8] memory _proof,\n        uint256 _root,\n        uint256 _nullifiersHash,\n        uint232 _externalNullifier\n    ) public \n        // onlyOwnerIfPermissioned\n        isValidSignalAndProof(\n            _signal, _proof, _root, _nullifiersHash, _externalNullifier\n        )\n    {\n        // Client contracts should be responsible for storing the signal and/or\n        // emitting it as an event \n\n        // Store the nullifiers hash to prevent double-signalling\n        nullifierHashHistory[_nullifiersHash] = true;\n    }\n\n    /*\n     * A private helper function which adds an external nullifier.\n     * @param _externalNullifier The external nullifier to add.\n     * @param _isFirst Whether _externalNullifier is the first external\n     * nullifier. Only the constructor should set _isFirst to true when it\n     * calls addEn().\n     */\n    function addEn(uint232 _externalNullifier, bool isFirst) private {\n        if (isFirst) {\n            firstExternalNullifier = _externalNullifier;\n        } else {\n            // The external nullifier must not have already been set\n            require(\n                externalNullifierLinkedList[_externalNullifier].exists == false,\n                \"Semaphore: external nullifier already set\"\n            );\n\n            // Connect the previously added external nullifier node to this one\n            externalNullifierLinkedList[lastExternalNullifier].next =\n                _externalNullifier;\n        }\n\n        // Add a new external nullifier\n        externalNullifierLinkedList[_externalNullifier].next = 0;\n        externalNullifierLinkedList[_externalNullifier].isActive = true;\n        externalNullifierLinkedList[_externalNullifier].exists = true;\n\n        // Set the last external nullifier to this one\n        lastExternalNullifier = _externalNullifier;\n\n        numExternalNullifiers ++;\n\n        emit ExternalNullifierAdd(_externalNullifier);\n    }\n\n    /*\n     * Adds an external nullifier to the contract. This external nullifier is\n     * active once it is added. Only the owner can do this.\n     * @param _externalNullifier The new external nullifier to set.\n     */\n    function addExternalNullifier(uint232 _externalNullifier) public\n    //onlyOwner \n    {\n        addEn(_externalNullifier, false);\n    }\n\n    /*\n     * Deactivate an external nullifier. The external nullifier must already be\n     * active for this function to work. Only the owner can do this.\n     * @param _externalNullifier The new external nullifier to deactivate.\n     */\n    function deactivateExternalNullifier(uint232 _externalNullifier) public\n    onlyOwner {\n        // The external nullifier must already exist\n        require(\n            externalNullifierLinkedList[_externalNullifier].exists,\n            \"Semaphore: external nullifier not found\"\n        );\n\n        // The external nullifier must already be active\n        require(\n            externalNullifierLinkedList[_externalNullifier].isActive == true,\n            \"Semaphore: external nullifier already deactivated\"\n        );\n\n        // Deactivate the external nullifier. Note that we don't change the\n        // value of nextEn.\n        externalNullifierLinkedList[_externalNullifier].isActive = false;\n\n        emit ExternalNullifierChangeStatus(_externalNullifier, false);\n    }\n\n    /*\n     * Reactivate an external nullifier. The external nullifier must already be\n     * inactive for this function to work. Only the owner can do this.\n     * @param _externalNullifier The new external nullifier to reactivate.\n     */\n    function reactivateExternalNullifier(uint232 _externalNullifier) public\n    onlyOwner {\n        // The external nullifier must already exist\n        require(\n            externalNullifierLinkedList[_externalNullifier].exists,\n            \"Semaphore: external nullifier not found\"\n        );\n\n        // The external nullifier must already have been deactivated\n        require(\n            externalNullifierLinkedList[_externalNullifier].isActive == false,\n            \"Semaphore: external nullifier is already active\"\n        );\n\n        // Reactivate the external nullifier\n        externalNullifierLinkedList[_externalNullifier].isActive = true;\n\n        emit ExternalNullifierChangeStatus(_externalNullifier, true);\n    }\n\n    /*\n     * Returns true if and only if the specified external nullifier is active\n     * @param _externalNullifier The specified external nullifier.\n     */\n    function isExternalNullifierActive(uint232 _externalNullifier) public view\n    returns (bool) {\n        return externalNullifierLinkedList[_externalNullifier].isActive;\n    }\n\n    /*\n     * Returns the next external nullifier after the specified external\n     * nullifier in the linked list.\n     * @param _externalNullifier The specified external nullifier.\n     */\n    function getNextExternalNullifier(uint232 _externalNullifier) public view\n    returns (uint232) {\n\n        require(\n            externalNullifierLinkedList[_externalNullifier].exists,\n            \"Semaphore: no such external nullifier\"\n        );\n\n        uint232 n = externalNullifierLinkedList[_externalNullifier].next;\n\n        require(\n            numExternalNullifiers > 1 && externalNullifierLinkedList[n].exists,\n            \"Semaphore: no external nullifier exists after the specified one\"\n        );\n        \n        return n;\n    }\n\n    /*\n     * Returns the number of inserted identity commitments.\n     */\n    function getNumIdentityCommitments() public view returns (uint256) {\n        return nextLeafIndex;\n    }\n\n    /*\n     * Sets the `isBroadcastPermissioned` storage variable, which determines\n     * whether broadcastSignal can or cannot be called by only the contract\n     * owner.\n     * @param _newPermission True if the broadcastSignal can only be called by\n     *                       the contract owner; and False otherwise.\n     */\n    function setPermissioning(bool _newPermission) public onlyOwner {\n\n      isBroadcastPermissioned = _newPermission;\n\n      emit PermissionSet(_newPermission);\n    }\n}\n",
  "sourcePath": "/home/aleksandar/ZKUniversity/ZKVoting/contracts/contracts/Semaphore.sol",
  "compiler": {
    "name": "solc",
    "version": "0.8.0+commit.c7dfd78e.Emscripten.clang"
  },
  "schemaVersion": "3.4.4",
  "updatedAt": "2022-01-31T14:49:49.461Z",
  "networkType": "ethereum",
  "devdoc": {
    "kind": "dev",
    "methods": {
      "isOwner()": {
        "details": "Returns true if the caller is the current owner."
      },
      "owner()": {
        "details": "Returns the address of the current owner."
      },
      "renounceOwnership()": {
        "details": "Leaves the contract without owner. It will not be possible to call `onlyOwner` functions anymore. Can only be called by the current owner. > Note: Renouncing ownership will leave the contract without an owner, thereby removing any functionality that is only available to the owner."
      },
      "transferOwnership(address)": {
        "details": "Transfers ownership of the contract to a new account (`newOwner`). Can only be called by the current owner."
      },
      "verifyProof(uint256[2],uint256[2][2],uint256[2],uint256[4])": {
        "returns": {
          "r": " bool true if proof is valid"
        }
      }
    },
    "version": 1
  },
  "userdoc": {
    "kind": "user",
    "methods": {},
    "version": 1
  }
}