{
  "contractName": "SemaphoreClient",
  "abi": [
    {
      "inputs": [
        {
          "internalType": "contract Semaphore",
          "name": "_semaphore",
          "type": "address"
        }
      ],
      "stateMutability": "nonpayable",
      "type": "constructor"
    },
    {
      "anonymous": false,
      "inputs": [
        {
          "indexed": true,
          "internalType": "uint256",
          "name": "signalIndex",
          "type": "uint256"
        }
      ],
      "name": "SignalBroadcastByClient",
      "type": "event"
    },
    {
      "inputs": [
        {
          "internalType": "uint256",
          "name": "",
          "type": "uint256"
        }
      ],
      "name": "identityCommitments",
      "outputs": [
        {
          "internalType": "uint256",
          "name": "",
          "type": "uint256"
        }
      ],
      "stateMutability": "view",
      "type": "function"
    },
    {
      "inputs": [],
      "name": "nextSignalIndex",
      "outputs": [
        {
          "internalType": "uint256",
          "name": "",
          "type": "uint256"
        }
      ],
      "stateMutability": "view",
      "type": "function"
    },
    {
      "inputs": [],
      "name": "semaphore",
      "outputs": [
        {
          "internalType": "contract Semaphore",
          "name": "",
          "type": "address"
        }
      ],
      "stateMutability": "view",
      "type": "function"
    },
    {
      "inputs": [
        {
          "internalType": "uint256",
          "name": "",
          "type": "uint256"
        }
      ],
      "name": "signalIndexToExternalNullifier",
      "outputs": [
        {
          "internalType": "uint256",
          "name": "",
          "type": "uint256"
        }
      ],
      "stateMutability": "view",
      "type": "function"
    },
    {
      "inputs": [
        {
          "internalType": "uint256",
          "name": "",
          "type": "uint256"
        }
      ],
      "name": "signalIndexToSignal",
      "outputs": [
        {
          "internalType": "bytes",
          "name": "",
          "type": "bytes"
        }
      ],
      "stateMutability": "view",
      "type": "function"
    },
    {
      "inputs": [],
      "name": "getNextSignalIndex",
      "outputs": [
        {
          "internalType": "uint256",
          "name": "",
          "type": "uint256"
        }
      ],
      "stateMutability": "view",
      "type": "function"
    },
    {
      "inputs": [],
      "name": "getIdentityCommitments",
      "outputs": [
        {
          "internalType": "uint256[]",
          "name": "",
          "type": "uint256[]"
        }
      ],
      "stateMutability": "view",
      "type": "function"
    },
    {
      "inputs": [
        {
          "internalType": "uint256",
          "name": "_index",
          "type": "uint256"
        }
      ],
      "name": "getIdentityCommitment",
      "outputs": [
        {
          "internalType": "uint256",
          "name": "",
          "type": "uint256"
        }
      ],
      "stateMutability": "view",
      "type": "function"
    },
    {
      "inputs": [
        {
          "internalType": "uint256",
          "name": "_leaf",
          "type": "uint256"
        }
      ],
      "name": "insertIdentityAsClient",
      "outputs": [],
      "stateMutability": "nonpayable",
      "type": "function"
    },
    {
      "inputs": [
        {
          "internalType": "uint232",
          "name": "_externalNullifier",
          "type": "uint232"
        }
      ],
      "name": "addExternalNullifier",
      "outputs": [],
      "stateMutability": "nonpayable",
      "type": "function"
    },
    {
      "inputs": [
        {
          "internalType": "bytes",
          "name": "_signal",
          "type": "bytes"
        },
        {
          "internalType": "uint256[8]",
          "name": "_proof",
          "type": "uint256[8]"
        },
        {
          "internalType": "uint256",
          "name": "_root",
          "type": "uint256"
        },
        {
          "internalType": "uint256",
          "name": "_nullifiersHash",
          "type": "uint256"
        },
        {
          "internalType": "uint232",
          "name": "_externalNullifier",
          "type": "uint232"
        }
      ],
      "name": "broadcastSignal",
      "outputs": [],
      "stateMutability": "nonpayable",
      "type": "function"
    },
    {
      "inputs": [
        {
          "internalType": "uint256",
          "name": "_index",
          "type": "uint256"
        }
      ],
      "name": "getExternalNullifierBySignalIndex",
      "outputs": [
        {
          "internalType": "uint256",
          "name": "",
          "type": "uint256"
        }
      ],
      "stateMutability": "view",
      "type": "function"
    },
    {
      "inputs": [
        {
          "internalType": "uint256",
          "name": "_index",
          "type": "uint256"
        }
      ],
      "name": "getSignalByIndex",
      "outputs": [
        {
          "internalType": "bytes",
          "name": "",
          "type": "bytes"
        }
      ],
      "stateMutability": "view",
      "type": "function"
    }
  ],
  "bytecode": "0x6080604052600060035534801561001557600080fd5b50604051610afc380380610afc83398101604081905261003491610059565b600480546001600160a01b0319166001600160a01b0392909216919091179055610087565b60006020828403121561006a578081fd5b81516001600160a01b0381168114610080578182fd5b9392505050565b610a66806100966000396000f3fe608060405234801561001057600080fd5b50600436106100cf5760003560e01c80637b5d25341161008c578063b30b483f11610066578063b30b483f14610192578063bde10612146101a5578063c1fcb080146101b8578063f9cdb5cd146101cb576100cf565b80637b5d2534146101625780638d2d593b146101775780638fd0de571461017f576100cf565b80630e57596f146100d457806327acf71b146100e9578063405667901461011257806349b0b91014610127578063539f38b21461013c578063740afb771461014f575b600080fd5b6100e76100e2366004610737565b6101de565b005b6100fc6100f7366004610822565b6102cd565b60405161010991906108e1565b60405180910390f35b61011a610367565b604051610109919061089d565b61012f6103bf565b6040516101099190610985565b6100e761014a366004610801565b6103c5565b61012f61015d366004610822565b610429565b61016a61043e565b604051610109919061095d565b61012f61044d565b61012f61018d366004610822565b610453565b61012f6101a0366004610822565b610474565b6100e76101b3366004610822565b6104a8565b6100fc6101c6366004610822565b61055c565b61012f6101d9366004610822565b6105fe565b6003546000818152600160209081526040909120875161020092890190610610565b506003805460009081526002602052604081206001600160e81b03851690558154919061022c836109f3565b909155505060048054604051630e57596f60e01b81526001600160a01b0390911691630e57596f91610268918a918a918a918a918a91016108f4565b600060405180830381600087803b15801561028257600080fd5b505af1158015610296573d6000803e3d6000fd5b50506040518392507faa676fd106f1023de6c9eafff9af5bc8e299b3493d3aa816a3278a15d055657b9150600090a2505050505050565b600160205260009081526040902080546102e6906109b8565b80601f0160208091040260200160405190810160405280929190818152602001828054610312906109b8565b801561035f5780601f106103345761010080835404028352916020019161035f565b820191906000526020600020905b81548152906001019060200180831161034257829003601f168201915b505050505081565b606060008054806020026020016040519081016040528092919081815260200182805480156103b557602002820191906000526020600020905b8154815260200190600101908083116103a1575b5050505050905090565b60035490565b600480546040516329cf9c5960e11b81526001600160a01b039091169163539f38b2916103f491859101610971565b600060405180830381600087803b15801561040e57600080fd5b505af1158015610422573d6000803e3d6000fd5b5050505050565b6000818152600260205260409020545b919050565b6004546001600160a01b031681565b60035481565b6000818154811061046357600080fd5b600091825260209091200154905081565b600080828154811061049657634e487b7160e01b600052603260045260246000fd5b90600052602060002001549050919050565b600480546040516336c077e560e11b81526001600160a01b0390911691636d80efca916104d791859101610985565b602060405180830381600087803b1580156104f157600080fd5b505af1158015610505573d6000803e3d6000fd5b505050506040513d601f19601f82011682018060405250810190610529919061083a565b50600080546001810182559080527f290decd9548b62a8d60345a988386fc84ba6bc95484008f6362f93160ef3e5630155565b6000818152600160205260409020805460609190610579906109b8565b80601f01602080910402602001604051908101604052809291908181526020018280546105a5906109b8565b80156105f25780601f106105c7576101008083540402835291602001916105f2565b820191906000526020600020905b8154815290600101906020018083116105d557829003601f168201915b50505050509050919050565b60026020526000908152604090205481565b82805461061c906109b8565b90600052602060002090601f01602090048101928261063e5760008555610684565b82601f1061065757805160ff1916838001178555610684565b82800160010185558215610684579182015b82811115610684578251825591602001919060010190610669565b50610690929150610694565b5090565b5b808211156106905760008155600101610695565b600082601f8301126106b9578081fd5b60405161010080820182811067ffffffffffffffff821117156106de576106de610a1a565b60405281848281018710156106f1578485fd5b8492505b6008831015610715578035825260019290920191602091820191016106f5565b509195945050505050565b80356001600160e81b038116811461043957600080fd5b6000806000806000610180868803121561074f578081fd5b853567ffffffffffffffff80821115610766578283fd5b818801915088601f830112610779578283fd5b813560208282111561078d5761078d610a1a565b61079f601f8301601f1916820161098e565b92508183528a818386010111156107b4578485fd5b8181850182850137848183850101528298506107d28b828c016106a9565b975050505050610120860135925061014086013591506107f56101608701610720565b90509295509295909350565b600060208284031215610812578081fd5b61081b82610720565b9392505050565b600060208284031215610833578081fd5b5035919050565b60006020828403121561084b578081fd5b5051919050565b60008151808452815b818110156108775760208185018101518683018201520161085b565b818111156108885782602083870101525b50601f01601f19169290920160200192915050565b6020808252825182820181905260009190848201906040850190845b818110156108d5578351835292840192918401916001016108b9565b50909695505050505050565b60006020825261081b6020830184610852565b600061018080835261090881840189610852565b91505060208083018760005b600881101561093157815183529183019190830190600101610914565b505050506101208201949094526101408101929092526001600160e81b03166101609091015292915050565b6001600160a01b0391909116815260200190565b6001600160e81b0391909116815260200190565b90815260200190565b60405181810167ffffffffffffffff811182821017156109b0576109b0610a1a565b604052919050565b6002810460018216806109cc57607f821691505b602082108114156109ed57634e487b7160e01b600052602260045260246000fd5b50919050565b6000600019821415610a1357634e487b7160e01b81526011600452602481fd5b5060010190565b634e487b7160e01b600052604160045260246000fdfea2646970667358221220ee6bac95c504c7f1918429fc555e1d05296dfab5f2100c2378b0cfe5774f5b1064736f6c63430008000033",
  "immutableReferences": {},
  "source": "/*\n * Semaphore - Zero-knowledge signaling on Ethereum\n * Copyright (C) 2020 Barry WhiteHat <barrywhitehat@protonmail.com>, Kobi\n * Gurkan <kobigurk@gmail.com> and Koh Wei Jie (contact@kohweijie.com)\n *\n * This file is part of Semaphore.\n *\n * Semaphore is free software: you can redistribute it and/or modify\n * it under the terms of the GNU General Public License as published by\n * the Free Software Foundation, either version 3 of the License, or\n * (at your option) any later version.\n *\n * Semaphore is distributed in the hope that it will be useful,\n * but WITHOUT ANY WARRANTY; without even the implied warranty of\n * MERCHANTABILITY or FITNESS FOR A PARTICULAR PURPOSE.  See the\n * GNU General Public License for more details.\n *\n * You should have received a copy of the GNU General Public License\n * along with Semaphore.  If not, see <http://www.gnu.org/licenses/>.\n */\n\npragma solidity ^0.8.0;\n\nimport { Semaphore } from './Semaphore.sol';\n\ncontract SemaphoreClient {\n    uint256[] public identityCommitments;\n\n    // A mapping of all signals broadcasted\n    mapping (uint256 => bytes) public signalIndexToSignal;\n\n    // A mapping between signal indices to external nullifiers\n    mapping (uint256 => uint256) public signalIndexToExternalNullifier;\n\n    // The next index of the `signalIndexToSignal` mapping\n    uint256 public nextSignalIndex = 0;\n\n    Semaphore public semaphore;\n\n    event SignalBroadcastByClient(uint256 indexed signalIndex);\n\n    constructor(Semaphore _semaphore) public {\n        semaphore = _semaphore;\n    }\n\n    function getNextSignalIndex() public view returns (uint256) {\n        return nextSignalIndex;\n    }\n\n    function getIdentityCommitments() public view returns (uint256 [] memory) {\n        return identityCommitments;\n    }\n\n    function getIdentityCommitment(uint256 _index) public view returns (uint256) {\n        return identityCommitments[_index];\n    }\n\n    function insertIdentityAsClient(uint256 _leaf) public {\n        semaphore.insertIdentity(_leaf);\n        identityCommitments.push(_leaf);\n    }\n\n    function addExternalNullifier(uint232 _externalNullifier) public {\n        semaphore.addExternalNullifier(_externalNullifier);\n    }\n\n    function broadcastSignal(\n        bytes memory _signal,\n        uint256[8] memory _proof,\n        uint256 _root,\n        uint256 _nullifiersHash,\n        uint232 _externalNullifier\n    ) public {\n        uint256 signalIndex = nextSignalIndex;\n\n        // store the signal\n        signalIndexToSignal[nextSignalIndex] = _signal;\n\n        // map the the signal index to the given external nullifier\n        signalIndexToExternalNullifier[nextSignalIndex] = _externalNullifier;\n\n        // increment the signal index\n        nextSignalIndex ++;\n\n        // broadcast the signal\n        semaphore.broadcastSignal(_signal, _proof, _root, _nullifiersHash, _externalNullifier);\n\n        emit SignalBroadcastByClient(signalIndex);\n    }\n\n    /*\n     * Returns the external nullifier which a signal at _index broadcasted to\n     * @param _index The index to use to look up the signalIndexToExternalNullifier mapping\n     */\n    function getExternalNullifierBySignalIndex(uint256 _index) public view returns (uint256) {\n        return signalIndexToExternalNullifier[_index];\n    }\n\n    function getSignalByIndex(uint256 _index) public view returns (bytes memory) {\n        return signalIndexToSignal[_index];\n    }\n}\n",
  "sourcePath": "/home/aleksandar/ZKUniversity/ZKVoting/contracts/contracts/SemaphoreClient.sol",
  "compiler": {
    "name": "solc",
    "version": "0.8.0+commit.c7dfd78e.Emscripten.clang"
  },
  "schemaVersion": "3.4.4",
  "updatedAt": "2022-02-03T14:46:05.952Z",
  "devdoc": {
    "kind": "dev",
    "methods": {},
    "version": 1
  },
  "userdoc": {
    "kind": "user",
    "methods": {},
    "version": 1
  }
}