{
  "contractName": "Test",
  "abi": [
    {
      "inputs": [
        {
          "internalType": "uint256",
          "name": "s",
          "type": "uint256"
        },
        {
          "internalType": "contract B",
          "name": "_b",
          "type": "address"
        }
      ],
      "stateMutability": "nonpayable",
      "type": "constructor"
    },
    {
      "inputs": [],
      "name": "state",
      "outputs": [
        {
          "internalType": "uint256",
          "name": "",
          "type": "uint256"
        }
      ],
      "stateMutability": "view",
      "type": "function"
    },
    {
      "inputs": [],
      "name": "incrementState",
      "outputs": [],
      "stateMutability": "nonpayable",
      "type": "function"
    }
  ],
  "bytecode": "0x608060405234801561001057600080fd5b5060405161017a38038061017a83398101604081905261002f91610059565b600091909155600180546001600160a01b0319166001600160a01b03909216919091179055610094565b6000806040838503121561006b578182fd5b825160208401519092506001600160a01b0381168114610089578182fd5b809150509250929050565b60d8806100a26000396000f3fe6080604052348015600f57600080fd5b506004361060325760003560e01c8063c19d93fb146037578063ee72b06d146051575b600080fd5b603d6059565b604051604891906076565b60405180910390f35b6057605f565b005b60005481565b6001600080828254606f9190607f565b9091555050565b90815260200190565b60008219821115609d57634e487b7160e01b81526011600452602481fd5b50019056fea2646970667358221220dae72333aeaa30ac57e8f9db4d521a09bf367c8fe184c00255eaab241839aa7764736f6c63430008000033",
  "immutableReferences": {},
  "source": "//SPDX-License-Identifier: Unlicense\npragma solidity ^0.8.0;\n\ncontract B {\n    uint public stateB;\n}\n\ncontract Test {\n    uint public state;\n    B b;\n\n    function incrementState() public {\n        state += 1;\n    }\n\n    constructor(uint s, B _b){\n        state = s;\n        b = _b;\n    }\n}",
  "sourcePath": "/home/aleksandar/ZKUniversity/ZKVoting/contracts/contracts/test.sol",
  "compiler": {
    "name": "solc",
    "version": "0.8.0+commit.c7dfd78e.Emscripten.clang"
  },
  "schemaVersion": "3.4.4",
  "updatedAt": "2022-01-28T07:54:39.921Z",
  "devdoc": {
    "kind": "dev",
    "methods": {},
    "version": 1
  },
  "userdoc": {
    "kind": "user",
    "methods": {},
    "version": 1
  }
}