{
  "contractName": "Verifier",
  "abi": [
    {
      "inputs": [
        {
          "internalType": "uint256[2]",
          "name": "a",
          "type": "uint256[2]"
        },
        {
          "internalType": "uint256[2][2]",
          "name": "b",
          "type": "uint256[2][2]"
        },
        {
          "internalType": "uint256[2]",
          "name": "c",
          "type": "uint256[2]"
        },
        {
          "internalType": "uint256[4]",
          "name": "input",
          "type": "uint256[4]"
        }
      ],
      "name": "verifyProof",
      "outputs": [
        {
          "internalType": "bool",
          "name": "r",
          "type": "bool"
        }
      ],
      "stateMutability": "view",
      "type": "function"
    }
  ],
  "bytecode": "0x608060405234801561001057600080fd5b50611252806100206000396000f3fe608060405234801561001057600080fd5b506004361061002b5760003560e01c80635fe8c13b14610030575b600080fd5b61004361003e366004610e52565b610059565b6040516100509190610f02565b60405180910390f35b6000610063610c1d565b6040805180820182528751815260208089015181830152908352815160808101835287515181840190815288518301516060830152815282518084018452888301805151825251830151818401528183015283820152815180830183528651815286820151918101919091529082015260006100dd6103dc565b6040805180820190915260008082526020820152835151919250906000805160206111fd8339815191521161012d5760405162461bcd60e51b815260040161012490610f44565b60405180910390fd5b8251602001516000805160206111fd8339815191521161015f5760405162461bcd60e51b81526004016101249061108e565b602083015151516000805160206111fd833981519152116101925760405162461bcd60e51b815260040161012490610f0d565b6020838101510151516000805160206111fd833981519152116101c75760405162461bcd60e51b815260040161012490611057565b6020838101515101516000805160206111fd833981519152116101fc5760405162461bcd60e51b815260040161012490610fb2565b60208381015181015101516000805160206111fd833981519152116102335760405162461bcd60e51b815260040161012490610f7b565b6040830151516000805160206111fd833981519152116102655760405162461bcd60e51b8152600401610124906110c5565b6000805160206111fd8339815191528360400151602001511061029a5760405162461bcd60e51b815260040161012490610fe9565b60005b6004811015610388577f30644e72e131a029b85045b68181585d2833e84879b9709143e1f593f00000018682600481106102e757634e487b7160e01b600052603260045260246000fd5b6020020151106103095760405162461bcd60e51b815260040161012490611020565b6103748261036f85608001518460016103229190611147565b6005811061034057634e487b7160e01b600052603260045260246000fd5b602002015189856004811061036557634e487b7160e01b600052603260045260246000fd5b60200201516107fc565b61082b565b91508061038081611195565b91505061029d565b5060808201515161039a90829061082b565b90506103d06103ac846000015161085b565b846020015184600001518560200151858760400151896040015189606001516108e8565b98975050505050505050565b6103e4610c4f565b6040805180820182527f2aeb4aafb1c7a3e1445536842c9d8225ebd94a09d15cda4e17d944add94ede4781527f03ab549390940a14a8d8d3fe3f6ecb68195432778936e617d914f14d1df035796020808301919091529083528151608080820184527f2fd95a27d1b9d966bb3ae847506bfc2ffa3e5c945f4502cf0f10dfd658960f948285019081527f167a6701c17cc2734e919e79f59f110b511f1ff811a06fd840949416d10ddafc606080850191909152908352845180860186527f02b4c85ab8a8fbe2d979af025230a96c10e07c5e4163fc7d633ba083fc44f9ee81527f303ca2757a59cbf0e0bbdb8f1712f29e3e804cd258e18aca0da7f6bd7136e806818601528385015285840192909252835180820185527f0fa9bb662fc3acd975ee36a6ea2c0c709c3a75303345702acaf0d845428f932b8186019081527f2f2d53e983b994de7cac84d565b30b457f11273ff5a898ce80c9fd66bdf9e075828501528152845180860186527f2d1f4da8e0f4d49c61fd3ec22a104df1a5159b1e329b3506354559ebafff080181527f2ff6e55d56bb54b32d728131475c6ca6d7a92cc6b82bfcd59311c765e7edcb45818601528185015285850152835180820185527f23511787419db90d2bad3c8bfbac9f4398c26cd6cd34bb5276c2cd94b7b7d26f8186019081527f17e0c1843c4ec925cf3d09b051978f5f23d1d166117d572f38dbd874126dead5828501528152845180860186527f06e374c176a74bf3d0c0329b9d03b53693d77f928cd1fc4c6f6053ec00f2ca2581527f2d832fd3933c30f159e18dbe33bc7496240cc22bcece79faf02388e5bd366a21818601528185015282860152835180850185527f2174881f2cb4aee5292b2f603cb183bf301d263b1a11c7ec22585fec00ecce9881527e3e5e75ec133240c640391a4cb8a18e2fbc4f6336e6b6693643735d5c62308781850152818601805191909152845180860186527f1664a7bd963677623594fb978543aceb4fc3576b0f976c519a22bdbca62226c381527f0e28ccde23de1c2f78b1d8d35660f7014f391e354756aad1f5f75d159cfab652818601528151850152845180860186527f17439f723025a06c170891f82daf6fbf4fe30c3824d1b0820262e7ee632bd62d81527f0a74bd079e9f728a7c5dc31ea3c7c43e978be8921a351b9de0df3cfb2f601855818601528151860152845180860186527f274660c30271883b25933fc39f835337bafcb604536af04f6264fe96a7b32d5181527f27e6947d2ab1e5b87fa5e0b4fe610ee7a623bdf4e0225e249c6a3446af5085b58186015281519093019290925283518085019094527f108ba5cc069e7368567294f740794f36d4c7d99d40dd667fe5dd544967bdc9a984527f2175417a3760110f546c7f7f30d3195d766cbe31f34013b45322ff7fd974635c9284019290925251015290565b610804610c96565b61080c610cb0565b8351815260208085015190820152828160025b60200201525092915050565b610833610c96565b61083b610cce565b83518152602080850151818301528351604083015283015181600361081f565b610863610c96565b815115801561087457506020820151155b15610893575060408051808201909152600080825260208201526108e3565b6040518060400160405280836000015181526020016000805160206111fd83398151915284602001516108c691906111b0565b6108de906000805160206111fd83398151915261117e565b905290505b919050565b60408051608080820183528a825260208083018a90528284018890526060808401879052845192830185528b83528282018a9052828501889052820185905283516018808252610320820190955260009491859190839082016103008036833701905050905060005b6004811015610c0057600061096782600661115f565b905085826004811061098957634e487b7160e01b600052603260045260246000fd5b6020020151518361099b836000611147565b815181106109b957634e487b7160e01b600052603260045260246000fd5b6020026020010181815250508582600481106109e557634e487b7160e01b600052603260045260246000fd5b602002015160200151838260016109fc9190611147565b81518110610a1a57634e487b7160e01b600052603260045260246000fd5b602002602001018181525050848260048110610a4657634e487b7160e01b600052603260045260246000fd5b6020020151515183610a59836002611147565b81518110610a7757634e487b7160e01b600052603260045260246000fd5b602002602001018181525050848260048110610aa357634e487b7160e01b600052603260045260246000fd5b6020020151516001602002015183610abc836003611147565b81518110610ada57634e487b7160e01b600052603260045260246000fd5b602002602001018181525050848260048110610b0657634e487b7160e01b600052603260045260246000fd5b602002015160200151600060028110610b2f57634e487b7160e01b600052603260045260246000fd5b602002015183610b40836004611147565b81518110610b5e57634e487b7160e01b600052603260045260246000fd5b602002602001018181525050848260048110610b8a57634e487b7160e01b600052603260045260246000fd5b602002015160200151600160028110610bb357634e487b7160e01b600052603260045260246000fd5b602002015183610bc4836005611147565b81518110610be257634e487b7160e01b600052603260045260246000fd5b60209081029190910101525080610bf881611195565b915050610951565b50610c09610cec565b5115159d9c50505050505050505050505050565b6040518060600160405280610c30610c96565b8152602001610c3d610d0a565b8152602001610c4a610c96565b905290565b6040518060a00160405280610c62610c96565b8152602001610c6f610d0a565b8152602001610c7c610d0a565b8152602001610c89610d0a565b8152602001610c4a610d2a565b604051806040016040528060008152602001600081525090565b60405180606001604052806003906020820280368337509192915050565b60405180608001604052806004906020820280368337509192915050565b60405180602001604052806001906020820280368337509192915050565b6040518060400160405280610d1d610d57565b8152602001610c4a610d57565b6040518060a001604052806005905b610d41610c96565b815260200190600190039081610d395790505090565b60405180604001604052806002906020820280368337509192915050565b600082601f830112610d85578081fd5b6040516040810181811067ffffffffffffffff82111715610da857610da86111e6565b8060405250808385604086011115610dbe578384fd5b835b6002811015610ddf578135835260209283019290910190600101610dc0565b509195945050505050565b600082601f830112610dfa578081fd5b6040516080810181811067ffffffffffffffff82111715610e1d57610e1d6111e6565b604052808360808101861015610e31578384fd5b835b6004811015610ddf578135835260209283019290910190600101610e33565b6000806000806101808587031215610e68578384fd5b610e728686610d75565b9350604086605f870112610e84578384fd5b6002610e97610e9282611126565b6110fc565b8083890160c08a018b811115610eab578889fd5b885b85811015610ed357610ebf8d84610d75565b855260209094019391860191600101610ead565b50829850610ee18c82610d75565b9750505050505050610ef7866101008701610dea565b905092959194509250565b901515815260200190565b60208082526018908201527f76657269666965722d6258302d6774652d7072696d652d710000000000000000604082015260600190565b60208082526017908201527f76657269666965722d61582d6774652d7072696d652d71000000000000000000604082015260600190565b60208082526018908201527f76657269666965722d6259312d6774652d7072696d652d710000000000000000604082015260600190565b60208082526018908201527f76657269666965722d6258312d6774652d7072696d652d710000000000000000604082015260600190565b60208082526017908201527f76657269666965722d63592d6774652d7072696d652d71000000000000000000604082015260600190565b6020808252601f908201527f76657269666965722d6774652d736e61726b2d7363616c61722d6669656c6400604082015260600190565b60208082526018908201527f76657269666965722d6259302d6774652d7072696d652d710000000000000000604082015260600190565b60208082526017908201527f76657269666965722d61592d6774652d7072696d652d71000000000000000000604082015260600190565b60208082526017908201527f76657269666965722d63582d6774652d7072696d652d71000000000000000000604082015260600190565b60405181810167ffffffffffffffff8111828210171561111e5761111e6111e6565b604052919050565b600067ffffffffffffffff821115611140576111406111e6565b5060200290565b6000821982111561115a5761115a6111d0565b500190565b6000816000190483118215151615611179576111796111d0565b500290565b600082821015611190576111906111d0565b500390565b60006000198214156111a9576111a96111d0565b5060010190565b6000826111cb57634e487b7160e01b81526012600452602481fd5b500690565b634e487b7160e01b600052601160045260246000fd5b634e487b7160e01b600052604160045260246000fdfe30644e72e131a029b85045b68181585d97816a916871ca8d3c208c16d87cfd47a264697066735822122011ef9a082b85c9dbb522fd09b33b6b975de073b6fc3523a91751be71422efd9664736f6c63430008000033",
  "immutableReferences": {},
  "source": "// Copyright 2017 Christian Reitwiessner\n// Permission is hereby granted, free of charge, to any person obtaining a copy\n// of this software and associated documentation files (the \"Software\"), to\n// deal in the Software without restriction, including without limitation the\n// rights to use, copy, modify, merge, publish, distribute, sublicense, and/or\n// sell copies of the Software, and to permit persons to whom the Software is\n// furnished to do so, subject to the following conditions:\n// The above copyright notice and this permission notice shall be included in\n// all copies or substantial portions of the Software.\n// THE SOFTWARE IS PROVIDED \"AS IS\", WITHOUT WARRANTY OF ANY KIND, EXPRESS OR\n// IMPLIED, INCLUDING BUT NOT LIMITED TO THE WARRANTIES OF MERCHANTABILITY,\n// FITNESS FOR A PARTICULAR PURPOSE AND NONINFRINGEMENT. IN NO EVENT SHALL THE\n// AUTHORS OR COPYRIGHT HOLDERS BE LIABLE FOR ANY CLAIM, DAMAGES OR OTHER\n// LIABILITY, WHETHER IN AN ACTION OF CONTRACT, TORT OR OTHERWISE, ARISING\n// FROM, OUT OF OR IN CONNECTION WITH THE SOFTWARE OR THE USE OR OTHER DEALINGS\n// IN THE SOFTWARE.\n\n// 2019 OKIMS\n\npragma solidity ^0.8.0;\n\nlibrary Pairing {\n\n    uint256 constant PRIME_Q = 21888242871839275222246405745257275088696311157297823662689037894645226208583;\n\n    struct G1Point {\n        uint256 X;\n        uint256 Y;\n    }\n\n    // Encoding of field elements is: X[0] * z + X[1]\n    struct G2Point {\n        uint256[2] X;\n        uint256[2] Y;\n    }\n\n    /*\n     * @return The negation of p, i.e. p.plus(p.negate()) should be zero. \n     */\n    function negate(G1Point memory p) internal pure returns (G1Point memory) {\n\n        // The prime q in the base field F_q for G1\n        if (p.X == 0 && p.Y == 0) {\n            return G1Point(0, 0);\n        } else {\n            return G1Point(p.X, PRIME_Q - (p.Y % PRIME_Q));\n        }\n    }\n\n    /*\n     * @return The sum of two points of G1\n     */\n    function plus(\n        G1Point memory p1,\n        G1Point memory p2\n    ) internal view returns (G1Point memory r) {\n\n        uint256[4] memory input;\n        input[0] = p1.X;\n        input[1] = p1.Y;\n        input[2] = p2.X;\n        input[3] = p2.Y;\n        bool success;\n\n        // solium-disable-next-line security/no-inline-assembly\n        // assembly {\n        //     success := staticcall(sub(gas, 2000), 6, input, 0xc0, r, 0x60)\n        //     // Use \"invalid\" to make gas estimation work\n        //     switch success case 0 { invalid() }\n        // }\n\n        // require(success,\"pairing-add-failed\");\n    }\n\n    /*\n     * @return The product of a point on G1 and a scalar, i.e.\n     *         p == p.scalar_mul(1) and p.plus(p) == p.scalar_mul(2) for all\n     *         points p.\n     */\n    function scalar_mul(G1Point memory p, uint256 s) internal view returns (G1Point memory r) {\n\n        uint256[3] memory input;\n        input[0] = p.X;\n        input[1] = p.Y;\n        input[2] = s;\n        bool success;\n        // solium-disable-next-line security/no-inline-assembly\n        // assembly {\n        //     success := staticcall(sub(gas, 2000), 7, input, 0x80, r, 0x60)\n        //     // Use \"invalid\" to make gas estimation work\n        //     switch success case 0 { invalid() }\n        // }\n        // require (success,\"pairing-mul-failed\");\n    }\n\n    /* @return The result of computing the pairing check\n     *         e(p1[0], p2[0]) *  .... * e(p1[n], p2[n]) == 1\n     *         For example,\n     *         pairing([P1(), P1().negate()], [P2(), P2()]) should return true.\n     */\n    function pairing(\n        G1Point memory a1,\n        G2Point memory a2,\n        G1Point memory b1,\n        G2Point memory b2,\n        G1Point memory c1,\n        G2Point memory c2,\n        G1Point memory d1,\n        G2Point memory d2\n    ) internal view returns (bool) {\n\n        G1Point[4] memory p1 = [a1, b1, c1, d1];\n        G2Point[4] memory p2 = [a2, b2, c2, d2];\n\n        uint256 inputSize = 24;\n        uint256[] memory input = new uint256[](inputSize);\n\n        for (uint256 i = 0; i < 4; i++) {\n            uint256 j = i * 6;\n            input[j + 0] = p1[i].X;\n            input[j + 1] = p1[i].Y;\n            input[j + 2] = p2[i].X[0];\n            input[j + 3] = p2[i].X[1];\n            input[j + 4] = p2[i].Y[0];\n            input[j + 5] = p2[i].Y[1];\n        }\n\n        uint256[1] memory out;\n        bool success;\n\n        // solium-disable-next-line security/no-inline-assembly\n        // assembly {\n        //     success := staticcall(sub(gas, 2000), 8, add(input, 0x20), mul(inputSize, 0x20), out, 0x20)\n        //     // Use \"invalid\" to make gas estimation work\n        //     switch success case 0 { invalid() }\n        // }\n\n        // require(success,\"pairing-opcode-failed\");\n\n        return out[0] != 0;\n    }\n}\n\ncontract Verifier {\n\n    using Pairing for *;\n\n    uint256 constant SNARK_SCALAR_FIELD = 21888242871839275222246405745257275088548364400416034343698204186575808495617;\n    uint256 constant PRIME_Q = 21888242871839275222246405745257275088696311157297823662689037894645226208583;\n\n    struct VerifyingKey {\n        Pairing.G1Point alfa1;\n        Pairing.G2Point beta2;\n        Pairing.G2Point gamma2;\n        Pairing.G2Point delta2;\n        Pairing.G1Point[5] IC;\n    }\n\n    struct Proof {\n        Pairing.G1Point A;\n        Pairing.G2Point B;\n        Pairing.G1Point C;\n    }\n\n    function verifyingKey() internal pure returns (VerifyingKey memory vk) {\n        vk.alfa1 = Pairing.G1Point(uint256(19412864166662840704199897530865176132379551878490098268546775855212807511623), uint256(1659653118858063231936623514142744009632862245288902525823221677276210935161));\n        vk.beta2 = Pairing.G2Point([uint256(21642731927166283717597040076624334182856179384944638206172042877912623746964), uint256(10167148937945084930725321596284210462590725859059519349238552658864205847292)], [uint256(1224040963938177736215304045934094846196618140310043882848453181887293487598), uint256(21818148805990469610055209831928752212083869699635755409679256612234566494214)]);\n        vk.gamma2 = Pairing.G2Point([uint256(7084583264208126476050882701870582484117653569260992588151213710616665494315), uint256(21338791141815158629032141160990160038215366570564838558882493662897305673845)], [uint256(20409386432685531109985133572396335050408469502427908880430269312598850603009), uint256(21694931277671378411802527161940275869759588185961914055258162012593400433477)]);\n        vk.delta2 = Pairing.G2Point([uint256(15974226699330331350608610622797702188540365463638301508490182464179306746479), uint256(10800304862034523735970868610105048512813625407055208260881866244104890739413)], [uint256(3115757193545898321493679843214264410358333980282409841160781532582592563749), uint256(20585865237865669840907249885451244426128970908885747090346049467936130099745)]);\n        vk.IC[0] = Pairing.G1Point(uint256(15132217740731663181077706894312753465210500809816534743630331656993829080728), uint256(110196461348215931979632312103651461241391911014889357659299988542624772231));\n        vk.IC[1] = Pairing.G1Point(uint256(10128725078198782996699361178651605009720713215878609701039758932704577595075), uint256(6404467707897071196443816328081887791672216217394045289711692279719912978002));\n        vk.IC[2] = Pairing.G1Point(uint256(10522674726928807143308489533204590506138344033395366996236503798983177262637), uint256(4729387380831061502587298076566203099165040519549972799644442785786542168149));\n        vk.IC[3] = Pairing.G1Point(uint256(17764548214378097040054627843654571919160111811296549132642271073668911279441), uint256(18047600752595374913303954050610046390396466710244400595444056973195374265781));\n        vk.IC[4] = Pairing.G1Point(uint256(7483741608009854810379599415076882430339556147495509532415486196559753628073), uint256(15133497018284592127224880003457371607602553122563204208188040273053737050972));\n\n    }\n    \n    /*\n     * @returns Whether the proof is valid given the hardcoded verifying key\n     *          above and the public inputs\n     */\n    function verifyProof(\n        uint256[2] memory a,\n        uint256[2][2] memory b,\n        uint256[2] memory c,\n        uint256[4] memory input\n    ) public view returns (bool r) {\n\n        Proof memory proof;\n        proof.A = Pairing.G1Point(a[0], a[1]);\n        proof.B = Pairing.G2Point([b[0][0], b[0][1]], [b[1][0], b[1][1]]);\n        proof.C = Pairing.G1Point(c[0], c[1]);\n\n        VerifyingKey memory vk = verifyingKey();\n\n        // Compute the linear combination vk_x\n        Pairing.G1Point memory vk_x = Pairing.G1Point(0, 0);\n\n        // Make sure that proof.A, B, and C are each less than the prime q\n        require(proof.A.X < PRIME_Q, \"verifier-aX-gte-prime-q\");\n        require(proof.A.Y < PRIME_Q, \"verifier-aY-gte-prime-q\");\n\n        require(proof.B.X[0] < PRIME_Q, \"verifier-bX0-gte-prime-q\");\n        require(proof.B.Y[0] < PRIME_Q, \"verifier-bY0-gte-prime-q\");\n\n        require(proof.B.X[1] < PRIME_Q, \"verifier-bX1-gte-prime-q\");\n        require(proof.B.Y[1] < PRIME_Q, \"verifier-bY1-gte-prime-q\");\n\n        require(proof.C.X < PRIME_Q, \"verifier-cX-gte-prime-q\");\n        require(proof.C.Y < PRIME_Q, \"verifier-cY-gte-prime-q\");\n\n        // Make sure that every input is less than the snark scalar field\n        for (uint256 i = 0; i < input.length; i++) {\n            require(input[i] < SNARK_SCALAR_FIELD,\"verifier-gte-snark-scalar-field\");\n            vk_x = Pairing.plus(vk_x, Pairing.scalar_mul(vk.IC[i + 1], input[i]));\n        }\n\n        vk_x = Pairing.plus(vk_x, vk.IC[0]);\n\n        return Pairing.pairing(\n            Pairing.negate(proof.A),\n            proof.B,\n            vk.alfa1,\n            vk.beta2,\n            vk_x,\n            vk.gamma2,\n            proof.C,\n            vk.delta2\n        );\n    }\n}\n",
  "sourcePath": "/home/aleksandar/ZKUniversity/ZKVoting/contracts/contracts/verifier.sol",
  "compiler": {
    "name": "solc",
    "version": "0.8.0+commit.c7dfd78e.Emscripten.clang"
  },
  "schemaVersion": "3.4.4",
  "updatedAt": "2022-02-05T06:00:32.988Z",
  "devdoc": {
    "kind": "dev",
    "methods": {},
    "version": 1
  },
  "userdoc": {
    "kind": "user",
    "methods": {},
    "version": 1
  }
}