{
  "contractName": "VotingProcess",
  "abi": [
    {
      "inputs": [
        {
          "internalType": "uint256",
          "name": "_id",
          "type": "uint256"
        },
        {
          "internalType": "string",
          "name": "_name",
          "type": "string"
        },
        {
          "internalType": "string",
          "name": "_description",
          "type": "string"
        },
        {
          "internalType": "bytes[]",
          "name": "_proposals",
          "type": "bytes[]"
        }
      ],
      "stateMutability": "nonpayable",
      "type": "constructor"
    },
    {
      "inputs": [],
      "name": "description",
      "outputs": [
        {
          "internalType": "string",
          "name": "",
          "type": "string"
        }
      ],
      "stateMutability": "view",
      "type": "function"
    },
    {
      "inputs": [],
      "name": "id",
      "outputs": [
        {
          "internalType": "uint256",
          "name": "",
          "type": "uint256"
        }
      ],
      "stateMutability": "view",
      "type": "function"
    },
    {
      "inputs": [],
      "name": "name",
      "outputs": [
        {
          "internalType": "string",
          "name": "",
          "type": "string"
        }
      ],
      "stateMutability": "view",
      "type": "function"
    },
    {
      "inputs": [
        {
          "internalType": "uint256",
          "name": "",
          "type": "uint256"
        }
      ],
      "name": "proposals",
      "outputs": [
        {
          "internalType": "bytes",
          "name": "",
          "type": "bytes"
        }
      ],
      "stateMutability": "view",
      "type": "function"
    },
    {
      "inputs": [
        {
          "internalType": "bytes",
          "name": "",
          "type": "bytes"
        }
      ],
      "name": "votesPerProposal",
      "outputs": [
        {
          "internalType": "uint256",
          "name": "",
          "type": "uint256"
        }
      ],
      "stateMutability": "view",
      "type": "function"
    },
    {
      "inputs": [],
      "name": "getProposals",
      "outputs": [
        {
          "internalType": "bytes[]",
          "name": "",
          "type": "bytes[]"
        }
      ],
      "stateMutability": "view",
      "type": "function"
    },
    {
      "inputs": [],
      "name": "getVotesPerProposal",
      "outputs": [
        {
          "components": [
            {
              "internalType": "bytes",
              "name": "proposal",
              "type": "bytes"
            },
            {
              "internalType": "uint256",
              "name": "numberOfVotes",
              "type": "uint256"
            }
          ],
          "internalType": "struct VotingProcess.VoteProposal[]",
          "name": "",
          "type": "tuple[]"
        }
      ],
      "stateMutability": "view",
      "type": "function"
    },
    {
      "inputs": [
        {
          "internalType": "bytes",
          "name": "signal",
          "type": "bytes"
        }
      ],
      "name": "vote",
      "outputs": [],
      "stateMutability": "nonpayable",
      "type": "function"
    }
  ],
  "bytecode": "0x60806040523480156200001157600080fd5b5060405162000cea38038062000cea83398101604081905262000034916200029a565b600084905582516200004e90600190602086019062000085565b5081516200006490600290602085019062000085565b5080516200007a90600390602084019062000114565b505050505062000430565b8280546200009390620003dd565b90600052602060002090601f016020900481019282620000b7576000855562000102565b82601f10620000d257805160ff191683800117855562000102565b8280016001018555821562000102579182015b8281111562000102578251825591602001919060010190620000e5565b506200011092915062000174565b5090565b82805482825590600052602060002090810192821562000166579160200282015b828111156200016657825180516200015591849160209091019062000085565b509160200191906001019062000135565b50620001109291506200018b565b5b8082111562000110576000815560010162000175565b8082111562000110576000620001a28282620001ac565b506001016200018b565b508054620001ba90620003dd565b6000825580601f10620001ce5750620001ee565b601f016020900490600052602060002090810190620001ee919062000174565b50565b60006001600160401b038311156200020d576200020d6200041a565b602062000223601f8501601f19168201620003b1565b91508382528484840111156200023857600080fd5b60005b8481101562000256578381015183820183015281016200023b565b84811115620002685760008286850101525b50509392505050565b600082601f83011262000282578081fd5b6200029383835160208501620001f1565b9392505050565b60008060008060808587031215620002b0578384fd5b8451602080870151919550906001600160401b0380821115620002d1578586fd5b620002df89838a0162000271565b9550604091508188015181811115620002f6578586fd5b620003048a828b0162000271565b95505060608801518181111562000319578485fd5b8801601f81018a136200032a578485fd5b8051828111156200033f576200033f6200041a565b6200034e8586830201620003b1565b8181528581019350828601875b838110156200039d57815185018e603f8201126200037757898afd5b620003898f8a8301518a8401620001f1565b87525094870194908701906001016200035b565b505080965050505050505092959194509250565b6040518181016001600160401b0381118282101715620003d557620003d56200041a565b604052919050565b600281046001821680620003f257607f821691505b602082108114156200041457634e487b7160e01b600052602260045260246000fd5b50919050565b634e487b7160e01b600052604160045260246000fd5b6108aa80620004406000396000f3fe608060405234801561001057600080fd5b50600436106100885760003560e01c80637284e4161161005b5780637284e416146100f3578063af640d0f146100fb578063bf7f3cfe14610103578063e9dc06141461011857610088565b8063013cf08b1461008d57806302f6df8e146100b657806306fdde03146100d657806362564c48146100de575b600080fd5b6100a061009b3660046105ad565b61012d565b6040516100ad919061077b565b60405180910390f35b6100c96100c436600461050c565b6101d9565b6040516100ad9190610795565b6100a06101f6565b6100e6610203565b6040516100ad91906106a8565b6100a06102dc565b6100c96102e9565b61010b6102ef565b6040516100ad9190610708565b61012b61012636600461050c565b6104bb565b005b6003818154811061013d57600080fd5b906000526020600020016000915090508054610158906107f2565b80601f0160208091040260200160405190810160405280929190818152602001828054610184906107f2565b80156101d15780601f106101a6576101008083540402835291602001916101d1565b820191906000526020600020905b8154815290600101906020018083116101b457829003601f168201915b505050505081565b805160208183018101805160048252928201919093012091525481565b60018054610158906107f2565b60606003805480602002602001604051908101604052809291908181526020016000905b828210156102d3578382906000526020600020018054610246906107f2565b80601f0160208091040260200160405190810160405280929190818152602001828054610272906107f2565b80156102bf5780601f10610294576101008083540402835291602001916102bf565b820191906000526020600020905b8154815290600101906020018083116102a257829003601f168201915b505050505081526020019060010190610227565b50505050905090565b60028054610158906107f2565b60005481565b606060008060038054905067ffffffffffffffff81111561032057634e487b7160e01b600052604160045260246000fd5b60405190808252806020026020018201604052801561035957816020015b6103466104f2565b81526020019060019003908161033e5790505b5090505b6003548210156104b55760405180604001604052806003848154811061039357634e487b7160e01b600052603260045260246000fd5b9060005260206000200180546103a8906107f2565b80601f01602080910402602001604051908101604052809291908181526020018280546103d4906107f2565b80156104215780601f106103f657610100808354040283529160200191610421565b820191906000526020600020905b81548152906001019060200180831161040457829003601f168201915b5050505050815260200160046003858154811061044e57634e487b7160e01b600052603260045260246000fd5b90600052602060002001604051610465919061060d565b90815260200160405180910390205481525081838151811061049757634e487b7160e01b600052603260045260246000fd5b602002602001018190525081806104ad9061082d565b92505061035d565b91505090565b60016004826040516104cd91906105f1565b908152602001604051809103902060008282546104ea91906107aa565b909155505050565b604051806040016040528060608152602001600081525090565b6000602080838503121561051e578182fd5b823567ffffffffffffffff80821115610535578384fd5b818501915085601f830112610548578384fd5b81358181111561055a5761055a61085e565b604051601f8201601f191681018501838111828210171561057d5761057d61085e565b6040528181528382018501881015610593578586fd5b818585018683013790810190930193909352509392505050565b6000602082840312156105be578081fd5b5035919050565b600081518084526105dd8160208601602086016107c2565b601f01601f19169290920160200192915050565b600082516106038184602087016107c2565b9190910192915050565b815460009081906002810460018083168061062957607f831692505b602080841082141561064957634e487b7160e01b87526022600452602487fd5b81801561065d576001811461066e5761069a565b60ff1986168952848901965061069a565b6106778a61079e565b885b868110156106925781548b820152908501908301610679565b505084890196505b509498975050505050505050565b6000602080830181845280855180835260408601915060408482028701019250838701855b828110156106fb57603f198886030184526106e98583516105c5565b945092850192908501906001016106cd565b5092979650505050505050565b60208082528251828201819052600091906040908185019080840286018301878501865b8381101561076d57888303603f1901855281518051878552610750888601826105c5565b91890151948901949094529487019492509086019060010161072c565b509098975050505050505050565b60006020825261078e60208301846105c5565b9392505050565b90815260200190565b60009081526020902090565b600082198211156107bd576107bd610848565b500190565b60005b838110156107dd5781810151838201526020016107c5565b838111156107ec576000848401525b50505050565b60028104600182168061080657607f821691505b6020821081141561082757634e487b7160e01b600052602260045260246000fd5b50919050565b600060001982141561084157610841610848565b5060010190565b634e487b7160e01b600052601160045260246000fd5b634e487b7160e01b600052604160045260246000fdfea2646970667358221220c54721ea59b407cd5cf60c8da32d8885fc78cf24f6e6f95e035c75df66a3859464736f6c63430008000033",
  "immutableReferences": {},
  "source": "//SPDX-License-Identifier: Unlicense\npragma solidity ^0.8.0;\n// pragma experimental ABIEncoderV2;\n\nimport { Semaphore } from './Semaphore.sol';\n\ncontract VotingProcess{\n    uint public id;\n    string public name;\n    string public description;\n    bytes[] public proposals;\n\n    mapping (bytes => uint256) public votesPerProposal;\n\n    bytes winningProposal;\n\n    struct VoteProposal {\n        bytes proposal;\n        uint256 numberOfVotes;\n    }\n\n    function getProposals() view public returns (bytes[] memory){\n        return proposals;\n    }\n\n    function getVotesPerProposal() view public returns (VoteProposal[] memory){\n        uint256 i = 0;\n        VoteProposal[] memory returnVotes = new VoteProposal[](proposals.length);\n\n        for(i; i < proposals.length; i++){\n            returnVotes[i] = VoteProposal({\n                proposal: proposals[i],\n                numberOfVotes: votesPerProposal[proposals[i]]\n            });\n        }\n        return returnVotes;\n    }\n\n    function vote(bytes memory signal) public {\n        votesPerProposal[signal] += 1;\n    }\n\n    constructor(\n        uint _id,\n        string memory _name,\n        string memory _description,\n        bytes[] memory _proposals\n    ) public{\n        id = _id;\n        name = _name;\n        description = _description;\n        proposals = _proposals;\n    }\n}",
  "sourcePath": "/home/aleksandar/ZKUniversity/ZKVoting/contracts/contracts/VotingProcess.sol",
  "compiler": {
    "name": "solc",
    "version": "0.8.0+commit.c7dfd78e.Emscripten.clang"
  },
  "schemaVersion": "3.4.4",
  "updatedAt": "2022-02-03T16:30:16.969Z",
  "devdoc": {
    "kind": "dev",
    "methods": {},
    "version": 1
  },
  "userdoc": {
    "kind": "user",
    "methods": {},
    "version": 1
  }
}