{
  "contractName": "VotingProcess",
  "abi": [
    {
      "inputs": [
        {
          "internalType": "uint256",
          "name": "_id",
          "type": "uint256"
        },
        {
          "internalType": "string",
          "name": "_name",
          "type": "string"
        },
        {
          "internalType": "string",
          "name": "_description",
          "type": "string"
        },
        {
          "internalType": "bytes[]",
          "name": "_proposals",
          "type": "bytes[]"
        }
      ],
      "stateMutability": "nonpayable",
      "type": "constructor"
    },
    {
      "inputs": [],
      "name": "description",
      "outputs": [
        {
          "internalType": "string",
          "name": "",
          "type": "string"
        }
      ],
      "stateMutability": "view",
      "type": "function"
    },
    {
      "inputs": [],
      "name": "id",
      "outputs": [
        {
          "internalType": "uint256",
          "name": "",
          "type": "uint256"
        }
      ],
      "stateMutability": "view",
      "type": "function"
    },
    {
      "inputs": [],
      "name": "name",
      "outputs": [
        {
          "internalType": "string",
          "name": "",
          "type": "string"
        }
      ],
      "stateMutability": "view",
      "type": "function"
    },
    {
      "inputs": [
        {
          "internalType": "uint256",
          "name": "",
          "type": "uint256"
        }
      ],
      "name": "proposals",
      "outputs": [
        {
          "internalType": "bytes",
          "name": "",
          "type": "bytes"
        }
      ],
      "stateMutability": "view",
      "type": "function"
    },
    {
      "inputs": [],
      "name": "getProposals",
      "outputs": [
        {
          "internalType": "bytes[]",
          "name": "",
          "type": "bytes[]"
        }
      ],
      "stateMutability": "view",
      "type": "function"
    }
  ],
  "bytecode": "0x60806040523480156200001157600080fd5b50604051620007fb380380620007fb83398101604081905262000034916200029a565b600084905582516200004e90600190602086019062000085565b5081516200006490600290602085019062000085565b5080516200007a90600390602084019062000114565b505050505062000430565b8280546200009390620003dd565b90600052602060002090601f016020900481019282620000b7576000855562000102565b82601f10620000d257805160ff191683800117855562000102565b8280016001018555821562000102579182015b8281111562000102578251825591602001919060010190620000e5565b506200011092915062000174565b5090565b82805482825590600052602060002090810192821562000166579160200282015b828111156200016657825180516200015591849160209091019062000085565b509160200191906001019062000135565b50620001109291506200018b565b5b8082111562000110576000815560010162000175565b8082111562000110576000620001a28282620001ac565b506001016200018b565b508054620001ba90620003dd565b6000825580601f10620001ce5750620001ee565b601f016020900490600052602060002090810190620001ee919062000174565b50565b60006001600160401b038311156200020d576200020d6200041a565b602062000223601f8501601f19168201620003b1565b91508382528484840111156200023857600080fd5b60005b8481101562000256578381015183820183015281016200023b565b84811115620002685760008286850101525b50509392505050565b600082601f83011262000282578081fd5b6200029383835160208501620001f1565b9392505050565b60008060008060808587031215620002b0578384fd5b8451602080870151919550906001600160401b0380821115620002d1578586fd5b620002df89838a0162000271565b9550604091508188015181811115620002f6578586fd5b620003048a828b0162000271565b95505060608801518181111562000319578485fd5b8801601f81018a136200032a578485fd5b8051828111156200033f576200033f6200041a565b6200034e8586830201620003b1565b8181528581019350828601875b838110156200039d57815185018e603f8201126200037757898afd5b620003898f8a8301518a8401620001f1565b87525094870194908701906001016200035b565b505080965050505050505092959194509250565b6040518181016001600160401b0381118282101715620003d557620003d56200041a565b604052919050565b600281046001821680620003f257607f821691505b602082108114156200041457634e487b7160e01b600052602260045260246000fd5b50919050565b634e487b7160e01b600052604160045260246000fd5b6103bb80620004406000396000f3fe608060405234801561001057600080fd5b50600436106100575760003560e01c8063013cf08b1461005c57806306fdde031461008557806362564c481461008d5780637284e416146100a2578063af640d0f146100aa575b600080fd5b61006f61006a366004610264565b6100bf565b60405161007c9190610327565b60405180910390f35b61006f61016b565b610095610178565b60405161007c91906102c7565b61006f610251565b6100b261025e565b60405161007c9190610341565b600381815481106100cf57600080fd5b9060005260206000200160009150905080546100ea9061034a565b80601f01602080910402602001604051908101604052809291908181526020018280546101169061034a565b80156101635780601f1061013857610100808354040283529160200191610163565b820191906000526020600020905b81548152906001019060200180831161014657829003601f168201915b505050505081565b600180546100ea9061034a565b60606003805480602002602001604051908101604052809291908181526020016000905b828210156102485783829060005260206000200180546101bb9061034a565b80601f01602080910402602001604051908101604052809291908181526020018280546101e79061034a565b80156102345780601f1061020957610100808354040283529160200191610234565b820191906000526020600020905b81548152906001019060200180831161021757829003601f168201915b50505050508152602001906001019061019c565b50505050905090565b600280546100ea9061034a565b60005481565b600060208284031215610275578081fd5b5035919050565b60008151808452815b818110156102a157602081850181015186830182015201610285565b818111156102b25782602083870101525b50601f01601f19169290920160200192915050565b6000602080830181845280855180835260408601915060408482028701019250838701855b8281101561031a57603f1988860301845261030885835161027c565b945092850192908501906001016102ec565b5092979650505050505050565b60006020825261033a602083018461027c565b9392505050565b90815260200190565b60028104600182168061035e57607f821691505b6020821081141561037f57634e487b7160e01b600052602260045260246000fd5b5091905056fea2646970667358221220f159a1f8eea88e64996c3f3eaa31303d3cd47999f1215a238426a028ce32bf9f64736f6c63430008000033",
  "immutableReferences": {},
  "source": "//SPDX-License-Identifier: Unlicense\npragma solidity ^0.8.0;\n\nimport { Semaphore } from './Semaphore.sol';\n\ncontract VotingProcess{\n    uint public id;\n    string public name;\n    string public description;\n    bytes[] public proposals;\n\n    mapping (bytes => uint) votesPerProposal;\n    bytes winningProposal;\n\n    function getProposals() view public returns (bytes[] memory){\n        return proposals;\n    }\n\n    constructor(\n        uint _id,\n        string memory _name,\n        string memory _description,\n        bytes[] memory _proposals\n    ){\n        id = _id;\n        name = _name;\n        description = _description;\n        proposals = _proposals;\n    }\n}",
  "sourcePath": "/home/aleksandar/ZKUniversity/ZKVoting/contracts/contracts/VotingProcess.sol",
  "compiler": {
    "name": "solc",
    "version": "0.8.0+commit.c7dfd78e.Emscripten.clang"
  },
  "schemaVersion": "3.4.4",
  "updatedAt": "2022-01-30T15:37:15.985Z",
  "devdoc": {
    "kind": "dev",
    "methods": {},
    "version": 1
  },
  "userdoc": {
    "kind": "user",
    "methods": {},
    "version": 1
  }
}