{
  "contractName": "VotingProcessV1",
  "abi": [
    {
      "inputs": [
        {
          "internalType": "uint256",
          "name": "_id",
          "type": "uint256"
        },
        {
          "internalType": "string",
          "name": "_name",
          "type": "string"
        },
        {
          "internalType": "string",
          "name": "_description",
          "type": "string"
        },
        {
          "internalType": "string[]",
          "name": "_proposals",
          "type": "string[]"
        },
        {
          "internalType": "contract Semaphore",
          "name": "_semaphore",
          "type": "address"
        }
      ],
      "stateMutability": "nonpayable",
      "type": "constructor"
    },
    {
      "anonymous": false,
      "inputs": [
        {
          "indexed": true,
          "internalType": "uint256",
          "name": "signalIndex",
          "type": "uint256"
        }
      ],
      "name": "SignalBroadcastByClient",
      "type": "event"
    },
    {
      "inputs": [
        {
          "internalType": "uint232",
          "name": "_externalNullifier",
          "type": "uint232"
        }
      ],
      "name": "addExternalNullifier",
      "outputs": [],
      "stateMutability": "nonpayable",
      "type": "function"
    },
    {
      "inputs": [
        {
          "internalType": "bytes",
          "name": "_signal",
          "type": "bytes"
        },
        {
          "internalType": "uint256[8]",
          "name": "_proof",
          "type": "uint256[8]"
        },
        {
          "internalType": "uint256",
          "name": "_root",
          "type": "uint256"
        },
        {
          "internalType": "uint256",
          "name": "_nullifiersHash",
          "type": "uint256"
        },
        {
          "internalType": "uint232",
          "name": "_externalNullifier",
          "type": "uint232"
        }
      ],
      "name": "broadcastSignal",
      "outputs": [],
      "stateMutability": "nonpayable",
      "type": "function"
    },
    {
      "inputs": [],
      "name": "description",
      "outputs": [
        {
          "internalType": "string",
          "name": "",
          "type": "string"
        }
      ],
      "stateMutability": "view",
      "type": "function"
    },
    {
      "inputs": [
        {
          "internalType": "uint256",
          "name": "_index",
          "type": "uint256"
        }
      ],
      "name": "getExternalNullifierBySignalIndex",
      "outputs": [
        {
          "internalType": "uint256",
          "name": "",
          "type": "uint256"
        }
      ],
      "stateMutability": "view",
      "type": "function"
    },
    {
      "inputs": [
        {
          "internalType": "uint256",
          "name": "_index",
          "type": "uint256"
        }
      ],
      "name": "getIdentityCommitment",
      "outputs": [
        {
          "internalType": "uint256",
          "name": "",
          "type": "uint256"
        }
      ],
      "stateMutability": "view",
      "type": "function"
    },
    {
      "inputs": [],
      "name": "getIdentityCommitments",
      "outputs": [
        {
          "internalType": "uint256[]",
          "name": "",
          "type": "uint256[]"
        }
      ],
      "stateMutability": "view",
      "type": "function"
    },
    {
      "inputs": [],
      "name": "getNextSignalIndex",
      "outputs": [
        {
          "internalType": "uint256",
          "name": "",
          "type": "uint256"
        }
      ],
      "stateMutability": "view",
      "type": "function"
    },
    {
      "inputs": [
        {
          "internalType": "uint256",
          "name": "_index",
          "type": "uint256"
        }
      ],
      "name": "getSignalBySignalIndex",
      "outputs": [
        {
          "internalType": "bytes",
          "name": "",
          "type": "bytes"
        }
      ],
      "stateMutability": "view",
      "type": "function"
    },
    {
      "inputs": [],
      "name": "id",
      "outputs": [
        {
          "internalType": "uint256",
          "name": "",
          "type": "uint256"
        }
      ],
      "stateMutability": "view",
      "type": "function"
    },
    {
      "inputs": [
        {
          "internalType": "uint256",
          "name": "",
          "type": "uint256"
        }
      ],
      "name": "identityCommitments",
      "outputs": [
        {
          "internalType": "uint256",
          "name": "",
          "type": "uint256"
        }
      ],
      "stateMutability": "view",
      "type": "function"
    },
    {
      "inputs": [
        {
          "internalType": "uint256",
          "name": "_leaf",
          "type": "uint256"
        }
      ],
      "name": "insertIdentityAsClient",
      "outputs": [],
      "stateMutability": "nonpayable",
      "type": "function"
    },
    {
      "inputs": [],
      "name": "name",
      "outputs": [
        {
          "internalType": "string",
          "name": "",
          "type": "string"
        }
      ],
      "stateMutability": "view",
      "type": "function"
    },
    {
      "inputs": [],
      "name": "nextSignalIndex",
      "outputs": [
        {
          "internalType": "uint256",
          "name": "",
          "type": "uint256"
        }
      ],
      "stateMutability": "view",
      "type": "function"
    },
    {
      "inputs": [
        {
          "internalType": "uint256",
          "name": "",
          "type": "uint256"
        }
      ],
      "name": "proposals",
      "outputs": [
        {
          "internalType": "string",
          "name": "",
          "type": "string"
        }
      ],
      "stateMutability": "view",
      "type": "function"
    },
    {
      "inputs": [],
      "name": "semaphore",
      "outputs": [
        {
          "internalType": "contract Semaphore",
          "name": "",
          "type": "address"
        }
      ],
      "stateMutability": "view",
      "type": "function"
    },
    {
      "inputs": [
        {
          "internalType": "uint256",
          "name": "",
          "type": "uint256"
        }
      ],
      "name": "signalIndexToExternalNullifier",
      "outputs": [
        {
          "internalType": "uint256",
          "name": "",
          "type": "uint256"
        }
      ],
      "stateMutability": "view",
      "type": "function"
    },
    {
      "inputs": [
        {
          "internalType": "uint256",
          "name": "",
          "type": "uint256"
        }
      ],
      "name": "signalIndexToSignal",
      "outputs": [
        {
          "internalType": "bytes",
          "name": "",
          "type": "bytes"
        }
      ],
      "stateMutability": "view",
      "type": "function"
    },
    {
      "inputs": [],
      "name": "getProposals",
      "outputs": [
        {
          "internalType": "string[]",
          "name": "",
          "type": "string[]"
        }
      ],
      "stateMutability": "view",
      "type": "function"
    },
    {
      "inputs": [
        {
          "internalType": "string",
          "name": "signal",
          "type": "string"
        },
        {
          "internalType": "bytes",
          "name": "_signal",
          "type": "bytes"
        },
        {
          "internalType": "uint256[8]",
          "name": "_proof",
          "type": "uint256[8]"
        },
        {
          "internalType": "uint256",
          "name": "_root",
          "type": "uint256"
        },
        {
          "internalType": "uint256",
          "name": "_nullifiersHash",
          "type": "uint256"
        },
        {
          "internalType": "uint232",
          "name": "_externalNullifier",
          "type": "uint232"
        }
      ],
      "name": "vote",
      "outputs": [],
      "stateMutability": "nonpayable",
      "type": "function"
    }
  ],
  "bytecode": "0x608060405260006003553480156200001657600080fd5b50604051620013a7380380620013a78339810160408190526200003991620002c0565b600480546001600160a01b0319166001600160a01b038316179055600585905583516200006e906006906020870190620000a6565b50825162000084906007906020860190620000a6565b5081516200009a90600890602085019062000135565b50505050505062000456565b828054620000b49062000403565b90600052602060002090601f016020900481019282620000d8576000855562000123565b82601f10620000f357805160ff191683800117855562000123565b8280016001018555821562000123579182015b828111156200012357825182559160200191906001019062000106565b506200013192915062000195565b5090565b82805482825590600052602060002090810192821562000187579160200282015b8281111562000187578251805162000176918491602090910190620000a6565b509160200191906001019062000156565b5062000131929150620001ac565b5b8082111562000131576000815560010162000196565b8082111562000131576000620001c38282620001cd565b50600101620001ac565b508054620001db9062000403565b6000825580601f10620001ef57506200020f565b601f0160209004906000526020600020908101906200020f919062000195565b50565b80516001600160a01b03811681146200022a57600080fd5b919050565b600082601f83011262000240578081fd5b81516001600160401b038111156200025c576200025c62000440565b602062000272601f8301601f19168201620003d7565b828152858284870101111562000286578384fd5b835b83811015620002a557858101830151828201840152820162000288565b83811115620002b657848385840101525b5095945050505050565b600080600080600060a08688031215620002d8578081fd5b8551602080880151919650906001600160401b0380821115620002f9578384fd5b620003078a838b016200022f565b965060408901519150808211156200031d578384fd5b6200032b8a838b016200022f565b9550606089015191508082111562000341578384fd5b818901915089601f83011262000355578384fd5b8151818111156200036a576200036a62000440565b620003798485830201620003d7565b8181528481019250838501865b83811015620003b357620003a08e8884518901016200022f565b8552938601939086019060010162000386565b50508096505050505050620003cb6080870162000212565b90509295509295909350565b6040518181016001600160401b0381118282101715620003fb57620003fb62000440565b604052919050565b6002810460018216806200041857607f821691505b602082108114156200043a57634e487b7160e01b600052602260045260246000fd5b50919050565b634e487b7160e01b600052604160045260246000fd5b610f4180620004666000396000f3fe608060405234801561001057600080fd5b50600436106101215760003560e01c80637284e416116100ad578063911ca41e11610071578063911ca41e1461022f578063af640d0f14610242578063b30b483f1461024a578063bde106121461025d578063f9cdb5cd1461027057610121565b80637284e416146101e4578063740afb77146101ec5780637b5d2534146101ff5780638d2d593b146102145780638fd0de571461021c57610121565b806327acf71b116100f457806327acf71b1461017f578063405667901461019257806349b0b910146101a7578063539f38b2146101bc57806362564c48146101cf57610121565b8063013cf08b1461012657806306fdde031461014f5780630e57596f1461015757806317bccfab1461016c575b600080fd5b610139610134366004610c4d565b610283565b6040516101469190610d69565b60405180910390f35b61013961032f565b61016a610165366004610b0f565b61033c565b005b61016a61017a366004610b84565b61042b565b61013961018d366004610c4d565b6105a4565b61019a6105bd565b6040516101469190610d25565b6101af610615565b6040516101469190610e5a565b61016a6101ca366004610c33565b61061b565b6101d761067f565b6040516101469190610cc5565b610139610758565b6101af6101fa366004610c4d565b610765565b61020761077a565b6040516101469190610de5565b6101af610789565b6101af61022a366004610c4d565b61078f565b61013961023d366004610c4d565b6107b0565b6101af610852565b6101af610258366004610c4d565b610858565b61016a61026b366004610c4d565b61088c565b6101af61027e366004610c4d565b610940565b6008818154811061029357600080fd5b9060005260206000200160009150905080546102ae90610e93565b80601f01602080910402602001604051908101604052809291908181526020018280546102da90610e93565b80156103275780601f106102fc57610100808354040283529160200191610327565b820191906000526020600020905b81548152906001019060200180831161030a57829003601f168201915b505050505081565b600680546102ae90610e93565b6003546000818152600160209081526040909120875161035e92890190610952565b506003805460009081526002602052604081206001600160e81b03851690558154919061038a83610ece565b909155505060048054604051630e57596f60e01b81526001600160a01b0390911691630e57596f916103c6918a918a918a918a918a9101610d7c565b600060405180830381600087803b1580156103e057600080fd5b505af11580156103f4573d6000803e3d6000fd5b50506040518392507faa676fd106f1023de6c9eafff9af5bc8e299b3493d3aa816a3278a15d055657b9150600090a2505050505050565b6000805b6008548110156105625760006008828154811061045c57634e487b7160e01b600052603260045260246000fd5b90600052602060002001805461047190610e93565b80601f016020809104026020016040519081016040528092919081815260200182805461049d90610e93565b80156104ea5780601f106104bf576101008083540402835291602001916104ea565b820191906000526020600020905b8154815290600101906020018083116104cd57829003601f168201915b50505050509050806040516020016105029190610ca9565b60405160208183030381529060405280519060200120896040516020016105299190610ca9565b60405160208183030381529060405280519060200120141561054f576001925050610562565b508061055a81610ece565b91505061042f565b5060018115151461058e5760405162461bcd60e51b815260040161058590610df9565b60405180910390fd5b61059b868686868661033c565b50505050505050565b600160205260009081526040902080546102ae90610e93565b6060600080548060200260200160405190810160405280929190818152602001828054801561060b57602002820191906000526020600020905b8154815260200190600101908083116105f7575b5050505050905090565b60035490565b600480546040516329cf9c5960e11b81526001600160a01b039091169163539f38b29161064a91859101610e46565b600060405180830381600087803b15801561066457600080fd5b505af1158015610678573d6000803e3d6000fd5b5050505050565b60606008805480602002602001604051908101604052809291908181526020016000905b8282101561074f5783829060005260206000200180546106c290610e93565b80601f01602080910402602001604051908101604052809291908181526020018280546106ee90610e93565b801561073b5780601f106107105761010080835404028352916020019161073b565b820191906000526020600020905b81548152906001019060200180831161071e57829003601f168201915b5050505050815260200190600101906106a3565b50505050905090565b600780546102ae90610e93565b6000818152600260205260409020545b919050565b6004546001600160a01b031681565b60035481565b6000818154811061079f57600080fd5b600091825260209091200154905081565b60008181526001602052604090208054606091906107cd90610e93565b80601f01602080910402602001604051908101604052809291908181526020018280546107f990610e93565b80156108465780601f1061081b57610100808354040283529160200191610846565b820191906000526020600020905b81548152906001019060200180831161082957829003601f168201915b50505050509050919050565b60055481565b600080828154811061087a57634e487b7160e01b600052603260045260246000fd5b90600052602060002001549050919050565b600480546040516336c077e560e11b81526001600160a01b0390911691636d80efca916108bb91859101610e5a565b602060405180830381600087803b1580156108d557600080fd5b505af11580156108e9573d6000803e3d6000fd5b505050506040513d601f19601f8201168201806040525081019061090d9190610c65565b50600080546001810182559080527f290decd9548b62a8d60345a988386fc84ba6bc95484008f6362f93160ef3e5630155565b60026020526000908152604090205481565b82805461095e90610e93565b90600052602060002090601f01602090048101928261098057600085556109c6565b82601f1061099957805160ff19168380011785556109c6565b828001600101855582156109c6579182015b828111156109c65782518255916020019190600101906109ab565b506109d29291506109d6565b5090565b5b808211156109d257600081556001016109d7565b600067ffffffffffffffff80841115610a0657610a06610ef5565b604051601f8501601f191681016020018281118282101715610a2a57610a2a610ef5565b604052848152915081838501861015610a4257600080fd5b8484602083013760006020868301015250509392505050565b600082601f830112610a6b578081fd5b60405161010080820182811067ffffffffffffffff82111715610a9057610a90610ef5565b6040528184828101871015610aa3578485fd5b8492505b6008831015610ac757803582526001929092019160209182019101610aa7565b509195945050505050565b600082601f830112610ae2578081fd5b610af1838335602085016109eb565b9392505050565b80356001600160e81b038116811461077557600080fd5b60008060008060006101808688031215610b27578081fd5b853567ffffffffffffffff811115610b3d578182fd5b610b4988828901610ad2565b955050610b598760208801610a5b565b935061012086013592506101408601359150610b786101608701610af8565b90509295509295909350565b6000806000806000806101a08789031215610b9d578081fd5b863567ffffffffffffffff80821115610bb4578283fd5b818901915089601f830112610bc7578283fd5b610bd68a8335602085016109eb565b97506020890135915080821115610beb578283fd5b50610bf889828a01610ad2565b955050610c088860408901610a5b565b935061014087013592506101608701359150610c276101808801610af8565b90509295509295509295565b600060208284031215610c44578081fd5b610af182610af8565b600060208284031215610c5e578081fd5b5035919050565b600060208284031215610c76578081fd5b5051919050565b60008151808452610c95816020860160208601610e63565b601f01601f19169290920160200192915050565b60008251610cbb818460208701610e63565b9190910192915050565b6000602080830181845280855180835260408601915060408482028701019250838701855b82811015610d1857603f19888603018452610d06858351610c7d565b94509285019290850190600101610cea565b5092979650505050505050565b6020808252825182820181905260009190848201906040850190845b81811015610d5d57835183529284019291840191600101610d41565b50909695505050505050565b600060208252610af16020830184610c7d565b6000610180808352610d9081840189610c7d565b91505060208083018760005b6008811015610db957815183529183019190830190600101610d9c565b505050506101208201949094526101408101929092526001600160e81b03166101609091015292915050565b6001600160a01b0391909116815260200190565b6020808252602d908201527f596f75206e65656420746f2063686f6f7365206f6e65206f662074686520766f60408201526c74696e67206f7074696f6e732160981b606082015260800190565b6001600160e81b0391909116815260200190565b90815260200190565b60005b83811015610e7e578181015183820152602001610e66565b83811115610e8d576000848401525b50505050565b600281046001821680610ea757607f821691505b60208210811415610ec857634e487b7160e01b600052602260045260246000fd5b50919050565b6000600019821415610eee57634e487b7160e01b81526011600452602481fd5b5060010190565b634e487b7160e01b600052604160045260246000fdfea2646970667358221220b83ab14d965f05ba28f10b05865bcb1fa655b39e732da581fa4615ff051167bc64736f6c63430008000033",
  "immutableReferences": {},
  "source": "//SPDX-License-Identifier: Unlicense\npragma solidity ^0.8.0;\n\nimport { SemaphoreClient } from './SemaphoreClient.sol';\nimport { Semaphore } from './Semaphore.sol';\n\n\ncontract VotingProcessV1 is SemaphoreClient {\n    uint public id;\n    string public name;\n    string public description;\n    string[] public proposals;\n\n    mapping (string => uint) votesPerProposal;\n    string winningProposal;\n\n    function getProposals() view public returns (string[] memory){\n        return proposals;\n    }\n\n    constructor(\n        uint _id,\n        string memory _name,\n        string memory _description,\n        string[] memory _proposals,\n        Semaphore _semaphore\n    ) SemaphoreClient(_semaphore) {\n        id = _id;\n        name = _name;\n        description = _description;\n        proposals = _proposals;\n    }\n\n    function vote(\n        string memory signal,\n        bytes memory _signal,\n        uint256[8] memory _proof,\n        uint256 _root,\n        uint256 _nullifiersHash,\n        uint232 _externalNullifier\n    ) public {\n        //check if signal matches one of proposals\n        bool exist = false;\n        for(uint i = 0; i < proposals.length; i ++){\n            string memory proposal = proposals[i];\n            if (keccak256(abi.encodePacked((signal))) == keccak256(abi.encodePacked((proposal)))){\n                exist = true;\n                break;\n            }\n        }\n        require(exist == true, \"You need to choose one of the voting options!\");\n\n        //vote\n        broadcastSignal(\n            _signal,\n            _proof,\n            _root,\n            _nullifiersHash,\n            _externalNullifier\n        );\n    }\n\n\n}",
  "sourcePath": "/home/aleksandar/ZKUniversity/ZKVoting/contracts/contracts/VotingProcessV1.sol",
  "compiler": {
    "name": "solc",
    "version": "0.8.0+commit.c7dfd78e.Emscripten.clang"
  },
  "schemaVersion": "3.4.4",
  "updatedAt": "2022-01-30T11:28:58.060Z",
  "devdoc": {
    "kind": "dev",
    "methods": {},
    "version": 1
  },
  "userdoc": {
    "kind": "user",
    "methods": {},
    "version": 1
  }
}