{
  "contractName": "VotingProcess",
  "abi": [
    {
      "inputs": [
        {
          "internalType": "uint256",
          "name": "_id",
          "type": "uint256"
        },
        {
          "internalType": "string",
          "name": "_name",
          "type": "string"
        },
        {
          "internalType": "string",
          "name": "_description",
          "type": "string"
        },
        {
          "internalType": "string[]",
          "name": "_proposals",
          "type": "string[]"
        },
        {
          "internalType": "contract Semaphore",
          "name": "_semaphore",
          "type": "address"
        }
      ],
      "stateMutability": "nonpayable",
      "type": "constructor"
    },
    {
      "anonymous": false,
      "inputs": [
        {
          "indexed": true,
          "internalType": "uint256",
          "name": "signalIndex",
          "type": "uint256"
        }
      ],
      "name": "SignalBroadcastByClient",
      "type": "event"
    },
    {
      "inputs": [
        {
          "internalType": "bytes",
          "name": "_signal",
          "type": "bytes"
        },
        {
          "internalType": "uint256[8]",
          "name": "_proof",
          "type": "uint256[8]"
        },
        {
          "internalType": "uint256",
          "name": "_root",
          "type": "uint256"
        },
        {
          "internalType": "uint256",
          "name": "_nullifiersHash",
          "type": "uint256"
        },
        {
          "internalType": "uint232",
          "name": "_externalNullifier",
          "type": "uint232"
        }
      ],
      "name": "broadcastSignal",
      "outputs": [],
      "stateMutability": "nonpayable",
      "type": "function"
    },
    {
      "inputs": [
        {
          "internalType": "uint256",
          "name": "_index",
          "type": "uint256"
        }
      ],
      "name": "getExternalNullifierBySignalIndex",
      "outputs": [
        {
          "internalType": "uint256",
          "name": "",
          "type": "uint256"
        }
      ],
      "stateMutability": "view",
      "type": "function"
    },
    {
      "inputs": [
        {
          "internalType": "uint256",
          "name": "_index",
          "type": "uint256"
        }
      ],
      "name": "getSignalBySignalIndex",
      "outputs": [
        {
          "internalType": "bytes",
          "name": "",
          "type": "bytes"
        }
      ],
      "stateMutability": "view",
      "type": "function"
    },
    {
      "inputs": [],
      "name": "nextSignalIndex",
      "outputs": [
        {
          "internalType": "uint256",
          "name": "",
          "type": "uint256"
        }
      ],
      "stateMutability": "view",
      "type": "function"
    },
    {
      "inputs": [],
      "name": "semaphore",
      "outputs": [
        {
          "internalType": "contract Semaphore",
          "name": "",
          "type": "address"
        }
      ],
      "stateMutability": "view",
      "type": "function"
    },
    {
      "inputs": [
        {
          "internalType": "uint256",
          "name": "",
          "type": "uint256"
        }
      ],
      "name": "signalIndexToExternalNullifier",
      "outputs": [
        {
          "internalType": "uint256",
          "name": "",
          "type": "uint256"
        }
      ],
      "stateMutability": "view",
      "type": "function"
    },
    {
      "inputs": [
        {
          "internalType": "uint256",
          "name": "",
          "type": "uint256"
        }
      ],
      "name": "signalIndexToSignal",
      "outputs": [
        {
          "internalType": "bytes",
          "name": "",
          "type": "bytes"
        }
      ],
      "stateMutability": "view",
      "type": "function"
    },
    {
      "inputs": [
        {
          "internalType": "string",
          "name": "signal",
          "type": "string"
        },
        {
          "internalType": "bytes",
          "name": "_signal",
          "type": "bytes"
        },
        {
          "internalType": "uint256[8]",
          "name": "_proof",
          "type": "uint256[8]"
        },
        {
          "internalType": "uint256",
          "name": "_root",
          "type": "uint256"
        },
        {
          "internalType": "uint256",
          "name": "_nullifiersHash",
          "type": "uint256"
        },
        {
          "internalType": "uint232",
          "name": "_externalNullifier",
          "type": "uint232"
        }
      ],
      "name": "vote",
      "outputs": [],
      "stateMutability": "nonpayable",
      "type": "function"
    }
  ],
  "bytecode": "0x608060405260006002553480156200001657600080fd5b5060405162000e8b38038062000e8b8339810160408190526200003991620002c0565b600380546001600160a01b0319166001600160a01b038316179055600485905583516200006e906005906020870190620000a6565b50825162000084906006906020860190620000a6565b5081516200009a90600790602085019062000135565b50505050505062000456565b828054620000b49062000403565b90600052602060002090601f016020900481019282620000d8576000855562000123565b82601f10620000f357805160ff191683800117855562000123565b8280016001018555821562000123579182015b828111156200012357825182559160200191906001019062000106565b506200013192915062000195565b5090565b82805482825590600052602060002090810192821562000187579160200282015b8281111562000187578251805162000176918491602090910190620000a6565b509160200191906001019062000156565b5062000131929150620001ac565b5b8082111562000131576000815560010162000196565b8082111562000131576000620001c38282620001cd565b50600101620001ac565b508054620001db9062000403565b6000825580601f10620001ef57506200020f565b601f0160209004906000526020600020908101906200020f919062000195565b50565b80516001600160a01b03811681146200022a57600080fd5b919050565b600082601f83011262000240578081fd5b81516001600160401b038111156200025c576200025c62000440565b602062000272601f8301601f19168201620003d7565b828152858284870101111562000286578384fd5b835b83811015620002a557858101830151828201840152820162000288565b83811115620002b657848385840101525b5095945050505050565b600080600080600060a08688031215620002d8578081fd5b8551602080880151919650906001600160401b0380821115620002f9578384fd5b620003078a838b016200022f565b965060408901519150808211156200031d578384fd5b6200032b8a838b016200022f565b9550606089015191508082111562000341578384fd5b818901915089601f83011262000355578384fd5b8151818111156200036a576200036a62000440565b620003798485830201620003d7565b8181528481019250838501865b83811015620003b357620003a08e8884518901016200022f565b8552938601939086019060010162000386565b50508096505050505050620003cb6080870162000212565b90509295509295909350565b6040518181016001600160401b0381118282101715620003fb57620003fb62000440565b604052919050565b6002810460018216806200041857607f821691505b602082108114156200043a57634e487b7160e01b600052602260045260246000fd5b50919050565b634e487b7160e01b600052604160045260246000fd5b610a2580620004666000396000f3fe608060405234801561001057600080fd5b50600436106100885760003560e01c80637b5d25341161005b5780637b5d2534146100fe5780638d2d593b14610113578063911ca41e1461011b578063f9cdb5cd1461012e57610088565b80630e57596f1461008d57806317bccfab146100a257806327acf71b146100b5578063740afb77146100de575b600080fd5b6100a061009b3660046106dd565b610141565b005b6100a06100b0366004610752565b61022f565b6100c86100c3366004610801565b6103a8565b6040516100d59190610861565b60405180910390f35b6100f16100ec366004610801565b610442565b6040516100d5919061093e565b610106610457565b6040516100d591906108dd565b6100f1610466565b6100c8610129366004610801565b61046c565b6100f161013c366004610801565b61050e565b600254600081815260208181526040909120875161016192890190610520565b506002805460009081526001602052604081206001600160e81b03851690558154919061018d836109b2565b9091555050600354604051630e57596f60e01b81526001600160a01b0390911690630e57596f906101ca9089908990899089908990600401610874565b600060405180830381600087803b1580156101e457600080fd5b505af11580156101f8573d6000803e3d6000fd5b50506040518392507faa676fd106f1023de6c9eafff9af5bc8e299b3493d3aa816a3278a15d055657b9150600090a2505050505050565b6000805b6007548110156103665760006007828154811061026057634e487b7160e01b600052603260045260246000fd5b90600052602060002001805461027590610977565b80601f01602080910402602001604051908101604052809291908181526020018280546102a190610977565b80156102ee5780601f106102c3576101008083540402835291602001916102ee565b820191906000526020600020905b8154815290600101906020018083116102d157829003601f168201915b50505050509050806040516020016103069190610845565b604051602081830303815290604052805190602001208960405160200161032d9190610845565b604051602081830303815290604052805190602001201415610353576001925050610366565b508061035e816109b2565b915050610233565b506001811515146103925760405162461bcd60e51b8152600401610389906108f1565b60405180910390fd5b61039f8686868686610141565b50505050505050565b600060208190529081526040902080546103c190610977565b80601f01602080910402602001604051908101604052809291908181526020018280546103ed90610977565b801561043a5780601f1061040f5761010080835404028352916020019161043a565b820191906000526020600020905b81548152906001019060200180831161041d57829003601f168201915b505050505081565b6000818152600160205260409020545b919050565b6003546001600160a01b031681565b60025481565b600081815260208190526040902080546060919061048990610977565b80601f01602080910402602001604051908101604052809291908181526020018280546104b590610977565b80156105025780601f106104d757610100808354040283529160200191610502565b820191906000526020600020905b8154815290600101906020018083116104e557829003601f168201915b50505050509050919050565b60016020526000908152604090205481565b82805461052c90610977565b90600052602060002090601f01602090048101928261054e5760008555610594565b82601f1061056757805160ff1916838001178555610594565b82800160010185558215610594579182015b82811115610594578251825591602001919060010190610579565b506105a09291506105a4565b5090565b5b808211156105a057600081556001016105a5565b600067ffffffffffffffff808411156105d4576105d46109d9565b604051601f8501601f1916810160200182811182821017156105f8576105f86109d9565b60405284815291508183850186101561061057600080fd5b8484602083013760006020868301015250509392505050565b600082601f830112610639578081fd5b60405161010080820182811067ffffffffffffffff8211171561065e5761065e6109d9565b6040528184828101871015610671578485fd5b8492505b600883101561069557803582526001929092019160209182019101610675565b509195945050505050565b600082601f8301126106b0578081fd5b6106bf838335602085016105b9565b9392505050565b80356001600160e81b038116811461045257600080fd5b600080600080600061018086880312156106f5578081fd5b853567ffffffffffffffff81111561070b578182fd5b610717888289016106a0565b9550506107278760208801610629565b93506101208601359250610140860135915061074661016087016106c6565b90509295509295909350565b6000806000806000806101a0878903121561076b578081fd5b863567ffffffffffffffff80821115610782578283fd5b818901915089601f830112610795578283fd5b6107a48a8335602085016105b9565b975060208901359150808211156107b9578283fd5b506107c689828a016106a0565b9550506107d68860408901610629565b9350610140870135925061016087013591506107f561018088016106c6565b90509295509295509295565b600060208284031215610812578081fd5b5035919050565b60008151808452610831816020860160208601610947565b601f01601f19169290920160200192915050565b60008251610857818460208701610947565b9190910192915050565b6000602082526106bf6020830184610819565b600061018080835261088881840189610819565b91505060208083018760005b60088110156108b157815183529183019190830190600101610894565b505050506101208201949094526101408101929092526001600160e81b03166101609091015292915050565b6001600160a01b0391909116815260200190565b6020808252602d908201527f596f75206e65656420746f2063686f6f7365206f6e65206f662074686520766f60408201526c74696e67206f7074696f6e732160981b606082015260800190565b90815260200190565b60005b8381101561096257818101518382015260200161094a565b83811115610971576000848401525b50505050565b60028104600182168061098b57607f821691505b602082108114156109ac57634e487b7160e01b600052602260045260246000fd5b50919050565b60006000198214156109d257634e487b7160e01b81526011600452602481fd5b5060010190565b634e487b7160e01b600052604160045260246000fdfea2646970667358221220a5861f4257f5e1bea11ff3cf1fd943ad75b1172c244de8a263cace3de820db7564736f6c63430008000033",
  "immutableReferences": {},
  "source": "//SPDX-License-Identifier: Unlicense\npragma solidity ^0.8.0;\n\nimport { SemaphoreClient } from './SemaphoreClient.sol';\nimport { Semaphore } from './Semaphore.sol';\n\n\ncontract VotingProcess is SemaphoreClient {\n    uint id;\n    string name;\n    string description;\n    string[] proposals;\n\n    mapping (string => uint) votesPerProposal;\n    string winningProposal;\n\n    constructor(\n        uint _id,\n        string memory _name,\n        string memory _description,\n        string[] memory _proposals,\n        Semaphore _semaphore\n    ) SemaphoreClient(_semaphore) {\n        id = _id;\n        name = _name;\n        description = _description;\n        proposals = _proposals;\n    }\n\n    function vote(\n        string memory signal,\n        bytes memory _signal,\n        uint256[8] memory _proof,\n        uint256 _root,\n        uint256 _nullifiersHash,\n        uint232 _externalNullifier\n    ) public {\n        //check if signal matches one of proposals\n        bool exist = false;\n        for(uint i = 0; i < proposals.length; i ++){\n            string memory proposal = proposals[i];\n            if (keccak256(abi.encodePacked((signal))) == keccak256(abi.encodePacked((proposal)))){\n                exist = true;\n                break;\n            }\n        }\n        require(exist == true, \"You need to choose one of the voting options!\");\n\n        //vote\n        broadcastSignal(\n            _signal,\n            _proof,\n            _root,\n            _nullifiersHash,\n            _externalNullifier\n        );\n\n\n    }\n\n\n}",
  "sourcePath": "/home/aleksandar/ZKUniversity/ZKVoting/contracts/contracts/VotingProcess.sol",
  "compiler": {
    "name": "solc",
    "version": "0.8.0+commit.c7dfd78e.Emscripten.clang"
  },
  "schemaVersion": "3.4.4",
  "updatedAt": "2022-01-26T17:09:10.955Z",
  "devdoc": {
    "kind": "dev",
    "methods": {},
    "version": 1
  },
  "userdoc": {
    "kind": "user",
    "methods": {},
    "version": 1
  }
}